:020000040020DA
:10200000E8570120ED212000EF3D2000091E1000BF
:10201000ED3D2000FD212000393E200000000000A1
:10202000000000000000000000000000011E100081
:10203000FF21200000000000F13D2000F73D2000BE
:1020400000F002F800F0C2F80AA090E8000C824408
:102050008344AAF10107DA4501D100F0B7F8AFF2E5
:10206000090EBAE80F0013F0010F18BFFB1A43F076
:1020700001031847E4B5000024B600000A444FF0FD
:10208000000C10F8013B13F0070408BF10F8014BD7
:102090001D1108BF10F8015B641E05D010F8016B1C
:1020A000641E01F8016BF9D113F0080F1EBF10F880
:1020B000014BAD1C0C1B09D16D1E58BF01F801CBA3
:1020C000FAD505E014F8016B01F8016B6D1EF9D526
:1020D0009142D6D370470000103A24BF78C878C127
:1020E000FAD8520724BF30C830C144BF04680C601E
:1020F000704700000023002400250026103A28BF66
:1021000078C1FBD8520728BF30C148BF0B60704769
:102110006E2900F02384702900F0B58166290BF048
:10212000D98065290BF0D68067290BF0D38061290F
:102130000BF0D28003681B0A28BF41F08001692997
:1021400000F02681642900F02381752900F02081A8
:102150006F2900F02285782900F08181E92900F0BB
:10216000BD84E42900F0BA84F52900F0B784EF2992
:1021700000F01F85F82900F080810368DB0928BF83
:1021800041F08001632900F02C84732900F0318430
:10219000E32901F0F980F32901F0FE800020704767
:1021A0001FB50AF0EAFF01F027F904000020002122
:1021B0000AF0F8F9401C6060002000210AF0DCF908
:1021C000E06000F043FB1FBD10B510BDDFF80CD080
:1021D000FFF7E6FF07F09CFA01F0C4F9E857012089
:1021E00003B4FFF7F1FF03BC02F0BBF901488047DD
:1021F00001480047093E200075982000FEE7FEE7F1
:1022000058585247010000000554000000202000EB
:10221000002020005EEC924700010000000000005A
:1022200000000000000000000000000000000000AE
:10223000000000000000000000000000000000009E
:102240007CB51D4616460C00009001D02044401E6F
:10225000074B7B442A4669460190304600F097FBC5
:1022600005461CB10020694600F0A4FB28467CBD51
:10227000690700000FB4044910B503AA029800F0E2
:10228000BDFB10BC5DF814FBF42500200FB41CB599
:10229000084B06AA7B4469460090059800F077FB3E
:1022A00004460020694600F085FB20461CBC5DF812
:1022B00014FB00001D0700000FB47CB50C0009AA38
:1022C000009001D02044401E084B7B446946019099
:1022D000089800F05CFB05461CB10020694600F040
:1022E00069FB28467CBC5DF814FB0000F106000089
:1022F00070B5044685690068C10601D5302600E046
:102300002026C00707D070BDD4E901213046904790
:10231000206A401C20626D1EF6D570BD70B5044663
:1023200085690078C00707D170BDD4E9012120205C
:102330009047206A401C20626D1EF6D570BD70B5B6
:102340000C460546012A05D02878800600D5EA69A2
:10235000002302E0012305E05B1C934202D2E05C13
:102360000028F9D1A869E618C01AA861286A18449B
:1023700028622846FFF7BCFF04E0D5E9012114F8E4
:10238000010B9047B442F8D32846FFF7C7FF70BD52
:102390002DE9F0410646002410687529314616A53E
:1023A00010D000F070FA002802DA404213A507E0CE
:1023B00031688A0701D512A502E0490704D511A5A5
:1023C000012401E000F068FA00210A2206F1240746
:1023D00009E0B0FBF2FCB0FBF2F302FB1C00303072
:1023E00078541846491C0028F3D123462A46304623
:1023F000BDE8F04100F059BA000000002D000000D7
:102400002B00000020000000F0B40D4601880905F3
:1024100002D5214C7C4402E01F4C7C440E34002148
:1024200000F1240608E002F00F071209E75D42EA16
:1024300003721B097754491C52EA0307F3D102784F
:102440000023120704D5702D06D009B102231134E0
:102450002246F0BC00F029BA01231034F8E770B529
:1024600004460D462146106800F016FA0246294639
:102470002046BDE870400023C6E7D21D22F00703C6
:10248000D3E90023C0E70368126843F02003036028
:102490000823C3610023B7E704B100002DE9F05F12
:1024A000894604464FF0000ADFF874B1FB44C0F8D7
:1024B00020A02046E1688847002874D0252806D04F
:1024C000D4E901219047206A401C2062F1E70026F0
:1024D0005F462046E16888472028054607DB312D06
:1024E00005D2781910F8200C08B10643F1E7B007BF
:1024F00001D526F00406C4F81CA00027C4F818A0D3
:102500002A2D09D0284602F025F838B304EB8708B5
:10251000303DC8F8185019E059F8041B204604EB68
:1025200087029161E1688847012F054618D1E0696B
:10253000002820DA26F020061DE0D8F8180000EB6D
:10254000800005EB40003038C8F818002046E168EC
:102550008847054601F0FEFF0028EED1012F0AD082
:102560002E2D08D12046E16888477F1C0546022FA2
:1025700046F02006C4DBA069002803DA404246F09A
:102580000106A061F00701D026F010066C2D0BD0DB
:10259000682D09D04C2D39D06A2D35D0742D35D009
:1025A0007A2D33D016E038E0E1682F462046884780
:1025B000B842054609D16C2F26D04FF48060E168FF
:1025C000064320468847054604E06C2F1AD04FF496
:1025D000807006430DB3A5F14100192802D82035BB
:1025E00046F400664A462946204626604E46FFF7D6
:1025F0008FFD80B101280BD0F61D26F0070000F1F9
:10260000080956E74020E4E78020D8E70020D6E715
:1026100006F104094DE7284652E7206ABDE8F09F1D
:1026200094B0000040EA010310B59B070FD1042AC3
:102630000DD310C808C9121F9C42F8D020BA19BA8D
:10264000884201D9012010BD4FF0FF3010BD1AB1F2
:10265000D30703D0521C07E0002010BD10F8013B47
:1026600011F8014B1B1B07D110F8013B11F8014B6E
:102670001B1B01D1921EF1D1184610BD10B5431C91
:1026800002E010F8011B71B18107FAD14FF001325D
:1026900002C88C1A8C4314EAC211F9D0C01A0A0677
:1026A00003D0C01E10BDC01A10BD0A0401D0801E88
:1026B00010BD0902FCD0401E10BD032A40F230803C
:1026C00010F0030C00F0158011F8013BBCF1020F73
:1026D000624498BF11F801CB00F8013B38BF11F8F4
:1026E000013BA2F1040298BF00F801CB38BF00F80B
:1026F000013B11F0030300F02580083AC0F0088088
:1027000051F8043B083A51F804CBA0E80810F5E76B
:10271000121D5CBF51F8043B40F8043BAFF300804E
:10272000D20724BF11F8013B11F801CB48BF11F8C3
:10273000012B24BF00F8013B00F801CB48BF00F893
:10274000012B704710B5203AC0F00B80B1E818504B
:10275000203AA0E81850B1E81850A0E81850BFF48B
:10276000F5AF5FEA027C24BFB1E81850A0E818502A
:1027700044BF18C918C0BDE810405FEA827C24BF7E
:1027800051F8043B40F8043B08BF7047D20728BF0C
:1027900031F8023B48BF11F8012B28BF20F8023B5B
:1027A00048BF00F8012B704702F0FF0343EA032201
:1027B00042EA024200F002B84FF000020429C0F0E1
:1027C000128010F0030C00F01B80CCF1040CBCF163
:1027D000020F18BF00F8012BA8BF20F8022BA1EBB5
:1027E0000C0100F00DB85FEAC17C24BF00F8012B9A
:1027F00000F8012B48BF00F8012B70474FF0000292
:1028000000B5134694469646203922BFA0E80C50E6
:10281000A0E80C50B1F12001BFF4F7AF090728BFC1
:10282000A0E80C5048BF0CC05DF804EB890028BF3D
:1028300040F8042B08BF704748BF20F8022B11F066
:10284000804F18BF00F8012B7047000070B5064C90
:102850007C44064D7D4403E0206820448047241DCD
:10286000AC42F9D170BD000070AF000070AF000045
:1028700010B500F0A9F9006810BD10B5044600F0CD
:10288000A3F9046010BD09684A0501D540B270473C
:10289000C905FCD500B2704709684A0501D5C0B228
:1028A0007047C905FCD580B270472DE9F0470D4649
:1028B00099469246044600F124080168880604D52A
:1028C000E06921F01001216000E00120A84201DD53
:1028D000471B00E00027A1697A1902EB0900081ADA
:1028E000A0612078C00602D42046FFF701FD002633
:1028F00008E0D4E901211AF806009047206A401C3C
:10290000761C20624E45F4DB2078C0060AD52046AE
:10291000FFF7EEFC06E0D4E9012130209047206A61
:10292000401C2062381EA7F10107F4DC07E0D4E95F
:10293000012118F805009047206A401C2062281EDB
:10294000A5F10105F3DC2046FFF7E8FC207800063E
:1029500002D50220BDE8F0870120FBE7116802687C
:10296000006A530501D508700AE0D30501D5088037
:1029700006E0130603D5C217C1E9000200E00860B3
:102980000120704701694A1C02610878704700B550
:102990008FB0CDE901310021059105497944CDE998
:1029A000031011466846FFF779FD0FB000BD000027
:1029B000E5FFFFFF0A6802F8010B0A607047D1E9E2
:1029C00000239A4202D2531C0B601070704710B55E
:1029D000436913B1AFF3008001E0FFF7B0FC0120C1
:1029E00010BD127800F124010A7000224A70012201
:1029F000EDE711684FF0FF32E9E70000074B70B5D3
:102A00000D467B44FFF7C3FF0446284600F0C8FC90
:102A100010B14FF0FF3070BD204670BDBB450000C7
:102A20002DE9FF5F15468A460446DFF8AC80F8447E
:102A30000027D8E900103E46CDE9001010E03AF832
:102A400016106A4602A800F0AFFC411C07D021789E
:102A5000890603D5E269391891420DD80744761CDE
:102A60002078800602D5E069B84205DDAE42E6DB9B
:102A70003AF816000028E2D1A069C01BA0612046E8
:102A8000FFF736FCD8E90010CDE90010002017E070
:102A90003AF818106A4602A800F086FCB0F1FF3F31
:102AA00081460BD000250DF1080B05E0D4E901218A
:102AB0001BF8050090476D1C4D45F7D308F1010048
:102AC000B0428046E4DB206A384420622046FFF7AB
:102AD00025FCBDE8FF9F000026AB00002DE9F0417A
:102AE0008046D21D22F007020025D2E90002F52916
:102AF00015A614D0011E72F1000106DA0023D0EBF6
:102B0000030063EB020211A608E0D8F800108B075F
:102B100001D50FA602E0490701D50EA601251146F1
:102B2000002408F1240704E000F052F830323A554E
:102B3000641C50EA0102F7D12B463246214640463A
:102B4000BDE8F041FFF7B1BE000000002D0000001D
:102B50002B0000002000000030B4002100F124040C
:102B600008E002F00705D208303542EA4372DB087C
:102B70006554491C52EA0305F3D10468002310A2EE
:102B8000250707D5A40600D421B1C46901230DA2ED
:102B9000641EC46130BCFFF788BE10B504462146F0
:102BA0001068FFF779FE02462046BDE8104000237A
:102BB000D2E7D21D22F00701D1E90023CCE70000C3
:102BC000000000003000000000487047403700203F
:102BD00030B5B0F10A024FEA900E71F100034EEAEF
:102BE000817EB0EB0E0061EB91014FEA101E4EEAC0
:102BF000017E10EB0E0041EB11114FEA102E4EEA50
:102C0000016E10EB0E0041EB11214FEA104E4EEA1F
:102C1000014E10EB0E0041EB1141401841F1000153
:102C20004FEAD00040EA41704FEAD10110EB800535
:102C30004FEA810444EA907444EB01046D1944EBBB
:102C40000404521BA3414FF0000348BF0A3200D5D1
:102C500030BD401C41F1000130BD70472DE9FF4FF0
:102C60000C461E464FF0FF378BB0D2E90001DDF86D
:102C700060800A908A46C1F30A5505B93D46002195
:102C800008464FF00000BAF1000F00F4400005DAEA
:102C900000EB80004FF4400101EA50004FEA9059E8
:102CA000B9F1010F00DDB9460A9850EA4A000ED08A
:102CB00044F61050A5F2FF3545432F14B8F1000F2C
:102CC0001ED07542291E1EDDC9F100021CE0B8F1BC
:102CD000010F4FF0000001D0302103E0F24305E086
:102CE0002154401CB042FBDB30460022002121541D
:102CF0000B99C1F80880C1E900200FB0BDE8F08F42
:102D0000BD1B6D1CDEE74A4600DA694206A800F0EA
:102D1000B7FB06AB93E8070003AB83E80700504618
:102D20000A9900F069FC8DE80700A0F500501F38F3
:102D300000900398002D0ADD42F21F014A46084424
:102D4000002303A90390684600F0D2FE09E0A0F535
:102D500000504A461F38002303A90390684600F03C
:102D6000DCFE8DE807000004000C03D04FF0FF30BC
:102D7000410800E01046B8F1000F03D00022009295
:102D800015461EE0751E05D4FFF722FF303262554E
:102D90006D1EF9D5B3460122084302D000227F1CE4
:102DA00004E02078302801D100227F1E002A0997F4
:102DB00084D01DE0112D07DAFFF70AFF303262558B
:102DC0006D1C50EA0102F5D1084302D00098C8B149
:102DD0000EE00021681E05E0235C625C635422540F
:102DE000401E491C8142F7DBAB46A81B401E0990E0
:102DF000002004F80B000B98099AC0F80880C0E97D
:102E0000002B7AE711264FF0000857E72DE9F04F25
:102E100088460446D21D22F0070191B0D1E9000195
:102E2000CDE90A0101F009F802460B98C00F01D064
:102E30002D2007E02068810701D52B2002E020210A
:102E400001EAC000032A099001D0072A05DB0346E6
:102E50004146204600F0D4FA0BE12078800601D5E7
:102E6000E06900E00620B8F1650F814606D0B8F1B0
:102E7000660F18D0B8F1670F70D131E00020B9F1BA
:102E8000110F009001DB112301E009F101030AAAEF
:102E900001A90CA8FFF7E2FEDDE90C70002609F19C
:102EA0000105834647E001204B4600904FF0004764
:102EB0000AAA01A90CA8FFF7D1FEDDE90DB00C9913
:102EC0005D46002610B909F101000D18B9EB0500A7
:102ED00003D4C0F1FF3609F10105A5EB09002BE091
:102EE000B9F1010F01DA4FF001090020B9F1110F1A
:102EF0000090484601DD112300E003460AAA01A91B
:102F00000CA8FFF7ABFEDDE90C704D4600268346AA
:102F1000207800070AD4AB4500DA5D4601A8012DF0
:102F200004DD411911F8011C302907D04F4502DAA0
:102F300017F1040F04DA012082460FE06D1EEEE760
:102F4000002F02DCED1B3E4403E0781CA84200DDAC
:102F50007D1CB81B00F1010A4FF0004720780007E4
:102F600003D4AA4501DB4FF0FF3A0021B7F1004F2F
:102F70000DF143088DF8431024D002202B23002F9D
:102F800001DA7F422D230A21021EA0F1010000DC9C
:102F90005FB197FBF1FC97FBF1F201FB1C7C17463C
:102FA0000CF1300C08F801CDEEE7A8F10100037038
:102FB0002188090501D5452100E06521A0F101081E
:102FC00000F8011C09980FA9A1EB0807FF1D00B12B
:102FD0000120411901EBEA70A1693844081A401E2A
:102FE000A0612078C00602D42046FFF781F9099835
:102FF00028B1D4E901219047206A401C2062207842
:10300000C00622D52046FFF773F91EE0002E04DB30
:10301000B34502DD01A8805D00E03020D4E9012144
:103020009047206A401C2062761CAAF101005FEAEA
:10303000000A0AD100F0E0F9C0680168405CD4E9F8
:1030400001219047206A401C2062281EA5F101053D
:10305000DCDC07E0D4E9012118F8010B9047206A75
:10306000401C2062381EA7F10107F3DC2046FFF761
:1030700055F9032011B041E62DE9F04F04460D4605
:10308000D21D22F0070089B0D0E9009748463946A2
:1030900000F0D3FE0246F80F01D02D2307E0206890
:1030A000810701D52B2302E0202101EAC0038DF81E
:1030B00020300BB1012000E00020032A824601D01D
:1030C000072A04DB2946204600F09AF93FE12078E0
:1030D000800601D40D2500E0E569C7F30A560D2DE1
:1030E00049DA00214FEA175B08464FF00000002F35
:1030F00000F4400007DA00EB80004FF4400100EBE1
:10310000D07001EA60008115012901DD4FF0FF3127
:1031100000224FEA850CBCF1180F06D31346ACF120
:1031200018004FF08052C24003E04FF4801323FA9E
:103130000CF30CF10C0CBCF1200F04D3ACF1200CFF
:1031400009FA0CF001E007FA0CF000294FF00048F2
:1031500001DD18B90FE00ED140450CD319EB02097F
:103160005F4121B9404502D19F4329EA0209BBEBE7
:10317000175F00D0761C2088000502D57B48784474
:1031800002E07A487844193808AA302302F80A3055
:10319000037C0AF10101002E0AF1020A53546A4627
:1031A00002DC4FF0300101E04FF031014FF0010837
:1031B0008DF8001002D0A6F2FF3603E059EA47016D
:1031C00000D06B4E002D02DC2178090704D54FF0AA
:1031D00002082E218DF80110C44600210BE0C7F330
:1031E00003433F01C35C491C6D1E02F808300529EA
:1031F00008F1010801DA002DF1DC00210CE000EB00
:103200001973491C1B786D1E082902F808304FEA13
:10321000091908F1010801DA002DF0DC21688B069C
:1032200002D516E0A8F10108E04505DD02EB080330
:1032300013F8013C302BF5D0B8F1000F09DD02EB9B
:10324000080313F8013C2E2B03D1090701D4A8F180
:103250000108002D05DD3E2102F808106D1E08F161
:103260000108407C002E02F8080008F1010804DA89
:103270002D20764202F8080002E02B2002F8080018
:103280000A214FF47A70864208F101080BDB96FBA5
:10329000F0F3303302F8083096FBF0F308F1010840
:1032A00000FB136601E0642E0CDB642096FBF0F358
:1032B000303302F8083096FBF0F308F1010800FB08
:1032C000136601E00A2E06DB96FBF1F0303002F8BF
:1032D000080008F1010896FBF1F001FB10603030A6
:1032E00002F80800A16908F1010808EB050202EBE9
:1032F0000A00081AA0612078C00602D42046FEF712
:10330000F7FF216A08AE01EB0A00206204E0D4E96D
:10331000012116F8010B9047BAF1010AF7D2207883
:10332000C00602D52046FEF7E3FF6E4609E016F818
:10333000010B3E280FD0D4E901219047206A401CA0
:103340002062B8F10108F2D22046FEF7E7FF09B08B
:103350000320BDE8F08F206A2844206203E0D4E90E
:103360000121302090476D1EEBD3F8E7F1A3000058
:1033700002FCFFFF10B5436913B1AFF3008001E019
:10338000FFF74EFB012010BD128800F1240182845A
:103390000022C2840122EDE711684FF0FF32E9E715
:1033A000007B00F08000704770B516460C4605465D
:1033B00000F01AF8036893F80101012806D0FF2CE9
:1033C0000FD8185D68B101202C7070BDD3F80701CB
:1033D0003246214603F2071303442846BDE87040F5
:1033E00018474FF0FF3070BD10B500F005F8001D14
:1033F00010BD00BFB1910000004870476037002049
:103400002DE9F0411F46044603260168072A01F40E
:10341000006004DB08B116A505E016A503E008B1BD
:1034200015A500E015A521F010002060A069C01EC0
:10343000A0610FB1401EA0612046FEF759FF4FB1B9
:10344000D4E9012138469047206A401C2062C01C04
:10345000206206E0206AFAE7D4E9012115F8010BA1
:103460009047761EF8D22046FEF758FFBDE8F0815F
:103470004E414E006E616E00494E4600696E660018
:103480002DE9F047814616468AB0354878440DC884
:103490008DE80D0032487844801C03AC0DC884E8E8
:1034A0000D0041F69B300844372190FBF1F290FB70
:1034B000F1F5A5F1800501FB12041B3C02D5644225
:1034C000012000E00020DFF898A080460027FA44A1
:1034D000AAF1BE0A0EE0E0070AD03246684607EBC2
:1034E000470101230AEB810100F017FB8DE807007B
:1034F00064107F1C002CEED1194F7F44AE3F19E0C1
:10350000E80715D007EB04100DF1180A90E80E003B
:103510008AE80E00C068F04201D19819089032463E
:10352000012306A903A800F0F8FA03AB83E807001B
:103530006D10641C002DE3D14FF001033246694643
:10354000B8F1000F03A802D000F0D2FA01E000F0B9
:10355000E4FAC9E90001C9F808200AB0BDE8F0871B
:1035600074A1000010B50446AFF300802046BDE80A
:103570001040FEF735BE00004FF0013C50F8042B20
:1035800051F8043B9A4221D1A2EB0C03934313EA76
:10359000CC1317D150F8042B51F8043B9A4215D1A3
:1035A000A2EB0C03934313EACC130BD150F8042B7A
:1035B00051F8043B9A4209D1A2EB0C03934313EA5E
:1035C000CC13DBD04FF00000704700BFD01A01BA17
:1035D000B1FA81F101F0180122FA01F0CB40C1F1FA
:1035E0002001DBB2C0B2C01A2CFA01F3D11A914308
:1035F00011EAC311E6D170475FEA400C08BF91F0B1
:10360000000F4FEA8C234FEAC12243EA51514FEA9F
:103610001C5018BF00F5F0404FEA300018BF41F0D1
:1036200000415FEA6C5C00F02980BCF1FF3F08BFFD
:1036300040F080407047130C06BF12044FF0100C8E
:103640004FF0000C130E04BF12020CF1080C130F04
:1036500004BF12010CF1040C930F04BF92000CF193
:10366000020CD30F04BF52000CF1010C11464FF0B5
:103670000002A0F11F00A0EB0C00704711F0004FFA
:1036800008BF704731F000413FF4D5AF0B0C06BFC7
:1036900009044FF0100C4FF0000C0B0E04BF090290
:1036A0000CF1080C0B0F04BF09010CF1040C8B0F7B
:1036B00004BF89000CF1020CCB0F04BF49000CF1D0
:1036C000010CCCF12003A0EB0C0022FA03F302FA68
:1036D0000CF241EA030100F10100704720F07F4C39
:1036E00080EA030023F07F47ACEB070303F57C532C
:1036F00000F0004003F1FF032DE980494FEA154B2C
:1037000009B44FEA144325EA0B4E24EA03480FF2AA
:10371000042606EB132749083E785FEA320203FBD2
:103720000667C7F5000707FB06F64FEA54374FEA6E
:10373000D64606F1020607FB066CCCF1005C4FEAA8
:103740001C472CEA074C07FB06F40CFB06F504EBC0
:1037500015464FEA961634BF00204FF000404FEA5E
:10376000D13706FB07FC4FEA1C4C0CFB0BF7D21BB6
:1037700003FB0CF761EB07010CFB0EF7B0EB074006
:1037800072EB17420CFB08F734BFA2EB0742B2EB17
:10379000074261EB17414FEA0C444FEA910706FBE1
:1037A00007FC4FEA1C4C0CFB0BF7B0EBC74072EB6D
:1037B000573203FB0CF734BFA2EBC742B2EBC74250
:1037C00061EB57310CFB0EF7B0EBC70072EB577291
:1037D0000CFB08F734BFA2EBC702B2EBC70261EBE8
:1037E0005771039F4FEA816141EA921104EBCC04C7
:1037F0004FEAD1374FEA826206FB07FC42EA901299
:103800004FEA80604FEA1C4C0CFB0BF7D21B03FB0A
:103810000CF761EB07010CFB0EF7B0EB074072EB06
:1038200017420CFB08F734BFA2EB0742B2EB07428A
:1038300061EB17414FEA8C554FEA910704EB9C244A
:1038400006FB07FC4FEA1C4C0CFB0BF7B0EBC74028
:1038500072EB573203FB0CF734BFA2EBC742B2EB5B
:10386000C74261EB57310CFB0EF7B0EBC70072EBB0
:1038700057720CFB08F734BFA2EBC702B2EBC702CA
:1038800061EB577115EB4C254FEA816141EA9211CA
:103890004FEA82624FEAD13742EA901206FB07FCF8
:1038A00044F100044FEA80604FEA1C4C0CFB0BF71C
:1038B000D21B03FB0CF761EB07010CFB0EF7B0EB1F
:1038C000074072EB17420CFB08F734BFA2EB07422C
:1038D000B2EB074261EB174115EB1C154FEA813142
:1038E00041EA92414FEA823242EA90424FEA803006
:1038F0004FEA0C7644F1000448EA03434EEA0B48D1
:103900004FF0000EB2EB080C71EB030724BF6246C8
:1039100039464EEB0E0E4FF0000B00185241494154
:103920004BEB0B0BB2EB080C71EB03077BF1000BBD
:1039300024BF624639464EEB0E0E4FF0000B0018C6
:10394000524149414BEB0B0BB2EB080C71EB0307F7
:103950007BF1000B24BF624639464EEB0E0E51EA56
:10396000020718BF46F0010616EB0E7655F100026D
:1039700054F1000103D5BDE88901BDE80088BDE828
:103980008901BDE80048B619524141EB0101A3F19C
:103990000103704780807F7E7D7C7B7A79787776A3
:1039A00076757473727171706F6E6E6D6C6C6B6A1C
:1039B0006A696868676666656464636362616160BA
:1039C000605F5F5E5E5D5D5C5C5B5B5A5A59595837
:1039D00058575756565555555454535352525251A1
:1039E000515050504F4F4F4E4E4D4D4D4C4C4C4BF7
:1039F0004B4B4A4A4A49494948484847474747463E
:103A00004646454545444444444343434342424279
:103A100042414141002B9C4630D477002BD01CB54D
:103A20004FEA370703B44FF010004FF01001BAF11E
:103A3000000F06D0BCF1000FDCBF40F0080040F0E2
:103A400008014FF000000FBCBDE810400BF1010B66
:103A5000BBF1010F08BF5FEA170722BF12F1010295
:103A600011F101014FF0004143F1000300F000406B
:103A700043EA00007047F9D35708D0E746EA064604
:103A800013F1400F4FEA16461FDD13F1200FDFBF81
:103A900016430A46002120335B42BED0C3F1200703
:103AA00046EA064602FA07F74FEA164646EA0706CE
:103AB000C3F1200722FA03F201FA07F721FA03F112
:103AC0004FF0000342EA0702A7E746EA020646EA89
:103AD00006464FEA164646EA0106BCBF46EA0646D7
:103AE000360C4FF000034FF000024FF0000194E756
:103AF0002DE9804C9A46934670B491E8380007C887
:103B000031EA400C48BF34EA430C03D5FFF7E6FD29
:103B1000FFF780FFF0BCBDE8008C2DE9804C9A4691
:103B2000934670B491E8380007C810F0804F08BF82
:103B300013F0804F03D100F005F8FFF76BFFF0BCE6
:103B4000BDE8008C20F07F4780EA030023F07F4C23
:103B500007EB0C03A3F57C5300F00040A3F1FE0338
:103B600092F0000F00F0B38095F0000F00F0778026
:103B70002DE901494FEA11404FEA144621EA004875
:103B800000FB06FC24EA064708FB06F607FB08F8DC
:103B900000FB07F718EB06484CEB164C4FEA124BAC
:103BA00018EB07484FEA15464CEB174022EA0B4E3C
:103BB0000BFB06FC25EA06470EFB06F607FB0EFE8E
:103BC0000BFB07F71EEB064E4CEB164C4FF00006B6
:103BD0001EEB074E4CEB174B18EB0B0840F10000A7
:103BE00018EB0E0B58EB000840F100008F1A4FF055
:103BF00000013CBFC943661B14BFB5EB040C002198
:103C00003CBFC943F61B4FEA17444EEA8E0E27EA23
:103C100004454FEA1C4704FB07622CEA074C05FBEE
:103C200007F70CFB05F604FB0CFC16EB074642EB12
:103C3000174216EB0C4642EB1C421BEB060658EBF8
:103C40000202414146EA9E0601D5BDE80189B61946
:103C5000524141EB0101A3F10103BDE801894FEAA3
:103C600014454FEA114724EA054621EA074C05FBB3
:103C700007F406FB07F70CFB06F105FB0CFC11EB48
:103C8000074144EB17444FEA124711EB0C4144EB58
:103C90001C4422EA074C05FB07F206FB07F70CFB66
:103CA00006F605FB0CFC16EB074642EB174216EB3B
:103CB0000C4642EB1C456A1854F1000148BF70479E
:103CC000B619524141EB0101A3F10103704795F090
:103CD000000F37D04FEA11424FEA144721EA02465B
:103CE00024EA074C02FB07F106FB07F70CFB06F47E
:103CF00002FB0CFC14EB074441EB17414FEA15475C
:103D000014EB0C4441EB1C4125EA074C02FB07F580
:103D100006FB07F70CFB06F602FB0CFC16EB07464E
:103D200045EB174516EB0C4645EB1C42121951F1B9
:103D3000000148BF7047B619524141EB0101A3F1A0
:103D4000010370474FEA14454FEA114724EA05463C
:103D500021EA074C05FB07F106FB07F70CFB06F20F
:103D60004FF0000605FB0CFC12EB074241EB17413C
:103D700012EB0C4251EB1C4148BF7047921841EBCB
:103D80000101A3F10103704710B503F641FA10B128
:103D900002F0A8F810BDBDE810402AF627BD02F0D9
:103DA000A1BA000010B52AF60DFE022818D00D4C5D
:103DB000D4F8880220F00100C4F888024FF0E02116
:103DC0004FF00050C1F8800204F5227402F07CFB31
:103DD00005484168491C4160206840F001002060AE
:103DE00010BD000000E00040A0260020FEE7FEE736
:103DF000FEE704F0C9B9FEE70249096801F00701CE
:103E00000170704700A000400248016841F4700151
:103E10000160704788ED00E002480068001D04F072
:103E200029BB0000DC25002002484068001D04F08A
:103E300021BB0000DC250020FEE703B4019841000F
:103E4000009850EAC12018BF04204A0D18BF40F066
:103E5000010040F2FF72B2EB515F08BF40F0020078
:103E6000012808BF052002B07047002809DB00F0D8
:103E70001F02012191404009800000F1E020C0F8BC
:103E800080127047002809DB00F01F0201219140D9
:103E90004009800000F1E020C0F88012704700283F
:103EA0000DDB00F01F02012191404009800000F16C
:103EB000E020C0F88011BFF34F8FBFF36F8F7047C2
:103EC000002809DB00F01F02012191404009800019
:103ED00000F1E020C0F800117047002809DB00F075
:103EE0001F02012191404009800000F1E020C0F84C
:103EF00000117047002809DB00F01F0201219140EA
:103F00004009800000F1E020C0F80011704700284F
:103F10000FDB4109890001F1E021D1F8001100F027
:103F20001F0201209040014201D001207047002073
:103F3000704700207047002804DB00F1E02090F873
:103F40000004704700F00F0000F1E02090F8140D1D
:103F50007047002804DB00F1E02090F8000470476F
:103F600000F00F0000F1E02090F8140D7047000001
:103F700002480068C0F30220704700000CED00E02A
:103F800002480068C0F30220704700000CED00E01A
:103F9000EFF31080704700002DE9F0412DED020B8A
:103FA0009FED3D0B2DED028B9FED3D8BDDE9025426
:103FB000C4F30A50A0F2FF36142E37DA002E18DAB6
:103FC00053EC102B9DED020B51EC100B08F00CFB89
:103FD00053EC182B08F004FF57D2002CBCBF4FF055
:103FE0000044002551DB54EA050018BF2E4C1BD1BC
:103FF0004BE02E4820FA06F704EA070028431FD0BA
:1040000053EC102B9DED020B51EC100B08F0ECFA69
:1040100053EC182B08F0E4FE37D2002C03DD4FF4EC
:104020008010F0400444BC4300252EE0332E07DC12
:10403000A6F114004FF0FF3121FA00F73D4206D1FE
:104040009DED020BBDEC028B02B0BDE8F08153EC9C
:10405000102B9DED020B51EC100B08F0F7FE53EC0A
:10406000182B08F0BDFE10D2002C0DDD142E08BF59
:10407000641C09D0C6F13400012101FA00F0284483
:10408000A84238BF641C0546BD43CDE902549DEDEE
:10409000020BD7E7000000009C7500883CE4377EE7
:1040A00000000000000000000000F03FFFFF0F00D4
:1040B0002DED020B019820F0004001909DED000BCA
:1040C00002B0704710B52DED028BF0EE408A18EE6D
:1040D000900AB0EE608A20F00040C0F1FF40C00FAF
:1040E00007D118EE100A20F00040C0F1FF40C00FC9
:1040F0002BD018EE101A18EE900A09F043F800EED3
:10410000100A10EE100A6FEAD05010F0FF0F04BF33
:10411000BDEC028B10BD18EE900A00F0004110EECD
:10412000100A00F00040814204BFBDEC028B10BDBC
:1041300018EE101A10EE100ABDEC028B61F31E008F
:1041400000EE900A30EE600A10BD18EE900A4FF0B3
:104150007F41B1EB400F1CBF18EE100A5FEA400030
:10416000C7D10120FEF789FBBDEC028BBDE81040F2
:10417000AFF30080DFED020A80EEA00A7047000076
:104180000000000080F31088704700002DE9F74F11
:1041900007460298DFF86CA1DFF86C814FEA500BFC
:1041A0005A48019D5C465646CAF80000D8F80420DB
:1041B0003F2060F30502C8F80420DAF8000020F47C
:1041C000700040EA0750CAF80000DAF8000020F456
:1041D000702040EA0740CAF800000D2F02D00E2FD1
:1041E00004D007E0306840F4004002E0306840F45A
:1041F00080403060306840F400503060306820F01B
:1042000060503060306820F00F0040F003003060F4
:10421000002000F0AFF8012872D13168B24641F0B9
:10422000804131600020424609E0D8F8083043F46C
:104230008033C8F80830811C00F1010005D0916876
:104240009046C1F300210029EFD1072000F092F839
:10425000012855D142E000264FF47A7924E04E45FA
:104260001ED9DAF8001021F08041CAF80010DAF8FF
:10427000001041F00041CAF80010DAF8001021F0F7
:104280000041CAF80010002000F074F8012837D16E
:104290001F480169491C01610520FCF543FC7FE7CB
:1042A0000120FCF53FFC761CD8F80800C0F3002084
:1042B0000028D4D0D8F80800434600F07F02A2427C
:1042C00000D92246002006E0196825F8021B090CD7
:1042D00025F8021B401C9042F6D3A41A002CBAD138
:1042E0000298C00707D040468168C1F30021002929
:1042F000FAD000682880BDE8FE4F002000F03AB8F0
:10430000BDE8FE8F00A8004000E000400A07080753
:10431000A02600202DE9F041124904460020086043
:10432000104980390860104D686A104E00F0010194
:1043300049420140F061C8050DD440F20117A86957
:10434000B84208D024B10120641EFCF5EBFBF6E76F
:104350000020BDE8F0810648006870616868B061BF
:104360000120F6E794581C4200E00040A0260020FF
:1043700000A800402DE9F041104F0546F868C0F351
:104380000240A84217D0F86820F007002843F860E0
:1043900000244FF6FF76F868C0F30240A84205D02B
:1043A0000120FCF5BFFB641CB442F4D3B44202D13B
:1043B0000020BDE8F0810120FBE7000000E00040A4
:1043C000F0B50C462DED088B89B006469FED559B48
:1043D00020216846FEF712FAB0EE498AF0EE698AAB
:1043E000102269463046FFF7D1FE00256F4607EBE5
:1043F0004500008A08F061FB53EC182B08F0F4F834
:104400006D1C41EC180BEDB2082DF0D39FED470B5E
:1044100051EC180B53EC102B08F0E4FB41EC180B9B
:104420009FED44BB0D2E02D00E2E30D072E060887E
:1044300008F043FB53EC1B2B08F08AF99FED3F0B70
:1044400041EC190B51EC100B08F0C2F841EC1A0BBF
:10445000E08808F032FB53EC1A2B08F0C3FB41EC68
:104460001A0B208808F029FB53EC182B08F0EEFCFF
:1044700053EC1A2B08F06CF99FED321B53EC112B07
:1044800008F066F953EC192B08F0AEF840E0A07E76
:10449000FF2801D0E8B13DE09FED2C0B51EC100B53
:1044A00008F096F841EC1A0BE08808F006FB41ECA6
:1044B000190B208908F001FB53EC182B08F0C6FCFF
:1044C00053EC192B08F044F953EC1A2B08F08AFB33
:1044D0001EE0A08808F0F1FA41EC190BE08808F022
:1044E000ECFA08F075F841EC1A0B208908F0E5FAAF
:1044F00053EC182B08F0AAFC53EC1A2B08F028F9FF
:1045000053EC192B08F06EFB53EC1B2B08F020F931
:1045100041EC190B09B0B0EE490AF0EE690ABDECA6
:10452000088BF0BD0000000000000000000000004B
:104530000000C03F000000000000594000000000E3
:1045400000000040DE718A8EE4F25FBFE2E1E1E14B
:10455000E1E10E4030380A2801D2012070470020E6
:104560007047704710B51A4940F21A444FF4B972B7
:104570000B694FF496710C3BA3420FD90424BE285B
:1045800001DC0C241BE0DC2801DC082417E0FA28FD
:104590000EDD884210DD904211DD0FE0BE2801DC07
:1045A0000B240CE0DC2801DC072408E0FA2801DCFD
:1045B000062404E0884201DC052400E003242046B0
:1045C00004F084FC2046BDE8104004F06BBC000001
:1045D0005435002010B50B4C2089012811D194F8D6
:1045E0004B0000280DD1608F08F067FA9FED061B85
:1045F00053EC112B08F0F6FA08F032FA218F084438
:10460000208710BDEC3300209A9999999999A93F78
:104610000748084901E0401E04D00A68C2F340027E
:10462000002AF8D108B1002070470320704700002D
:1046300020A1070038A7004006460F46154672B66F
:104640003846FEF71BF8402801D9402002E03846E2
:10465000FEF714F880463046FEF710F8402801D9DE
:10466000402002E03046FEF709F804469C2110483D
:10467000FEF7C4F8424639460D48FEF71EF80C48CE
:10468000224631465C30FEF718F809484FF0AA314F
:10469000016445644FF0BB3181644FF0CC3101655A
:1046A0004FF0DD318165002000F004F8FEE70000E6
:1046B0003C31002030B5ADF20C4D04464FF4806122
:1046C00003A8FEF79BF8194D202085F83F0085F8D8
:1046D0009B003CB12846012C436DC26C09D0022CD2
:1046E0000CD00FE0114A12A15C3203A8FDF7CEFDF9
:1046F00008E012A103A8FDF7C9FD03E017A103A874
:10470000FDF7C4FD03A90CA2686CCDE9012100905E
:1047100019A3064A19A1002000F03AFC012C01D08F
:1047200000F0F0FB0DF20C4D30BD00003C310020DC
:104730005B4552524F525D20257300005B5741523A
:104740004E494E475D20506172616D303A25642CB0
:10475000506172616D313A25640000005B50415236
:10476000414D5D20506172616D303A25642C50617D
:1047700072616D313A256400000000006170705F65
:104780006173736572742E6300000000014806F0C7
:10479000D7B90000F825002006460F4690461D4672
:1047A00072B64046FDF76AFF402801D9402002E07A
:1047B0004046FDF763FF04469C210D48FEF71EF8B6
:1047C000224641460A48FDF778FF09484FF0553127
:1047D000016445644FF066318164C6644FF07731FF
:1047E00001654765C94381650220FFF763FFFEE766
:1047F0003C3100202DE9F04106460F4690461D460B
:104800004046FDF73BFF402801D9402002E04046EA
:10481000FDF734FF04469C210D48FDF7EFFF2246CB
:1048200041460B48FDF749FF09484FF0113101643B
:10483000456449008164C6644FF0333101654765C2
:104840004FF044318165BDE8F0410120FFF732BFF0
:104850003C3100202DE9F041014600291BD0002405
:104860000F4E0E4A357814E002EB04100F780378EF
:10487000BB420CD14B684068034208D0707808B93D
:1048800000F01EFB2046BDE8F04100F04DBA641C6C
:10489000E4B2AC42E8D3BDE8F0810000EC2D00208A
:1048A000D02500207CB505460E46002D01D0002401
:1048B00018E0E5207CBD05EB041041680091017A09
:1048C0008DF80410417A8DF8051000218DF806103E
:1048D000C26800780023694600F038F80028E9D162
:1048E000641CE4B2B442E6D300207CBD10B502469D
:1048F0000846052A25D2DFE802F003030311190058
:10490000114951F832200104090C05D022B10146A9
:10491000104603F0E4FA10E0E42010BD10F0FF0FA1
:1049200002D002F057FC08E0E42010BD10F0FF0FA9
:1049300005D00146002003F063FB002010BDE420F9
:1049400010BDE62010BD000000D320002DE9F05F6F
:1049500005460C469046994626680027042D11D03E
:1049600031462846FFF7C2FF2146284600F068F886
:10497000002808D1032D08D04FF0100A2807070E91
:10498000002451E0E620BDE8F09F4FF0080AF7E769
:10499000F00746D03DB1012D05D0022D03D0032DE7
:1049A00027D0E620EFE7244800EBC50090F904B0DB
:1049B000BBF1000F17D0EFF31081012080F31088B6
:1049C0001E4AE01942F8308002EBC000C0F80490A3
:1049D00059B1012080F31088584603F057FB584620
:1049E00003F061FB1DE0E420CDE7002080F3108898
:1049F000F2E7EFF31081012080F310880F4AE019ED
:104A0000703242F8308002EBC000C0F8049079B1F7
:104A1000012080F31088152003F038FB152003F0E7
:104A200042FB7608641CE4B25445B1D30020AAE7E7
:104A3000002080F31088EEE700D32000642F0020D0
:104A400030B597B005460C461C22414910A8FDF729
:104A500079FE1C223E491C3109A8FDF773FE202275
:104A60003B49383101A8FDF76DFE94B13949062064
:104A700006F018F83849152006F014F834496C3956
:104A8000A1F12C02052D61D2DFE805F00606062112
:104A90003900E52017B030BD207931F810001190B1
:104AA000607932F810001290A0791390206810906D
:104AB0002748843850F8350021880904090C04D0AF
:104AC00018B110A903F06FFA39E0E420E2E7207989
:104AD00001EB4000808A0A90607902EB4000C088B8
:104AE0000B90A0790C9020680990207810F0FF0FAF
:104AF00003D009A802F0A0FB21E0E420CAE7207956
:104B0000031F042B01D8E720C4E7022819D0012095
:104B10000290207901EB4000008D0390607902EB58
:104B2000400080890490A079059020680190207849
:104B300010F0FF0F08D001A9002003F093FA002025
:104B4000A8E702200290E4E7E420A3E7E620A1E73B
:104B500084D320004D1E1000491E10000246002084
:104B6000052A11D2DFE802F0030303090C0007480D
:104B700050F8320089B203F038BA88B202F0A0BB14
:104B800089B2002003F070BA7047000000D3200003
:104B9000002803D0024908600120704700207047B8
:104BA000CC25002070B505460024091F062917D220
:104BB000DFE801F003070C111315284600F0A4F8F4
:104BC0000EE00124284600F09FF809E00224284660
:104BD00000F09AF804E0032402E0042400E0052435
:104BE000034A214628461268BDE87040104700007D
:104BF000CC2500202DE9F0410446204600F0AEF817
:104C000001462E4800230826025D00F10A0700F144
:104C10001405AAB1052A33D0082A2AD1092945D07A
:104C2000082926D1295D491CC9B22955142920D348
:104C30002B5506552046BDE8F0410821FFF7B2BFCD
:104C4000052913D0042916D0072914D0082910D11A
:104C5000295D491CC9B2295514290AD32B5506557B
:104C60002046BDE8F0410821FFF79CBF3B550521D8
:104C70000155BDE8F0812046BDE8F041FFF792BF45
:104C800005290CD0395D491CC9B239553229F0D3F8
:104C900003552046BDE8F0410521FFF783BF0355CA
:104CA0002046BDE8F0410621FFF77CBF03552046B2
:104CB000BDE8F0410921FFF775BF0000AC2D0020D1
:104CC00070B504460D4600F00FF808B100F00EF97B
:104CD0000348044A2946005D5268BDE87040104709
:104CE000E02D0020D02500200020064911F81020DA
:104CF0000AB100207047401CC0B20A28F6D3012038
:104D000070470000CA2D00200349002201F810203E
:104D100001EB400042707047CA2D0020014A02F8A2
:104D200010107047CA2D0020024A012102EB4000FA
:104D300041707047CA2D002070B50024064D05EB68
:104D40004400407810B12046FFF754FF641CE4B2E1
:104D50000A2CF4D370BD0000CA2D002070B50021CC
:104D60001D4B03F132051A5C002A09D0002403F11F
:104D70000A06012A0AD0022A12D0032A24D11FE0EF
:104D800015F8102002B301221A541DE015F8102066
:104D90001AB1345402221A5416E01C54042113E0B0
:104DA00015F810204AB1325C521CD2B23254642A37
:104DB0000AD3072103221A5406E005211C5403E0FC
:104DC00015F8101011B10821084670BD1C54FFF7EA
:104DD0009BFF0921F8E70000982D00207047000094
:104DE0002DE9F0410E4617460A2E02D80FB10023D6
:104DF0001AE00020BDE8F08103EB430400EB8405DA
:104E0000114AA97AD154104910F824200C3101EB31
:104E10000314227069686160297A2172697A61726B
:104E20000A49E1605B1CDBB2B342E5D30648314678
:104E30000C30FFF737FD0648067047600548FFF75E
:104E4000A7FE0120D6E70000E02D002055482000F5
:104E5000D0250020C14C20002DE9F0410024124F44
:104E6000DFF8488019E0002607EB04152878696808
:104E7000FFF774FE10B9697A012902D0012802D027
:104E800005E0012603E0687A022800D101263146B8
:104E90002046FFF743FF641CE4B298F80000844208
:104EA000E1D3BDE8F0810000EC2D0020D0250020EA
:104EB00010B5FFF7D1FFBDE81040FFF73DBF000080
:104EC00010B5074A0121074800F040FB00220A21E3
:104ED000044800F091FC04490120487010BD000016
:104EE000B14E2000902E0020D025002010B50348A0
:104EF00000F05AFB02490020487010BD902E00209F
:104F0000D02500200248406A002800D000477047A2
:104F1000143100200149486270470000143100201C
:104F2000002806D0002904D0024AD269002A00D005
:104F3000104770471431002070B50D4616460D4CD1
:104F400000280AD00178032911D80121A176014651
:104F50001A222046FDF7B1FB05E00020A0761A21B9
:104F60000448FDF74BFCE5612662002070BD01207E
:104F700070BD000014310020044A1044807D0842B6
:104F800001D001207047002070470000143100203C
:104F90002DE9FE4F0746924699460024A046CDF8DB
:104FA0000480CDF8088059480178B94202D2807E49
:104FB00000287DD10EAD0095EFF311860220FEF79B
:104FC000C8FF8346FEF7DCFF401C012181400BEB4C
:104FD0000100C0B280F3118801213846FFF7CCFFF1
:104FE00038B14B484B4950F82720204600F0A4F830
:104FF00004461C213846FFF7BFFF00285ED046A2BA
:105000004449204600F098F8204484B204213846F0
:10501000FFF7B2FFF8B152463E49204600F08CF847
:10502000204484B208213846FFF7A6FF38B13BA2DE
:105030003849204600F080F8204484B20BE010216B
:105040003846FFF799FF30B135A23249204600F0CB
:1050500073F8204484B208213846FFF78DFF90B1E1
:105060004A462C49204600F067F8204484B21021BB
:105070003846FFF781FF30B12AA22649204600F0CA
:105080005BF8204484B210213846FFF775FF60B109
:1050900026A2052101A80C9BFDF70EF901AA1D49C6
:1050A000204600F049F8204484B221A2194900E0CA
:1050B00029E0204600F040F8204484B21548C4F5A9
:1050C000807120442B460D9AFDF7BAF8CDF8008088
:1050D0004FF48071002804DB2044884201DC85B253
:1050E00000E00D46A81C884200D9FE2511A20949FE
:1050F000284600F021F8284481B20648FFF710FF47
:10510000F0B280F31188BDE8FE8F0000143100205A
:10511000E4250020143000202800000020000000BA
:105120003A000000204C696E653A0000256C64006E
:10513000292000000D0A000030B505460020002996
:105140000CD0002A0AD006E02B18FF2B06D8CC542E
:10515000521C401C80B21478002CF5D130BD0000E8
:1051600010B50848017800290AD1012101700648CC
:1051700029F698FBBDE810400021044829F694BCAC
:1051800010BD0000D9250020191E1000A9A520007F
:10519000F0B589B03E4800F067F913208DF81D0086
:1051A00005208DF81C0014208DF81B0008278DF8B1
:1051B0001A7000208DF819008DF818008DF81E0067
:1051C000ADF8200006A800F075F90024314D4FF429
:1051D0007A763046FBF5A0FC06A800F031F99DF880
:1051E0001920BDF820009DF818109DF81A30CDE95F
:1051F0000132CDE903109DF81E009DF81D309DF889
:105200001B2055F8200000909DF81C1022A0FDF7EF
:1052100031F8641C052CDCD301208DF81600FF2129
:105220008DF817108DF815708DF8140029A0FDF772
:1052300021F805A800F052F900243046FBF56CFC7B
:1052400006A800F0FDF89DF81920BDF820009DF893
:1052500018109DF81A30CDE90132CDE903109DF800
:105260001E009DF81D309DF81B2055F82000009071
:105270009DF81C1022A0FCF7FDFF641C0C2CDCD355
:105280002EA0FCF7F7FF0A2000F03CF909B0F0BDB2
:105290007953200044D420004170702063757272ED
:1052A000656E742074696D653A20253032642E2550
:1052B0003032642E2530326420257320253032644C
:1052C0003A253032643A253032643A253033640D61
:1052D0000A000000536574206120646174652061D8
:1052E0006C61726D206576657279206461792061E8
:1052F0007420382E303120616D2E0D0A0000000020
:105300004150502063757272656E742074696D65CA
:105310003A20253032642E253032642E2530326416
:1053200020257320253032643A253032643A253006
:1053300032643A253033640D0A000000536574204E
:10534000616E207469636B20616C61726D2065769B
:10535000657279203130206D732E0D0A0000000037
:1053600008B5009103480168002901D068468847C4
:1053700008BD0000002F002010B58AB00446207838
:10538000002802D119A0FCF775FF207801282AD146
:105390001A4C2068401C20606421B0FBF1F201FB34
:1053A000120000281FD107A800F04AF823689DF8D2
:1053B0001C109DF81D20CDE90221BDF82400CDE987
:1053C00004039DF822100E4A9DF81E009DF821301E
:1053D00052F82110CDE900109DF81F209DF82010F3
:1053E00008A0FCF747FF0AB010BD000044617465D7
:1053F00020616C61726D2E0D0A00000014260020E1
:1054000044D420005469636B20616C61726D2C2060
:10541000253032642E253032642E2530326420252A
:105420007320253032643A253032643A25303264B4
:105430003A253033642C2025642E0D0A000000002C
:1054400010B5084A117F002907D040B10146101D50
:1054500001F08AFF0028FFD110BDE92010BDE52032
:1054600010BD0000002F002010B50E4C20600E482B
:1054700090ED000A84ED060A0C49172005F012FB96
:10548000201D01F041FF00280AD1201D01F0ECFF92
:10549000002805D1064800F003FF012020770020F6
:1054A00010BD0000002F00207C2600200D1E1000E3
:1054B0002D55200010B5084A117F002907D040B1B2
:1054C0000146101D02F048F80028FFD110BDE92068
:1054D00010BDE52010BD0000002F002010B5084AC7
:1054E000117F002907D040B10146101D02F050F98C
:1054F0000028FFD110BDE92010BDE52010BD00003F
:10550000002F002010B5084A117F002907D040B1B4
:105510000146101D02F0C0F90028FFD110BDE9209E
:1055200010BDE42010BD0000002F00200648017FC0
:10553000002907D0B5EEC00AF1EE10FA02D0001D26
:1055400002F006BA70470000002F00202DE9F0415C
:1055500004460D461746002D04D0012D02D001202F
:10556000BDE8F081E4B1DFB1607801281AD0EFF333
:1055700011860220FEF7DFFC8046FEF7F9FC401C96
:105580000121814008EB0100C0B280F311880020A6
:105590006070A570E761F0B280F311880020DFE74A
:1055A0000120DDE70620DBE710B50446002C0CD017
:1055B000204600F0B3F9FF2060700021A160E16097
:1055C000216161610020E06110BD012010BDF0B5D6
:1055D000DDE90745059981614FF47A76A2FB061C47
:1055E00003FB06C3002702FB0732C0E902120919B8
:1055F0006A41C0E9041200210162F0BD2DE9F041C9
:105600000446002C13D0EFF311850220FEF793FC23
:105610000746FEF7ADFC401C012606FA00F03844B0
:10562000C0B280F311881248002121620EE00020F0
:10563000BDE8F081D4E90432D1E9047CDB1B72EBD4
:105640000C0202D2016A216203E00846016A0029C5
:10565000F0D104626670064810380168491C016088
:10566000016B4160E8B280F311880120E0E700009F
:10567000C82E00202DE9F04105460024EFF31186E5
:105680000220FEF758FC0746FEF772FC401C012181
:1056900081407818C0B280F31188134A106BE8B1CA
:1056A00015B102F1100010E00446206A1063106882
:1056B000401E10600CE0A94206D11168491E11601D
:1056C000296A01622C4603E00846016A0029F2D1EA
:1056D00024B1002020626070106B5060F0B280F343
:1056E00011882046BDE8F081B82E00202DE9F04158
:1056F000EFF311870220FEF71EFC0446FEF738FC8C
:10570000401C012181406018C0B280F31188114D06
:10571000002608E02078012804D1E16909B1A069D8
:10572000884726702D6A2C6A002CF3D1094D103D54
:1057300007E0E16909B1A06988472670206AA8637B
:105740002662AC6B002CF4D1F8B280F311880120F2
:10575000BDE8F081C82E00202DE9F041EFF311875C
:105760000220FEF7E8FB0446FEF702FC401C01267F
:1057700006FA00F02044C0B280F311881D4DA5F157
:1057800010082DE0D4E90430D8E902125B1A60EB6E
:105790000200D8E91021D21A814124D32670204674
:1057A000FFF768FFA078012806D0124828300021B2
:1057B0002162016861B10FE0D8E90220D4E9021347
:1057C00051185841C4E904102046FFF717FF07E0BD
:1057D000046005E001F1200001680029FAD10460AD
:1057E0002C6A002CCED1F8B280F311880120BDE8DC
:1057F000F0810000C82E00202DE9FF5F82460E4692
:1058000093464FF00008BAF1000F20D0414886427D
:105810001DD8E6B1EFF311870220FEF78CFB04469A
:10582000FEF7A6FB401C012181406018C0B280F346
:105830001188504603F088F910B19AF8010040B180
:10584000F8B280F311880F2004B0BDE8F09F01206A
:10585000FAE703F091FE04460D464FF47A7106FB19
:1058600001F022462B46002103F008F9DFF8A8904A
:10587000B0B1D9F8040048B1D0E90410091B60EBBD
:105880000500C9E9021003F0F1FE04E00021C9F8A7
:105890000810C9F80C104FF00108D9E9020106E020
:1058A000D9F80400D0E90421101B61EB0501CDE912
:1058B000020132460023CDF800B05046FFF787FEC4
:1058C0005046FFF79BFE05F011F84FF0E024D4F8A6
:1058D00000014FF4801510F4801F01D0012000E07A
:1058E000002020B91420FEF7C0FAC4F80051B8F126
:1058F000000F0AD0D9F80400D0E90431D9E9020236
:10590000181A61EB020103F06DFEF8B280F3118802
:10591000002099E7008AB907B82E00202DE9F04150
:1059200004460025002C39D0EFF311870220FEF742
:1059300002FB0646FEF71CFB401C0121814070184B
:10594000C0B280F311886078012824D1144E7068A9
:10595000A0420BD103F010FED4E90432181A62EB16
:105960000102C6E9020203F081FE01252046FFF78D
:1059700081FE5DB1706848B1D0E90421D6E9020327
:10598000101A61EB030103F02DFE04E01DB97068ED
:1059900008B903F06BFEF8B280F31188BDE8F0811E
:1059A000B82E00202DE9F8430446334F57F8240061
:1059B000061D022C5ED290F8681000295AD00021F2
:1059C000D0E903231344027D02F00102D21D9D1889
:1059D0004268D36FC3F38003002BFAD090F8002104
:1059E000A2B1264A1368491C90F83A20102A06D022
:1059F0008268B3FBF2F26A43B1EBC21FF3D957F8E6
:105A000024006C3004F0D9FE85B226E0B0F8248082
:105A1000C58C001D02F0FAFB57F8240041F28833D0
:105A200000EB0801491B7C31001D2A4602F0DEFD17
:105A3000E5E757F8240001226C30694604F0D8FEEF
:105A400057F824004068C16FC1F340010029FAD023
:105A50009DF8001001606D1EADB2002DE9D157F820
:105A600024006C3004F0A9FE0028C8D130684169D8
:105A70004906FCD5BDE8F883DC2500205C00002049
:105A800070B504461A4D55F824006C3004F095FEAC
:105A900082B21646A2B155F8240090F8FD100129F3
:105AA0000ED0012180F80011802A0FD355F8240070
:105AB000802200F17C016C3004F09AFE80260CE01C
:105AC00055F82410002081F8FC0070BD55F8240022
:105AD00000F17C016C3004F08BFE55F82400324656
:105AE00000F17C01001D02F0B9FD0028EDD170BD70
:105AF000DC250020704700002DE9F8430446534F91
:105B000057F82400061D022C7ED290F86810002958
:105B10007AD0012978D190F8FC10012974D190F83D
:105B2000FD10002970D1012180F8FD10002157F8E7
:105B30002400D0E903231344027D02F00102D21DA8
:105B40009D184268D36FC3F38003002BFAD090F8FE
:105B50000021A2B13E4A1368491C90F83A20102A4D
:105B600006D08268B3FBF2F26A43B1EBC21FF3D9ED
:105B700057F824006C3004F020FE85B226E0B0F81F
:105B80002480C58C001D02F041FB57F8240041F22F
:105B9000883300EB0801491B7C31001D2A4602F0C6
:105BA00025FDE5E757F8240001226C30694604F032
:105BB0001FFE57F824004068C16FC1F3400100295F
:105BC000FAD09DF8001001606D1EADB2002DE9D134
:105BD00057F824006C3004F0F0FD0028C8D130687C
:105BE00041694906FCD5EFF31085012080F3108848
:105BF00057F824006C3004F0E0FD78B1EFF3108129
:105C0000012080F3108800E015E03068426842F01F
:105C10008202426089B1012080F3108857F8241075
:105C2000002081F8FC0057F8241081F8FD0045B1F0
:105C3000012080F31088BDE8F883002080F31088ED
:105C4000ECE7002080F31088F5E70000DC25002059
:105C50005C0000202DE9F04105460F46002D06D0DE
:105C60002AB12C78022C04D3E820BDE8F081E5208D
:105C7000FBE7304E05F1580046F82400D2E9003128
:105C80000A466C30194604F07DFD291D286D06F08A
:105C900049F90028E9D156F82410281D086656F85D
:105CA0002400076056F824001822083005F140014E
:105CB000FCF748FD204856F8241000EBC40568683E
:105CC000486056F82400001D02F0FAFA56F8240045
:105CD000001D02F083FB184803221146103804F01F
:105CE00095FC56F82410012081F8680056F824101D
:105CF000002081F8FC0056F8241081F8FD0056F8C9
:105D0000241081F8FE0056F8241081F8FF000B499A
:105D10000C2004F0C7FE0A490D2004F0C3FE95F9DB
:105D2000010002F0B3F995F9010002F0BCF900207E
:105D30009BE70000DC250020ECD32000193E20006A
:105D4000293E20002DE9F04104461A4D55F8240063
:105D50006C3004F032FD82B2164600277AB155F855
:105D6000240090F8FD10012909D0802A0ED300F1FB
:105D70007C016C30802204F03BFD80260BE055F85E
:105D8000240080F8FC700020BDE8F08100F17C0167
:105D90006C3004F02DFD55F8240080F8007155F8A2
:105DA0002400324600F17C01001D02F0A1FC002815
:105DB000EAD1E9E7DC25002070B5022801D3E8200C
:105DC00070BD104D55F8204064B194F868604EB134
:105DD00051B14AB15E1C09D049F64046B34205D9DB
:105DE000E42070BDE52070BDE42070BD002684F87D
:105DF000FE6055F82000001D02F0F8FB0028F4D1E9
:105E000070BD0000DC2500202DE9FC4781460D46D1
:105E100016469A46DFF8A080D8F8FC00A84248DB76
:105E2000D8F80001A84201DA01F034F9D8F80001ED
:105E3000A8423CDB05F1F700F821B0FBF1F0C7B256
:105E400001242FE0002000900190ADF80090ADF803
:105E500002509DF8040067F3071064F303008DF807
:105E600004000521684600F002F98DF805009DF850
:105E7000060020F00300801C6AF382008DF8060003
:105E8000684600F025F90146304600F0F0F88DF83C
:105E9000070032466946D8F8F80006F003FBF836EA
:105EA000641CE4B2BC42CDD90020BDE8FC870520CB
:105EB000FBE70520F9E70000D831002010B5037892
:105EC000002B03D0FF2B01D0012010BD012205E0E3
:105ED000845C9C4201D0012010BD521C8A42F7D341
:105EE000002010BD2CF608BE10B500220821104677
:105EF00003F088FA00221021104603F083FA0022F2
:105F00002021104603F07EFA0649086843F63F72E6
:105F10009043086000F048F800F006F8BDE8104033
:105F200000F026B814AA004000B587B000228DF812
:105F300004204FF48070029005218DF80C10012090
:105F40008DF80D008DF80E2003228DF810204022D0
:105F500005928DF818108DF819008DF81A00034A73
:105F6000022101A8FEF73CFF07B000BDDD4D200077
:105F70007CB54020009002248DF804408DF8054047
:105F800000258DF8065069460420FEF759FD802053
:105F900000908DF804408DF805408DF80650694654
:105FA0000420FEF74DFD7CBD00B587B000F026F85B
:105FB00003208DF800001D208DF8160001208DF8BB
:105FC00017008DF818008DF81900064A0649684632
:105FD000FEF7B2FF0548FEF79DFFFEF7D7FB07B0BF
:105FE00000BD0000F75F200061602000F15F20002D
:105FF0000020FFF7D7BC0020FFF77EBD7CB514481A
:1060000000904FF4806001901248002101704FF41D
:10601000E1320264032242648164C16401650124A7
:1060200044650274022343610825457401760271B8
:10603000846007244471017307494163816380F8D8
:106040003C3080F83D206A460449FFF703FE7CBDE2
:106050003C2800203C2C002000400140F55A200044
:106060000A4601464FF47A730020FFF7A5BE10B52B
:1060700003460020002203E09C5C2044C0B2521C76
:106080008A42F9D310BD7CB540F6886201FB02F567
:1060900000226B46114600F067FE04463CB12146E3
:1060A000684605F021FEF83D04F58070F0E72846CB
:1060B0007CBD01F6FF72130B00F6FF72A3EB1232E8
:1060C00052B2081AC2EB1020C0EB4010C00070475B
:1060D0000279110902F00F028A4207D18078491E25
:1060E000A1EB411100EBC100C0B200E0F820F8289C
:1060F00000D900207047000030B591B005460C462D
:106100001C223C490AA8FCF71DFB1C2239491C3102
:1061100003A8FCF717FB384884420AD33748B4FB7E
:10612000F0F2A2F52852CD3AB4FBF0F100FB114198
:1061300001E0002200213C23B1FBF3F003FB10102F
:106140008DF80000B1FBF3F0B0FBF3F103FB11019C
:106150008DF80110B0FBF3F08DF802004FF4FA63F4
:10616000901D0721B0FBF1F401FB14008DF806002F
:1061700040F2B550B2FBF0F103EB8103B2FBF0F15A
:1061800000FB11214FF4B770814201D303AA00E054
:106190000AAA814209D3491E40F26D10B1FBF0F406
:1061A0002344B1FBF0F400FB14111F20B1FBF0F00D
:1061B000401CC4B28DF8044032F81400884202D862
:1061C000641C8DF804409DF80400401E12F8100075
:1061D000081A401C8DF80300A3F5FA638DF805300A
:1061E0000098286001986860BDF80800288111B007
:1061F00030BD00000CD4200080436D388051010078
:1062000070B54279642302F5FA62B2FBF3F403FB42
:10621000142242F6CD2340F26D145443D51C04EBF6
:1062200095041C44037940F26F1513FB05F50C2609
:10623000A5F5B57595FBF6F5022B01D8002202E015
:10624000920716D00222AA1A2244C378521E13447F
:10625000094A534382784FF4616412FB04F4427894
:106260000078C2EB021204EB82021844104408606A
:1062700070BD0122E7E70000805101000648074990
:1062800001E0401E02D00A68D206FAD408B100200C
:10629000704703207047000020A1070038A6004087
:1062A00010B5002198B1EFF31084012282F3108819
:1062B0000B4A52F8213063B1491C0329F9DB5CB168
:1062C000012080F31088032908DB0B2010BD022079
:1062D00010BD42F82100F2E70020F2E7002010BDD7
:1062E0006C340020174810B50068C0F3000038B1C6
:1062F000144808380068C0F3000008B104F074FBCB
:1063000011480068C0F3000038B10F480838006831
:10631000C0F3000008B100F071FC04F0DDFA0028C1
:106320000FD002F043FA00280BD00120FBF635FE17
:106330000648816821F480718160054800218170E0
:10634000C17010BD08E4004008E5004000A0004016
:106350007426002010B504F0BFFA20B102F026FA2E
:1063600008B1012010BD002010BD000010B50E497D
:106370001E2004F097FB04F0AFFA88B10120FBF671
:10638000E5FD0A49012008700949D1F8801211F48D
:10639000403F00D1002004F0F9FA1E20FDF79DFDDA
:1063A00000F0D2FB10BD00009F3D200074260020AD
:1063B00000A00040704700002DE9F041C0B00F463A
:1063C00010494FF48078D1F8F420497808EB013176
:1063D000561800F5807500240EE0424669463046A6
:1063E00003F0B4FD42466946284603F0B4FD06F5C5
:1063F000807605F58075641CBC42EED340B0BDE8E4
:10640000F0810000D83100202DE9F043C3B0894667
:1064100015494FF48078D1F8F420497808EB013120
:106420005618070B3F030024002201AB11463846E3
:1064300000F09AFC054685B1424603A9284603F0C0
:1064400085FD424603A9304603F085FD05F58077BA
:1064500006F58076641C0F2CE6D3C9F8007043B0B3
:10646000E0B2BDE8F0830000D8310020124810B53A
:10647000016821F00041016010490A78497842EA38
:106480008103011D0A6863F31F720A60016841F00D
:10649000004101600A48D0F8881241F00101C0F8BB
:1064A000881208491D2004F0FDFA4FF0E0214FF05A
:1064B0000050C1F8000110BD04A90040A026002032
:1064C00000E00040A53D2000F8B5EFF31086012064
:1064D00080F3108806208DF800006846FDF78CFCDC
:1064E0000220FAF525F83220FAF51CFB184C20683A
:1064F00020F400302060251F286840F0020028604A
:10650000144F7889FAF50EFB286820F00200286005
:10651000B889FAF507FB9DF80000FAF509F80C4870
:106520003830016889020CD400682168C0F3044047
:1065300041F400312160216821F4F83141EA003052
:1065400020601EB1012080F31088F8BD0020FAE71A
:1065500008A90040502700202DE9F043C5B0DFF81E
:10656000B890D9F8F850A5F58075002400270026CA
:1065700019E041AB01220021284600F0F5FB04465A
:1065800020000ED0BDF8041143AB0122D9F8F4006D
:1065900000F0EAFB0746380009D0A74207D00126E1
:1065A00005E0A5F58075D9F8F400A842E1D3002EE6
:1065B00027D042994198CDE90101204601264FF0AC
:1065C000000803AA01A902F0CBFA90B1761CF6B23A
:1065D0009DF80801B6EB101F02D94FF0010808E042
:1065E000BDF8041101AB3246284600F0BDFB00287F
:1065F000E7D1B8F1000F07D02246394643A800F092
:106600005EF845B0BDE8F083214641A8D9F8F820EE
:1066100000F055F8F5E70000D831002010B50C4621
:10662000A17921F00301A171801D0122A11D03F0B8
:1066300092FC04480168F83101602088BDE81040F0
:1066400005F07EBBD43200202DE9F04FBFB080466C
:106650008A469146FF22F82101A8FCF7A5F80027F9
:106660000824002089F800004FF6FF7B08EB0405A2
:106670002888584519D0284602F08DFAA8B1A87884
:106680000830C6B22888504504D13444012089F826
:10669000000008E001A8294638443246FCF70DF80E
:1066A0003444B819C7B2F82CE0D3F82201A908F194
:1066B0000800FCF702F83FB03846BDE8F08F2DE93E
:1066C000FC4105460F461646287904090DE0298845
:1066D0006B462246384600F047FB20B1B04202D25A
:1066E0006946FFF79BFF641EE4B2002CEFD1BDE8C2
:1066F000FC812DE9FC410E4617466FF30B00002587
:1067000012E000226B46114600F02EFB0446002CDE
:106710000CD0B4420AD269462046FFF77FFF04F549
:106720008070B04202D26D1CBD42EAD3BDE8FC814C
:1067300080F828107047000000B500F007F8024903
:106740000120886100BD00007834002030B5084C7D
:10675000012504F8045B84E80F000648241F8068C4
:10676000884201D2081A00E0401A606130BD000082
:10677000103500208826002010B502F07BF8044672
:1067800018210548FCF73AF8034A00212046117009
:10679000BDE8104000F018B910350020F0B40E46E6
:1067A0000146224F2048BB680578C0E9082199427C
:1067B00001D9CC1A00E05C1AFF68A7420AD28769A7
:1067C000A74201D9C0E90642012D09D0022D1FD0F0
:1067D000032D27D113463246F0BC0020FFF7ACBF93
:1067E00041619942016902D9491C816002E0491E58
:1067F000C1608168C268914206D2114449080161B2
:1068000001210170016909E002210170816805E040
:10681000C3699342DED00321017019463046F0BCB3
:1068200000F006B8F0BC7047B8340020882600207D
:10683000054A936A5B1C93628AB2C1B20348044B57
:10684000406801F0C1BF0000B83400208826002055
:106850009D67200070B50E4C05462C212046FBF7A5
:10686000CDFF0020A06040F2FF10FF22C4E9030228
:106870004FF0FF30A061A06AE9B2401CA062012085
:1068800020700448044B4068BDE8704001F09CBF94
:10689000B8340020882600209D6720002DE9F843A9
:1068A000254C0746904620780D4601280BD002283B
:1068B00013D008201346E0610A4601B03946BDE80E
:1068C000F043FFF739BF40F2FF11C4E903712846D6
:1068D000BDE8F843022200F061B800260096684641
:1068E000676100F02BF870B1012810D0022817D092
:1068F00003281FD0072043462A463946E061FFF7A8
:106900001BFFBDE8F8832846FFF7A4FFF9E70F2D2A
:1069100004D201223146681CA66006E00520EAE7A1
:1069200035B101220021681EA66000F037F8E8E7C3
:106930000620E0E70098DEE79834002010B51649FD
:10694000144A144C0B698968D26864698A4201D977
:106950008C4219D88A4201D28C4211D38A4201D981
:10696000521A00E08A1A8C4201D9611A00E0091B10
:106970009A4203D3994201D3002010BD9A4201D21A
:10698000012010BD994201D2022010BD03210160F7
:10699000084610BD9834002088260020074B30B4EC
:1069A0009C69641C9C6158601A708AB2C1B2044828
:1069B000044B406830BC01F007BF00009834002051
:1069C000882600209D68200070B5074C05462021D0
:1069D0002046FBF713FF00212846A160BDE8704068
:1069E0000122FFF7DBBF000098340020F8B51D4CF2
:1069F00000250E460095E169491CE161C4E9016288
:106A0000E168C4E9030118498968814201D2401A4A
:106A100000E0081A6169814201D9C4E905026846AB
:106A200000F024F840B101280BD002280FD0032831
:106A300011D00098A06200E0A562204600F098F80E
:106A4000F8BD012084F820003046A16906E0A16865
:106A50003046491C02E0A1683046491E00F04AF861
:106A6000F8BD0000E434002088260020F0B51F4A5D
:106A70001F4DD368A9688B4201D95C1A00E0CC1A7B
:106A8000ED68A54210D2576A012F0DD092F8204030
:106A9000012C09D0154CD6694FF0010CA569A468EA
:106AA000BE4203D3A54213D10020F0BD012E08D968
:106AB00016698E4201D98B42F4D38E4201D28B42A9
:106AC000F0D88B4208D9B4F5FF7F08D9092109E035
:106AD00082F820C00120F0BD1CB10320F0BD0220CF
:106AE000F0BD0A2101600420F0BD0000E434002064
:106AF000882600208AB2C1B20248034B406801F0E8
:106B000063BE000088260020ED69200070B50D46A8
:106B1000044616462C210948FBF770FE074B00205F
:106B2000B2B283F82000401E5C6258610448E9B2AA
:106B3000044B4068BDE8704001F046BEE4340020DC
:106B400088260020ED69200010B501F025FE002800
:106B50000AD00648007818B1BDE8104000F02EB801
:106B6000BDE81040FFF708BE10BD00001035002042
:106B700000B500F007F802490120886100BD00005F
:106B8000783400200B4901220A71826A8A60C26946
:106B9000CA60C2680A6142684A6182688A61C268E2
:106BA00005488068824201D9101A00E0801AC86145
:106BB0007047000028350020882600202DE9F0418C
:106BC00001F058FE804601F067FE07460A48094C6E
:106BD0002021466925682046FBF710FE6D1C002029
:106BE000256020713A4641463046BDE8F041FFF746
:106BF0008DBF0000283500208826002010B50E4CDF
:106C00002069401C206101F06DFEE06001F032FE61
:106C1000606001F041FE094A0021A06011606161DD
:106C2000E3692BB102462179E068BDE810401847BE
:106C30000120A06110BD00007834002000E5004074
:106C400070B5164890F80014154D28680122C0F35D
:106C50000220401C82408818C0B280F31188114C79
:106C60000F4821680C306268A36880E80E00232278
:106C700004F10C010C48FBF765FD216B4FF0E0209F
:106C8000C0F80011616BC0F80411A06B28600748C0
:106C90004068C0B280F3118870BD000002E000E0DF
:106CA0000CED00E0BC35002000E400E048270020A7
:106CB000EFF311800D4948604FF0E021D1F8002139
:106CC0000B480263D1F8041141630A4909680A4A72
:106CD00089B21143816307490C310EC901604260DA
:106CE0008360232205490C30FBF72CBD4827002088
:106CF000BC3500200CED00E00000FA0500E400E0E7
:106D000070B5054605EB01342646A4F5807420468F
:106D100001F08EFE40B12646A4F58074200501D115
:106D2000A4F58074AC42F2D8304670BD7CB5002624
:106D30000C48046804F580744568082269462046BA
:106D400003F004F9684601F026FF48B104F58074A9
:106D5000200501D104F58074AC42EED330467CBDF1
:106D60002646FBE7CC3200202DE9F04704460E46CC
:106D700017461D464FF0000900202860686014483F
:106D8000D0F8F88020051DD104F580741AE008229F
:106D90002946204603F0DAF816B12888B0420BD114
:106DA00027B1287900F00F00B84205D1284601F03C
:106DB000F2FE08B1A14607E004F58074200501D178
:106DC00004F580744445E2D34846BDE8F0870000EE
:106DD000D8310020F8B505460E4617461C460095EA
:106DE0003A466946304604F0D1FF78B10020206071
:106DF000606008222146009803F0A8F8204601F0C0
:106E0000CAFE08B10098F8BD0020F8BD23463A46F6
:106E100031462846FFF7A8FFF8BD2DE9F0410646A8
:106E20000F46B079400719D5304601F0B4FEA8B13D
:106E300008244FF6FF783519288840450ED028469B
:106E400001F0A9FE50B12888B84202D1E0B2BDE8F5
:106E5000F081688808340444F82CECD30020F6E76D
:106E600038B503F0BDF91D4C00224FF48041204697
:106E700002F0B6F90122D103204602F0B1F9002256
:106E80004FF48031204602F0ABF901225104204634
:106E900002F0A6F901229104204602F0A1F9012294
:106EA000D104204602F09CF900208DF80000A320B8
:106EB0008DF8010002208DF802000098FBF526F8FD
:106EC00003F050F9012002F088FD0548016821F027
:106ED00000610160BDE8384003F0ACB9000001403A
:106EE0000CAA004002494968002900D008477047B1
:106EF0003428002070B5044600BFFDF749F8054668
:106F00000120FDF73FF90948047024B9122208490D
:106F1000084802F0D7FD1DB90020FDF733F902E063
:106F20000120FDF72FF900BF70BD000018260020DA
:106F300024330020002000E010B5074840680749CE
:106F400048600648083010220349083102F0BAFDB3
:106F500003200249086010BDDC320020002000E060
:106F6000002003490968002900D008477047000045
:106F70003428002070B500BFFDF70AF8054601204F
:106F8000FDF700F90B48047834B912220A490B487E
:106F900002F098FDFFF7D0FF0120064908701DB9E7
:106FA0000020FDF7EFF802E00120FDF7EBF800BF4D
:106FB000204670BD18260020002000E02433002069
:106FC00013B501216846FDF7ABFF01201CBD000091
:106FD0002DE9F04788B004462D4ED6F8F80000F6AB
:106FE000FF70070B3F034FF480594FF0010A0794DD
:106FF0007178D6F8F40000EB0130494602F065FFE5
:1070000007A92046FFF700FA054628000AD02A46BD
:107010002046079905F000FA200B00032A4607993D
:10702000FFF767FB4FEA14384FEA083849464046F5
:1070300002F04BFF01A801F097FCD6F8F400201AEB
:107040000AEB10308DF814009DF8151008448DF8E7
:10705000160001A805F018FA75B129464046FFF759
:10706000ABF9002000907178D6F8F400012200EB13
:107070000130694602F06FFF04F58054BC42B6D37C
:107080007078002101F0B4FC08B0BDE8F087000082
:10709000D831002070B502F080FD094D2120287004
:1070A00004F016FEFFF742FE18B1FFF791FF044609
:1070B00000E00A242020287002F06EFD204670BDFA
:1070C000D8310020024600210BE0084850F831304A
:1070D000501E834204D1054800EBC1004068704750
:1070E000491C1029F1DB0020F9E700006C33002077
:1070F000002101E0491C4008C207FBD00846704748
:1071000070B5044600BFFCF743FF05460120FDF7BC
:1071100039F80020144908701448154908601548CA
:107120001549086012221549154802F0CBFC154894
:1071300012494860032008601222134802F0C2FC82
:1071400012220F490D4802F0BDFC882C01D004F03A
:107150009BFC1DB90020FDF715F802E00120FDF7AA
:1071600011F800BF70BD000018260020F56E200049
:1071700038280020756F200034280020002000E00F
:107180002433002000380020DC3200202DE9FE43AB
:107190000546002403208DF8000000260C4F4FF018
:1071A0000108E8070BD008FA04F0019007EBC400CF
:1071B0004068029057F8341009B168468847641C4B
:1071C000A4B26D08761C082EEBDBBDE8FE83000040
:1071D000D42F002070B50446204601F083FD012124
:1071E000204601F097FD13480168A14301608168C2
:1071F000A14381600221204601F0D2FD01212046F9
:1072000001F0E8FD0121204601F0F6FD00212046B5
:1072100001F074FD01250AE094FAA4F0B0FA80F1BF
:1072200005FA01F0611E0C40002101F093FD002CD5
:10723000F2D170BD00A2004000B58DB0016805918B
:10724000416801F00302069282680792C2680892C0
:107250000269099242690A9280690B9008090C90B0
:1072600009A80FC88DE80F0005A80FC801F0A6FCFB
:107270000DB000BD2DE9F041104DD5F80802C4B2A3
:10728000D5F88400C0F340066FF00207002C0CD044
:10729000D5F80802A043C5F80802E043C5F8080283
:1072A000C5F884702046FFF771FF002E03D0002C34
:1072B00001D1C5F88470BDE8F081000000A0004055
:1072C0000006000A05490968884303D0002018B168
:1072D000012070470120FAE70020704718AA0040FB
:1072E00010B5064C0448206001F0FAFDFDF790F956
:1072F0000021216010BD0000A2B4982B04A700401B
:107300000021FEF72DB8000070B504461248016850
:107310004FF080710160FEF7B1FF06460F494FF450
:10732000000000250860BFF34F8FBFF36F8F172059
:10733000FCF7A8FD65600B489FED090A80ED010A86
:10734000256080ED020A04481430016821F007012D
:107350000160304670BD000000A6004080E100E002
:1073600000000000082600202DE9F04704460D46E5
:107370004FF00009002601F0BDFDE8B3EFF31088DF
:10738000012080F31088354807686068B84200D053
:107390003E1A00EE106AD4ED050AB8EE400A80EEFF
:1073A000201ABCEEC10A10EE10AA00EE106AB8EE68
:1073B000400AFCF787FE6760206850442060284E32
:1073C000D6ED010A30EE800A86ED010AD4ED050AF9
:1073D00096ED010AF4EEC00AF1EE10FA11D296ED24
:1073E000010A80EE201ABCEEC10A10EE101A084401
:1073F000206096ED010A00E02AE0FCF763FE86EDCE
:10740000010A28462168FEF777FE94ED050A96EDFD
:10741000011AC1EE000A9FED131AB6EE000A00EE43
:10742000810ABCEEC00A10EE100A80B22881B0F5C5
:107430007A7F04D32878401C287000202881B8F176
:10744000000F07D0012080F310884846BDE8F08780
:107450000120FBE7002080F31088F6E750A60040EB
:107460000826002000007A442DE9F041054642F24A
:107470001074EFF31086012080F31088304F3868C5
:107480004FF080703860FEF7F9FEE8BB381D0168E8
:1074900021F0070101600020294944310860386863
:1074A00040F2055800EA080000F18070801C386046
:1074B000FEF7E4FE40BB22485030016809B1641E6B
:1074C000FBD16CB3002068601F489FED1E0A80ED61
:1074D000010A1E49296095ED050A80ED020A184946
:1074E000072018310860081F016841F0020101609F
:1074F000016821F0050101601720FCF7C3FC144965
:107500004FF40000086000E010E0386800EA08006E
:1075100000F1807010303860FEF7B0FE30B901E045
:10752000012003E00B483860FEF7A8FE26B10121D8
:1075300081F31088BDE8F081002181F31088F9E71C
:1075400000A60040000000000826002080436D389F
:1075500000E100E0010000012DE9FF4704460D466F
:10756000002701F0C7FCE0B3EFF31086012080F3A1
:1075700010883B48D0F80080C4F804802146284693
:10758000FEF73EFE94ED050A9FED361A2889DFF8D6
:10759000D890C0EE010A00EE100AB8EE400A20EEC4
:1075A000800A89ED010A0025019502950395009551
:1075B000207CC00749D001A82168FEF79DFD607AB4
:1075C0008DF80600207A8DF805008DF80450694684
:1075D00001A8FEF715FE21680098814206D8421ADC
:1075E00005E0FFE7012004B0BDE8F0870A1A0A2A87
:1075F0002BD3814202D91D4908440090206800998C
:1076000094ED051A081A00EE100AF8EE400A99EDFA
:10761000010A10EE810AF6EE000A30EE200ABCEEF6
:10762000C00A10EE100A00EB0804204601F06AFCC4
:10763000FEF724FE074642F210700949091D01E0D9
:10764000401E02D00A68A242FAD126B1012080F37E
:1076500010883846C7E7002080F31088F9E700005B
:1076600050A6004000007A44082600208051010006
:107670002DE9FE4F0446DFF800A1DAF80000DFF83C
:10768000FC90400705D5D9F80000C00701D00120C3
:1076900000E00020394D3A4F6FF008062D1D98B3D9
:1076A0002868C00730D04FF0010BC5F800B0C7F80C
:1076B0008460EFF310888BF3108830484030006806
:1076C00094ED050ADFED2F0A20EE200ABCEEC00A79
:1076D00010EE101A084401F015FCFEF7CFFDB8F1CA
:1076E000000F2AD0012080F3108869462046FFF75A
:1076F0003BFEA07A012824D0E07A9DF8031088424E
:1077000002D12046FFF7FCFDD9F80000C0F340008D
:1077100048B12868800706D502202860C7F8846031
:10772000204600F031F8DAF80000C00515D5D9F888
:107730000000400711D5012010E0002080F31088E0
:10774000D3E79DF80610E07A0BFA01FB10EA0B0F65
:10775000DAD02046FFF7D4FDD6E70020002809D074
:107760002868400706D504202860C7F884602046B2
:1077700000F0C8F9BDE8FE8F00A6004014A6004046
:1077800000A0004000C0A8470221FDF7E9BD0000AD
:1077900070B586B004460E4601F0ACFBF0B3EFF3D3
:1077A0001085012080F3108803A92046FFF7DCFD37
:1077B00002A903A8FEF724FD70788DF80E0030783A
:1077C0008DF80D0000208DF80C0001A903A8FEF72C
:1077D00017FDDDE90101884202D9411A032902D8C7
:1077E000294908440190207C40F001002074306851
:1077F000A06026480068DDE90112891A00EE101A1F
:10780000234994ED051AF8EE400A91ED010A10EEB5
:10781000810AF6EE000A30EE200A00E00EE0BCEE2F
:10782000C00A10EE101A0C18204601F06BFBFEF790
:1078300025FD42F21071154A121D04E0012006B028
:1078400070BD491E02D01368A342FAD150B90F4946
:107850005039086840F2055210400E4A1043086043
:10786000FEF70CFD094A0121383A1160111F0A6820
:1078700042F001020A601DB1012181F31088DEE7A8
:10788000002181F31088DAE78051010050A6004002
:10789000082600200400000170B504460D4601F0E2
:1078A00029FB68B300EE105A84ED030A207C40F0F7
:1078B00002002074EFF31085012080F31088D4EDCE
:1078C000051A9FED1F1A1F49C1EE810AB8EE401A32
:1078D000B6EE000A11EE200ABCEEC00A10EE100A45
:1078E000086019490860184C483C206840F205516E
:1078F0000840164908432060FEF7C0FC10B10CE0B8
:10790000012070BD206840F20511084040F48060FD
:1079100040F001202060FEF7B1FC0B4A0421303A10
:107920001160111F0A6842F004020A601DB10121B2
:1079300081F3108870BD002181F3108870BD0000B4
:1079400000007A440826002048A6004000020001FA
:107950002DE9F04704462DED048B84B0B0EE409A3B
:107960000027002601F0C6FADFF8849100B3D9F8A9
:10797000080005F061FB41EC180B19EE100A05F048
:107980005BFB53EC182B05F06DFA41EC100BFCF788
:107990008FFB9FED581B51EC100B53EC112B05F096
:1079A000E5F807D2002004B0BDEC048BBDE8F087F9
:1079B0000120F8E789ED029AEFF31088012080F3A7
:1079C00010884E480568F0EE490AC4ED050A606863
:1079D000A84200D02E1A00EE106AB8EE400A80EEDF
:1079E000201ABCEEC10A10EE10AA00EE106AB8EE22
:1079F000400AFCF767FB6560206850442060D9EDC1
:107A0000010A30EE800A89ED010AD4ED050A99EDEC
:107A1000010AF4EEC00AF1EE10FA0FD299ED010A54
:107A200080EE201ABCEEC10A10EE101A0844206045
:107A300099ED010AFCF746FB89ED010A0026019643
:107A4000029603960096207CC00745D001A82168C5
:107A5000FEF752FB607A8DF80600207A8DF805005B
:107A60008DF80460694601A8FEF7CAFB21680098FA
:107A7000814201D8421A00E00A1A0A2A2CD3814214
:107A800002D91F49084400902068009994ED051A16
:107A9000081A00EE100AF8EE400A99ED010A10EEFD
:107AA000810AF6EE000A30EE200ABCEEC00A10EEA3
:107AB000100A4419204601F025FAFEF7DFFB0746BD
:107AC000380009D142F210700C49091D01E0401E36
:107AD00002D00A68A242FAD1B8F1000F04D0012006
