:020000040020DA
:1020000020590120ED212000D33D2000091E1000A1
:10201000D13D2000FD2120001D3E200000000000D9
:10202000000000000000000000000000011E100081
:10203000FF21200000000000D53D2000DB3D2000F6
:1020400000F002F800F0C2F80AA090E8000C824408
:102050008344AAF10107DA4501D100F0B7F8AFF2E5
:10206000090EBAE80F0013F0010F18BFFB1A43F076
:102070000103184700C0000040C000000A444FF0B0
:10208000000C10F8013B13F0070408BF10F8014BD7
:102090001D1108BF10F8015B641E05D010F8016B1C
:1020A000641E01F8016BF9D113F0080F1EBF10F880
:1020B000014BAD1C0C1B09D16D1E58BF01F801CBA3
:1020C000FAD505E014F8016B01F8016B6D1EF9D526
:1020D0009142D6D370470000103A24BF78C878C127
:1020E000FAD8520724BF30C830C144BF04680C601E
:1020F000704700000023002400250026103A28BF66
:1021000078C1FBD8520728BF30C148BF0B60704769
:102110006E2900F01884702900F0B58166290BF053
:10212000C18565290BF0BE8567290BF0BB85612948
:102130000BF0BA8503681B0A28BF41F080016929AA
:1021400000F02681642900F02381752900F02081A8
:102150006F2900F01885782900F08181E92900F0C5
:10216000B384E42900F0B084F52900F0AD84EF29B0
:1021700000F01585F82900F080810368DB0928BF8D
:1021800041F08001632900F02284732900F0278444
:10219000E32901F0EB80F32901F0F0800020704783
:1021A0001FB50BF04CFD01F019F9040000200021CF
:1021B0000AF000FF401C6060002000210AF0E4FEED
:1021C000E06000F043FB1FBD10B510BDDFF80CD080
:1021D000FFF7E6FF07F010F901F0B6F920590120EA
:1021E00003B4FFF7F1FF03BC02F0B5F901488047E3
:1021F00001480047ED3D200019962000FEE7FEE76C
:1022000058585247010000000554000000202000EB
:10221000002020005EEC924700010000000000005A
:1022200000000000000000000000000000000000AE
:10223000000000000000000000000000000000009E
:102240007CB51D4616460C00009001D02044401E6F
:10225000074B7B442A4669460190304600F08DFBCF
:1022600005461CB10020694600F09AFB28467CBD5B
:10227000550700000FB4044910B503AA029800F0F6
:10228000B3FB10BC5DF814FB002700200FB41CB595
:10229000084B06AA7B4469460090059800F06DFB48
:1022A00004460020694600F07BFB20461CBC5DF81C
:1022B00014FB0000090700000FB47CB50C0009AA4C
:1022C000009001D02044401E084B7B446946019099
:1022D000089800F052FB05461CB10020694600F04A
:1022E0005FFB28467CBC5DF814FB0000DD060000A7
:1022F00070B5044685690068C10601D5302600E046
:102300002026C00707D070BDD4E901213046904790
:10231000206A401C20626D1EF6D570BD70B5044663
:1023200085690078C00707D170BDD4E9012120205C
:102330009047206A401C20626D1EF6D570BD70B5B6
:102340000C460546012A05D02878800600D5EA69A2
:10235000002302E0012305E05B1C934202D2E05C13
:102360000028F9D1A869E618C01AA861286A18449B
:1023700028622846FFF7BCFF04E0D5E9012114F8E4
:10238000010B9047B442F8D32846FFF7C7FF70BD52
:102390002DE9F0410646002410687529314616A53E
:1023A00010D000F065FA002802DA404213A507E0D9
:1023B00031688A0701D512A502E0490704D511A5A5
:1023C000012401E000F05DFA00210A2206F1240751
:1023D00009E0B0FBF2FCB0FBF2F302FB1C00303072
:1023E00078541846491C0028F3D123462A46304623
:1023F000BDE8F04100F04EBA000000002D000000E2
:102400002B00000020000000F0B40D4601880905F3
:1024100002D5214C7C4402E01F4C7C440E34002148
:1024200000F1240608E002F00F071209E75D42EA16
:1024300003721B097754491C52EA0307F3D102784F
:102440000023120704D5702D06D009B102231134E0
:102450002246F0BC00F01EBA01231034F8E770B534
:1024600004460D462146106800F00BFA0246294644
:102470002046BDE870400023C6E7D21D22F00703C6
:10248000D3E90023C0E70368126843F02003036028
:102490000823C3610023B7E73CBB00002DE9F05FD0
:1024A000894604464FF0000ADFF874B1FB44C0F8D7
:1024B00020A02046E1688847002874D0252806D04F
:1024C000D4E901219047206A401C2062F1E70026F0
:1024D0005F462046E16888472028054607DB312D06
:1024E00005D2781910F8200C08B10643F1E7B007BF
:1024F00001D526F00406C4F81CA00027C4F818A0D3
:102500002A2D09D0284602F01FF838B304EB8708BB
:10251000303DC8F8185019E059F8041B204604EB68
:1025200087029161E1688847012F054618D1E0696B
:10253000002820DA26F020061DE0D8F8180000EB6D
:10254000800005EB40003038C8F818002046E168EC
:102550008847054601F0F8FF0028EED1012F0AD088
:102560002E2D08D12046E16888477F1C0546022FA2
:1025700046F02006C4DBA069002803DA404246F09A
:102580000106A061F00701D026F010066C2D0BD0DB
:10259000682D09D04C2D39D06A2D35D0742D35D009
:1025A0007A2D33D016E038E0E1682F462046884780
:1025B000B842054609D16C2F26D04FF48060E168FF
:1025C000064320468847054604E06C2F1AD04FF496
:1025D000807006430DB3A5F14100192802D82035BB
:1025E00046F400664A462946204626604E46FFF7D6
:1025F0008FFD80B101280BD0F61D26F0070000F1F9
:10260000080956E74020E4E78020D8E70020D6E715
:1026100006F104094DE7284652E7206ABDE8F09F1D
:10262000CCBA000040EA010310B59B070FD1042A81
:102630000DD310C808C9121F9C42F8D020BA19BA8D
:10264000884201D9012010BD4FF0FF3010BD1AB1F2
:10265000D30703D0521C07E0002010BD10F8013B47
:1026600011F8014B1B1B07D110F8013B11F8014B6E
:102670001B1B01D1921EF1D1184610BD10B5431C91
:1026800002E010F8011B71B18107FAD14FF001325D
:1026900002C88C1A8C4314EAC211F9D0C01A0A0677
:1026A00003D0C01E10BDC01A10BD0A0401D0801E88
:1026B00010BD0902FCD0401E10BD032A40F230803C
:1026C00010F0030C00F0158011F8013BBCF1020F73
:1026D000624498BF11F801CB00F8013B38BF11F8F4
:1026E000013BA2F1040298BF00F801CB38BF00F80B
:1026F000013B11F0030300F02580083AC0F0088088
:1027000051F8043B083A51F804CBA0E80810F5E76B
:10271000121D5CBF51F8043B40F8043BAFF300804E
:10272000D20724BF11F8013B11F801CB48BF11F8C3
:10273000012B24BF00F8013B00F801CB48BF00F893
:10274000012B704710B5203AC0F00B80B1E818504B
:10275000203AA0E81850B1E81850A0E81850BFF48B
:10276000F5AF5FEA027C24BFB1E81850A0E818502A
:1027700044BF18C918C0BDE810405FEA827C24BF7E
:1027800051F8043B40F8043B08BF7047D20728BF0C
:1027900031F8023B48BF11F8012B28BF20F8023B5B
:1027A00048BF00F8012B704702F0FF0343EA032201
:1027B00042EA024200F002B84FF000020429C0F0E1
:1027C000128010F0030C00F01B80CCF1040CBCF163
:1027D000020F18BF00F8012BA8BF20F8022BA1EBB5
:1027E0000C0100F00DB85FEAC17C24BF00F8012B9A
:1027F00000F8012B48BF00F8012B70474FF0000292
:1028000000B5134694469646203922BFA0E80C50E6
:10281000A0E80C50B1F12001BFF4F7AF090728BFC1
:10282000A0E80C5048BF0CC05DF804EB890028BF3D
:1028300040F8042B08BF704748BF20F8022B11F066
:10284000804F18BF00F8012B7047000070B5064C90
:102850007C44064D7D4403E0206820448047241DCD
:10286000AC42F9D170BD00008CB900008CB90000F9
:1028700009684A0501D540B27047C905FCD500B2C8
:10288000704709684A0501D5C0B27047C905FCD533
:1028900080B270472DE9F0470D46994692460446AE
:1028A00000F124080168880604D5E06921F01001D0
:1028B000216000E00120A84201DD471B00E0002765
:1028C000A1697A1902EB0900081AA0612078C006F4
:1028D00002D42046FFF70CFD002608E0D4E90121D0
:1028E0001AF806009047206A401C761C20624E456C
:1028F000F4DB2078C0060AD52046FFF7F9FC06E095
:10290000D4E9012130209047206A401C2062381E03
:10291000A7F10107F4DC07E0D4E9012118F805006C
:102920009047206A401C2062281EA5F10105F3DCB7
:102930002046FFF7F3FC2078000602D50220BDE810
:10294000F0870120FBE711680268006A530501D592
:1029500008700AE0D30501D5088006E0130603D508
:10296000C217C1E9000200E00860012070470000C2
:1029700001694A1C02610878704700B58FB0CDE943
:1029800001310021059105497944CDE90310114633
:102990006846FFF783FD0FB000BD0000E5FFFFFFB5
:1029A0000A6802F8010B0A607047D1E900239A42D5
:1029B00002D2531C0B601070704710B5436913B1FD
:1029C000AFF3008001E0FFF7BAFC012010BD1278E0
:1029D00000F124010A7000224A700122EDE711681B
:1029E0004FF0FF32E9E70000074B70B50D467B441E
:1029F000FFF7C3FF0446284600F0C4FC10B14FF0B7
:102A0000FF3070BD204670BD8B4500002DE9FF5F93
:102A100015468A460446DFF8AC80F8440027D8E91A
:102A200000103E46CDE9001010E03AF816106A4654
:102A300002A800F0ABFC411C07D02178890603D521
:102A4000E269391891420DD80744761C2078800637
:102A500002D5E069B84205DDAE42E6DB3AF8160081
:102A60000028E2D1A069C01BA0612046FFF740FC0E
:102A7000D8E90010CDE90010002017E03AF818104E
:102A80006A4602A800F082FCB0F1FF3F81460BD0FD
:102A900000250DF1080B05E0D4E901211BF8050024
:102AA00090476D1C4D45F7D308F10100B0428046B8
:102AB000E4DB206A384420622046FFF72FFCBDE8A3
:102AC000FF9F000072B500002DE9F0418046D21D45
:102AD00022F007020025D2E90002F52915A614D03C
:102AE000011E72F1000106DA0023D0EB030063EB54
:102AF000020211A608E0D8F800108B0701D50FA636
:102B000002E0490701D50EA601251146002408F16F
:102B1000240704E000F04EF830323A55641C50EAC5
:102B20000102F7D12B46324621464046BDE8F0412E
:102B3000FFF7B0BE000000002D0000002B000000D9
:102B40002000000030B4002100F1240408E002F06D
:102B50000705D208303542EA4372DB086554491C48
:102B600052EA0305F3D10468002310A2250707D514
:102B7000A40600D421B1C46901230DA2641EC4615E
:102B800030BCFFF787BE10B5044621461068FFF73A
:102B900078FE02462046BDE810400023D2E7D21D51
:102BA00022F00701D1E90023CCE70000000000007B
:102BB0003000000030B5B0F10A024FEA900E71F11A
:102BC00000034EEA817EB0EB0E0061EB91014FEA0B
:102BD000101E4EEA017E10EB0E0041EB11114FEA80
:102BE000102E4EEA016E10EB0E0041EB11214FEA60
:102BF000104E4EEA014E10EB0E0041EB1141401811
:102C000041F100014FEAD00040EA41704FEAD101A2
:102C100010EB80054FEA810444EA907444EB010410
:102C20006D1944EB0404521BA3414FF0000348BF4D
:102C30000A3200D530BD401C41F1000130BD704763
:102C40002DE9FF4F0C461E464FF0FF378BB0D2E9FF
:102C50000001DDF860800A908A46C1F30A5505B983
:102C60003D46002108464FF00000BAF1000F00F485
:102C7000400005DA00EB80004FF4400101EA50000B
:102C80004FEA9059B9F1010F00DDB9460A9850EAB0
:102C90004A000ED044F61050A5F2FF3545432F14DC
:102CA000B8F1000F1ED07542291E1EDDC9F10002C9
:102CB0001CE0B8F1010F4FF0000001D0302103E01B
:102CC000F24305E02154401CB042FBDB30460022B9
:102CD000002121540B99C1F80880C1E900200FB0F0
:102CE000BDE8F08FBD1B6D1CDEE74A4600DA694285
:102CF00006A800F0B7FB06AB93E8070003AB83E838
:102D0000070050460A9900F069FC8DE80700A0F51D
:102D100000501F3800900398002D0ADD42F21F0179
:102D20004A460844002303A90390684600F0D2FEF7
:102D300009E0A0F500504A461F38002303A903907C
:102D4000684600F0DCFE8DE807000004000C03D0AC
:102D50004FF0FF30410800E01046B8F1000F03D0FB
:102D60000022009215461EE0751E05D4FFF722FFD3
:102D7000303262556D1EF9D5B3460122084302D0A8
:102D800000227F1C04E02078302801D100227F1E21
:102D9000002A099784D01DE0112D07DAFFF70AFFFA
:102DA000303262556D1C50EA0102F5D1084302D061
:102DB0000098C8B10EE00021681E05E0235C625C4B
:102DC00063542254401E491C8142F7DBAB46A81BCA
:102DD000401E0990002004F80B000B98099AC0F8D7
:102DE0000880C0E9002B7AE711264FF0000857E76A
:102DF0002DE9F04F88460446D21D22F0070191B01C
:102E0000D1E90001CDE90A0101F009F802460B9869
:102E1000C00F01D02D2007E02068810701D52B20AD
:102E200002E0202101EAC000032A099001D0072A0C
:102E300005DB03464146204600F0D4FA0BE120783A
:102E4000800601D5E06900E00620B8F1650F8146F3
:102E500006D0B8F1660F18D0B8F1670F70D131E025
:102E60000020B9F1110F009001DB112301E009F1FD
:102E700001030AAA01A90CA8FFF7E2FEDDE90C7024
:102E8000002609F10105834647E001204B460090EA
:102E90004FF000470AAA01A90CA8FFF7D1FEDDE90F
:102EA0000DB00C995D46002610B909F101000D180E
:102EB000B9EB050003D4C0F1FF3609F10105A5EB1C
:102EC00009002BE0B9F1010F01DA4FF001090020F0
:102ED000B9F1110F0090484601DD112300E00346CF
:102EE0000AAA01A90CA8FFF7ABFEDDE90C704D465C
:102EF00000268346207800070AD4AB4500DA5D46F9
:102F000001A8012D04DD411911F8011C302907D059
:102F10004F4502DA17F1040F04DA012082460FE070
:102F20006D1EEEE7002F02DCED1B3E4403E0781C33
:102F3000A84200DD7D1CB81B00F1010A4FF00047DC
:102F40002078000703D4AA4501DB4FF0FF3A0021A7
:102F5000B7F1004F0DF143088DF8431024D0022043
:102F60002B23002F01DA7F422D230A21021EA0F11C
:102F7000010000DC5FB197FBF1FC97FBF1F201FB74
:102F80001C7C17460CF1300C08F801CDEEE7A8F1D7
:102F9000010003702188090501D5452100E0652164
:102FA000A0F1010800F8011C09980FA9A1EB08077E
:102FB000FF1D00B10120411901EBEA70A1693844FD
:102FC000081A401EA0612078C00602D42046FFF7F0
:102FD0008FF9099828B1D4E901219047206A401C53
:102FE00020622078C00622D52046FFF781F91EE036
:102FF000002E04DBB34502DD01A8805D00E0302037
:10300000D4E901219047206A401C2062761CAAF175
:1030100001005FEA000A0AD100F0E0F9C068016827
:10302000405CD4E901219047206A401C2062281EA0
:10303000A5F10105DCDC07E0D4E9012118F8010B5A
:103040009047206A401C2062381EA7F10107F3DC7C
:103050002046FFF763F9032011B041E62DE9F04F58
:1030600004460D46D21D22F0070089B0D0E9009732
:103070004846394600F0D3FE0246F80F01D02D2312
:1030800007E02068810701D52B2302E0202101EA17
:10309000C0038DF820300BB1012000E00020032A8E
:1030A000824601D0072A04DB2946204600F09AF91F
:1030B0003FE12078800601D40D2500E0E569C7F3E3
:1030C0000A560D2D49DA00214FEA175B08464FF0EA
:1030D0000000002F00F4400007DA00EB80004FF4FE
:1030E000400100EBD07001EA60008115012901DD8B
:1030F0004FF0FF3100224FEA850CBCF1180F06D3C8
:103100001346ACF118004FF08052C24003E04FF478
:10311000801323FA0CF30CF10C0CBCF1200F04D338
:10312000ACF1200C09FA0CF001E007FA0CF00029D0
:103130004FF0004801DD18B90FE00ED140450CD327
:1031400019EB02095F4121B9404502D19F4329EAA9
:103150000209BBEB175F00D0761C2088000502D562
:103160007B48784402E07A487844193808AA30232A
:1031700002F80A30037C0AF10101002E0AF1020A6A
:1031800053546A4602DC4FF0300101E04FF0310148
:103190004FF001088DF8001002D0A6F2FF3603E0D0
:1031A00059EA470100D06B4E002D02DC2178090757
:1031B00004D54FF002082E218DF80110C4460021DD
:1031C0000BE0C7F303433F01C35C491C6D1E02F8CB
:1031D0000830052908F1010801DA002DF1DC002191
:1031E0000CE000EB1973491C1B786D1E082902F8CE
:1031F00008304FEA091908F1010801DA002DF0DC66
:1032000021688B0602D516E0A8F10108E04505DD2E
:1032100002EB080313F8013C302BF5D0B8F1000F96
:1032200009DD02EB080313F8013C2E2B03D109073B
:1032300001D4A8F10108002D05DD3E2102F8081097
:103240006D1E08F10108407C002E02F8080008F10C
:10325000010804DA2D20764202F8080002E02B2053
:1032600002F808000A214FF47A70864208F101083A
:103270000BDB96FBF0F3303302F8083096FBF0F3EB
:1032800008F1010800FB136601E0642E0CDB6420EA
:1032900096FBF0F3303302F8083096FBF0F308F1B8
:1032A000010800FB136601E00A2E06DB96FBF1F035
:1032B000303002F8080008F1010896FBF1F001FB3C
:1032C0001060303002F80800A16908F1010808EB2D
:1032D000050202EB0A00081AA0612078C00602D499
:1032E0002046FFF705F8216A08AE01EB0A002062CC
:1032F00004E0D4E9012116F8010B9047BAF1010A64
:10330000F7D22078C00602D52046FEF7F1FF6E46C0
:1033100009E016F8010B3E280FD0D4E901219047AF
:10332000206A401C2062B8F10108F2D22046FEF764
:10333000F5FF09B00320BDE8F08F206A2844206221
:1033400003E0D4E90121302090476D1EEBD3F8E76C
:1033500045AE000002FCFFFF10B5436913B1AFF3A7
:10336000008001E0FFF752FB012010BD128800F140
:10337000240182840022C2840122EDE711684FF00B
:10338000FF32E9E7007B00F08000704770B5164619
:103390000C46054600F01AF8036893F8010101286D
:1033A00006D0FF2C0FD8185D68B101202C7070BDBD
:1033B000D3F807013246214603F207130344284697
:1033C000BDE8704018474FF0FF3070BD10B500F0F9
:1033D00005F8001D10BD00BFDD9B000000487047D0
:1033E000983A00202DE9F0411F4604460326016863
:1033F000072A01F4006004DB08B116A505E016A554
:1034000003E008B115A500E015A521F0100020602B
:10341000A069C01EA0610FB1401EA0612046FEF74A
:1034200067FF4FB1D4E9012138469047206A401C1C
:103430002062C01C206206E0206AFAE7D4E901217C
:1034400015F8010B9047761EF8D22046FEF766FF6E
:10345000BDE8F0814E414E006E616E00494E46005F
:10346000696E66002DE9F047814616468AB03548F8
:1034700078440DC88DE80D0032487844801C03ACB8
:103480000DC884E80D0041F69B300844372190FBBD
:10349000F1F290FBF1F5A5F1800501FB12041B3C54
:1034A00002D56442012000E00020DFF898A08046A9
:1034B0000027FA44AAF1BE0A0EE0E0070AD032461D
:1034C000684607EB470101230AEB810100F017FB77
:1034D0008DE8070064107F1C002CEED1194F7F444B
:1034E000AE3F19E0E80715D007EB04100DF1180AFC
:1034F00090E80E008AE80E00C068F04201D19819E9
:1035000008903246012306A903A800F0F8FA03AB9D
:1035100083E807006D10641C002DE3D14FF0010318
:1035200032466946B8F1000F03A802D000F0D2FA83
:1035300001E000F0E4FAC9E90001C9F808200AB086
:10354000BDE8F087C8AB000010B50446AFF30080BB
:103550002046BDE81040FEF743BE00004FF0013C9E
:1035600050F8042B51F8043B9A4221D1A2EB0C03F2
:10357000934313EACC1317D150F8042B51F8043BB2
:103580009A4215D1A2EB0C03934313EACC130BD14F
:1035900050F8042B51F8043B9A4209D1A2EB0C03DA
:1035A000934313EACC13DBD04FF00000704700BF09
:1035B000D01A01BAB1FA81F101F0180122FA01F032
:1035C000CB40C1F12001DBB2C0B2C01A2CFA01F32A
:1035D000D11A914311EAC311E6D170475FEA400C5A
:1035E00008BF91F0000F4FEA8C234FEAC12243EA53
:1035F00051514FEA1C5018BF00F5F0404FEA30001F
:1036000018BF41F000415FEA6C5C00F02980BCF11A
:10361000FF3F08BF40F080407047130C06BF120404
:103620004FF0100C4FF0000C130E04BF12020CF1FF
:10363000080C130F04BF12010CF1040C930F04BF0C
:1036400092000CF1020CD30F04BF52000CF1010CDC
:1036500011464FF00002A0F11F00A0EB0C007047D4
:1036600011F0004F08BF704731F000413FF4D5AF73
:103670000B0C06BF09044FF0100C4FF0000C0B0EA2
:1036800004BF09020CF1080C0B0F04BF09010CF177
:10369000040C8B0F04BF89000CF1020CCB0F04BF8C
:1036A00049000CF1010CCCF12003A0EB0C0022FA34
:1036B00003F302FA0CF241EA030100F10100704742
:1036C00020F07F4C80EA030023F07F47ACEB070338
:1036D00003F57C5300F0004003F1FF032DE980491E
:1036E0004FEA154B09B44FEA144325EA0B4E24EA7E
:1036F00003480FF2042606EB132749083E785FEAD9
:10370000320203FB0667C7F5000707FB06F64FEA20
:1037100054374FEAD64606F1020607FB066CCCF199
:10372000005C4FEA1C472CEA074C07FB06F40CFB35
:1037300006F504EB15464FEA961634BF00204FF00D
:1037400000404FEAD13706FB07FC4FEA1C4C0CFB4C
:103750000BF7D21B03FB0CF761EB07010CFB0EF719
:10376000B0EB074072EB17420CFB08F734BFA2EB3B
:103770000742B2EB074261EB17414FEA0C444FEAB4
:10378000910706FB07FC4FEA1C4C0CFB0BF7B0EB58
:10379000C74072EB573203FB0CF734BFA2EBC742B2
:1037A000B2EBC74261EB57310CFB0EF7B0EBC70031
:1037B00072EB57720CFB08F734BFA2EBC702B2EBF7
:1037C000C70261EB5771039F4FEA816141EA921191
:1037D00004EBCC044FEAD1374FEA826206FB07FCC8
:1037E00042EA90124FEA80604FEA1C4C0CFB0BF748
:1037F000D21B03FB0CF761EB07010CFB0EF7B0EBE0
:10380000074072EB17420CFB08F734BFA2EB0742EC
:10381000B2EB074261EB17414FEA8C554FEA910733
:1038200004EB9C2406FB07FC4FEA1C4C0CFB0BF73B
:10383000B0EBC74072EB573203FB0CF734BFA2EB7F
:10384000C742B2EBC74261EB57310CFB0EF7B0EB4E
:10385000C70072EB57720CFB08F734BFA2EBC7022C
:10386000B2EBC70261EB577115EB4C254FEA816152
:1038700041EA92114FEA82624FEAD13742EA90124E
:1038800006FB07FC44F100044FEA80604FEA1C4C41
:103890000CFB0BF7D21B03FB0CF761EB07010CFBD6
:1038A0000EF7B0EB074072EB17420CFB08F734BF82
:1038B000A2EB0742B2EB074261EB174115EB1C1577
:1038C0004FEA813141EA92414FEA823242EA904224
:1038D0004FEA80304FEA0C7644F1000448EA034393
:1038E0004EEA0B484FF0000EB2EB080C71EB0307E9
:1038F00024BF624639464EEB0E0E4FF0000B001807
:10390000524149414BEB0B0BB2EB080C71EB030737
:103910007BF1000B24BF624639464EEB0E0E4FF092
:10392000000B0018524149414BEB0B0BB2EB080C5A
:1039300071EB03077BF1000B24BF624639464EEB67
:103940000E0E51EA020718BF46F0010616EB0E767E
:1039500055F1000254F1000103D5BDE88901BDE82D
:103960000088BDE88901BDE80048B619524141EB25
:103970000101A3F10103704780807F7E7D7C7B7A0B
:103980007978777676757473727171706F6E6E6D0B
:103990006C6C6B6A6A6968686766666564646363B1
:1039A00062616160605F5F5E5E5D5D5C5C5B5B5A37
:1039B0005A595958585757565655555554545353A4
:1039C00052525251515050504F4F4F4E4E4D4D4DFF
:1039D0004C4C4C4B4B4B4A4A4A494949484848474A
:1039E0004747474646464545454444444443434388
:1039F0004342424242414141002B9C4630D4770031
:103A00002BD01CB54FEA370703B44FF010004FF02E
:103A10001001BAF1000F06D0BCF1000FDCBF40F07E
:103A2000080040F008014FF000000FBCBDE8104056
:103A30000BF1010BBBF1010F08BF5FEA170722BFB3
:103A400012F1010211F101014FF0004143F10003B5
:103A500000F0004043EA00007047F9D35708D0E770
:103A600046EA064613F1400F4FEA16461FDD13F1F2
:103A7000200FDFBF16430A46002120335B42BED031
:103A8000C3F1200746EA064602FA07F74FEA164650
:103A900046EA0706C3F1200722FA03F201FA07F704
:103AA00021FA03F14FF0000342EA0702A7E746EAD2
:103AB000020646EA06464FEA164646EA0106BCBF3B
:103AC00046EA0646360C4FF000034FF000024FF076
:103AD000000194E72DE9804C9A46934670B491E832
:103AE000380007C831EA400C48BF34EA430C03D51C
:103AF000FFF7E6FDFFF780FFF0BCBDE8008C2DE985
:103B0000804C9A46934670B491E8380007C810F08C
:103B1000804F08BF13F0804F03D100F005F8FFF786
:103B20006BFFF0BCBDE8008C20F07F4780EA03000B
:103B300023F07F4C07EB0C03A3F57C5300F000400F
:103B4000A3F1FE0392F0000F00F0B38095F0000F98
:103B500000F077802DE901494FEA11404FEA144601
:103B600021EA004800FB06FC24EA064708FB06F6AB
:103B700007FB08F800FB07F718EB06484CEB164C60
:103B80004FEA124B18EB07484FEA15464CEB17402B
:103B900022EA0B4E0BFB06FC25EA06470EFB06F657
:103BA00007FB0EFE0BFB07F71EEB064E4CEB164C0D
:103BB0004FF000061EEB074E4CEB174B18EB0B08B3
:103BC00040F1000018EB0E0B58EB000840F100002C
:103BD0008F1A4FF000013CBFC943661B14BFB5EB01
:103BE000040C00213CBFC943F61B4FEA17444EEAC0
:103BF0008E0E27EA04454FEA1C4704FB07622CEAB5
:103C0000074C05FB07F70CFB05F604FB0CFC16EB59
:103C1000074642EB174216EB0C4642EB1C421BEBED
:103C2000060658EB0202414146EA9E0601D5BDE870
:103C30000189B619524141EB0101A3F10103BDE82D
:103C400001894FEA14454FEA114724EA054621EA63
:103C5000074C05FB07F406FB07F70CFB06F105FB19
:103C60000CFC11EB074144EB17444FEA124711EBF0
:103C70000C4144EB1C4422EA074C05FB07F206FB0F
:103C800007F70CFB06F605FB0CFC16EB074642EBB0
:103C9000174216EB0C4642EB1C456A1854F1000122
:103CA00048BF7047B619524141EB0101A3F101032E
:103CB000704795F0000F37D04FEA11424FEA144792
:103CC00021EA024624EA074C02FB07F106FB07F74C
:103CD0000CFB06F402FB0CFC14EB074441EB174110
:103CE0004FEA154714EB0C4441EB1C4125EA074C05
:103CF00002FB07F506FB07F70CFB06F602FB0CFCC4
:103D000016EB074645EB174516EB0C4645EB1C42F8
:103D1000121951F1000148BF7047B619524141EBE9
:103D20000101A3F1010370474FEA14454FEA11471F
:103D300024EA054621EA074C05FB07F106FB07F7D5
:103D40000CFB06F24FF0000605FB0CFC12EB0742E1
:103D500041EB174112EB0C4251EB1C4148BF70473D
:103D6000921841EB0101A3F10103704710B503F66E
:103D70004FFA10B102F046F910BDBDE810402AF626
:103D800035BD02F093BA000010B52AF61BFE0228DA
:103D900018D00D4CD4F8880220F00100C4F8880235
:103DA0004FF0E0214FF00050C1F8800204F522747A
:103DB00002F06EFB05484168491C4160206840F0F4
:103DC0000100206010BD000000E00040B827002086
:103DD000FEE7FEE7FEE703F089BEFEE70249096859
:103DE00001F007010170704700A00040024801681F
:103DF00041F470010160704788ED00E002480068FE
:103E0000001D04F091B80000E82600200248406838
:103E1000001D04F089B80000E8260020FEE703B486
:103E200001984100009850EAC12018BF04204A0DB3
:103E300018BF40F0010040F2FF72B2EB515F08BFC3
:103E400040F00200012808BF052002B0704700289A
:103E500009DB00F01F02012191404009800000F1C0
:103E6000E020C0F880127047002809DB00F01F0234
:103E7000012191404009800000F1E020C0F880124B
:103E8000704700280DDB00F01F020121914040091E
:103E9000800000F1E020C0F88011BFF34F8FBFF326
:103EA0006F8F7047002809DB00F01F02012191404D
:103EB0004009800000F1E020C0F8001170470028A0
:103EC00009DB00F01F02012191404009800000F150
:103ED000E020C0F800117047002809DB00F01F0245
:103EE000012191404009800000F1E020C0F800115C
:103EF000704700280FDB4109890001F1E021D1F86A
:103F0000001100F01F0201209040014201D0012069
:103F100070470020704700207047002804DB00F144
:103F2000E02090F80004704700F00F0000F1E0205E
:103F300090F8140D7047002804DB00F1E02090F8A1
:103F40000004704700F00F0000F1E02090F8140D1D
:103F50007047000002480068C0F30220704700006C
:103F60000CED00E002480068C0F30220704700003A
:103F70000CED00E0EFF3108070470000000000003F
:103F80002DE9F0412DED020B9FED3D0B2DED028B48
:103F90009FED3D8BDDE90254C4F30A50A0F2FF36D9
:103FA000142E37DA002E18DA53EC102B9DED020B8D
:103FB00051EC100B09F020F853EC182B09F018FC09
:103FC00057D2002CBCBF4FF00044002551DB54EA0F
:103FD000050018BF2E4C1BD14BE02E4820FA06F7E7
:103FE00004EA070028431FD053EC102B9DED020B71
:103FF00051EC100B09F000F853EC182B09F0F8FB0A
:1040000037D2002C03DD4FF48010F0400444BC4351
:1040100000252EE0332E07DCA6F114004FF0FF310F
:1040200021FA00F73D4206D19DED020BBDEC028B5B
:1040300002B0BDE8F08153EC102B9DED020B51EC6A
:10404000100B09F065FC53EC182B09F0D1FB10D2D2
:10405000002C0DDD142E08BF641C09D0C6F13400FD
:10406000012101FA00F02844A84238BF641C05462B
:10407000BD43CDE902549DED020BD7E700000000DF
:104080009C7500883CE4377E0000000000000000C2
:104090000000F03FFFFF0F0010B52DED020B2DEDDE
:1040A000088B84B09DED0C0B51EC100B09F0D6FB86
:1040B00041EC180B9DED0C0B53EC182B51EC100B35
:1040C00009F032FC41EC190B0D989FED290B10F013
:1040D000004F53EC102B51EC190B9FED21AB9FEDD2
:1040E00022BB0ED009F04AFA0ED953EC1B2B51EC2F
:1040F000190B09F07DFB1CD214E000BF41EC180B3A
:1041000017E009F03BFA06D253EC1A2B51EC180BCE
:1041100009F00AFCF2E753EC1B2B51EC190B09F0E8
:1041200067FB06D853EC1A2B51EC180B08F064FF10
:10413000E4E78DED028B9DED0C0B18EE901A10EE5E
:10414000900A8DED000B61F31E0003909DED020BB4
:1041500004B0BDEC088B02B010BD000000000000F0
:10416000000000000000F03F000000000000E03F01
:10417000000000000000E0BF80F3108870470000DE
:104180002DE9F74F07460298DFF86CA1DFF86C8144
:104190004FEA500B5A48019D5C465646CAF800004B
:1041A000D8F804203F2060F30502C8F80420DAF8AC
:1041B000000020F4700040EA0750CAF80000DAF866
:1041C000000020F4702040EA0740CAF800000D2FDC
:1041D00002D00E2F04D007E0306840F4004002E027
:1041E000306840F480403060306840F40050306007
:1041F000306820F060503060306820F00F0040F0F0
:1042000003003060002000F0AFF8012872D131685F
:10421000B24641F0804131600020424609E0D8F8C2
:10422000083043F48033C8F80830811C00F10100E5
:1042300005D091689046C1F300210029EFD10720F5
:1042400000F092F8012855D142E000264FF47A7927
:1042500024E04E451ED9DAF8001021F08041CAF85A
:104260000010DAF8001041F00041CAF80010DAF846
:10427000001021F00041CAF80010002000F074F88E
:10428000012837D11F480169491C01610520FCF54F
:1042900049FC7FE70120FCF545FC761CD8F80800B6
:1042A000C0F300200028D4D0D8F80800434600F01E
:1042B0007F02A24200D92246002006E0196825F8B4
:1042C000021B090C25F8021B401C9042F6D3A41ACD
:1042D000002CBAD10298C00707D040468168C1F3CC
:1042E00000210029FAD000682880BDE8FE4F002098
:1042F00000F03AB8BDE8FE8F00A8004000E00040A2
:104300000A070807B82700202DE9F04112490446A2
:1043100000200860104980390860104D686A104E0E
:1043200000F0010149420140F061C8050DD440F29E
:104330000117A869B84208D024B10120641EFCF519
:10434000F1FBF6E70020BDE8F081064800687061E7
:104350006868B0610120F6E794581C4200E0004014
:10436000B827002000A800402DE9F041104F054675
:10437000F868C0F30240A84217D0F86820F00700A0
:104380002843F86000244FF6FF76F868C0F3024037
:10439000A84205D00120FCF5C5FB641CB442F4D34F
:1043A000B44202D10020BDE8F0810120FBE700000B
:1043B00000E00040F0B50C462DED088B89B00646B4
:1043C0009FED559B20216846FEF718FAB0EE498A0A
:1043D000F0EE698A102269463046FFF7D1FE0025CB
:1043E0006F4607EB4500008A09F06FF853EC182B75
:1043F00008F002FE6D1C41EC180BEDB2082DF0D355
:104400009FED470B51EC180B53EC102B09F0F2F811
:1044100041EC180B9FED44BB0D2E02D00E2E30D078
:1044200072E0608809F051F853EC1B2B08F098FEFD
:104430009FED3F0B41EC190B51EC100B08F0D0FD38
:1044400041EC1A0BE08809F040F853EC1A2B09F004
:10445000D1F841EC1A0B208809F037F853EC182BEF
:1044600009F056FA53EC1A2B08F07AFE9FED321B36
:1044700053EC112B08F074FE53EC192B08F0BCFD23
:1044800040E0A07EFF2801D0E8B13DE09FED2C0B7D
:1044900051EC100B08F0A4FD41EC1A0BE08809F078
:1044A00014F841EC190B208909F00FF853EC182B84
:1044B00009F02EFA53EC192B08F052FE53EC1A2B8C
:1044C00009F098F81EE0A08808F0FFFF41EC190BF6
:1044D000E08808F0FAFF08F083FD41EC1A0B208910
:1044E00008F0F3FF53EC182B09F012FA53EC1A2BD7
:1044F00008F036FE53EC192B09F07CF853EC1B2B1B
:1045000008F02EFE41EC190B09B0B0EE490AF0EEAE
:10451000690ABDEC088BF0BD00000000000000003F
:10452000000000000000C03F0000000000005940F3
:104530000000000000000040DE718A8EE4F25FBFE0
:10454000E2E1E1E1E1E10E4030380A2801D2012048
:10455000704700207047704710B5014607F0A0FA79
:10456000B0B116480068C0F3805088B901F114005A
:10457000134A142802D240F2DC5007E011F1140F64
:1045800002DA4FF4AF6001E04FF4C8605061D061CF
:1045900007F096FA00280FD00C46FDF6F7FE022829
:1045A0000AD13C2C01DD142002E0322C04DA1C205C
:1045B000BDE8104003F0ACBF10BD000014A80040DF
:1045C0009C36002010B51A4940F21A444FF4B972D3
:1045D0000B694FF496710C3BA3420FD90424BE28FB
:1045E00001DC0C241BE0DC2801DC082417E0FA289D
:1045F0000EDD884210DD904211DD0FE0BE2801DCA7
:104600000B240CE0DC2801DC072408E0FA2801DC9C
:10461000062404E0884201DC052400E0032420464F
:1046200004F05EFA2046BDE8104004F045BA0000F0
:104630009C36002010B50B4C2089012811D194F82C
:104640004B0000280DD1608F08F03FFF9FED061B47
:1046500053EC112B08F0CEFF08F00AFF218F08441D
:10466000208710BD403500209A9999999999A93FC2
:104670000748084901E0401E04D00A68C2F340021E
:10468000002AF8D108B100207047032070470000CD
:1046900020A1070038A7004006460F46154672B60F
:1046A0003846FDF7EBFF402801D9402002E03846AC
:1046B000FDF7E4FF80463046FDF7E0FF402801D9D2
:1046C000402002E03046FDF7D9FF04469C21104807
:1046D000FEF794F8424639460D48FDF7EEFF0C48C8
:1046E000224631465C30FDF7E8FF09484FF0AA3119
:1046F000016445644FF0BB3181644FF0CC310165FA
:104700004FF0DD318165002000F004F8FEE7000085
:104710003432002030B5ADF20C4D04464FF48061C8
:1047200003A8FEF76BF8194D202085F83F0085F8A7
:104730009B003CB12846012C436DC26C09D0022C71
:104740000CD00FE0114A12A15C3203A8FDF79EFDC8
:1047500008E012A103A8FDF799FD03E017A103A843
:10476000FDF794FD03A90CA2686CCDE9012100902E
:1047700019A3064A19A1002000F05AFC012C01D00F
:1047800000F010FC0DF20C4D30BD00003432002062
:104790005B4552524F525D20257300005B574152DA
:1047A0004E494E475D20506172616D303A25642C50
:1047B000506172616D313A25640000005B504152D6
:1047C000414D5D20506172616D303A25642C50611D
:1047D00072616D313A256400000000006170705F05
:1047E0006173736572742E6300000000014806F067
:1047F00069BD00000427002006460F4690461D466E
:1048000072B64046FDF73AFF402801D9402002E049
:104810004046FDF733FF04469C210D48FDF7EEFFAF
:10482000224641460A48FDF748FF09484FF05531F6
:10483000016445644FF066318164C6644FF077319E
:1048400001654765C94381650220FFF763FFFEE705
:10485000343200202DE9F04106460F4690461D46B1
:104860004046FDF70BFF402801D9402002E04046BA
:10487000FDF704FF04469C210D48FDF7BFFF2246CB
:1048800041460B48FDF719FF09484FF0113101640B
:10489000456449008164C6644FF033310165476562
:1048A0004FF044318165BDE8F0410120FFF732BF90
:1048B000343200202DE9F041014600291BD00024AC
:1048C0000F4E0E4A357814E002EB04100F7803788F
:1048D000BB420CD14B684068034208D0707808B9DD
:1048E00000F03EFB2046BDE8F04100F06DBA641CCC
:1048F000E4B2AC42E8D3BDE8F0810000042F002010
:10490000D02600207CB505460E46002D01D000249F
:1049100018E0E5207CBD05EB041041680091017AA8
:104920008DF80410417A8DF8051000218DF80610DD
:10493000C26800780023694600F038F80028E9D101
:10494000641CE4B2B442E6D300207CBD10B502463C
:104950000846052A25D2DFE802F0030303111900F7
:10496000114951F832200104090C05D022B1014649
:10497000104602F058FF10E0E42010BD10F0FF0FC9
:1049800002D002F0C7FC08E0E42010BD10F0FF0FD9
:1049900005D00146002002F0DBFF002010BDE4201E
:1049A00010BDE62010BD0000E4DC20002DE9F05F22
:1049B00005460C469046994626680027042D11D0DE
:1049C00031462846FFF7C2FF2146284600F068F826
:1049D000002808D1032D08D04FF0100A2807070E31
:1049E000002451E0E620BDE8F09F4FF0080AF7E709
:1049F000F00746D03DB1012D05D0022D03D0032D87
:104A000027D0E620EFE7244800EBC50090F904B07A
:104A1000BBF1000F17D0EFF31081012080F3108855
:104A20001E4AE01942F8308002EBC000C0F8049042
:104A300059B1012080F31088584602F0D9FF58463A
:104A400002F0E3FF1DE0E420CDE7002080F31088B2
:104A5000F2E7EFF31081012080F310880F4AE0198C
:104A6000703242F8308002EBC000C0F8049079B197
:104A7000012080F31088152002F0BAFF152002F003
:104A8000C4FF7608641CE4B25445B1D30020AAE701
:104A9000002080F31088EEE7E4DC20005C3000208A
:104AA00030B597B005460C461C22414910A8FDF7C9
:104AB00049FE1C223E491C3109A8FDF743FE202275
:104AC0003B49383101A8FDF73DFE94B13949062034
:104AD00006F0AAFB3849152006F0A6FB34496C39CC
:104AE000A1F12C02052D61D2DFE805F006060621B2
:104AF0003900E52017B030BD207931F81000119051
:104B0000607932F810001290A0791390206810900C
:104B10002748843850F8350021880904090C04D04E
:104B200018B110A902F0E3FE39E0E420E2E72079B1
:104B300001EB4000808A0A90607902EB4000C08857
:104B40000B90A0790C9020680990207810F0FF0F4E
:104B500003D009A802F010FC21E0E420CAE7207984
:104B6000031F042B01D8E720C4E7022819D0012035
:104B70000290207901EB4000008D0390607902EBF8
:104B8000400080890490A0790590206801902078E9
:104B900010F0FF0F08D001A9002002F00BFF002049
:104BA000A8E702200290E4E7E420A3E7E620A1E7DB
:104BB00068DD2000991E1000951E1000024600209E
:104BC000052A11D2DFE802F0030303090C000748AD
:104BD00050F8320089B202F0ACBE88B202F010BCCC
:104BE00089B2002002F0E8BE70470000E4DC20003B
:104BF00010B5052818D2DFE800F00303030D1100FB
:104C00000A4A52F8300018B189B202F09DFE09E05C
:104C1000E42010BD88B202F003FC03E089B200205A
:104C200002F0DCFE002010BDE62010BDE4DC200018
:104C3000002803D002490860012070470020704717
:104C4000CC26002070B505460024091F062917D27E
:104C5000DFE801F003070C111315284600F0A4F853
:104C60000EE00124284600F09FF809E002242846BF
:104C700000F09AF804E0032402E0042400E0052494
:104C8000034A214628461268BDE8704010470000DC
:104C9000CC2600202DE9F0410446204600F0AEF875
:104CA00001462E4800230826025D00F10A0700F1A4
:104CB0001405AAB1052A33D0082A2AD1092945D0DA
:104CC000082926D1295D491CC9B22955142920D3A8
:104CD0002B5506552046BDE8F0410821FFF7B2BF2D
:104CE000052913D0042916D0072914D0082910D17A
:104CF000295D491CC9B2295514290AD32B550655DB
:104D00002046BDE8F0410821FFF79CBF3B55052137
:104D10000155BDE8F0812046BDE8F041FFF792BFA4
:104D200005290CD0395D491CC9B239553229F0D357
:104D300003552046BDE8F0410521FFF783BF035529
:104D40002046BDE8F0410621FFF77CBF0355204611
:104D5000BDE8F0410921FFF775BF0000C02E00201B
:104D600070B504460D4600F00FF808B100F00EF9DA
:104D70000348044A2946005D5268BDE87040104768
:104D8000F82E0020D02600200020064911F810201F
:104D90000AB100207047401CC0B20A28F6D3012097
:104DA00070470000DE2E00200349002201F8102089
:104DB00001EB400042707047DE2E0020014A02F8ED
:104DC00010107047DE2E0020024A012102EB400045
:104DD00041707047DE2E002070B50024064D05EBB3
:104DE0004400407810B12046FFF754FF641CE4B241
:104DF0000A2CF4D370BD0000DE2E002070B5002117
:104E00001D4B03F132051A5C002A09D0002403F17E
:104E10000A06012A0AD0022A12D0032A24D11FE04E
:104E200015F8102002B301221A541DE015F81020C5
:104E30001AB1345402221A5416E01C54042113E00F
:104E400015F810204AB1325C521CD2B23254642A96
:104E50000AD3072103221A5406E005211C5403E05B
:104E600015F8101011B10821084670BD1C54FFF749
:104E70009BFF0921F8E70000AC2E002070470000DE
:104E80002DE9F0410E4617460A2E02D80FB1002335
:104E90001AE00020BDE8F08103EB430400EB840539
:104EA000114AA97AD154104910F824200C3101EB91
:104EB0000314227069686160297A2172697A6172CB
:104EC0000A49E1605B1CDBB2B342E5D306483146D8
:104ED0000C30FFF717FD0648067047600548FFF7DE
:104EE000A7FE0120D6E70000F82E0020B5482000DC
:104EF000D0260020614D20002DE9F0410024124F02
:104F0000DFF8488019E0002607EB04152878696867
:104F1000FFF754FE10B9697A012902D0012802D0A6
:104F200005E0012603E0687A022800D10126314617
:104F30002046FFF743FF641CE4B298F80000844267
:104F4000E1D3BDE8F0810000042F0020D02600202E
:104F500010B5FFF7D1FFBDE81040FFF73DBF0000DF
:104F600010B5074A0121074800F054FB00220A212E
:104F7000044800F0A5FC04490120487010BD000061
:104F8000514F2000A82F0020D026002010B5034844
:104F900000F06EFB02490020487010BDA82F0020D1
:104FA000D02600200248406A002800D00047704701
:104FB0000C32002001494862704700000C3200208A
:104FC000002806D0002904D0024AD269002A00D065
:104FD000104770470C32002070B50D4616460D4C38
:104FE00000280AD00178032911D80121A1760146B1
:104FF0001A222046FDF761FB05E00020A0761A2169
:105000000448FDF7FBFBE5612662002070BD01202E
:1050100070BD00000C320020044A1044807D08421C
:1050200001D0012070470020704700000C320020A2
:105030002DE9FE4F0746924699460024A046CDF83A
:105040000480CDF8088059480178B94202D2807EA8
:1050500000287DD10EAD0095EFF311860220FEF7FA
:105060006AFF8346FEF77EFF401C012181400BEB67
:105070000100C0B280F3118801213846FFF7CCFF50
:1050800038B14B484B4950F82720204600F0A4F88F
:1050900004461C213846FFF7BFFF00285ED046A219
:1050A0004449204600F098F8204484B20421384650
:1050B000FFF7B2FFF8B152463E49204600F08CF8A7
:1050C000204484B208213846FFF7A6FF38B13BA23E
:1050D0003849204600F080F8204484B20BE01021CB
:1050E0003846FFF799FF30B135A23249204600F02B
:1050F00073F8204484B208213846FFF78DFF90B141
:105100004A462C49204600F067F8204484B210211A
:105110003846FFF781FF30B12AA22649204600F029
:105120005BF8204484B210213846FFF775FF60B168
:1051300026A2052101A80C9BFDF7BEF801AA1D4976
:10514000204600F049F8204484B221A2194900E029
:1051500029E0204600F040F8204484B21548C4F508
:10516000807120442B460D9AFDF76AF8CDF8008037
:105170004FF48071002804DB2044884201DC85B2B2
:1051800000E00D46A81C884200D9FE2511A209495D
:10519000284600F021F8284481B20648FFF710FFA6
:1051A000F0B280F31188BDE8FE8F00000C320020C1
:1051B000F02600200C310020280000002000000014
:1051C0003A000000204C696E653A0000256C6400CE
:1051D000292000000D0A000030B5054600200029F6
:1051E0000CD0002A0AD006E02B18FF2B06D8CC548E
:1051F000521C401C80B21478002CF5D130BD000048
:1052000010B50848017800290AD10121017006482B
:1052100029F648FBBDE810400021044829F644BCAB
:1052200010BD0000E4260020651E10004DA32000E4
:1052300010B504462078012806D1194801684A1C97
:10524000026018A0FDF716F82078022806D1002089
:1052500000F024F901461BA0FDF70CF82078032884
:1052600006D1002000F02AF901461EA0FDF702F841
:105270002078042806D1002000F030F9014621A052
:10528000FCF7F8FF2078052808D1002000F036F957
:105290000146BDE8104023A0FCF7ECBF10BD0000A4
:1052A000142700200D0A546869732069732025644F
:1052B00074682063616C6C2054494D4552302E0D4A
:1052C0000A0000000D0A54494D4552305F434841E1
:1052D0004E4E454C30204556454E54203D202564C9
:1052E0002E0D0A000D0A54494D4552305F43484186
:1052F0004E4E454C31204556454E54203D202564A8
:105300002E0D0A000D0A54494D4552305F43484165
:105310004E4E454C32204556454E54203D20256486
:105320002E0D0A000D0A54494D4552305F43484145
:105330004E4E454C33204556454E54203D20256465
:105340002E0D0A0010B504462078012803D1174815
:105350004168491C41602078022806D1012000F0F4
:105360009DF8014612A0FCF785FF2078032806D19E
:10537000012000F0A3F8014615A0FCF77BFF207880
:10538000042806D1012000F0A9F8014618A0FCF776
:1053900071FF2078052808D1012000F0AFF8014600
:1053A000BDE810401AA0FCF765BF10BD142700200F
:1053B0000D0A54494D4552315F4348414E4E454CCC
:1053C00030204556454E54203D2025642E0D0A00C0
:1053D0000D0A54494D4552315F4348414E4E454CAC
:1053E00031204556454E54203D2025642E0D0A009F
:1053F0000D0A54494D4552315F4348414E4E454C8C
:1054000032204556454E54203D2025642E0D0A007D
:105410000D0A54494D4552315F4348414E4E454C6B
:1054200033204556454E54203D2025642E0D0A005C
:1054300038B50023009300220068B0F1804F03D0FC
:10544000144CA04200D10122012908D0022909D020
:1054500003290AD004290BD005290CD00DE0012026
:1054600000900AE00220009007E00320009004E092
:105470000420009001E005200090074850F8220029
:10548000017E01B900930168002901D06846884770
:1054900038BD000000100040DC260020022808D2A1
:1054A000054951F8200020B1017E11B1001D02F024
:1054B00070BB002070470000DC260020022808D2C4
:1054C000054951F8200020B1017E11B1001D02F004
:1054D00063BB002070470000DC260020022808D2B1
:1054E000054951F8200020B1017E11B1001D02F0E4
:1054F00056BB002070470000DC260020022808D29E
:10550000054951F8200020B1017E11B1001D02F0C3
:1055100049BB002070470000DC26002070B5002841
:1055200004D00478022C03D3E82070BDE52070BDC0
:105530001E4D00F1100245F82420116055F824108A
:10554000D0E90123C068C1E902230861184855F871
:10555000241050F82400486055F82400001D02F083
:105560000DFB0028E3D155F82400001D02F01DFBBF
:105570000028DCD10E4807220221083004F004FF85
:1055800055F82410012008760A49082005F04CFE41
:105590000949092005F048FE054D2D1F285702F046
:1055A00027FA285702F031FA002070BDDC260020CF
:1055B000C0DC2000491E1000531E100010B5022848
:1055C00001D3E82010BD074951F8200038B1017E11
:1055D00029B1001D02F043FB0028F3D110BDE920E2
:1055E00010BD0000DC26002010B5022801D3E82001
:1055F00010BD074951F8200038B1017E29B1001DC6
:1056000002F041FB0028F3D110BDE92010BD0000DD
:10561000DC2600202DE9F04104460D461746002DFA
:1056200004D0012D02D00120BDE8F081E4B1DFB14A
:10563000607801281AD0EFF311860220FEF76DFC86
:105640008046FEF787FC401C0121814008EB0100E9
:10565000C0B280F3118800206070A570E761F0B2DD
:1056600080F311880020DFE70120DDE70620DBE77B
:1056700010B50446002C0CD0204600F0B3F9FF20F2
:1056800060700021A160E160216161610020E06142
:1056900010BD012010BDF0B5DDE907450599816118
:1056A0004FF47A76A2FB061C03FB06C3002702FB1D
:1056B0000732C0E9021209196A41C0E90412002147
:1056C0000162F0BD2DE9F0410446002C13D0EFF348
:1056D00011850220FEF721FC0746FEF73BFC401C2B
:1056E000012606FA00F03844C0B280F3118812484F
:1056F000002121620EE00020BDE8F081D4E90432EF
:10570000D1E9047CDB1B72EB0C0202D2016A21623C
:1057100003E00846016A0029F0D104626670064879
:1057200010380168491C0160016B4160E8B280F3E8
:1057300011880120E0E70000E02F00202DE9F04172
:1057400005460024EFF311860220FEF7E6FB07462C
:10575000FEF700FC401C012181407818C0B280F3A4
:105760001188134A106BE8B115B102F1100010E076
:105770000446206A10631068401E10600CE0A942C5
:1057800006D11168491E1160296A01622C4603E0A6
:105790000846016A0029F2D124B10020206260701D
:1057A000106B5060F0B280F311882046BDE8F081A4
:1057B000D02F00202DE9F041EFF311870220FEF7F2
:1057C000ACFB0446FEF7C6FB401C0121814060187B
:1057D000C0B280F31188114D002608E0207801281E
:1057E00004D1E16909B1A069884726702D6A2C6A45
:1057F000002CF3D1094D103D07E0E16909B1A06922
:1058000088472670206AA8632662AC6B002CF4D10E
:10581000F8B280F311880120BDE8F081E02F00206C
:105820002DE9F041EFF311870220FEF776FB0446E5
:10583000FEF790FB401C012606FA00F02044C0B29F
:1058400080F311881D4DA5F110082DE0D4E9043036
:10585000D8E902125B1A60EB0200D8E91021D21AD3
:10586000814124D326702046FFF768FFA0780128E5
:1058700006D01248283000212162016861B10FE092
:10588000D8E90220D4E9021351185841C4E90410A0
:105890002046FFF717FF07E0046005E001F1200054
:1058A00001680029FAD104602C6A002CCED1F8B22C
:1058B00080F311880120BDE8F0810000E02F002076
:1058C0002DE9FF5F82460E4693464FF00008BAF17D
:1058D000000F20D0414886421DD8E6B1EFF3118772
:1058E0000220FEF71AFB0446FEF734FB401C0121A0
:1058F00081406018C0B280F31188504602F02EFF3C
:1059000010B19AF8010040B1F8B280F311880F206D
:1059100004B0BDE8F09F0120FAE703F0A5FC0446BF
:105920000D464FF47A7106FB01F022462B4600210A
:1059300002F0AEFEDFF8A890B0B1D9F8040048B18B
:10594000D0E90410091B60EB0500C9E9021003F05F
:1059500005FD04E00021C9F80810C9F80C104FF04B
:105960000108D9E9020106E0D9F80400D0E90421D0
:10597000101B61EB0501CDE9020132460023CDF891
:1059800000B05046FFF787FE5046FFF79BFE05F03C
:105990006FFB4FF0E024D4F800014FF4801510F4B1
:1059A000801F01D0012000E0002020B91420FEF764
:1059B0004EFAC4F80051B8F1000F0AD0D9F804002B
:1059C000D0E90431D9E90202181A61EB020103F0AF
:1059D00081FCF8B280F31188002099E7008AB907AA
:1059E000D02F00202DE9F04104460025002C39D0AD
:1059F000EFF311870220FEF790FA0646FEF7AAFAA7
:105A0000401C012181407018C0B280F31188607879
:105A1000012824D1144E7068A0420BD103F024FC5D
:105A2000D4E90432181A62EB0102C6E9020203F05B
:105A300095FC01252046FFF781FE5DB1706848B1F5
:105A4000D0E90421D6E90203101A61EB030103F047
:105A500041FC04E01DB9706808B903F07FFCF8B29E
:105A600080F31188BDE8F081D02F00202DE9F843A4
:105A70000446334F57F82400061D022C5ED290F8DE
:105A8000681000295AD00021D0E903231344027D75
:105A900002F00102D21D9D184268D36FC3F3800348
:105AA000002BFAD090F80021A2B1264A1368491CB5
:105AB00090F83A20102A06D08268B3FBF2F26A43CB
:105AC000B1EBC21FF3D957F824006C3005F0F7F999
:105AD00085B226E0B0F82480C58C001D02F0F0F8F5
:105AE00057F8240041F2883300EB0801491B7C3150
:105AF000001D2A4602F0D0FAE5E757F824000122FB
:105B00006C30694605F0F6F957F824004068C16F1B
:105B1000C1F340010029FAD09DF8001001606D1E0C
:105B2000ADB2002DE9D157F824006C3005F0C7F96B
:105B30000028C8D1306841694906FCD5BDE8F88322
:105B4000E82600205C00002070B504461A4D55F888
:105B500024006C3005F0B3F982B21646A2B155F8B4
:105B6000240090F8FD1001290ED0012180F80011C9
:105B7000802A0FD355F82400802200F17C016C307C
:105B800005F0B8F980260CE055F82410002081F8C3
:105B9000FC0070BD55F8240000F17C016C3005F06C
:105BA000A9F955F82400324600F17C01001D02F0ED
:105BB000ABFA0028EDD170BDE82600207047000048
:105BC0002DE9F8430446534F57F82400061D022CD4
:105BD0007ED290F8681000297AD0012978D190F807
:105BE000FC10012974D190F8FD10002970D1012119
:105BF00080F8FD10002157F82400D0E90323134456
:105C0000027D02F00102D21D9D184268D36FC3F3DA
:105C10008003002BFAD090F80021A2B13E4A13680D
:105C2000491C90F83A20102A06D08268B3FBF2F2A1
:105C30006A43B1EBC21FF3D957F824006C3005F06A
:105C40003EF985B226E0B0F82480C58C001D02F034
:105C500037F857F8240041F2883300EB0801491B5C
:105C60007C31001D2A4602F017FAE5E757F82400B8
:105C700001226C30694605F03DF957F82400406870
:105C8000C16FC1F340010029FAD09DF800100160F6
:105C90006D1EADB2002DE9D157F824006C3005F02F
:105CA0000EF90028C8D1306841694906FCD5EFF3E8
:105CB0001085012080F3108857F824006C3005F01F
:105CC000FEF878B1EFF31081012080F3108800E036
:105CD00015E03068426842F08202426089B10120DA
:105CE00080F3108857F82410002081F8FC0057F842
:105CF000241081F8FD0045B1012080F31088BDE833
:105D0000F883002080F31088ECE7002080F31088EF
:105D1000F5E70000E82600205C0000202DE9F041B6
:105D200005460F46002D06D02AB12C78022C04D34C
:105D3000E820BDE8F081E520FBE7304E05F1580092
:105D400046F82400D2E900310A466C30194605F0C5
:105D50009BF8291D286D06F0D5FD0028E9D156F8DD
:105D60002410281D086656F82400076056F8240001
:105D70001822083005F14001FCF7E4FC204856F8F1
:105D8000241000EBC4056868486056F82400001D24
:105D900001F0F0FF56F82400001D02F079F81848D1
:105DA00003221146103804F0EFFA56F824100120AF
:105DB00081F8680056F82410002081F8FC0056F89D
:105DC000241081F8FD0056F8241081F8FE0056F8E2
:105DD000241081F8FF000B490C2005F025FA0A4930
:105DE0000D2005F021FA95F9010001F001FE95F969
:105DF000010001F00AFE00209BE70000E8260020D9
:105E0000D0DD2000FD3D20000D3E20002DE9F041B9
:105E100004461A4D55F824006C3005F050F882B253
:105E2000164600277AB155F8240090F8FD10012994
:105E300009D0802A0ED300F17C016C30802205F05D
:105E400059F880260BE055F8240080F8FC700020FB
:105E5000BDE8F08100F17C016C3005F04BF855F89D
:105E6000240080F8007155F82400324600F17C01CE
:105E7000001D02F093F90028EAD1E9E7E8260020A6
:105E800070B5022801D3E82070BD104D55F82040B0
:105E900064B194F868604EB151B14AB15E1C09D04A
:105EA00049F64046B34205D9E42070BDE52070BDF7
:105EB000E42070BD002684F8FE6055F82000001D27
:105EC00002F0EAF80028F4D170BD0000E8260020B6
:105ED0002DE9FC4781460D4616469A46DFF8A0801C
:105EE000D8F8FC00A84248DBD8F80001A84201DA43
:105EF00001F0DEF8D8F80001A8423CDB05F1F7001C
:105F0000F821B0FBF1F0C7B201242FE0002000908F
:105F10000190ADF80090ADF802509DF8040067F3D1
:105F2000071064F303008DF804000521684600F0B3
:105F300060F98DF805009DF8060020F00300801C34
:105F40006AF382008DF80600684600F083F9014686
:105F5000304600F04EF98DF8070032466946D8F811
:105F6000F80006F0A7FFF836641CE4B2BC42CDD9B5
:105F70000020BDE8FC870520FBE70520F9E70000CD
:105F8000D032002010B50378002B03D0FF2B01D0B6
:105F9000012010BD012205E0845C9C4201D001205B
:105FA00010BD521C8A42F7D3002010BD144810B512
:105FB000016821F004010160016841F00201016003
:105FC000016841F001010160016821F002010160F6
:105FD000016841F00401016009490220103908609C
:105FE000074940F601701C3908600120091D08604E
:105FF0000002FAF597FD00F603FF0028FBD010BD64
:10600000E0A400402CF678BD70B5A0F55451AD3930
:106010004FF48272B1FBF2F1CCB2104901EBC4052E
:1060200005F58875082C05D30146D9230CA2204616
:10603000FEF50EF904EB841043F2AD5101EB800044
:10604000A8800BF62BFD044604482946143002F6BE
:10605000A7F92046BDE870400BF62EBD0C0D0020C0
:106060006C6C645F70617463682E630010B500220D
:106070000821104602F0B8FF00221021104602F05D
:10608000B3FF00222021104602F0AEFF0649086847
:1060900043F63F729043086000F048F800F006F8BD
:1060A000BDE8104000F026B814AA004000B587B043
:1060B00000228DF804204FF48070029005218DF8A5
:1060C0000C1001208DF80D008DF80E2003228DF8A4
:1060D0001020402205928DF818108DF819008DF8C7
:1060E0001A00034A022101A8FEF7CAFE07B000BD4C
:1060F0007D4E20007CB54020009002248DF80440A5
:106100008DF8054000258DF8065069460420FEF7FD
:10611000C7FC802000908DF804408DF805408DF874
:10612000065069460420FEF7BBFC7CBD00B587B075
:1061300000F026F803208DF800001D208DF81600D1
:1061400001208DF817008DF818008DF81900064A07
:1061500006496846FEF740FF0548FEF72BFFFEF7AD
:1061600045FB07B000BD00007B612000E561200019
:10617000756120000020FFF779BC0020FFF720BDEB
:106180007CB5144800904FF48060019012480021C3
:1061900001704FF4E1320264032242648164C164FD
:1061A0000165012343650274022444610825457496
:1061B00003760271836007234371017307494163CA
:1061C000816380F83C4080F83D206A460449FFF72F
:1061D000A5FD7CBD50290020502D0020004001402D
:1061E000BD5B20000A4601464FF47A730020FFF79A
:1061F00047BE10B503460020002203E09C5C20440B
:10620000C0B2521C8A42F9D310BD7CB540F68862F8
:1062100001FB02F500226B46114600F089FD0446A1
:106220003CB12146684606F0C7F8F83D04F5807099
:10623000F0E728467CBD01F6FF72130B00F6FF72F3
:10624000A3EB123252B2081AC2EB1020C0EB40107E
:10625000C00070470279110902F00F028A4207D18B
:106260008078491EA1EB411100EBC100C0B200E0F3
:10627000F820F82800D9002070470A2802D840F6F4
:10628000641103E0242804D840F6661101EB4000B5
:106290007047252804D0262805D04FF41B6070478E
:1062A00040F66210704740F67A107047174810B5F4
:1062B0000068C0F3000038B1144808380068C0F323
:1062C000000008B104F052FF11480068C0F300005C
:1062D00038B10F4808380068C0F3000008B100F07A
:1062E00071FC04F0BBFE00280FD001F0B5FF0028C0
:1062F0000BD00120FBF677FE0648816821F48071FF
:106300008160054800218170C17010BD08E4004023
:1063100008E5004000A000408827002010B504F0E8
:106320009DFE20B101F098FF08B1012010BD0020B2
:1063300010BD000010B50E491E2004F075FF04F0DA
:106340008DFE88B10120FBF627FE0A490120087066
:106350000949D1F8801211F4403F00D1002004F027
:10636000D7FE1E20FDF7ABFD00F0D2FB10BD0000F4
:10637000833D20008827002000A0004070470000D7
:106380002DE9F041C0B00F4610494FF48078D1F8A4
:10639000F420497808EB0131561800F58075002487
:1063A0000EE042466946304603F098FC4246694694
:1063B000284603F098FC06F5807605F58075641C88
:1063C000BC42EED340B0BDE8F0810000D0320020E6
:1063D0002DE9F043C3B0894615494FF48078D1F8D0
:1063E000F420497808EB01315618070B3F030024CD
:1063F000002201AB1146384600F09AFC054685B1F3
:10640000424603A9284603F069FC424603A93046E8
:1064100003F069FC05F5807706F58076641C0F2C87
:10642000E6D3C9F8007043B0E0B2BDE8F0830000E5
:10643000D0320020124810B5016821F000410160FF
:1064400010490A78497842EA8103011D0A6863F31A
:106450001F720A60016841F0004101600A48D0F8EB
:10646000881241F00101C0F8881208491D2004F08B
:10647000DBFE4FF0E0214FF00050C1F8000110BDED
:1064800004A90040B827002000E00040893D20001A
:10649000F8B5EFF31086012080F3108806208DF800
:1064A00000006846FDF79AFC0220FAF541F8322018
:1064B000FAF538FB184C206820F400302060251FC6
:1064C000286840F002002860144F7889FAF52AFB0A
:1064D000286820F002002860B889FAF523FB9DF8AF
:1064E0000000FAF525F80C483830016889020CD410
:1064F00000682168C0F3044041F400312160216844
:1065000021F4F83141EA003020601EB1012080F30F
:106510001088F8BD0020FAE708A90040682800208C
:106520002DE9F043C5B0DFF8B890D9F8F850A5F5DB
:10653000807500240027002619E041AB01220021CC
:10654000284600F0F5FB044620000ED0BDF80411EB
:1065500043AB0122D9F8F40000F0EAFB074638000B
:1065600009D0A74207D0012605E0A5F58075D9F826
:10657000F400A842E1D3002E27D042994198CDE9FA
:106580000101204601264FF0000803AA01A902F0EC
:10659000F1F890B1761CF6B29DF80801B6EB101F29
:1065A00002D94FF0010808E0BDF8041101AB3246F2
:1065B000284600F0BDFB0028E7D1B8F1000F07D056
:1065C0002246394643A800F05EF845B0BDE8F083A6
:1065D000214641A8D9F8F82000F055F8F5E7000069
:1065E000D032002010B50C46A17921F00301A17131
:1065F000801D0122A11D03F076FB04480168F831DB
:1066000001602088BDE8104005F002BFCC330020B7
:106610002DE9F04FBFB080468A469146FF22F8210F
:1066200001A8FCF7C1F800270824002089F8000021
:106630004FF6FF7B08EB04052888584519D02846FB
:1066400002F0B3F8A8B1A8780830C6B2288850453F
:1066500004D13444012089F8000008E001A829464B
:1066600038443246FCF729F83444B819C7B2F82C3C
:10667000E0D3F82201A908F10800FCF71EF83FB0AA
:106680003846BDE8F08F2DE9FC4105460F46164619
:10669000287904090DE029886B462246384600F027
:1066A00047FB20B1B04202D26946FFF79BFF641E50
:1066B000E4B2002CEFD1BDE8FC812DE9FC410E468F
:1066C00017466FF30B00002512E000226B461146BF
:1066D00000F02EFB0446002C0CD0B4420AD26946CE
:1066E0002046FFF77FFF04F58070B04202D26D1C98
:1066F000BD42EAD3BDE8FC8180F828107047000055
:1067000000B500F007F802490120886100BD0000D3
:10671000C035002030B5084C012504F8045B84E83E
:106720000F000648241F8068884201D2081A00E042
:10673000401A606130BD000058360020A0270020BC
:1067400010B501F0FFFD044618210548FCF756F886
:10675000034A002120461170BDE8104000F018B92E
:1067600058360020F0B40E460146224F2048BB6840
:106770000578C0E90821994201D9CC1A00E05C1AD9
:10678000FF68A7420AD28769A74201D9C0E9064239
:10679000012D09D0022D1FD0032D27D113463246DB
:1067A000F0BC0020FFF7ACBF41619942016902D9FA
:1067B000491C816002E0491EC1608168C268914243
:1067C00006D211444908016101210170016909E003
:1067D00002210170816805E0C3699342DED0032184
:1067E000017019463046F0BC00F006B8F0BC7047A6
:1067F00000360020A0270020054A936A5B1C9362A4
:106800008AB2C1B20348044B406801F033BD0000B6
:1068100000360020A02700206567200070B50E4CD0
:1068200005462C212046FBF7E9FF0020A06040F23E
:10683000FF10FF22C4E903024FF0FF30A061A06AFD
:10684000E9B2401CA062012020700448044B40685B
:10685000BDE8704001F00EBD00360020A0270020EA
:10686000656720002DE9F843254C074690462078BF
:106870000D4601280BD0022813D008201346E061F2
:106880000A4601B03946BDE8F043FFF739BF40F290
:10689000FF11C4E903712846BDE8F843022200F065
:1068A00061B8002600966846676100F02BF870B169
:1068B000012810D0022817D003281FD007204346F4
:1068C0002A463946E061FFF71BFFBDE8F8832846FA
:1068D000FFF7A4FFF9E70F2D04D201223146681C0F
:1068E000A66006E00520EAE735B101220021681E16
:1068F000A66000F037F8E8E70620E0E70098DEE75A
:10690000E035002010B51649144A144C0B6989680B
:10691000D26864698A4201D98C4219D88A4201D26C
:106920008C4211D38A4201D9521A00E08A1A8C4251
:1069300001D9611A00E0091B9A4203D3994201D39D
:10694000002010BD9A4201D2012010BD994201D20F
:10695000022010BD03210160084610BDE035002073
:10696000A0270020074B30B49C69641C9C615860D0
:106970001A708AB2C1B20448044B406830BC01F0BE
:1069800079BC0000E0350020A027002065682000C9
:1069900070B5074C054620212046FBF72FFF00214C
:1069A0002846A160BDE870400122FFF7DBBF000070
:1069B000E0350020F8B51D4C00250E460095E16934
:1069C000491CE161C4E90162E168C4E903011849B5
:1069D0008968814201D2401A00E0081A6169814247
:1069E00001D9C4E90502684600F024F840B1012845
:1069F0000BD002280FD0032811D00098A06200E02D
:106A0000A562204600F098F8F8BD012084F8200027
:106A10003046A16906E0A1683046491C02E0A16841
:106A20003046491E00F04AF8F8BD00002C36002020
:106A3000A0270020F0B51F4A1F4DD368A9688B42DC
:106A400001D95C1A00E0CC1AED68A54210D2576A51
:106A5000012F0DD092F82040012C09D0154CD66999
:106A60004FF0010CA569A468BE4203D3A54213D11F
:106A70000020F0BD012E08D916698E4201D98B4243
:106A8000F4D38E4201D28B42F0D88B4208D9B4F5B0
:106A9000FF7F08D9092109E082F820C00120F0BD5C
:106AA0001CB10320F0BD0220F0BD0A2101600420CA
:106AB000F0BD00002C360020A02700208AB2C1B211
:106AC0000248034B406801F0D5BB0000A02700201E
:106AD000B569200070B50D46044616462C210948BC
:106AE000FBF78CFE074B0020B2B283F82000401E5B
:106AF0005C6258610448E9B2044B4068BDE87040EC
:106B000001F0B8BB2C360020A0270020B56920007A
:106B100010B501F097FB00280AD00648007818B19C
:106B2000BDE8104000F02EB8BDE81040FFF708BEE9
:106B300010BD00005836002000B500F007F80249EB
:106B40000120886100BD0000C03500200B490122F2
:106B50000A71826A8A60C269CA60C2680A61426850
:106B60004A6182688A61C26805488068824201D9A8
:106B7000101A00E0801AC8617047000070360020CB
:106B8000A02700202DE9F04101F0DCFB804601F058
:106B9000EBFB07460A48094C202146692568204638
:106BA000FBF72CFE6D1C0020256020713A46414603
:106BB0003046BDE8F041FFF78DBF00007036002081
:106BC000A027002010B50E4C2069401C206101F068
:106BD000DDFBE06001F0B6FB606001F0C5FB094A37
:106BE0000021A06011606161E3692BB10246217947
:106BF000E068BDE8104018470120A06110BD00000A
:106C0000C035002000E5004070B5164890F800142B
:106C1000154D28680122C0F30220401C82408818CC
:106C2000C0B280F31188114C0F4821680C306268A3
:106C3000A36880E80E00232204F10C010C48FBF746
:106C400081FD216B4FF0E020C0F80011616BC0F8AE
:106C50000411A06B286007484068C0B280F3118817
:106C600070BD000002E000E00CED00E00437002001
:106C700000E400E060280020EFF311800D49486037
:106C80004FF0E021D1F800210B480263D1F8041144
:106C900041630A4909680A4A89B211438163074975
:106CA0000C310EC9016042608360232205490C301B
:106CB000FBF748BD60280020043700200CED00E001
:106CC0000000FA0500E400E070B5054605EB01346C
:106CD0002646A4F58074204601F0B4FC40B1264657
:106CE000A4F58074200501D1A4F58074AC42F2D8DB
:106CF000304670BD7CB500260C48046804F58074ED
:106D0000456808226946204602F0E8FF684601F01F
:106D10004CFD48B104F58074200501D104F5807460
:106D2000AC42EED330467CBD2646FBE7C4330020A0
:106D30002DE9F04704460E4617461D464FF0000960
:106D40000020286068601448D0F8F88020051DD124
:106D500004F580741AE008222946204602F0BEFF9E
:106D600016B12888B0420BD127B1287900F00F0066
:106D7000B84205D1284601F018FD08B1A14607E048
:106D800004F58074200501D104F580744445E2D3F4
:106D90004846BDE8F0870000D0320020F8B505462F
:106DA0000E4617461C4600953A466946304605F0A1
:106DB00055FB78B1002020606060082221460098D1
:106DC00002F08CFF204601F0F0FC08B10098F8BDFD
:106DD0000020F8BD23463A4631462846FFF7A8FF73
:106DE000F8BD2DE9F04106460F46B079400719D5A8
:106DF000304601F0DAFCA8B108244FF6FF783519C7
:106E0000288840450ED0284601F0CFFC50B1288894
:106E1000B84202D1E0B2BDE8F08168880834044489
:106E2000F82CECD30020F6E738B503F0BBF81B4C88
:106E300000224FF48041204601F0C4FF0122D1031B
:106E4000204601F0BFFF00224FF48031204601F0C0
:106E5000B9FF01225104204601F0B4FF0122910440
:106E6000204601F0AFFF0122D104204601F0AAFF25
:106E700000208DF80000A3208DF8010002208DF87D
:106E800002000098FBF542F803F034F8012002F00C
:106E900076FCBDE8384003F0AFB8000000000140C8
:106EA00002494968002900D0084770474829002056
:106EB00070B5044600BFFDF75DF805460120FDF7FB
:106EC0005BF90948047024B9482208490848FBF7CF
:106ED00039FC1DB90020FDF74FF902E00120FDF754
:106EE0004BF900BF70BD00001C2700207434002047
:106EF000002000E010B50748406807494860064890
:106F00000830402203490831FBF71CFC03200249EA
:106F1000086010BD2C340020002000E00020034950
:106F20000968002900D00847704700004829002060
:106F300070B500BFFDF71EF805460120FDF71CF9EE
:106F40000B48047834B948220A490B48FBF7FAFB8E
:106F5000FFF7D0FF0120064908701DB90020FDF79A
:106F60000BF902E00120FDF707F900BF204670BDD4
:106F70001C270020002000E07434002013B50121FC
:106F80006846FEF71DF801201CBD70B504460D468D
:106F900042F2390632233246002141F2051010F642
:106FA00069FF002D02D04FF0010101E04FF0000118
:106FB00001704FF001014170217B817007D06B8817
:106FC000A17F022907D0C381297980F8261010F605
:106FD00025F8668270BD591E44F24F62914201D875
:106FE000C381F1E744F25061C181EDE72DE9F0473B
:106FF00088B004462D4ED6F8F80000F6FF70070B57
:107000003F034FF480594FF0010A07947178D6F886
:10701000F40000EB0130494602F01FFE07A92046AC
:10702000FFF7D6F9054628000AD02A4620460799D8
:1070300005F0FAFE200B00032A460799FFF73DFBF7
:107040004FEA14384FEA08384946404602F005FE38
:1070500001A801F093FAD6F8F400201A0AEB1030D8
:107060008DF814009DF8151008448DF8160001A83D
:1070700005F012FF75B129464046FFF781F900205F
:1070800000907178D6F8F400012200EB01306946D7
:1070900002F029FE04F58054BC42B6D3707800217A
:1070A00001F0B0FA08B0BDE8F0870000D03200204F
:1070B00070B502F03AFC094D2120287005F070F9F6
:1070C000FFF718FE18B1FFF791FF044600E00A240D
:1070D0002020287002F028FC204670BDD03200200D
:1070E0000948D0F89C10D0F8A020C1F31401D0F8C2
:1070F0008000C2F31403C0F3C112581A034951F8B7
:10710000221048437047000000200F4044DF200059
:10711000024600210BE0084850F83130501E8342EF
:1071200004D1054800EBC10040687047491C102994
:10713000F1DB0020F9E70000BC340020002101E071
:10714000491C4008C207FBD0084670472DE9F041B2
:1071500004460D46002600BFFCF70CFF0746012041
:10716000FDF70AF82F480078102801DB761E4CE066
:1071700048222D492D48FBF7E5FA48222C492A4898
:10718000FBF7E0FA2B482749097840F831402549B8
:10719000097800EBC100456024F0010425F00105E9
:1071A00004F0030090B124F0030040F001021E49F6
:1071B00008311C4B1B7841F8232001881E4A1144DA
:1071C0001E4A184B1B7842F823100EE044F00101D0
:1071D00015480830134A127840F822104DF6FF7017
:1071E0001649104A127841F8220048220E491048E8
:1071F000FBF7A8FA48220D490B48FBF7A3FA094808
:107200000078401C0749087000BF1FB90020FCF738
:10721000B3FF02E00120FCF7AFFF00BF3046BDE83E
:10722000F08100001D270020002000E074340020C1
:107230002C340020BC3400200000FFDF003B002085
:1072400070B5044600BFFCF795FE05460120FCF72B
:1072500093FF002014490870144815490860154828
:1072600015490860482215491548FBF76BFA15487F
:10727000124948600320086048221348FBF762FA6D
:1072800048220F490D48FBF75DFA882C01D004F025
:1072900057FF1DB90020FCF76FFF02E00120FCF74B
:1072A0006BFF00BF70BD00001C270020B16E2000E6
:1072B0004C290020316F200048290020002000E0E8
:1072C00074340020003B00202C3400202DE9FE43C4
:1072D0000546002403208DF8000000260C4F4FF0D7
:1072E0000108E8070BD008FA04F0019007EBC4008E
:1072F0004068029057F8341009B168468847641C0A
:10730000A4B26D08761C082EEBDBBDE8FE830000FE
:10731000CC30002070B50446204601F0EDFA012182
:10732000204601F001FB13480168A1430160816818
:10733000A14381600221204601F03CFB012120464F
:1073400001F052FB0121204601F060FB00212046A4
:1073500001F0DEFA01250AE094FAA4F0B0FA80F117
:1073600005FA01F0611E0C40002101F0FDFA002C2D
:10737000F2D170BD00A2004000B58DB0016805914A
:10738000416801F00302069282680792C26808927F
:107390000269099242690A9280690B9008090C906F
:1073A00009A80FC88DE80F0005A80FC801F010FA52
:1073B0000DB000BD2DE9F041104DD5F80802C4B262
:1073C000D5F88400C0F340066FF00207002C0CD003
:1073D000D5F80802A043C5F80802E043C5F8080242
:1073E000C5F884702046FFF771FF002E03D0002CF3
:1073F00001D1C5F88470BDE8F081000000A0004014
:107400000006000A05490968884303D0002018B126
:10741000012070470120FAE70020704718AA0040B9
:1074200004490A684FF6FF7303EA002042400A60ED
:107430007047000018AA004010B5064C04482060B0
:1074400001F058FBFDF714F90021216010BD000088
:10745000A2B4982B04A70040012181400248026891
:107460008A430260704700001027002001218140FC
:107470000248026811430160704700001027002095
:107480002DE9F047044600272F48D0F80090DFF898
:10749000BC80D8F800A04846514600F051F9D8F811
:1074A0000460F9F567F82A484FF47A710068B0FB78
:1074B000F1F54D43D4E9000101F0D6FB6168226883
:1074C00001EB410000EBC10002EBC0030EE0D8F875
:1074D0000400801BA84209D9206C40F020002064E1
:1074E00003212046FFF708F9032725E0186CC0F3B5
:1074F00040200028EBD0104601F046FB0EE0D8F803
:107500000400801BA84209D9206C40F020002064B0
:1075100003212046FFF7F0F803270DE0D4E900012E
:1075200001F081FB0028EAD1D4E9000101F085FBDC
:1075300001212046FFF7E0F85146484600F0E0F808
:107540003846BDE8F0870000FCED00E0001000E0E8
:107550005C00002070B50446002594F8280001283E
:107560000DD094F8280002280FD094F828000428A1
:1075700062D0206C40F00400206401255CE0E16BE7
:10758000002959D02046884756E0D4E9000101F08F
:10759000FBFAD4E9000101F046FB0028F9D121797A
:1075A00022680831012000FA01F1C2F81013217994
:1075B0002268083100FA01F1C2F818132179226813
:1075C000083100FA01F1C2F820132179226808314C
:1075D00000FA01F1C2F8281321792268083100FA73
:1075E00001F1C2F830132279216800FA02F2C1F8E1
:1075F00038232279216800FA02F2C1F84023227967
:10760000216800FA02F2C1F848232179226800FAC1
:1076100001F1C2F85013227921689040C1F8580353
:10762000D4E9000101F0C1FA01212046FFF764F816
:10763000E16B09B120468847284670BD70B5044605
:10764000204600F007F8054615B903CC01F0B8FA5A
:10765000284670BD2DE9F84304460F4690461D4666
:107660000026002D07D094F82800012809D0022612
:107670003046BDE8F883206C40F00800206401200B
:10768000F7E702212046FFF737F8D4E9000101F0BF
:107690008CFAD4E9000101F07DFAD4E9000101F08F
:1076A00068FA20690090D4E9000143463A4601F0A7
:1076B0004FFAD4E900012A4601F0CAFA217920687C
:1076C000012505FA01F1C0F83813D4E9000101F0F1
:1076D000A0FA2179206805FA01F1C0F84013D4E935
:1076E000000101F082FA217920688D40C0F85853DA
:1076F000D4E9000101F083FA03CC01F06BFAB7E79B
:1077000010B5EFF31083012282F31088094C226830
:10771000521E2260002A03D1074A116007490860FF
:107720001BB1012080F3108810BD002080F3108869
:1077300010BD0000D8240020001000E0FCED00E0A7
:1077400010B5EFF31082012383F310880A4B1C68F5
:10775000641C1C60094B40F08070186041F001000F
:1077600007490860002A03D0012080F3108810BD6B
:10777000002080F3108810BDD8240020FCED00E02C
:10778000001000E00A4610B501460020FAF5C4FBDF
:1077900008B1002010BD012010BDFAF5C3BB10B523
:1077A0001446FAF52BFC08B1002010BD204610BD90
:1077B0002DE9F74F00244FF4807AC0B017468B466E
:1077C0001546524501D9564600E03E460BEB0401F2
:1077D000884632466846FAF770FF409832462044A1
:1077E00081466946FAF550FCB8B9484632466946C2
:1077F000FAF504FC88B9404632466946FAF712FFAA
:1078000058B9AD1B0DD034445646B54200D82E466B
:10781000BC4202D2A019B842D8D9002043B0BDE87A
:10782000F08F3846FAE770B505460C466868A04305
:10783000686001222146284601F088FA6C62AC6338
:1078400002222146284601F0D5FA01222146284687
:1078500001F0E8FA01222146284601F0F1FA00225F
:107860002146284601F066FA01260BE094FAA4F0BE
:10787000B0FA80F006FA00F1601E044000222846AB
:1078800001F080FA002CF1D170BD00002DE9FE431B
:1078900080460F463846FFF751FC85B20024DFF8DA
:1078A00034900D4E59F8340040450ED105EB0410CC
:1078B00085B28DF80040019706EBC5004068029044
:1078C00056F835200AB168469047641C032CE9DB62
:1078D000BDE8FE83E4DC20005C30002010B5816B45
:1078E00089B28163002901D0FFF7D0FF10BD10B528
:1078F0008EB0044608680690087900F003000790EF
:1079000088680890C868099008690A9048690B90CF
:1079100088690C90486800090D90142209A96846EE
:10792000FAF710FF06A920460EC901F0A8F90EB01B
:1079300010BD0068814303D0002018B101207047BA
:107940000120FAE70020704742684A4042607047D1
:1079500070B505460C4601222146284601F0DAFAA8
:1079600001222146284601F009FB02222146284631
:1079700001F056FB01222146284601F06DFB012251
:107980002146284601F07AFB00222146284601F0D4
:10799000E7FA01260BE094FAA4F0B0FA80F006FAB8
:1079A00000F1601E04400022284601F0F9FA002C84
:1079B000F1D170BD01F076BA6FF0404000EA01509D
:1079C00005490968884303D0002018B10120704799
:1079D0000120FAE70020704700AA0040034802682F
:1079E000C1F309014A4002607047000000AA00404C
:1079F000002809DB00F01F020121914040098000AE
:107A000000F1E020C0F880127047002809DB00F088
:107A10001F02012191404009800000F1E020C0F8E0
:107A2000001170472DE9F041EFF311870220FCF7B8
:107A300074FA0446FCF78EFA401C0121814060185C
:107A4000C0B280F311880020FDF778FE0546254E70
:107A5000D5E90412C6E902122348081A72F11E0081
:107A600019D306F110000EE0DCE90412D6E9023465
:107A7000B1EB030872EB040804D3C91A62EB0402E9
:107A8000CCE90412006AD0F820C0BCF1000FEBD1A1
:107A90000021B160F160A87801280AD1D6E902304E
:107AA000D5E9021259185041C5E904102846FDF7DE
:107AB00009FEF8B280F31188FDF7B2FE706840B19C
:107AC000D0E90421D6E90203101A61EB030101F0A9
:107AD00001FCE96909B1A8698847BDE8F041FDF7F3
