:020000040020DA
:10200000E85701204121200017242000091E10005C
:1020100015242000FD212000612420000000000084
:10202000000000000000000000000000011E100081
:10203000FF21200000000000192420001F242000A0
:1020400000F002F800F06CF80AA090E8000C82445E
:102050008344AAF10107DA4501D100F061F8AFF23B
:10206000090EBAE80F0013F0010F18BFFB1A43F076
:1020700001031847547F0000947F00000A444FF08A
:10208000000C10F8013B13F0070408BF10F8014BD7
:102090001D1108BF10F8015B641E05D010F8016B1C
:1020A000641E01F8016BF9D113F0080F1EBF10F880
:1020B000014BAD1C0C1B09D16D1E58BF01F801CBA3
:1020C000FAD505E014F8016B01F8016B6D1EF9D526
:1020D0009142D6D370470000103A24BF78C878C127
:1020E000FAD8520724BF30C830C144BF04680C601E
:1020F000704700000023002400250026103A28BF66
:1021000078C1FBD8520728BF30C148BF0B60704769
:102110001FB507F052FE00F031F91FBD10B510BD1C
:10212000DFF80CD0FFF7F4FF04F09CF900F038F969
:10213000E857012003B4FFF7F1FF03BC00F080FC77
:102140000148804701480047312420006F64200087
:1021500040EA010310B59B070FD1042A0DD310C824
:1021600008C9121F9C42F8D020BA19BA884201D976
:10217000012010BD4FF0FF3010BD1AB1D30703D0BE
:10218000521C07E0002010BD10F8013B11F8014B74
:102190001B1B07D110F8013B11F8014B1B1B01D190
:1021A000921EF1D1184610BD02F0FF0343EA03224C
:1021B00042EA024200F002B84FF000020429C0F0E7
:1021C000128010F0030C00F0B480CCF1040CBCF1D0
:1021D000020F18BF00F8012BA8BF20F8022BA1EBBB
:1021E0000C0100F0A6B85FEAC17C24BF00F8012B07
:1021F00000F8012B48BF00F8012B7047FEE7FEE70F
:1022000058585247010000000554000000202000EB
:10221000002020005EEC924700010000000000005A
:1022200000000000000000000000000000000000AE
:10223000000000000000000000000000000000009E
:10224000032A40F2308010F0030C00F0158011F8E2
:10225000013BBCF1020F624498BF11F801CB00F8BA
:10226000013B38BF11F8013BA2F1040298BF00F80E
:1022700001CB38BF00F8013B11F0030300F02580CB
:10228000083AC0F0088051F8043B083A51F804CBF2
:10229000A0E80810F5E7121D5CBF51F8043B40F8B8
:1022A000043BAFF30080D20724BF11F8013B11F8C3
:1022B00001CB48BF11F8012B24BF00F8013B00F807
:1022C00001CB48BF00F8012B704710B5203AC0F091
:1022D0000B80B1E81850203AA0E81850B1E8185027
:1022E000A0E81850BFF4F5AF5FEA027C24BFB1E864
:1022F0001850A0E8185044BF18C918C0BDE81040D5
:102300005FEA827C24BF51F8043B40F8043B08BFDD
:102310007047D20728BF31F8023B48BF11F8012BA4
:1023200028BF20F8023B48BF00F8012B70474FF050
:10233000000200B5134694469646203922BFA0E815
:102340000C50A0E80C50B1F12001BFF4F7AF090721
:1023500028BFA0E80C5048BF0CC05DF804EB890012
:1023600028BF40F8042B08BF704748BF20F8022B55
:1023700011F0804F18BF00F8012B704770B5064C64
:102380007C44064D7D4403E0206820448047241DA2
:10239000AC42F9D170BD0000847C0000847C000058
:1023A00010B50446AFF300802046BDE81040FFF7AB
:1023B000C1BE10B504F62CFF10B101F033F910BD09
:1023C000BDE810402CF612BA01F072B910B52CF627
:1023D000F9FA022818D00D4CD4F8880220F0010038
:1023E000C4F888024FF0E0214FF00050C1F880029D
:1023F00004F5227401F04EFA05484168491C416019
:10240000206840F00100206010BD000000E00040A6
:1024100020280020FEE7FEE7FEE702F089BDFEE788
:102420000249096801F007010170704700A00040EF
:102430000248016841F470010160704788ED00E0D6
:1024400002480068001D02F081BE0000D025002077
:1024500002484068001D02F079BE0000D02500202F
:10246000FEE700280DDB00F01F020121914040092A
:10247000800000F1E020C0F88011BFF34F8FBFF360
:102480006F8F7047002809DB00F01F020121914087
:102490004009800000F1E020C0F8001170470028DA
:1024A00009DB00F01F02012191404009800000F18A
:1024B000E020C0F800117047002809DB00F01F027F
:1024C000012191404009800000F1E020C0F8001196
:1024D000704700280FDB4109890001F1E021D1F8A4
:1024E000001100F01F0201209040014201D00120A4
:1024F0007047002070470020704700280FDB41091B
:10250000890001F1E021D1F8001100F01F02012043
:102510009040014201D00120704700207047002008
:102520007047002804DB00F1E02090F800047047B9
:1025300000F00F0000F1E02090F8140D704700004B
:1025400002480068C0F30220704700000CED00E074
:10255000EFF31080704700002DE9F0412DED020BE4
:102560009FED3D0B2DED028B9FED3D8BDDE9025480
:10257000C4F30A50A0F2FF36142E37DA002E18DA10
:1025800053EC102B9DED020B51EC100B06F04CFEA2
:1025900053EC182B07F044FA57D2002CBCBF4FF075
:1025A0000044002551DB54EA050018BF2E4C1BD116
:1025B0004BE02E4820FA06F704EA070028431FD014
:1025C00053EC102B9DED020B51EC100B06F02CFE82
:1025D00053EC182B07F024FA37D2002C03DD4FF40C
:1025E0008010F0400444BC4300252EE0332E07DC6D
:1025F000A6F114004FF0FF3121FA00F73D4206D159
:102600009DED020BBDEC028B02B0BDE8F08153ECF6
:10261000102B9DED020B51EC100B07F037FA53EC29
:10262000182B07F0FDF910D2002C0DDD142E08BF79
:10263000641C09D0C6F13400012101FA00F02844DD
:10264000A84238BF641C0546BD43CDE902549DED48
:10265000020BD7E7000000009C7500883CE4377E41
:1026600000000000000000000000F03FFFFF0F002E
:1026700080F31088704700002DE9F74F0746029855
:10268000DFF86CA1DFF86C814FEA500B5A48019DCE
:102690005C465646CAF80000D8F804203F2060F394
:1026A0000502C8F80420DAF8000020F4700040EABF
:1026B0000750CAF80000DAF8000020F4702040EA61
:1026C0000740CAF800000D2F02D00E2F04D007E0FB
:1026D000306840F4004002E0306840F480403060F0
:1026E000306840F400503060306820F06050306056
:1026F000306820F00F0040F003003060002000F050
:10270000AFF8012872D13168B24641F080413160A2
:102710000020424609E0D8F8083043F48033C8F876
:102720000830811C00F1010005D091689046C1F38A
:1027300000210029EFD1072000F092F8012855D19F
:1027400042E000264FF47A7924E04E451ED9DAF8AB
:10275000001021F08041CAF80010DAF8001041F0B2
:102760000041CAF80010DAF8001021F00041CAF860
:102770000010002000F074F8012837D11F480169CB
:10278000491C01610520FEF5CDF97FE70120FEF52A
:10279000C9F9761CD8F80800C0F300200028D4D06E
:1027A000D8F80800434600F07F02A24200D9224632
:1027B000002006E0196825F8021B090C25F8021B09
:1027C000401C9042F6D3A41A002CBAD10298C0073C
:1027D00007D040468168C1F300210029FAD0006883
:1027E0002880BDE8FE4F002000F03AB8BDE8FE8F1B
:1027F00000A8004000E000400A0708072028002049
:102800002DE9F04112490446002008601049803942
:102810000860104D686A104E00F001014942014005
:10282000F061C8050DD440F20117A869B84208D07C
:1028300024B10120641EFEF575F9F6E70020BDE81D
:10284000F0810648006870616868B0610120F6E7B1
:1028500094581C4200E000402028002000A80040BE
:102860002DE9F041104F0546F868C0F30240A84238
:1028700017D0F86820F007002843F86000244FF6CE
:10288000FF76F868C0F30240A84205D00120FEF5AB
:1028900049F9641CB442F4D3B44202D10020BDE82B
:1028A000F0810120FBE7000000E00040F0B50C469D
:1028B0002DED088B89B006469FED559B202168467B
:1028C000FFF735FDB0EE498AF0EE698A10226946BD
:1028D0003046FFF7D1FE00256F4607EB4500008A22
:1028E00006F00BFF53EC182B06F09EFC6D1C41EC20
:1028F000180BEDB2082DF0D39FED470B51EC180BE0
:1029000053EC102B06F08EFF41EC180B9FED44BBEF
:102910000D2E02D00E2E30D072E0608806F0EDFE53
:1029200053EC1B2B06F034FD9FED3F0B41EC190BD4
:1029300051EC100B06F06CFC41EC1A0BE08806F031
:10294000DCFE53EC1A2B06F06DFF41EC1A0B2088CD
:1029500006F0D3FE53EC182B07F098F853EC1A2B23
:1029600006F016FD9FED321B53EC112B06F010FD07
:1029700053EC192B06F058FC40E0A07EFF2801D054
:10298000E8B13DE09FED2C0B51EC100B06F040FC44
:1029900041EC1A0BE08806F0B0FE41EC190B2089DF
:1029A00006F0ABFE53EC182B07F070F853EC192B24
:1029B00006F0EEFC53EC1A2B06F034FF1EE0A08864
:1029C00006F09BFE41EC190BE08806F096FE06F03F
:1029D0001FFC41EC1A0B208906F08FFE53EC182BDC
:1029E00007F054F853EC1A2B06F0D2FC53EC192BD9
:1029F00006F018FF53EC1B2B06F0CAFC41EC190B38
:102A000009B0B0EE490AF0EE690ABDEC088BF0BDE2
:102A10000000000000000000000000000000C03FB7
:102A200000000000000059400000000000000040CD
:102A3000DE718A8EE4F25FBFE2E1E1E1E1E10E40A6
:102A40007047000010B51A4940F21A444FF4B972A9
:102A50000B694FF496710C3BA3420FD90424BE2896
:102A600001DC0C241BE0DC2801DC082417E0FA2838
:102A70000EDD884210DD904211DD0FE0BE2801DC42
:102A80000B240CE0DC2801DC072408E0FA2801DC38
:102A9000062404E0884201DC052400E003242046EB
:102AA00003F0B6F82046BDE8104003F09DB80000E2
:102AB0005C36002010B50B4C2089012811D194F808
:102AC0004B0000280DD1608F06F017FE9FED061B0E
:102AD00053EC112B06F0A6FE06F0E2FD218F084410
:102AE000208710BDF43400209A9999999999A93FAB
:102AF0000748084901E0401E04D00A68C2F34002BA
:102B0000002AF8D108B10020704703207047000068
:102B100020A1070038A70040052801D300207047F6
:102B200000EB4001044800EB4110017809B1001DA1
:102B30007047002070470000082A00202DE9F04768
:102B40000546894600244FF0FF3846464FF0010AFB
:102B5000002D10D03C49032004F0D8FD287960B145
:102B600001280AD0022808D0032806D0042804D05F
:102B70004046BDE8F087E520FBE7EFF31082012136
:102B800081F31088314F04EB440107EB41110B78BE
:102B90003BB14B68D5F800C0634510D18B688342C8
:102BA0000DD104EB440007EB401090F82C000228F4
:102BB00003D026B20120087004E0052402E0641C62
:102BC000052CE0D35AB3012080F31088052C34D2B1
:102BD000022203211E4804F017FB04EB440107EB1B
:102BE0004114286860602879A06004F10C0020225C
:102BF00005F10801FFF769FB164860631648E063BA
:102C00001648A06300202064C4F85C9014496068F2
:102C100088420ED10320FFF75CFC20B109E00020C0
:102C200080F31088D2E7032002F003F9032002F0BA
:102C30000DF9201D01F07EFE8246BAF1000F00D092
:102C40004646304695E700000D1E1000082A002079
:102C5000D49D2000CD3B2000453B2000FD3A2000C4
:102C60000040014030B597B005460C461C22414952
:102C700010A8FFF72AFB1C223E491C3109A8FFF7C8
:102C800024FB20223B49383101A8FFF71EFB94B1F9
:102C90003949062004F03AFD3849152004F036FD84
:102CA00034496C39A1F12C02052D61D2DFE805F021
:102CB000060606213900E52017B030BD207931F82D
:102CC00010001190607932F810001290A0791390E2
:102CD000206810902748843850F83500218809046E
:102CE000090C04D018B110A902F07FF839E0E420F3
:102CF000E2E7207901EB4000808A0A90607902EBDC
:102D00004000C0880B90A0790C9020680990207832
:102D100010F0FF0F03D009A801F0C2FC21E0E4206D
:102D2000CAE72079031F042B01D8E720C4E7022853
:102D300019D001200290207901EB4000008D039012
:102D4000607902EB400080890490A07905902068AA
:102D50000190207810F0FF0F08D001A9002002F0A8
:102D600066F80020A8E702200290E4E7E420A3E749
:102D7000E620A1E7749E2000B51E1000B11E1000D1
:102D800010B50848017800290AD1012101700648D0
:102D90002BF688FDBDE81040002104482BF684BEC8
:102DA00010BD0000CC250020811E1000A571200060
:102DB0002DE9F0410446002C13D0EFF311850220D9
:102DC000FFF7AFFB0746FFF7BBFB401C012606FAE7
:102DD00000F03844C0B280F311881248002121620B
:102DE0000EE00020BDE8F081D4E90432D1E9047C92
:102DF000DB1B72EB0C0202D2016A216203E008467F
:102E0000016A0029F0D10462667006481038016832
:102E1000491C0160016B4160E8B280F31188012018
:102E2000E0E70000D02900202DE9F041054600240C
:102E3000EFF311860220FFF774FB0746FFF780FBD4
:102E4000401C012181407818C0B280F31188134AD8
:102E5000106BE8B115B102F1100010E00446206AD1
:102E600010631068401E10600CE0A94206D1116882
:102E7000491E1160296A01622C4603E00846016A76
:102E80000029F2D124B1002020626070106B5060E4
:102E9000F0B280F311882046BDE8F081C0290020FF
:102EA0002DE9F041EFF311870220FFF73AFB0446CA
:102EB000FFF746FB401C012181406018C0B280F33F
:102EC0001188114D002608E02078012804D1E1691D
:102ED00009B1A069884726702D6A2C6A002CF3D1AD
:102EE000094D103D07E0E16909B1A06988472670E6
:102EF000206AA8632662AC6B002CF4D1F8B280F390
:102F000011880120BDE8F081D02900202DE9F04191
:102F1000EFF311870220FFF704FB0446FFF710FBD5
:102F2000401C012606FA00F02044C0B280F311884C
:102F30001D4DA5F110082DE0D4E90430D8E90212A6
:102F40005B1A60EB0200D8E91021D21A814124D328
:102F500026702046FFF768FFA078012806D01248A7
:102F6000283000212162016861B10FE0D8E9022018
:102F7000D4E9021351185841C4E904102046FFF760
:102F800017FF07E0046005E001F120000168002957
:102F9000FAD104602C6A002CCED1F8B280F31188EB
:102FA0000120BDE8F0810000D029002070B5044662
:102FB000012520780A4E012800D13570207802289A
:102FC00008D17570A088708072880649A1F50070DC
:102FD000FFF736F92078002801D13570757070BD83
:102FE000E0250020E02F002010B50446114822788B
:102FF0004FF0FF3150F82220A2F86410227850F8E8
:103000002200A0F86610606B002801D1A16B71B19D
:1030100020B1204600F05EF8002807D1A06B20B157
:10302000204600F009F8002800D1002010BDE4205F
:1030300010BD0000D025002030B58BB004462821FB
:1030400001A8FFF774F9A06B019094F83D008DF88A
:1030500008001D480199814205D121781B4A02EBE5
:10306000C101496803910399F1B10199814201D1EC
:103070000B2004904FF400100590C0120690002021
:1030800007900890099040200A90002101A8FFF7BE
:1030900055FD21780E4D55F82110A1F86600002845
:1030A00004DAE4200BB030BDE720FBE7FFF734FD86
:1030B000217855F821104863217855F82110091D11
:1030C000C1620020EEE7000000400140EC9E2000BD
:1030D000D025002030B58BB00446282101A8FFF789
:1030E00026F9606B019094F83C008DF808001C48AC
:1030F0000199814202D14FF00B00039004D1207856
:10310000184951F8300004900498D0B14FF4801061
:1031100005904FF0000006904FF4807107910890E1
:1031200009900A90014601A8FFF708FD21780E4D8D
:1031300055F82110A1F86400002804DAE4200BB04F
:1031400030BDE720FBE7FFF7E7FC217855F82110B9
:103150000863217855F82110091DC1620020EEE7AF
:1031600000400140EC9E2000D02500207CB50025C9
:103170001C48009040F2012001906A461A491B4801
:1031800000F008F900282BD1184941F28834234671
:103190004D22583900F0B0F91449234609220B3961
:1031A000002000F0A9F9114800F026F8002817D1F6
:1031B0000E4C4FF400765C3C0BE060780028FCD0AD
:1031C000257062880A49002000F0AAF820780028BB
:1031D000FCD0657032460749002000F039F8ECE772
:1031E0007CBD0000E0310020AD2F20003C260020F7
:1031F000E02D0020E02F002070B500280CD00478CE
:10320000124E56F8241049B191F8682032B191F865
:10321000691029B1EA2070BDE52070BDE92070BDBC
:10322000EFF31085012181F31088FFF7DDFE20B94F
:1032300056F82420012182F869101DB1012181F383
:10324000108870BD002181F3108870BDD02500204A
:1032500070B5022801D3E82070BD134C54F820301B
:103260004BB193F8695035B139B132B193F8FF5091
:10327000012D04D010E0E92070BDE42070BD0025D0
:1032800083F8FF5054F820305B680225C3F888505B
:1032900054F820305B681B6854F82000001D01F0D2
:1032A000B7FF0028EAD170BDD025002070B50446D4
:1032B0001A4D55F824006C3004F07DF882B21646A1
:1032C000A2B155F8240090F8FD1001290ED001217B
:1032D00080F80011802A0FD355F82400802200F1D5
:1032E0007C016C3004F082F880260CE055F8241044
:1032F000002081F8FC0070BD55F8240000F17C012D
:103300006C3004F073F855F82400324600F17C016B
:10331000001D02F08DF80028EDD170BDD0250020F1
:1033200070B50446022C01D3E82070BD184D55F845
:10333000240090B190F869307BB181B17AB1002658
:1033400080F8FE6055F824006C3004F09BF855F8C6
:10335000240090F8FC1021B10AE0E92070BDE420BF
:1033600070BD90F8FD1019B990F86810012901D0CE
:10337000E22070BD012180F8FC102046FFF796FF87
:1033800020B155F8241081F8FC6070BD002070BD9C
:10339000D02500202DE9F04105460F46002D06D02E
:1033A0002AB12C78022C04D3E820BDE8F081E52076
:1033B000FBE7304E05F1580046F82400D2E9003111
:1033C0000A466C30194603F0DBFF291D286D05F015
:1033D000F5FB0028E9D156F82410281D086656F898
:1033E0002400076056F824001822083005F1400137
:1033F000FEF76BFF204856F8241000EBC405686800
:10340000486056F82400001D01F0C6FD56F824005F
:10341000001D01F04FFE184803221146103803F03A
:10342000F3FE56F82410012081F8680056F82410A5
:10343000002081F8FC0056F8241081F8FD0056F8B1
:10344000241081F8FE0056F8241081F8FF000B4983
:103450000C2004F05BF90A490D2004F057F995F9A6
:10346000010001F0E6FC95F9010001F0EFFC0020FD
:103470009BE70000D0250020DC9E20004124200096
:10348000512420002DE9F04104461A4D55F824003E
:103490006C3003F090FF82B2164600277AB155F8DF
:1034A000240090F8FD10012909D0802A0ED300F1E4
:1034B0007C016C30802203F099FF80260BE055F8E8
:1034C000240080F8FC700020BDE8F08100F17C0150
:1034D0006C3003F08BFF55F8240080F8007155F82C
:1034E0002400324600F17C01001D01F0EBFF0028B2
:1034F000EAD1E9E7D025002070B5022801D3E82001
:1035000070BD104D55F8204064B194F868604EB11C
:1035100051B14AB15E1C09D049F64046B34205D9C3
:10352000E42070BDE52070BDE42070BD002684F865
:10353000FE6055F82000001D01F042FF0028F4D184
:1035400070BD0000D02500202DE9FC4781460D46C6
:1035500016469A46DFF8A080D8F8FC00A84248DB5F
:10356000D8F80001A84201DA00F0FAFFD8F800010B
:10357000A8423CDB05F1F700F821B0FBF1F0C7B23F
:1035800001242FE0002000900190ADF80090ADF8EC
:1035900002509DF8040067F3071064F303008DF8F0
:1035A00004000521684600F03FF88DF805009DF8FD
:1035B000060020F00300801C6AF382008DF80600EC
:1035C000684600F062F80146304600F02DF88DF8AC
:1035D000070032466946D8F8F80005F0AFFDF83626
:1035E000641CE4B2BC42CDD90020BDE8FC870520B4
:1035F000FBE70520F9E70000DC2C002010B503787C
:10360000002B03D0FF2B01D0012010BD012205E0CB
:10361000845C9C4201D0012010BD521C8A42F7D329
:10362000002010BD2FF668BA10B503460020002216
:1036300003E09C5C2044C0B2521C8A42F9D310BD06
:103640007CB540F6886201FB02F500226B4611460C
:1036500000F0F8FD04463CB12146684605F068F9E3
:10366000F83D04F58070F0E728467CBD01F6FF7256
:10367000130B00F6FF72A3EB123252B2081AC2EB20
:103680001020C0EB4010C00070470279110902F011
:103690000F028A4207D18078491EA1EB411100EB4D
:1036A000C100C0B200E0F820F82800D9002070471F
:1036B000174810B50068C0F3000038B11448083846
:1036C0000068C0F3000008B103F0C2FF11480068B1
:1036D000C0F3000038B10F4808380068C0F300009C
:1036E00008B100F0F9FC03F03BFF00280FD001F017
:1036F00047FF00280BD00120FEF683FC06488168B6
:1037000021F480718160054800218170C17010BD75
:1037100008E4004008E5004000A00040F427002035
:1037200010B503F01DFF20B101F02AFF08B1012000
:1037300010BD002010BD000010B50E491E2003F082
:10374000E5FF03F00DFF88B10120FEF633FC0A49C6
:10375000012008700949D1F8801211F4403F00D1CE
:10376000002003F047FF1E20FEF799FE00F05AFCF0
:1037700010BD0000C9232000F427002000A0004055
:10378000704700002DE9F041C0B00F4610494FF4DA
:103790008078D1F8F420497808EB0131561800F50B
:1037A000807500240EE042466946304603F0CCF9AD
:1037B00042466946284603F0CCF906F5807605F5C1
:1037C0008075641CBC42EED340B0BDE8F0810000BF
:1037D000DC2C00202DE9F043C3B0894615494FF495
:1037E0008078D1F8F420497808EB01315618070B9E
:1037F0003F030024002201AB1146384600F022FDB1
:10380000054685B1424603A9284603F09DF9424684
:1038100003A9304603F09DF905F5807706F580761B
:10382000641C0F2CE6D3C9F8007043B0E0B2BDE8C9
:10383000F0830000DC2C0020124810B5016821F054
:103840000041016010490A78497842EA8103011D6C
:103850000A6863F31F720A60016841F00041016069
:103860000A48D0F8881241F00101C0F888120849CE
:103870001D2003F04BFF4FF0E0214FF00050C1F846
:10388000000110BD04A900402028002000E00040F5
:10389000CD232000F8B5EFF31086012080F31088C7
:1038A00006208DF800006846FEF7BAFD0220FCF500
:1038B0003FFE3220FDF536F9184C206820F4003028
:1038C0002060251F286840F002002860144F788986
:1038D000FDF528F9286820F002002860B889FDF578
:1038E00021F99DF80000FCF523FE0C4838300168F2
:1038F00089020CD400682168C0F3044041F400310F
:103900002160216821F4F83141EA003020601EB1C5
:10391000012080F31088F8BD0020FAE708A90040D4
:10392000D02800202DE9F043C5B0DFF8B890D9F8D1
:10393000F850A5F5807500240027002619E041AB5A
:1039400001220021284600F07DFC044620000ED014
:10395000BDF8041143AB0122D9F8F40000F072FC69
:103960000746380009D0A74207D0012605E0A5F593
:103970008075D9F8F400A842E1D3002E27D04299EF
:103980004198CDE90101204601264FF0000803AA25
:1039900001A901F093FF90B1761CF6B29DF80801E1
:1039A000B6EB101F02D94FF0010808E0BDF8041172
:1039B00001AB3246284600F045FC0028E7D1B8F1BB
:1039C000000F07D02246394643A800F05EF845B004
:1039D000BDE8F083214641A8D9F8F82000F055F859
:1039E000F5E70000DC2C002010B50C46A17921F091
:1039F0000301A171801D0122A11D03F0AAF8044852
:103A00000168F83101602088BDE8104004F0BCBFB7
:103A1000D82D00202DE9F04FBFB080468A46914650
:103A2000FF22F82101A8FEF7BFFB00270824002091
:103A300089F800004FF6FF7B08EB040528885845FD
:103A400019D0284601F055FFA8B1A8780830C6B2B1
:103A50002888504504D13444012089F8000008E04A
:103A600001A8294638443246FEF7EAFB3444B81927
:103A7000C7B2F82CE0D3F82201A908F10800FEF73C
:103A8000DFFB3FB03846BDE8F08F2DE9FC4105462D
:103A90000F461646287904090DE029886B46224610
:103AA000384600F0CFFB20B1B04202D26946FFF7A2
:103AB0009BFF641EE4B2002CEFD1BDE8FC812DE930
:103AC000FC410E4617466FF30B00002512E0002262
:103AD0006B46114600F0B6FB0446002C0CD0B442F5
:103AE0000AD269462046FFF77FFF04F58070B04296
:103AF00002D26D1CBD42EAD3BDE8FC8130B4002186
:103B00000F4B01EB410203EB42121478012C11D14F
:103B100094684568AC420DD152680468A24209D14C
:103B200001EB410003EB4010C16D002905D030BC12
:103B300002200847491C0529E3D330BC7047000028
:103B4000082A002030B400210F4B01EB410203EBA7
:103B500042121478012C11D194684568AC420DD101
:103B600052680468A24209D101EB410003EB401006
:103B7000C16D002905D030BC00200847491C05292B
:103B8000E3D330BC70470000082A002070B5002441
:103B90000B4E04EB440006EB4015287801280AD1AF
:103BA000281D00F0C3FE18B1012801D0002070BD0F
:103BB000281D01F034F8641C052CEAD3012070BDE7
:103BC000082A002080F828107047000030B4002137
:103BD0000F4B01EB410203EB42121478012C11D17F
:103BE00094684568AC420DD152680468A24209D17C
:103BF00001EB410003EB4010C16D002905D030BC42
:103C000001200847491C0529E3D330BC7047000058
:103C1000082A002000B500F007F802490120886159
:103C200000BD00008035002030B5084C012504F8A7
:103C3000045B84E80F000648241F8068884201D294
:103C4000081A00E0401A606130BD000018360020FC
:103C50000828002010B501F0F7FC0446182105489B
:103C6000FEF765FB034A002120461170BDE81040B5
:103C700000F018B918360020F0B40E460146224F65
:103C80002048BB680578C0E90821994201D9CC1ABF
:103C900000E05C1AFF68A7420AD28769A74201D9EF
:103CA000C0E90642012D09D0022D1FD0032D27D1D6
:103CB00013463246F0BC0020FFF7ACBF4161994289
:103CC000016902D9491C816002E0491EC160816816
:103CD000C268914206D21144490801610121017074
:103CE000016909E002210170816805E0C36993421E
:103CF000DED00321017019463046F0BC00F006B852
:103D0000F0BC7047C035002008280020054A936A9F
:103D10005B1C93628AB2C1B20348044B406801F055
:103D20003DBC0000C035002008280020793C200060
:103D300070B50E4C05462C212046FEF7F8FA0020FF
:103D4000A06040F2FF10FF22C4E903024FF0FF30F1
:103D5000A061A06AE9B2401CA06201202070044862
:103D6000044B4068BDE8704001F018BCC03500202D
:103D700008280020793C20002DE9F843254C07460F
:103D8000904620780D4601280BD0022813D0082039
:103D90001346E0610A4601B03946BDE8F043FFF73B
:103DA00039BF40F2FF11C4E903712846BDE8F8436A
:103DB000022200F061B8002600966846676100F0B4
:103DC0002BF870B1012810D0022817D003281FD07B
:103DD000072043462A463946E061FFF71BFFBDE84E
:103DE000F8832846FFF7A4FFF9E70F2D04D201223C
:103DF0003146681CA66006E00520EAE735B10122DD
:103E00000021681EA66000F037F8E8E70620E0E72A
:103E10000098DEE7A035002010B51649144A144C6E
:103E20000B698968D26864698A4201D98C4219D8C1
:103E30008A4201D28C4211D38A4201D9521A00E03F
:103E40008A1A8C4201D9611A00E0091B9A4203D3F5
:103E5000994201D3002010BD9A4201D2012010BD29
:103E6000994201D2022010BD03210160084610BD15
:103E7000A035002008280020074B30B49C69641C42
:103E80009C6158601A708AB2C1B20448044B406801
:103E900030BC01F083BB0000A035002008280020C2
:103EA000793D200070B5074C054620212046FEF7DD
:103EB0003EFA00212846A160BDE870400122FFF7CC
:103EC000DBBF0000A0350020F8B51D4C00250E46D4
:103ED0000095E169491CE161C4E90162E168C4E956
:103EE000030118498968814201D2401A00E0081A8A
:103EF0006169814201D9C4E90502684600F024F8ED
:103F000040B101280BD002280FD0032811D000980F
:103F1000A06200E0A562204600F098F8F8BD0120FC
:103F200084F820003046A16906E0A1683046491CAB
:103F300002E0A1683046491E00F04AF8F8BD0000D2
:103F4000EC35002008280020F0B51F4A1F4DD3682B
:103F5000A9688B4201D95C1A00E0CC1AED68A54231
:103F600010D2576A012F0DD092F82040012C09D0B1
:103F7000154CD6694FF0010CA569A468BE4203D365
:103F8000A54213D10020F0BD012E08D916698E423A
:103F900001D98B42F4D38E4201D28B42F0D88B42AE
:103FA00008D9B4F5FF7F08D9092109E082F820C0BB
:103FB0000120F0BD1CB10320F0BD0220F0BD0A219C
:103FC00001600420F0BD0000EC350020082800202E
:103FD0008AB2C1B20248034B406801F0DFBA000068
:103FE00008280020C93E200070B50D46044616463C
:103FF0002C210948FEF79BF9074B0020B2B283F849
:104000002000401E5C6258610448E9B2044B4068DD
:10401000BDE8704001F0C2BAEC350020082800204D
:10402000C93E200010B501F0A1FA00280AD00648C8
:10403000007818B1BDE8104000F02EB8BDE810407F
:10404000FFF708BE10BD00001836002000B500F0D4
:1040500007F802490120886100BD0000803500207A
:104060000B4901220A71826A8A60C269CA60C26809
:104070000A6142684A6182688A61C268054880684C
:10408000824201D9101A00E0801AC861704700000E
:1040900030360020082800202DE9F04101F0D4FA44
:1040A000804601F0E3FA07460A48094C2021466998
:1040B00025682046FEF73BF96D1C00202560207125
:1040C0003A4641463046BDE8F041FFF78DBF00005B
:1040D000303600200828002010B50E4C2069401C06
:1040E000206101F0E9FAE06001F0AEFA606001F0F1
:1040F000BDFA094A0021A06011606161E3692BB13A
:1041000002462179E068BDE8104018470120A0610F
:1041100010BD00008035002000E5004070B5164855
:1041200090F80014154D28680122C0F30220401CAD
:1041300082408818C0B280F31188114C0F48216862
:104140000C306268A36880E80E00232204F10C01A1
:104150000C48FEF7BAF8216B4FF0E020C0F80011D0
:10416000616BC0F80411A06B286007484068C0B2BA
:1041700080F3118870BD000002E000E00CED00E06B
:10418000C436002000E400E0C8280020EFF31180CE
:104190000D4948604FF0E021D1F800210B4802633F
:1041A000D1F8041141630A4909680A4A89B21143E6
:1041B000816307490C310EC901604260836023228C
:1041C00005490C30FEF781B8C8280020C43600200D
:1041D0000CED00E00000FA0500E400E070B50546D3
:1041E00005EB01342646A4F58074204601F00AFB55
:1041F00040B12646A4F58074200501D1A4F5807451
:10420000AC42F2D8304670BD7CB500260C4804683C
:1042100004F58074456808226946204602F094FC43
:10422000684601F066FB48B104F58074200501D1B1
:1042300004F58074AC42EED330467CBD2646FBE7E5
:10424000D02D00202DE9F04704460E4617461D46A6
:104250004FF000090020286068601448D0F8F8800A
:1042600020051DD104F580741AE008222946204655
:1042700002F06AFC16B12888B0420BD127B1287928
:1042800000F00F00B84205D1284601F032FB08B11A
:10429000A14607E004F58074200501D104F580747F
:1042A0004445E2D34846BDE8F0870000DC2C0020FE
:1042B000F8B505460E4617461C4600953A4669462F
:1042C000304604F087FB78B100202060606008224F
:1042D0002146009802F038FC204601F00AFB08B1A4
:1042E0000098F8BD0020F8BD23463A4631462846DE
:1042F000FFF7A8FFF8BD2DE9F04106460F46B0795B
:10430000400719D5304601F0F4FAA8B108244FF659
:10431000FF783519288840450ED0284601F0E9FA83
:1043200050B12888B84202D1E0B2BDE8F081688877
:1043300008340444F82CECD30020F6E738B502F03A
:104340004DFD1D4C00224FF48041204601F058FEE7
:104350000122D103204601F053FE00224FF48031A8
:10436000204601F04DFE01225104204601F048FE96
:1043700001229104204601F043FE0122D10420468F
:1043800001F03EFE00208DF80000A3208DF8010012
:1043900002208DF802000098FDF5B8FD02F0E0FC67
:1043A000012002F018F90548016821F00061016060
:1043B000BDE8384002F03CBD000001400CAA0040BE
:1043C00002494968002900D008477047B4290020F5
:1043D00070B5044600BFFEF7BBF805460120FEF7A6
:1043E00047F90948047024B912220849084802F024
:1043F00067F91DB90020FEF73BF902E00120FEF746
:1044000037F900BF70BD0000982700202C34002031
:10441000002000E010B5074840680749486006489A
:10442000083010220349083102F04AF903200249FA
:10443000086010BDE4330020002000E000200349A4
:104440000968002900D0084770470000B4290020FF
:1044500070B500BFFEF77CF805460120FEF708F9AD
:104460000B48047834B912220A490B4802F028F9A3
:10447000FFF7D0FF0120064908701DB90020FEF7A4
:10448000F7F802E00120FEF7F3F800BF204670BD08
:1044900098270020002000E02C3400202DE9F04770
:1044A00088B004462D4ED6F8F80000F6FF70070BD2
:1044B0003F034FF480594FF0010A07947178D6F802
:1044C000F40000EB0130494602F0FDFA07A920464E
:1044D000FFF780F9054628000AD02A4620460799AA
:1044E00004F0E6FD200B00032A460799FFF7E7FAE0
:1044F0004FEA14384FEA08384946404602F0E3FADA
:1045000001A801F01BF9D6F8F400201A0AEB1030CC
:104510008DF814009DF8151008448DF8160001A8B8
:1045200004F0FEFD75B129464046FFF72BF9002047
:1045300000907178D6F8F400012200EB0130694652
:1045400002F007FB04F58054BC42B6D3707800211A
:1045500001F038F908B0BDE8F0870000DC2C00203D
:1045600070B502F018F9094D2120287004F0D4F933
:10457000FFF74AFE18B1FFF791FF044600E00A2456
:104580002020287002F006F9204670BDDC2C0020A7
:10459000024600210BE0084850F83130501E83429B
:1045A00004D1054800EBC10040687047491C102940
:1045B000F1DB0020F9E7000074340020002101E065
:1045C000491C4008C207FBD00846704770B5044636
:1045D00000BFFDF7BDFF05460120FEF749F80020AA
:1045E00014490870144815490860154815490860B1
:1045F00012221549154802F063F81548124948601F
:10460000032008601222134802F05AF812220F49C0
:104610000D4802F055F8882C01D004F059F81DB966
:104620000020FEF725F802E00120FEF721F800BF88
:1046300070BD000098270020D1432000B829002039
:1046400051442000B4290020002000E02C34002038
:1046500080380020E43300202DE9FE430546002485
:1046600003208DF8000000260C4F4FF00108E807EA
:104670000BD008FA04F0019007EBC40040680290E8
:1046800057F8341009B168468847641CA4B26D0815
:10469000761C082EEBDBBDE8FE8300009C2C00207E
:1046A00000B58DB001680591416801F003020692E2
:1046B00082680792C26808920269099242690A9266
:1046C00080690B9008090C9009A80FC88DE80F00AD
:1046D00005A80FC801F020F90DB000BD2DE9F0418B
:1046E000104DD5F80802C4B2D5F88400C0F34006D6
:1046F0006FF00207002C0CD0D5F80802A043C5F8D3
:104700000802E043C5F80802C5F884702046FFF7A8
:10471000A3FF002E03D0002C01D1C5F88470BDE8A2
:10472000F081000000A0004010B5064C0448206055
:1047300001F078FAFEF7DCF90021216010BD0000DD
:10474000A2B4982B04A700400121814002480268CE
:104750008A43026070470000D82500200121814073
:10476000024802681143016070470000D82500200C
:104770002DE9F047044600272F48D0F80090DFF8D5
:10478000BC80D8F800A04846514600F087FAD8F817
:104790000460FBF5EFFE2A484FF47A710068B0FB25
:1047A000F1F54D43D4E9000101F07DFB6168226819
:1047B00001EB410000EBC10002EBC0030EE0D8F8B2
:1047C0000400801BA84209D9206C40F0200020641E
:1047D00003212046FFF7F6F9032725E0186CC0F304
:1047E00040200028EBD0104601F066FA0EE0D8F821
:1047F0000400801BA84209D9206C40F020002064EE
:1048000003212046FFF7DEF903270DE0D4E900017C
:1048100001F00CFB0028EAD1D4E9000101F010FB03
:1048200001212046FFF7CEF95146484600F016FA1E
:104830003846BDE8F0870000FCED00E0001000E025
:104840005C00002070B50446002594F8280001287B
:104850000DD094F8280002280FD094F828000428DE
:1048600062D0206C40F00400206401255CE0E16B24
:10487000002959D02046884756E0D4E9000101F0CC
:104880001BFAD4E9000101F0D1FA0028F9D121790D
:1048900022680831012000FA01F1C2F810132179D1
:1048A0002268083100FA01F1C2F818132179226850
:1048B000083100FA01F1C2F8201321792268083189
:1048C00000FA01F1C2F8281321792268083100FAB0
:1048D00001F1C2F830132279216800FA02F2C1F81E
:1048E00038232279216800FA02F2C1F840232279A4
:1048F000216800FA02F2C1F848232179226800FAFF
:1049000001F1C2F85013227921689040C1F8580390
:10491000D4E9000101F0E1F901212046FFF752F945
:10492000E16B09B120468847284670BD90F8280001
:104930007047000070B58CB0044694F8280000253C
:10494000002816D11F492068884212D1EFF3108148
:10495000012080F310881C4A107808B91B4B1D6099
:1049600026790123B3400343137031B3012080F350
:10497000108802212046FFF725F901A801F083FAEB
:10498000A0680990E0680A9060690490A0690590A9
:10499000E0690690206A079020690390606A0B9096
:1049A000D4E9000101AA01F0D7F9256401212046CC
:1049B000FFF708F90CB0002070BD002080F31088CC
:1049C000D7E7000000400140DC2500200C5D1C42C0
:1049D0002DE9F041044694F8280000287AD0D4E963
:1049E00000010127D0F8082307FA01F535EA020291
:1049F00073D00022E2B1D0F830233B4695436ED00D
:104A00000022AAB1083103FA01F1C0F8301320796D
:104A100021688340C1F85833206C40F001002064C5
:104A200004212046FFF7CEF8A16B09B12046884744
:104A3000D4E9000107FA01F2D0F8E8521346AA437C
:104A40004FD0002202B3D0F8102393434BD0002262
:104A5000D2B1083107FA01F1C0F8101321792068AA
:104A600007FA01F1C0F838132179206807FA01F23A
:104A7000C0F83823206C206401212046FFF7A2F8FB
:104A8000216B09B120468847D4E9000107FA01F6F5
:104A9000D0F8F02236EA020227D00022002A28D0DD
:104AA000D0F81823964322D00022002A21D00831C2
:104AB00007FA01F1C0F81813217920688F40C0F877
:104AC0004073206C2064616B002912D02046BDE841
:104AD000F04108470DE000E001E001228AE70122F1
:104AE0008FE70122AEE70122B2E70122D6E70122D9
:104AF000DBE7BDE8F08110B50268416CC2F898139D
:104B0000D0E9003101EB410404EBC101182404EBAE
:104B1000C101826C5A50D0E9003101EB410404EB31
:104B2000C1011C2404EBC101C26C5A50D0E9003110
:104B300001EB410404EBC101402404EBC101026D0F
:104B40005A500268416D406800EB400303EBC0001F
:104B5000442303EBC000115010BD70B5044620463D
:104B600000F007F8054615B903CC01F0C1F8284656
:104B700070BD2DE9F84304460F4690461D460026B9
:104B8000002D07D094F82800012809D002263046CD
:104B9000BDE8F883206C40F0080020640120F7E7AE
:104BA00002212046FFF70EF8D4E9000101F095F844
:104BB000D4E9000101F086F8D4E9000101F071F8B0
:104BC00020690090D4E9000143463A4601F058F8C4
:104BD000D4E900012A4601F03EF921792068012537
:104BE00005FA01F1C0F83813D4E9000101F0A9F881
:104BF0002179206805FA01F1C0F84013D4E90001D9
:104C000001F08BF8217920688D40C0F85853D4E921
:104C1000000101F08CF803CC01F074F8B7E70168EB
:104C2000D1F898234264426802EB420303EBC202CC
:104C3000182303EBC203CB5883641C2303EBC2038A
:104C4000CB58C364402303EBC203CB580365442312
:104C500003EBC202895841657047000010B5EFF3BD
:104C60001083012282F31088094C2268521E2260B0
:104C7000002A03D1074A1160074908601BB10120CF
:104C800080F3108810BD002080F3108810BD000054
:104C9000C8230020001000E0FCED00E010B5EFF3A9
:104CA0001083012282F310880B4A1468641C14607C
:104CB00040F08072094802600268D201FCD541F0E0
:104CC0000100074908601BB1012080F3108810BD66
:104CD000002080F3108810BDC8230020FCED00E008
:104CE000001000E00A4610B501460020FDF514F959
:104CF00008B1002010BD012010BDFDF513B910B59D
:104D00001446FDF57BF908B1002010BD204610BD0A
:104D10002DE9F74F00244FF4807AC0B017468B4638
:104D20001546524501D9564600E03E460BEB0401BC
:104D3000884632466846FDF783FA4098324620445A
:104D400081466946FDF5A0F9B8B94846324669463C
:104D5000FDF554F988B9404632466946FDF7F8F941
:104D600058B9AD1B0DD034445646B54200D82E4636
:104D7000BC4202D2A019B842D8D9002043B0BDE845
:104D8000F08F3846FAE700002DE9FE4380460F46D3
:104D90003846FFF713FC85B20024DFF834900D4E3F
:104DA00059F8340040450ED105EB041085B28DF85A
:104DB0000040019706EBC5004068029056F8352088
:104DC0000AB168469047641C032CE9DBBDE8FE830A
:104DD000F09D20002C2C002010B5816B89B28163DE
:104DE000002901D0FFF7D0FF10BD10B58EB00446EA
:104DF00008680690087900F003000790886808901A
:104E0000C868099008690A9048690B9088690C90F5
:104E1000486800090D90142209A96846FDF755FA63
:104E200006A920460EC901F049F80EB010BD01F0E8
:104E300057B9002809DB00F01F0201219140400909
:104E4000800000F1E020C0F880127047002809DBE4
:104E500000F01F02012191404009800000F1E02094
:104E6000C0F80011704700002DE9F041EFF3118701
:104E70000220FDF756FB0446FDF762FB401C0121B2
:104E800081406018C0B280F311880020FDF7CCFF8C
:104E90000546254ED5E90412C6E902122348081A30
:104EA00072F11E0019D306F110000EE0DCE90412C5
:104EB000D6E90234B1EB030872EB040804D3C91A33
:104EC00062EB0402CCE90412006AD0F820C0BCF105
:104ED000000FEBD10021B160F160A87801280AD160
:104EE000D6E90230D5E9021259185041C5E904103B
:104EF0002846FDF75DFFF8B280F31188FEF706F84B
:104F0000706840B1D0E90421D6E90203101A61EBC0
:104F1000030101F025FAE96909B1A8698847BDE8EC
:104F2000F041FDF7BDBF0000C02900200010C32CD8
:104F300010B503496FF001000860FFF795FF10BD41
:104F400084A0004070B504460D46142002F012FB08
:104F500002490D64024A14430C6070BD00A5004074
:104F6000030000014FF40040704700000548816BCA
:104F7000C1F38001002901D0806C70474FF0FF30F1
:104F80007047000000A500400248806BC0F300009D
:104F90007047000000A5004070B5044694F8360044
:104FA00094F83710084347D014220221204603F01A
:104FB000C2FE20680025C0F8905041F288330022DC
:104FC0004021204603F06CFF206801F089F920465B
:104FD00000F01CF91B4A21680120914204D11A49B2
:104FE00008601A49086005E0174908310860174948
:104FF000091D0860EFF31081012282F31088144B21
:10500000D3F8CC62134A1640B24302D10E4AD83AC2
:105010001060D3F8D43243F6C34213409A4301D10F
:105020000D4A106051B1012080F31088A563002261
:105030000221204603F07FFE002070BD002080F397
:105040001088F3E700C5004080591C42805A1C427A
:1050500000E000400530063028581C421CB50446CC
:10506000204603F099FD00228DF80020A16B0191EC
:10507000064951F8203083F8FC2051F820000168DF
:10508000002901D0684688471CBD0000D0250020BB
:1050900010F8361F407851EA000202D0102902D0E1
:1050A00003E000207047102801D014207047102022
:1050B0007047000030B585B0044694F836000025EE
:1050C00000281DD194F83700D0B91C4805601B4852
:1050D000803805601A492068884205D11748D830C1
:1050E00005601848056008E01749884224D1134834
:1050F000E03005601348001D0560204600F087F889
:1051000014220221204603F016FE60680090A06879
:10511000019020690390E0680290606904906946FC
:10512000206801F0E1F8A56310220221204603F077
:1051300002FE002005B030BD0120FBE7A8581C424C
:1051400000C50040805A1C4200C6004070B50446AD
:105150002268906800F00F000021022809D004287E
:105160000CD0062816D00C2831D1A06901280BD00C
:105170000BE02046BDE8704003F002BE2046BDE8CB
:105180007040002103F08EBD01212046BDE8704033
:1051900003F088BD5069A16B00F01E000143A163BC
:1051A000D06FC0F3C00018B10021204603F07AFD93
:1051B000A06B4FF00005800720D5204603F0BDFC12
:1051C00094F83500012803D02046FFF747FF70BD53
:1051D000206B68B10C49C163206BFFF733FB0028DB
:1051E000F5D084F83550206BC16BBDE8704008479E
:1051F00084F835502046FFF731FF70BD2046FFF799
:105200002DFFA56370BD00003D8A200070477047E8
:1052100070B504460E46154694F83700102802D0A3
:105220000225284670BDA069C8B320680221C0F8D5
:105230009C10206B4FF4804203C800F018FE666299
:10524000258565850026A66312220121204603F0EC
:1052500072FD012084F83500216B2A480863216B18
:1052600029488863206BC66320684169890703D594
:1052700001680221C0F8881021682B46626A206B01
:10528000FFF76BFC0546280014D0A06B40F480703B
:10529000A06310220121204603F04DFDC1E7FFE786
:1052A00020680021C0F89C10206B002203C800F089
:1052B000DEFDC4E7EFF31081012080F31088206841
:1052C000426842F00402426099B1012080F31088E4
:1052D000A0690128A5D1EFF3108180F31088206820
:1052E000426842F00102426039B1012080F3108827
:1052F00097E7002080F31088EAE7002080F3108809
:105300008FE70000938A20004D8A20000168C26B5D
:10531000CA600268D36843F08003D360026C0A60FD
:10532000426C4A600268D36823F08003D360826CC9
:10533000C1F8C020C26C0A610622C1F88820026D43
:10534000C1F89820426DC1F8A020806DC1F89C0082
:10535000704700001CB50446204603F01DFC0221E6
:105360008DF80010218D628D891AADF80410044962
:1053700051F820000168002901D0684688471CBD0B
:10538000D02500200168CA68C263CA6842F0800262
:10539000CA600A6802644A684264CA6822F08002ED
:1053A000CA60D1F8C02082640A69C264D1F898202A
:1053B0000265D1F8A0204265D1F89C108165704744
:1053C0002DE9F04106460D4614461F4696F8360074
:1053D000102802D00220BDE8F0810020B063112225
:1053E0000021304603F0A7FC34840EE03B46002247
:1053F0000221304603F0FCFC08B10320EBE7641EF9
:10540000A4B2306815F8011B0160002CEED13B46B8
:1054100000224021304603F043FD08B10320DAE7C3
:1054200010220021304603F086FC0020D3E7000064
:1054300070B50446154694F83600102802D00225AF
:10544000284670BD20680122C0F8A020E06AD0E99B
:10545000002000EB400303EBC00002EBC0008269B8
:1054600022F4605242F400628261E1612584658425
:105470000026A66311220021204603F05CFC0120D7
:1054800084F83400E16A0D480863E16A0C488863D7
:10549000E06AC66322682B46E169E06AFFF75DFBBC
:1054A0000546002DCCD0A06B40F48070A063102284
:1054B0000021204603F03FFCC2E70000038B2000E0
:1054C0004D8A200010B5044694F83600102801D00B
:1054D000022010BDE161228462840020A0631122B9
:1054E0000021204603F027FC20680321C0F8A0100B
:1054F000EFF31081012080F310882068426842F0A9
:105500008202426021B1012080F31088002010BD8A
:10551000002080F31088F9E77CB50546284603F0A3
:105520003BFB044601208DF80000288C698C401A52
:10553000ADF804000C4D55F8240090F8000118B1A6
:105540002046FDF7B3FE02E02046FDF79BFF55F82D
:10555000240090F8FC10002904D10168002901D032
:10556000684688477CBD0000D0250020034840697C
:1055700008B10020704701207047000080350020EE
:1055800000B5FFF7F3FF20B10348806908B101209F
:1055900000BD002000BD0000803500202DE9F04155
:1055A000984614460F460646FFF7E0FF002841D014
:1055B0000120FCF6FFFC204D0120AC606861C5E9CC
:1055C000006700201D4EC5E90608306820F0010084
:1055D0003060384600F040F8204600F059F8174C8B
:1055E000DFF85880164F143408F10C08B86840F4FE
:1055F0008070B860022000F05FFD286800F066FD52
:10560000206840F001002060206840F00200206027
:10561000306840F001003060D8F8000030F07F4082
:10562000E4D008491E2002F071F8BDE8F0411E20C8
:10563000FCF735BFBDE8F0818035002000E5004073
:1056400000A00040C92320000248006800F00F00BD
:105650007047000054A8004003490A6822F00F0276
:1056600002430A607047000054A8004007480068E1
:105670004FF6FF71C0F3801001EA00210348001FBC
:105680000068C0F3074008437047000054A800407A
:10569000084AC1B2136823F47F0343EA0141116051
:1056A000111DC0F300200A6822F0400242EA801077
:1056B0000860704750A800402DE9F04115482DEDD5
:1056C000028B0068002420F07F42124808380068EE
:1056D00047F61223C0F30B00451CA2FB030704FB93
:1056E000037102FB041104F0F2FA08EE100A2846D6
:1056F000214604F0ECFA00EE100A0749C8EE000A51
:10570000BCEEE00A10EE100AC860BDEC028BBDE8EA
:10571000F08100000CE50040F4270020054A06490E
:10572000002052F8203041F83030401C2928F8D3AE
:1057300070470000249F20000037002010B5044669
:10574000FF2218212046FCF72FFD06480168216042
:10575000416861608168A160C068E060024840788B
:10576000607410BDFC9E2000DC2C002070B586B05B
:105770000546134E681C0103D6F8F40001F0A3F9A6
:105780006846FFF7DBFF01240BE08DF810409DF821
:10579000110020448DF81200684603F0C1FC641C1F
:1057A000E4B2AC42F1D956F8F40F00F580707060A5
:1057B00040F688604543B560F56006B0002070BDD6
:1057C000DC2C00202DE9F04107460E460C4C14F865
:1057D000F31C206800EB01353946FEF7FFFC6060E2
:1057E0002946FDF743FFE06039462068FDF728FFB2
:1057F000A0600EB1FEF796F80020BDE8F081000031
:10580000D02D002030B5C1B005464FF4807101A8FD
:10581000FCF78DFD012201A9284601F095F99DF8BC
:105820000410FF2902D0002041B030BD01ACFF229E
:10583000611C284601F088F90120215CFF2901D074
:105840000020F1E7401CFF28F7D90120ECE7000019
:105850002DE9F043C1B0804616460124F82101A885
:10586000FCF765FD144FE2B23FAB4146D7F8F400B8
:10587000FEF71EFD0546E5B13FA8FDF706FF814690
:105880004A4601A905F1080001F05EF94A46314691
:1058900001A8FCF75DFC18B1002041B0BDE8F08321
:1058A0004E44641C9DF80001B4EB101FDBD30120B3
:1058B000F3E70020F1E70000DC2C00202DE9F041A7
:1058C00007460C4615462046FDF7DFFE06463246E3
:1058D000294607F1080001F037F931462846FDF75F
:1058E000A3FEE179884202D10120BDE8F0810020C9
:1058F000FBE710B50446A07900F00300022808D1A8
:1059000005212046FDF790FE6179884201D10120F2
:1059100010BD002010BD00000FB470B5049C01251F
:105920000AE094FAA4F0B0FA80F105FA01F0611EE1
:105930000C40079900F0B0F8002CF2D108990498B7
:1059400000F0EAF80999049800F0F8F80A99049828
:1059500000F076F8DDE9040100F07EF8069904987D
:1059600000F0C0F804983549D1F800228243C1F80C
:105970000022059801285DD1049A4FF6FF7000EAD5
:10598000022012060B9B120A062B44D2DFE803F01A
:10599000431203212E3B049BDBB2D1F80042844327
:1059A000C1F80042D1F80442034394431C43C1F8B8
:1059B000044230E0049BDBB2D1F800428443C1F8DA
:1059C0000042D1F80442104384431C43C1F804420E
:1059D00021E0049AD2B2D1F800328343C1F80032F8
:1059E000D1F804029043C1F8040214E0049AD2B240
:1059F000D1F800320343C1F80032D1F804029043D9
:105A0000C1F8040207E00498C0B2D1F80432104390
:105A10000343C1F804320498D1F808228243C1F844
:105A200008220B98002805D00498D1F800220243E0
:105A3000C1F8002270BC5DF814FB000000A000401B
:105A4000C0B2044B1A688243012900D000200243EF
:105A50001A6070471CAA004030B50206120AC0B294
:105A6000012912D0032910D0002302290FD00329C5
:105A70000DD00021074D2C6894431C432C602B1D36
:105A80001A6882430A431A6030BD1346EDE70146A7
:105A9000F0E7000014AA004010B5104A002917D002
:105AA000136843EA0043136090FAA0F0B0FA80F064
:105AB00082088007C00E9300094A1A44D2F81439AC
:105AC000FF248440A34381400B43C2F8143910BD26
:105AD000136823EA00431360E6E7000028AA0040A9
:105AE00000E0004030B54FF6FF7202EA0022C0B27B
:105AF00001290AD0002351B10146064C2568104304
:105B0000854319430D43256030BD1346F3E700215B
:105B1000F3E7000014AA0040074A002906D01168E4
:105B200021EA002141EA002010607047116821EA53
:105B300000201060704700001CAA0040C1F3001351
:105B400001F001020B49002B04D00B68834303438F
:105B50000B6002E00B6883430B6032B10A6822EAF3
:105B6000002242EA0020086070470A6822EA00200A
:105B70000860704720AA004003490A6822F4E00246
:105B800042EA00500860704704A8004003490A68D0
:105B900022F4780242EAC0400860704708A800403A
:105BA00003490A6822F4800242EA80500860704784
:105BB00014A8004003490A6822F4401242EA005047
:105BC0000860704714A8004006490A6822F4785219
:105BD00042EA40200860081F016841F480710160BA
:105BE00070470000C4A8004003490A6822F47062AC
:105BF00042EA00200860704794A8004003490A6800
:105C000022F4706242EA00200860704754A8004005
:105C100003490A6822F00F0202430A60704700003D
:105C200094A800400348016821F0010141F080710F
:105C30000160704700A700400248006800F00700BC
:105C40007047000048A4004003498A6922F001021D
:105C500002438A617047000000A0004003490A68BF
:105C600022F0300202430A607047000000A00040AA
:105C700002480068C0F30B10704700000CE80040B9
:105C800030B5039C01EB410505EBC10140F8312023
:105C900000EBC1008360816921F4401121438161DF
:105CA00030BD01EB410202EBC10100EBC100016C10
:105CB00021F4003101647047083101228A40C0F8A4
:105CC000A023704701EB410202EBC10100EBC100D0
:105CD000016C21F480310164704701EB410202EB59
:105CE000C10100EBC100816921F0010181617047B0
:105CF00001F10803012202FA03F38A409918C0F85F
:105D0000A013704701EB410202EBC10100EBC1009F
:105D1000816941F001018161704701F108030122AD
:105D200002FA03F38A409918C0F81813704701F17A
:105D30000803012202FA03F38A409918C0F83013CD
:105D4000704701F10803012202FA03F38A4099180F
:105D5000C0F81013704700002DE9F04106460F46C9
:105D60001546D6F89803C0F300000124002810D08F
:105D70003946304600F05AF868B107F1080084400F
:105D8000C6F8A0433946304600F050F80028F9D153
:105D900001E0C6F898434FF4606000EB471107EB51
:105DA000470000EBC70006EBC004216404216164D6
:105DB0000021A161E161D5E902121143D5E9042373
:105DC0001A431143AA691143A269164B1A400A43A8
:105DD000A261216C21F440612164216C124A1140BE
:105DE0002164296846F830106868A060394630465A
:105DF000EA6900F030F8286A616C21F4F06141EA48
:105E0000C0106064686A616C21F4F04141EAC0200E
:105E10006064A86A216C21F0E00101432164BDE8BF
:105E2000F08100004900CEFFFFFF0FC0D0F8A003B3
:105E300001228A40104201D00120704700207047A3
:105E400001EB410202EBC10100EBC100016C21F446
:105E500080710164704701EB410303EBC10100EB6A
:105E6000C100C1696FF30B011143C161704701EBC0
:105E7000410303EBC10100EBC100816921F4E03172
:105E800011438161704700210160416081604FF4DE
:105E90008062C2609210026141618161C1610162F0
:105EA00041628162704701EB410202EBC10100EBEC
:105EB000C100016C41F48071016470470FB470B58A
:105EC0000446059D01260BE095FAA5F0B0FA80F096
:105ED00006FA00F1681E05402046089A00F070F8A6
:105EE000002DF1D1DDE90512204600F04DF82046E5
:105EF000099A059900F0B4F820460A9A059900F02D
:105F0000BDF820460B9A059900F032F82046079A12
:105F1000059900F08DF8059860620698012824D153
:105F20000598A0630C9806281AD2DFE800F019083B
:105F3000030D111505986063A062606410E0059878
:105F40002063A06260640BE005982063E06207E0D4
:105F500005986063E06203E005986063A0622064D6
:105F60000C98002801D00598206270BC5DF814FBE5
:105F700088B2044B19688143012A00D000200143F4
:105F80001960704738E9004070B58BB289B2012AB8
:105F90000FD0032A0DD00024022A0CD0032A0AD0E5
:105FA0000022064D2E689E4326432E604161026109
:105FB00070BD1C46F0E70A46F3E700002CE90040FC
:105FC00010B591FAA1F1B1FA81F10B4B984204D1CD
:105FD000C1F387008907C90E00E004208300074849
:105FE0001844D0F80039FF248C40A3438A4013435F
:105FF000C0F8003910BD00000000014000E0004082
:1060000010B50A4B1C688C43012A08D000200443B9
:106010001C60064B1B1F1868884312B102E008463B
:10602000F5E700210843186010BD000034E9004086
:1060300010B50A4B1C688C43012A08D00020044389
:106040001C60064B1B1F1868884312B102E008460B
:10605000F5E700210843186010BD000034E9004056
:106060000548002A04D002688A430A430260704748
:1060700002688A43026070473CE90040C2F30010A6
:1060800002F001020B4B002804D018688843084333
:10609000186002E01868884318600648001D22B1A5
:1060A00002688A430A430260704702688A430260BA
:1060B0007047000040E9004003490A6822F0FF02EF
:1060C00002430A607047000020E5004003490A6867
:1060D0006FF30B0202430A607047000004E50040C2
:1060E0002DE9F04107460C46256801260BE095FA9C
:1060F000A5F0B0FA80F006FA00F1681E05403846B7
:10610000226900F06BF8002DF1D1384662692168F0
:1061100000F0A4F83846A269216800F0B1F83846CA
:10612000E269216800F03AF8207A216800F0030261
:10613000384600F041F8D4E90012384600F008F87B
:106140003846E2682168BDE8F04100F06BB8000015
:1061500030B56FF0404000EA01500E4B03EA812158
:10616000012A12D0032A10D00023022A0FD0032ABA
:106170000DD00022084C256885431D432560201F53
:1061800003688B431343036030BD0346EDE70A46C3
:10619000F0E70000FFFF0F0004AA0040C1F3090070
:1061A000044B19688143012A00D000200143196083
:1061B0007047000008AA00406FF0404000EA01501C
:1061C0000549012A03D00A6882430A6070470A68B9
:1061D00002430A60704700000CAA004010B50F4847
:1061E000002A16D003680B43036091FAA1F0B0FABD
:1061F00080F081088007C00E8B0009491944D1F84E
:106200001C39FF248440A34382401343C1F81C3946
:1062100010BD03688B430360E7E7000010AA00404D
:1062200000E0004030B50B4800EA8123C1F30900CB
:10623000012A0AD0002452B10146074A15681843C2
:10624000854321430D43156030BD1C46F3E7002113
:10625000F3E70000FFFF0F0004AA00400748002AF0
:1062600006D0026822EA812242EA81210160704759
:10627000026822EA812101607047000008AA0040FC
:10628000C2F3001302F001020B48002B04D0036894
:106290008B430B43036002E003688B43036032B11E
:1062A000026822EA812242EA812101607047026885
:1062B00022EA8121016070470CAA00400248006870
:1062C000C0F300407047000090A4004003490A68F2
:1062D00022F0060242EA40000860704724A4004011
:1062E0000121C0F88810704770B504460D46D5E905
:1062F0000112E868E368104323F03F0308430343B7
:10630000E360FAF5D3F82968B0FBF1F21209E3680B
:1063100043F08003E360D3B22360C2F307226260DC
:10632000E26822F08002E260B0FBF1F000F00F00C2
:10633000C4F8C0002869216921F0220101432161CC
:106340000420C4F888000220C4F888000120C4F8A2
:106350009800C4F8A0000020C4F89C0070BD0000A4
:1063600070B505462DED028B0E460024FEF7FAFDB2
:1063700003F0C3F941EC180B2846314603F0D0F97D
:1063800053EC182B03F04EFA9FED131B53EC112B1B
:1063900002F0FEFF9FED121B53EC112B02F044FFA5
:1063A00003F07EF901460420FEF7CCFD4FF47A7528
:1063B00006E00120FAF5B6FB2046641CA84207D28D
:1063C000FEF7E2FD0028F4D0FEF7D0FD401CF0D02F
:1063D000BDEC028B70BD00000000000080842E41E7
:1063E000000000000000E03F70B51948006818493F
:1063F000C0F30B0008310968401C00EE100ADFED05
:10640000150A21F07F41B8EE400A134D60EE200AD4
:1064100000EE101A1149B8EE401A80EE810AF6EE2D
:10642000000A85ED020A30EE200ABCEEC00A10EE2A
:10643000100A08602CF67EFB094E002456F8240052
:1064400010B195ED020A8047641C032CF6DB70BD89
:1064500004E400400024F44BF427002088290020A5
:106460007435002010B5FCF781FE002010BD10B57A
:1064700028F640FA10B102F010FEFEE7BDE8104029
:10648000FBF7DEBD2DE9FC410646089F8846144611
:106490001D46FF2208216846FBF786FEADF8008006
:1064A000ADF802409DF8040020F0F000103020F01C
:1064B0000F00401C8DF8040005216846FDF7B4F874
:1064C0008DF805009DF8060020F00300801C20F0E8
:1064D00004008DF8060021462846FDF7A5F88DF842
:1064E0000700F019009981600199C16010302246BF
:1064F0002946FBF7A5FEBDE8FC8100002DE9FF4120
:106500000446002000900190029003902148224907
:1065100020F07F4021F07F41B0F5001F02D9B0F19B
:10652000907F04D300F084F82168084320601B4F5B
:106530001B480025C61B10E007EB0511102268461A
:10654000FBF77EFE0198029920F07F40014400F0A5
:106550006FF8216808436D1C2060B5EB161FEBD364
:106560001048114920F07F4021F07F4100F060F891
:106570002168084320600D480D4920F07F4021F03C
:106580007F41884204D000F053F82168084320601E
:10659000BDE8FF81002020000CA02000C89F200043
:1065A00008A02000E8370120E8570120E837012043
:1065B000E837012008B5684601F07AF948B99DF836
:1065C0000000302806D0402804D0502802D060288F
:1065D00000D0602008BD38B540F603410091012885
:1065E00008D040F6FF74204600F054F8204600F032
:1065F00009F838BD6846FFF781FF009800F04AF8B7
:106600000098F4E708B50090684602F023F8009877
:106610000649C0F30B0008600449012010310860EE
:10662000FFF74CFE0028FBD108BD000080A400400D
:10663000F0B50027DFF858C03D463A463E463C4696
:106640005CF824301D44A84201D2224603E0641CB9
:10665000E4B2062CF4D3002003465CF82340204427
:10666000814201D81E4603E05B1CDBB2062BF4D34B
:106670005100032303FA01F0384305E0540003FA04
:1066800004F10843521CD2B2B242F7D9F0BD000067
:106690000C9F200008B50090684601F0DBFF0098D1
:1066A00040F6AA2108400549086004490120083144
:1066B0000860FFF703FE0028FBD108BD88A4004056
:1066C00010B500EB820301E010C910C09842FBD363
:1066D00010BD00007CB505460C46280501D00820F9
:1066E0007CBD4FF482710D48FBF721FE0020019024
:1066F0000090694601A800F01DFA0098641C05EBA3
:10670000043100F50010814205D82103284600F02D
:10671000DAF900207CBD08207CBD0000DC2C0020C4
:1067200010B5034600204CF201041A1B1946A3427F
:1067300013D00ADCA1F50041203910D001290ED078
:1067400002290CD003290CD109E0012A05D0022A24
:1067500003D0042A01D0152A03D1204601E048F2D3
:106760002000A3F500414039962912D289B20322B4
:10677000B1FBF2F402FB14142CB1B1FBF2F402FBF6
:106780001414012C05D1B1FBF2F002FB1010181A01
:1067900080B210BD704770472DE9FE4F82460D460E
:1067A000914600264F46DFF8F48098F80000002854
:1067B0001AD0B5B12888A0B1B9F1000F11D0BAF143
:1067C000000F0ED0AAF57F40FF380AD05046FFF7E1
:1067D000A7FF58B14B462A46514600F07DF80646C1
:1067E00051E00720BDE8FE8F0320FBE700F0A4F98D
:1067F00004461220FBF781FE834698F800008006CD
:1068000006D4012202A9500500F09CF9012804D009
:10681000204600F09BF90E20E4E71220FBF721FE52
:10682000202088F80000204600F090F901246B46F3
:1068300022465146D8F8F400FDF73AFDC8B1298840
:10684000BDF80220914201D2052613E03A4669467E
:10685000FFF734F858B1BDF802002880F837641CFF
:10686000E4B29DF80400B4EB101FE0D902E00D265D
:1068700000E00426012088F80000BBF1000F02D0E0
:106880001220FBF7FFFD042E05D14A46294650464B
:1068900000F01BF906463046A4E70000DC2C00207F
:1068A00010B504460B480822D0F8F410407801EBEC
:1068B0000030214600F048F92078A52808D10521AC
:1068C0002046FCF7B1FE6179884201D1002010BD5D
:1068D000022010BDDC2C00202DE9F04FC1B0044691
:1068E0008A46164699460025DFF8D88098F80000B9
:1068F000002813D076B1308860B1B9F1000F09D00B
:1069000044B14FF6FF70844204D0BAF1000F01D0B9
:10691000824505D1072041B0BDE8F08F0320FAE79A
:1069200000F00AF983461220FBF7E7FD074698F8C6
:106930000000800606D4012240A9500500F002F9AB
:10694000012804D0584600F001F90E20E3E7122098
:10695000FBF787FD202088F80000584600F0F6F885
:106960006A464FF48071204600F066FC48B1042569
:10697000012088F8000017B11220FBF783FD28469C
:10698000C9E751466846FDF7B6FCC8B10DEB0004F7
:1069900004F1080061888246FCF746FEE1798842EE
:1069A00001D00D25E4E760883188884206D8308020
:1069B000628851464846FBF743FCD9E70525D7E7EF
:1069C0000425D5E7DC2C00202DE9F0418AB00446EF
:1069D0000D46002D14D000200990089008A909A8A0
:1069E00000F0A8F84FF482712E48FBF7A0FC2D4F61
:1069F000681C9CB1210505D008200AB0BDE8F081D3
:106A00000920FAE704EB0031089800F500108142F4
:106A100002D8C7F8F44009E00820EEE708994042A0
:106A200001EB003000F50010C7F8F4007D7006A8F7
:106A3000FFF736FF28B906A800F052FC08B10A207B
:106A4000DBE74FF00008D7F8F460002411E01821CC
:106A50006846FBF76CFC18226946304600F074F873
:106A6000082211496846FBF773FB88B106F580568A
:106A7000641CAC42EBD3B8F1000F0CD001212846C6
:106A8000FEF7A0FE0028B8D1012038700020B4E73E
:106A90004FF00108EFE72846FEF768FE0028F3D024
:106AA000ABE70000DC2C0020FC9E200010B5032189
:106AB0000020FFF70FFE0321BDE810400020FFF784
:106AC00083BFFEF70FB9FFF7FCBFFEB503460E46C6
:106AD0001546042400200190029000906FF440407D
:106AE000181802D0152823D111E001A800F0CEFE1D
:106AF000F0B9062101A8FCF781FDC8B10198286012
:106B0000BDF80800A88006203080002410E0684608
:106B100000F0ACFE60B9BDF8000048B1A0F57F41BF
:106B2000FF3905D0BDF80000288002203080002405
:106B30002046FEBDFEF7E1B8EFF31080012181F39E
:106B400010887047FEF7DBB8FFF7FCBF80F31088B2
:106B50007047AFF30080FEF7DBB800002DE9FE437D
:106B600004460D469046334F387800281BD0B8F1C4
:106B7000000F15D0A5B140F68860854210D87CB1D1
:106B8000A4F57F40FF380BD02046FFF7C9FD60B168
:106B900003B043462A462146BDE8F04300F04CB816
:106BA0000720BDE8FE830320FBE7FFF7C5FF814612
:106BB0001220FBF7A2FC06463878800606D4012294
:106BC00002A95005FFF7BEFF012804D04846FFF791
:106BD000BDFF0E20E5E71220FBF743FC20203870B4
:106BE0004846FFF7B3FF6B4600222146D7F8F40072
:106BF000FDF75EFB78B1424629462046FEF728FEA7
:106C000008B100240EE0002342462946204600F049
:106C100033FB044606E00023424629462046FCF7A3
:106C200093FC04460120387016B11220FBF72AFCB1
:106C30002046B6E7DC2C00202DE9F04FC3B0074614
:106C4000884614469B46DFF814A19AF800000028F5
:106C500013D0BBF1000F0CD05CB1F82C09D847B1B0
:106C60004FF6FF70874204D0B8F1000F01D0804585
:106C700005D1072043B0BDE8F08F0320FAE7FFF706
:106C80005BFF05461220FBF738FC06469AF8000029
:106C9000800606D4012242A95005FFF753FF0128C0
:106CA00004D02846FFF752FF0E20E3E71220FBF73F
:106CB000D8FB20208AF800002846FFF747FF002570
:106CC0004FF48079FF22494602A8FBF76DFA02AA29
:106CD0004946384600F0B0FA80B90125414602A87D
:106CE000FDF709FB50B102A901444888A04205D133
:106CF000083122465846FBF72BFA68B101AA4146F3
:106D000002A8FCF787FE011908311FFA81F9B9F1D1
:106D1000F80F03D9052417E0002415E000905B4626
:106D20002246414602A8FFF7ADFB04AA35B1012374
:106D30004946384600F0A0FA044605E001234946DA
:106D40003846FCF701FC044601208AF8000016B121
:106D50001220FBF797FB20468CE70000DC2C00207C
:106D600010B503210020FFF72FFE002801D0FFF708
:106D70009DFE10BD10B501F0CDFA002804D00348E7
:106D80000068C00600D4FEE710BD000084E30040A8
:106D90000220FDF71BBC00002DE9F0411D46164600
:106DA0000F46044601F06EFC284600F0C1FA314659
:106DB000384600F087F8384600F0E6F8384600F02C
:106DC00015F8044821460470BDE8F041024827F652
:106DD00093BD0000F0270020E02800200249014870
:106DE0004860704735211000B000002010B50446FF
:106DF0009620F9F597FE34B1012C0AD105480168B7
:106E000021F4004104E003484438016821F0800186
:106E1000016010BD48A8004010B5FFF7B9FFFFF7AB
:106E2000A9FFFDF78BFABDE8104000F073BB00002E
:106E300008B51949132000F069FC1849142000F026
:106E400065FC17491F2000F061FC1649202000F066
:106E50005DFCFCF795FC154913480860154914487A
:106E60000860FEF75BFC012000F69EF801F034FCA0
:106E700000208DF800006A4601214CF20500FFF762
:106E80006DFE0D48016821F0C0010160BDE80840B9
:106E90000A490B4827F678BF9D3600001B242000C6
:106EA00081370000653700009F2210001400002089
:106EB0006B231000180000200CA800408D4120001A
:106EC000A99020002DE9F8430D462D4E4FF4FA719C
:106ED000ADF80010D6F880124FF0020921F44034CA
:106EE000DFF8A0804FF47A71B8B3012810D0D6F83B
:106EF000800244F440310843C6F88002002D05D0DA
:106F00006A4649464CF20300FFF728FEBDE8F883C5
:106F10001C4FADF80050443F386820F080003860C6
:106F20000846F9F5FFFDD8F8001021F4F81141F4F6
:106F30000021C8F80010D8F80020042161F31F6276
:106F4000C8F80020386840F0800038604FF4967030
:106F5000F9F5E2FDC6F88042D0E7FFE7ADF8005052
:106F60000846F9F5DFFDD8F8001041F40041C8F8F3
:106F700000109620F9F5D6FD44F48030BCE70000FF
:106F800000A0004048A80040012801D0202000E0D7
:106F90003020FEF763BE000000EE100A9FED081AD5
:106FA0000948F8EE400A80EE810ADFED060A20EE7D
:106FB000200AF5EE000A20EE200A80ED000A704754
:106FC0000000FA468941803FC828002010B500F033
:106FD00029F8BDE81040FCF7AFBB00000F490A8D4F
:106FE00002800F4A1268C2F3C44242800A8E828035
:106FF0000B4A4C321268C2F30322C280098F01810E
:1070000007490C310968C1F3015141810449D83164
:107010000968C1F344218181704700005C3600207B
:1070200008A800402DE9F0418AB01C216846FBF712
:107030007EF99FED4C0B8DED080BEFF311864B4D58
:1070400095F90300002804DB00F1E02090F800042B
:1070500005E000F00F0000F1E02090F8140D444925
:1070600009684FF00108C1F30221491C08FA01F236
:107070001044C0B280F31188404600F057F93D4FEC
:10708000F8683D4C10F4E02F02D085F802805FE0F4
:107090006420FBF7B5FB00285AD0684600F046FB99
:1070A0004FF00008F0BBBDF80000D8B385F80280AF
:1070B00069460D20FBF7FAFB8DED080B51EC100B28
:1070C00002F0BEFAA860A96800F086FFA0B12B48C4
:1070D0000068C0F3805078B911F1140002D340F277
:1070E000DC5007E011F1140F02DA4FF4AF6001E059
:1070F0004FF4C8606061E061214802680AB1084647
:10710000904769460E20FBF7D1FB8DED080B9FEDF4
:107110001D0B53EC102B9DED080B51EC100B02F0E6
:1071200081FB00E005E002F08BFAE860E868FBF71D
:1071300089FCA86978601149686914390860A88BCE
:1071400000F0010149420140C80501D4C7F8208080
:10715000F0B280F31188207800F088FD0AB0BDE815
:10716000F081000000000000000000002028002046
:107170000CED00E000E000405C36002014A8004068
:10718000B0290020000000000000594010B5FBF7B6
:10719000F7FD0022BDE810400121014800F034B89D
:1071A000CC9D200070B501250024074E56F8241010
:1071B00019B1096809B1884720B1641C0D2CF5D3B9
:1071C000284670BD0025FBE7E82B00200C4910B5D0
:1071D000202081F800041320FBF76EF91F20FBF735
:1071E0006BF92020FBF768F91E20FBF765F90548CD
:1071F000007810B101F041FF10BD01F047FF10BD54
:1072000002E000E08101002070B506460D461446FC
:10721000FBF7B6FD0D2C02D2681E022801D90D2005
:1072200070BD044840F82460204480F83450204663
:1072300070BD0000E82B00207CB506460C461546C4
:107240000C486B460122D0F8F4003146FDF730F8C7
:1072500068B1BDF802100834A14201D905207CBDF7
:107260004FF480722946FFF76FFC00207CBD02209E
:107270007CBD0000DC2C00202DE9FC4780460D463B
:1072800091469A460224154ED6F8F4706B460022B9
:1072900041463846FDF70CF8E8B1404601F074FB72
:1072A00053464A4629464046FCF74EF9044694B9EF
:1072B000F735F820B5FBF0F04142D6F8F80000EBC6
:1072C0000122801AB0F5805F01D3A2F580723946A1
:1072D0006846FCF7DAFB2046BDE8FC87DC2C002082
:1072E00070B5114921220A70D1F8F410827801EBAF
:1072F0000235427801EB0234C17804EB01210679B2
:1073000028463246FCF7DBFB280B00034FF4805184
:10731000FFF7D9FB31462846FCF734FA04F58050D4
:10732000BDE87040FDF7BAB8DC2C002070470000C3
:1073300011B583B000200221BDF80C200090ADF8FB
:1073400004104CF216041AB103AA2046FFF706FCFB
:107350006A4601A92046FFF71FFA48B14FF4807032
:1073600005490A68054B1A4042EA802008601FBDA3
:10737000BDF80000F4E7000010A90040FF03F8FF8B
:1073800010B5002911D080B17AB1EFF31083012438
:1073900084F310880260416000218160C16033B1D4
:1073A000012080F31088012010BD002010BD0020B6
:1073B00080F31088F7E700280AD0EFF3108301214B
:1073C00081F310888168C2688A4203D8881A04E071
:1073D000002070470068801A08441BB1012181F326
:1073E00010887047002181F3108870472DE9F0471D
:1073F00005468A464FF00008EFF31089012080F31C
:107400001088AF68EE68002D2ED0696861B3BAF1BC
:10741000000F29D0B74204D3BC1BA2420DD814469A
:107420000BE02868831BDC19A24200D814463219ED
:10743000824202D3A219A2EB0008A4EB0802314455
:107440005046FAF7FDFE0AEB0400A0EB08004246A6
:107450006968FAF7F5FE30192968814202D8B84206
:1074600000D9401AE86000E00024B9F1000F05D00F
:10747000012080F310882046BDE8F087002080F3CB
:107480001088F8E72DE9F047044689460027EFF316
:107490001088012080F31088A668E068002C2AD0AC
:1074A000636843B3B9F1000F25D0B04205D9851BFD
:1074B0006D1EAA420CD815460AE021688D1B0544B2
:1074C0006D1EAA4200D815467019884200D3471A8B
:1074D000EA1B98194946FAF7B3FE09EB0500C11BF0
:1074E0003A466068FAF7ACFE70192168814200D80C
:1074F000401AA06000E00025B8F1000F05D001207F
:1075000080F310882846BDE8F087002080F31088BB
:10751000F8E7000010B500234FF4FA721946184638
:10752000FFF73AFC002001F067F9002001F0DEF9D6
:107530000020F8F5EBFF0020F8F5FAFF0648006898
:10754000C00605D40020FFF741FD044801F082FD8C
:10755000BDE81040FFF71ABE84E3004040420F0030
:1075600003480078032801D00020704701207047AD
:10757000F42700202DE9F0470546012449F6404054
:1075800085422CD21748D0F80080174FD7F80090CA
:1075900040464946FDF782FB7E68F8F5EBFF13484D
:1075A0004FF47A710068B0FBF1F16943104A0AE0C8
:1075B000681C01D005B903247868801B884200D973
:1075C0000324032C04D0906BC0F340000028EFD1BB
:1075D00049464046FDF742FB032C00D000242046DC
:1075E000BDE8F087FCED00E0001000E05C0000204A
:1075F00000A50040F0B5144B196821F00101196095
:10760000124A114C1049104E20341D1D14311268BD
:107610000C36276827F0FF07074327602F686FF3B2
:107620000B0717432F600F6847F001070F600F68C3
:1076300047F002070F601F6847F001071F603768B7
:1076400037F07F47E5D0F0BD00E400400828002077
:107650002DE9F041254C0025254E2078012806D043
:107660000327022812D027703560BDE8F081FEF7AD
:10767000BBFE35600120FAF69DFC02202070FFF76A
:10768000B9FFBDE8F0411E20FAF709BF1848001DF8
:1076900000681749C0F30B000C310968401C00EE6C
:1076A000100ADFED140A21F07F41B8EE400A60EEC7
:1076B000200A00EE101A49F64041B8EE400A80EE6A
:1076C000801AB6EE000A31EE000ABCEEC00A10EED7
:1076D000100A6060884200D961606068FFF75CFC56
:1076E00000F0A8FE35602770BFE70000F4270020F7
:1076F00000E400400024F44B10B5FDF715F8002815
:10770000FBD1BDE81040FFF787BB0000024A1030F4
:1077100042F8201070470000002500200248006851
:10772000002800D0004770470024002070B50400F6
:1077300004D000F0EFFD060002D02CE0022070BD66
:10774000164DB5F844002080B5F846006080B5F8C5
:107750004800A080E88EE08035F8340F2081E8886A
:107760006081A888A0816889E08128892082688951
:1077700001F0C3FF9FED0A1B53EC112B01F008FE33
:1077800001F08EFF60822889A082E889E082A889C2
:107790002083E87DA076304670BD0000F4340020E0
:1077A0006E693524EE31F53F2DE9F0410A4C07466C
:1077B0001546A0680E4600280BD00020FCF700FEFE
:1077C000A3682A46314638469847BDE8F041FCF7A1
:1077D00035BEBDE8F08100009C2700202DE9F04176
:1077E0000B4C80461D46E06816460F4600280CD01C
:1077F0000020FCF7E5FDE4682B463246394640465A
:10780000A047BDE8F041FCF719BEBDE8F0810000DB
:107810009C2700202DE9F0410B4C80461D46206935
:1078200016460F4600280CD00020FCF7C9FD24693D
:107830002B46324639464046A047BDE8F041FCF7AA
:10784000FDBDBDE8F08100009C27002010B500239D
:107850001A46845C521C23449BB2062AF9D38B42FD
:1078600001D1002010BD1D2010BD000010B5040086
:1078700007D000F04FFD002802D10349C9882180BC
:1078800010BD022010BD0000CC27002010B5040060
:1078900009D000F03FFD002804D104490A6B2260A2
:1078A000898EA18010BD022010BD00009C27002001
:1078B00010B5040007D000F02DFD002802D10349C7
:1078C000897C217010BD022010BD0000F43400201E
:1078D0001FB5040012D00E480188A1F58E42443A2B
:1078E0000FD1008902280CD300F016F81022694647
:1078F000E230FAF5A1FB1022694604E0022004B050
:1079000010BD044910222046FAF79AFC0020F6E741
:10791000F43400202400002001480069000A704768
:107920002400002010B5029C002C02D0A0EB020025
:1079300001E0A2EB000040B202D010FB013010BD0C
:1079400000FB113010BD000070B585B00022274942
:107950008DF80020019202920392049240F27E453B
:107960004C79A84202D1204605B070BD1F4940F2B3
:107970001A439842897901D10846F5E740F24C460E
:10798000B04201DD21462B460F29C1F10F0105D37D
:1079900001EBC10404EB0111194403E001EBC10147
:1079A00003EB41010F2301248DF80C3002918DF877
:1079B0000E4088420AD30C30019019208DF80D003A
:1079C0001F208DF80F008DF8103008E0093001906D
:1079D00012208DF80D008DF80F308DF810206946BB
:1079E00001A800F05BFB9DF80000BDE750360020C9
:1079F00070B5084DAA88002A0BD12A7802B1084632
:107A00000446FFF7A1FF0646FEF7C0F8AC6285F812
:107A1000246070BD5C3600201348124B016800687A
:107A200001F00101C0F3800210480068C0F38050EB
:107A3000002816D11846808831B1194609880AB144
:107A4000814203D9084601E0002A0AD01989002999
:107A500007D0002805D01F31814202D30120FEF754
:107A60009FB870479836002054A4004014A80040E6
:107A700018B50F4A0C4602F10C01898819B9012882
:107A800005D0022801D0002018BD927800E01279BC
:107A9000022809D04FF461730120009052B20621F0
:107AA00060B2FFF73FFF18BD40F21A43F4E7000051
:107AB00050360020F0B5284AA2F10C0451B1D1692A
:107AC000E26AA1F132032C343231984216D2100C02
:107AD00008D010E05169626A1F4CA1F132031834DA
