:020000040020DA
:10200000E8570120ED212000D33D2000091E1000DB
:10201000D13D2000FD2120001D3E200000000000D9
:10202000000000000000000000000000011E100081
:10203000FF21200000000000D53D2000DB3D2000F6
:1020400000F002F800F0C2F80AA090E8000C824408
:102050008344AAF10107DA4501D100F0B7F8AFF2E5
:10206000090EBAE80F0013F0010F18BFFB1A43F076
:102070000103184764C00000A4C000000A444FF0E8
:10208000000C10F8013B13F0070408BF10F8014BD7
:102090001D1108BF10F8015B641E05D010F8016B1C
:1020A000641E01F8016BF9D113F0080F1EBF10F880
:1020B000014BAD1C0C1B09D16D1E58BF01F801CBA3
:1020C000FAD505E014F8016B01F8016B6D1EF9D526
:1020D0009142D6D370470000103A24BF78C878C127
:1020E000FAD8520724BF30C830C144BF04680C601E
:1020F000704700000023002400250026103A28BF66
:1021000078C1FBD8520728BF30C148BF0B60704769
:102110006E2900F01884702900F0B58166290BF053
:10212000218665290BF01E8667290BF01B86612925
:102130000BF01A8603681B0A28BF41F08001692949
:1021400000F02681642900F02381752900F02081A8
:102150006F2900F02687782900F08181E92900F0B5
:10216000C186E42900F0BE86F52900F0BB86EF2980
:1021700000F02387F82900F080810368DB0928BF7D
:1021800041F08001632900F03086732900F0358624
:10219000E32901F02F81F32901F0348100207047F9
:1021A0001FB50BF0ACFD00F013FF04000020002170
:1021B0000AF0BAFF401C6060002000210AF09EFF78
:1021C000E06000F043FB1FBD10B510BDDFF80CD080
:1021D000FFF7E6FF07F09AFE01F0B6F9E857012095
:1021E00003B4FFF7F1FF03BC02F049F9014880474F
:1021F00001480047ED3D2000E5A02000FEE7FEE796
:1022000058585247010000000554000000202000EB
:10221000002020005EEC924700010000000000005A
:1022200000000000000000000000000000000000AE
:10223000000000000000000000000000000000009E
:102240007CB51D4616460C00009001D02044401E6F
:10225000074B7B442A4669460190304600F09BFDBF
:1022600005461CB10020694600F0A8FD28467CBD4B
:10227000710B00000FB4044910B503AA029800F0D6
:10228000C1FD10BC5DF814FBFC2500200FB41CB58B
:10229000084B06AA7B4469460090059800F07BFD38
:1022A00004460020694600F089FD20461CBC5DF80C
:1022B00014FB0000250B00000FB47CB50C0009AA2C
:1022C000009001D02044401E084B7B446946019099
:1022D000089800F060FD05461CB10020694600F03A
:1022E0006DFD28467CBC5DF814FB0000F90A000077
:1022F00070B5044685690068C10601D5302600E046
:102300002026C00707D070BDD4E901213046904790
:10231000206A401C20626D1EF6D570BD70B5044663
:1023200085690078C00707D170BDD4E9012120205C
:102330009047206A401C20626D1EF6D570BD70B5B6
:102340000C460546012A05D02878800600D5EA69A2
:10235000002302E0012305E05B1C934202D2E05C13
:102360000028F9D1A869E618C01AA861286A18449B
:1023700028622846FFF7BCFF04E0D5E9012114F8E4
:10238000010B9047B442F8D32846FFF7C7FF70BD52
:102390002DE9F0410646002410687529314616A53E
:1023A00010D000F065FA002802DA404213A507E0D9
:1023B00031688A0701D512A502E0490704D511A5A5
:1023C000012401E000F05DFA00210A2206F1240751
:1023D00009E0B0FBF2FCB0FBF2F302FB1C00303072
:1023E00078541846491C0028F3D123462A46304623
:1023F000BDE8F04100F04EBA000000002D000000E2
:102400002B00000020000000F0B40D4601880905F3
:1024100002D5214C7C4402E01F4C7C440E34002148
:1024200000F1240608E002F00F071209E75D42EA16
:1024300003721B097754491C52EA0307F3D102784F
:102440000023120704D5702D06D009B102231134E0
:102450002246F0BC00F01EBA01231034F8E770B534
:1024600004460D462146106800F00BFA0246294644
:102470002046BDE870400023C6E7D21D22F00703C6
:10248000D3E90023C0E70368126843F02003036028
:102490000823C3610023B7E7A0BB00002DE9F05F6C
:1024A000894604464FF0000ADFF874B1FB44C0F8D7
:1024B00020A02046E1688847002874D0252806D04F
:1024C000D4E901219047206A401C2062F1E70026F0
:1024D0005F462046E16888472028054607DB312D06
:1024E00005D2781910F8200C08B10643F1E7B007BF
:1024F00001D526F00406C4F81CA00027C4F818A0D3
:102500002A2D09D0284601F0B3FF38B304EB870821
:10251000303DC8F8185019E059F8041B204604EB68
:1025200087029161E1688847012F054618D1E0696B
:10253000002820DA26F020061DE0D8F8180000EB6D
:10254000800005EB40003038C8F818002046E168EC
:102550008847054601F08CFF0028EED1012F0AD0F4
:102560002E2D08D12046E16888477F1C0546022FA2
:1025700046F02006C4DBA069002803DA404246F09A
:102580000106A061F00701D026F010066C2D0BD0DB
:10259000682D09D04C2D39D06A2D35D0742D35D009
:1025A0007A2D33D016E038E0E1682F462046884780
:1025B000B842054609D16C2F26D04FF48060E168FF
:1025C000064320468847054604E06C2F1AD04FF496
:1025D000807006430DB3A5F14100192802D82035BB
:1025E00046F400664A462946204626604E46FFF7D6
:1025F0008FFD80B101280BD0F61D26F0070000F1F9
:10260000080956E74020E4E78020D8E70020D6E715
:1026100006F104094DE7284652E7206ABDE8F09F1D
:1026200030BB000040EA010310B59B070FD1042A1C
:102630000DD310C808C9121F9C42F8D020BA19BA8D
:10264000884201D9012010BD4FF0FF3010BD1AB1F2
:10265000D30703D0521C07E0002010BD10F8013B47
:1026600011F8014B1B1B07D110F8013B11F8014B6E
:102670001B1B01D1921EF1D1184610BD10B5431C91
:1026800002E010F8011B71B18107FAD14FF001325D
:1026900002C88C1A8C4314EAC211F9D0C01A0A0677
:1026A00003D0C01E10BDC01A10BD0A0401D0801E88
:1026B00010BD0902FCD0401E10BD032A40F230803C
:1026C00010F0030C00F0158011F8013BBCF1020F73
:1026D000624498BF11F801CB00F8013B38BF11F8F4
:1026E000013BA2F1040298BF00F801CB38BF00F80B
:1026F000013B11F0030300F02580083AC0F0088088
:1027000051F8043B083A51F804CBA0E80810F5E76B
:10271000121D5CBF51F8043B40F8043BAFF300804E
:10272000D20724BF11F8013B11F801CB48BF11F8C3
:10273000012B24BF00F8013B00F801CB48BF00F893
:10274000012B704710B5203AC0F00B80B1E818504B
:10275000203AA0E81850B1E81850A0E81850BFF48B
:10276000F5AF5FEA027C24BFB1E81850A0E818502A
:1027700044BF18C918C0BDE810405FEA827C24BF7E
:1027800051F8043B40F8043B08BF7047D20728BF0C
:1027900031F8023B48BF11F8012B28BF20F8023B5B
:1027A00048BF00F8012B704702F0FF0343EA032201
:1027B00042EA024200F002B84FF000020429C0F0E1
:1027C000128010F0030C00F01B80CCF1040CBCF163
:1027D000020F18BF00F8012BA8BF20F8022BA1EBB5
:1027E0000C0100F00DB85FEAC17C24BF00F8012B9A
:1027F00000F8012B48BF00F8012B70474FF0000292
:1028000000B5134694469646203922BFA0E80C50E6
:10281000A0E80C50B1F12001BFF4F7AF090728BFC1
:10282000A0E80C5048BF0CC05DF804EB890028BF3D
:1028300040F8042B08BF704748BF20F8022B11F066
:10284000804F18BF00F8012B7047000070B5064C90
:102850007C44064D7D4403E0206820448047241DCD
:10286000AC42F9D170BD0000F0B90000F0B9000031
:1028700009684A0501D540B27047C905FCD500B2C8
:10288000704709684A0501D5C0B27047C905FCD533
:1028900080B270472DE9F0470D46994692460446AE
:1028A00000F124080168880604D5E06921F01001D0
:1028B000216000E00120A84201DD471B00E0002765
:1028C000A1697A1902EB0900081AA0612078C006F4
:1028D00002D42046FFF70CFD002608E0D4E90121D0
:1028E0001AF806009047206A401C761C20624E456C
:1028F000F4DB2078C0060AD52046FFF7F9FC06E095
:10290000D4E9012130209047206A401C2062381E03
:10291000A7F10107F4DC07E0D4E9012118F805006C
:102920009047206A401C2062281EA5F10105F3DCB7
:102930002046FFF7F3FC2078000602D50220BDE810
:10294000F0870120FBE711680268006A530501D592
:1029500008700AE0D30501D5088006E0130603D508
:10296000C217C1E9000200E008600120704770470B
:102970002DE9FF4F0C461E464FF0FF378BB0D2E9D2
:102980000001DDF860800A908A46C1F30A5505B956
:102990003D46002108464FF00000BAF1000F00F458
:1029A000400005DA00EB80004FF4400101EA5000DE
:1029B0004FEA9059B9F1010F00DDB9460A9850EA83
:1029C0004A000ED044F61050A5F2FF3545432F14AF
:1029D000B8F1000F1ED07542291E1EDDC9F100029C
:1029E0001CE0B8F1010F4FF0000001D0302103E0EE
:1029F000F24305E02154401CB042FBDB304600228C
:102A0000002121540B99C1F80880C1E900200FB0C2
:102A1000BDE8F08FBD1B6D1CDEE74A4600DA694257
:102A200006A800F0F3FC06AB93E8070003AB83E8CD
:102A3000070050460A9900F0D1FD8DE80700A0F587
:102A400000501F3800900398002D0ADD42F21F014C
:102A50004A460844002303A90390684601F03AF867
:102A600009E0A0F500504A461F38002303A903904F
:102A7000684601F044F88DE807000004000C03D01C
:102A80004FF0FF30410800E01046B8F1000F03D0CE
:102A90000022009215461EE0751E05D400F09CFA37
:102AA000303262556D1EF9D5B3460122084302D07B
:102AB00000227F1C04E02078302801D100227F1EF4
:102AC000002A099784D01DE0112D07DA00F084FA5E
:102AD000303262556D1C50EA0102F5D1084302D034
:102AE0000098C8B10EE00021681E05E0235C625C1E
:102AF00063542254401E491C8142F7DBAB46A81B9D
:102B0000401E0990002004F80B000B98099AC0F8A9
:102B10000880C0E9002B7AE711264FF0000857E73C
:102B20002DE9F04F88460446D21D22F0070191B0EE
:102B3000D1E90001CDE90A0101F071F902460B98D3
:102B4000C00F01D02D2007E02068810701D52B2080
:102B500002E0202101EAC000032A099001D0072ADF
:102B600005DB03464146204600F0FAFB0BE12078E6
:102B7000800601D5E06900E00620B8F1650F8146C6
:102B800006D0B8F1660F18D0B8F1670F70D131E0F8
:102B90000020B9F1110F009001DB112301E009F1D0
:102BA00001030AAA01A90CA8FFF7E2FEDDE90C70F7
:102BB000002609F10105834647E001204B460090BD
:102BC0004FF000470AAA01A90CA8FFF7D1FEDDE9E2
:102BD0000DB00C995D46002610B909F101000D18E1
:102BE000B9EB050003D4C0F1FF3609F10105A5EBEF
:102BF00009002BE0B9F1010F01DA4FF001090020C3
:102C0000B9F1110F0090484601DD112300E00346A1
:102C10000AAA01A90CA8FFF7ABFEDDE90C704D462E
:102C200000268346207800070AD4AB4500DA5D46CB
:102C300001A8012D04DD411911F8011C302907D02C
:102C40004F4502DA17F1040F04DA012082460FE043
:102C50006D1EEEE7002F02DCED1B3E4403E0781C06
:102C6000A84200DD7D1CB81B00F1010A4FF00047AF
:102C70002078000703D4AA4501DB4FF0FF3A00217A
:102C8000B7F1004F0DF143088DF8431024D0022016
:102C90002B23002F01DA7F422D230A21021EA0F1EF
:102CA000010000DC5FB197FBF1FC97FBF1F201FB47
:102CB0001C7C17460CF1300C08F801CDEEE7A8F1AA
:102CC000010003702188090501D5452100E0652137
:102CD000A0F1010800F8011C09980FA9A1EB080751
:102CE000FF1D00B10120411901EBEA70A1693844D0
:102CF000081A401EA0612078C00602D42046FFF7C3
:102D0000F7FA099828B1D4E901219047206A401CBC
:102D100020622078C00622D52046FFF7E9FA1EE09F
:102D2000002E04DBB34502DD01A8805D00E0302009
:102D3000D4E901219047206A401C2062761CAAF148
:102D400001005FEA000A0AD100F042F9C068016898
:102D5000405CD4E901219047206A401C2062281E73
:102D6000A5F10105DCDC07E0D4E9012118F8010B2D
:102D70009047206A401C2062381EA7F10107F3DC4F
:102D80002046FFF7CBFA032011B041E601694A1C47
:102D900002610878704700B58FB0CDE9013100219C
:102DA000059105497944CDE9031011466846FFF7BE
:102DB00075FB0FB000BD0000E5FFFFFF0A6802F8D9
:102DC000010B0A607047D1E900239A4202D2531CDA
:102DD0000B601070704710B5436913B1AFF30080FA
:102DE00001E0FFF7ACFA012010BD127800F12401D8
:102DF0000A7000224A700122EDE711684FF0FF329D
:102E0000E9E70000074B70B50D467B44FFF7C3FFB1
:102E10000446284600F06CFB10B14FF0FF3070BD47
:102E2000204670BD2B4500002DE9FF5F15468A4600
:102E30000446DFF8AC80F8440027D8E900103E468D
:102E4000CDE9001010E03AF816106A4602A800F02A
:102E500053FB411C07D02178890603D5E269391854
:102E600091420DD80744761C2078800602D5E0698F
:102E7000B84205DDAE42E6DB3AF816000028E2D1A2
:102E8000A069C01BA0612046FFF732FAD8E9001004
:102E9000CDE90010002017E03AF818106A4602A8A1
:102EA00000F02AFBB0F1FF3F81460BD000250DF169
:102EB000080B05E0D4E901211BF8050090476D1CC3
:102EC0004D45F7D308F10100B0428046E4DB206AAB
:102ED000384420622046FFF721FABDE8FF9F00003A
:102EE000BAB100002DE9F0418046D21D22F0070260
:102EF0000025D2E90002F52915A614D0011E72F1B1
:102F0000000106DA0023D0EB030063EB020211A6F6
:102F100008E0D8F800108B0701D50FA602E049079A
:102F200001D50EA601251146002408F1240704E06E
:102F300000F052F830323A55641C50EA0102F7D1E1
:102F40002B46324621464046BDE8F041FFF7A2BC81
:102F5000000000002D0000002B00000020000000F9
:102F600030B4002100F1240408E002F00705D20883
:102F7000303542EA4372DB086554491C52EA0305C6
:102F8000F3D10468002310A2250707D5A40600D4B6
:102F900021B1C46901230DA2641EC46130BCFFF7D6
:102FA00079BC10B5044621461068FFF76AFC02465A
:102FB0002046BDE810400023D2E7D21D22F00701D1
:102FC000D1E90023CCE70000000000003000000041
:102FD00000487047B83E002030B5B0F10A024FEA11
:102FE000900E71F100034EEA817EB0EB0E0061EBB2
:102FF00091014FEA101E4EEA017E10EB0E0041EBEC
:1030000011114FEA102E4EEA016E10EB0E0041EB4B
:1030100011214FEA104E4EEA014E10EB0E0041EB2B
:103020001141401841F100014FEAD00040EA4170DF
:103030004FEAD10110EB80054FEA810444EA907415
:1030400044EB01046D1944EB0404521BA3414FF0FF
:10305000000348BF0A3200D530BD401C41F10001D9
:1030600030BD00002DE9F04F04460D46D21D22F080
:10307000070089B0D0E900974846394600F0CFFEF6
:103080000246F80F01D02D2307E02068810701D503
:103090002B2302E0202101EAC0038DF820300BB180
:1030A000012000E00020032A824601D0072A04DB29
:1030B0002946204600F054F93FE12078800601D4EB
:1030C0000D2500E0E569C7F30A560D2D49DA002108
:1030D0004FEA175B08464FF00000002F00F4400055
:1030E00007DA00EB80004FF4400100EBD07001EAFA
:1030F00060008115012901DD4FF0FF3100224FEA08
:10310000850CBCF1180F06D31346ACF118004FF034
:103110008052C24003E04FF4801323FA0CF30CF109
:103120000C0CBCF1200F04D3ACF1200C09FA0CF00C
:1031300001E007FA0CF000294FF0004801DD18B952
:103140000FE00ED140450CD319EB02095F4121B9C4
:10315000404502D19F4329EA0209BBEB175F00D02B
:10316000761C2088000502D57B48784402E07A4826
:103170007844193808AA302302F80A30037C0AF18F
:103180000101002E0AF1020A53546A4602DC4FF094
:10319000300101E04FF031014FF001088DF80010CF
:1031A00002D0A6F2FF3603E059EA470100D06B4E89
:1031B000002D02DC2178090704D54FF002082E21EA
:1031C0008DF80110C44600210BE0C7F303433F0113
:1031D000C35C491C6D1E02F80830052908F101087E
:1031E00001DA002DF1DC00210CE000EB1973491C21
:1031F0001B786D1E082902F808304FEA091908F1FA
:10320000010801DA002DF0DC21688B0602D516E0FA
:10321000A8F10108E04505DD02EB080313F8013CC5
:10322000302BF5D0B8F1000F09DD02EB080313F8DD
:10323000013C2E2B03D1090701D4A8F10108002D70
:1032400005DD3E2102F808106D1E08F10108407CE2
:10325000002E02F8080008F1010804DA2D20764259
:1032600002F8080002E02B2002F808000A214FF4BF
:103270007A70864208F101080BDB96FBF0F33033DD
:1032800002F8083096FBF0F308F1010800FB136622
:1032900001E0642E0CDB642096FBF0F3303302F87F
:1032A000083096FBF0F308F1010800FB136601E01B
:1032B0000A2E06DB96FBF1F0303002F8080008F128
:1032C000010896FBF1F001FB1060303002F80800B5
:1032D000A16908F1010808EB050202EB0A00081ACF
:1032E000A0612078C00602D42046FFF701F8216AC9
:1032F00008AE01EB0A00206204E0D4E9012116F8CF
:10330000010B9047BAF1010AF7D22078C00602D526
:103310002046FEF7EDFF6E4609E016F8010B3E2849
:103320000FD0D4E901219047206A401C2062B8F1F7
:103330000108F2D22046FEF7F1FF09B00320BDE8F4
:10334000F08F206A2844206203E0D4E90121302074
:1033500090476D1EEBD3F8E7A1AE000002FCFFFF23
:103360002DE9F0411F46044603260168072A01F4AF
:10337000006004DB08B116A505E016A503E008B15E
:1033800015A500E015A521F010002060A069C01E61
:10339000A0610FB1401EA0612046FEF7A9FF4FB10A
:1033A000D4E9012138469047206A401C2062C01CA5
:1033B000206206E0206AFAE7D4E9012115F8010B42
:1033C0009047761EF8D22046FEF7A8FFBDE8F081B0
:1033D0004E414E006E616E00494E4600696E6600B9
:1033E00010B5436913B1AFF3008001E0FFF71CFD96
:1033F000012010BD128800F1240182840022C284C1
:103400000122EDE711684FF0FF32E9E72DE9F047BF
:10341000814616468AB0354878440DC88DE80D00BF
:1034200032487844801C03AC0DC884E80D0041F696
:103430009B300844372190FBF1F290FBF1F5A5F1A8
:10344000800501FB12041B3C02D56442012000E010
:103450000020DFF898A080460027FA44AAF1BE0AAF
:103460000EE0E0070AD03246684607EB4701012329
:103470000AEB810100F043FB8DE8070064107F1C1C
:10348000002CEED1194F7F44AE3F19E0E80715D06C
:1034900007EB04100DF1180A90E80E008AE80E0000
:1034A000C068F04201D1981908903246012306A95C
:1034B00003A800F024FB03AB83E807006D10641C35
:1034C000002DE3D14FF0010332466946B8F1000FF9
:1034D00003A802D000F0FEFA01E000F010FBC9E9F9
:1034E0000001C9F808200AB0BDE8F08784AC0000EC
:1034F000007B00F08000704770B516460C4605460C
:1035000000F01AF8036893F80101012806D0FF2C97
:103510000FD8185D68B101202C7070BDD3F8070179
:103520003246214603F2071303442846BDE87040A3
:1035300018474FF0FF3070BD10B5FFF749FD001D73
:1035400010BD00BFE59B000010B50446AFF300803E
:103550002046BDE81040FEF743BE00004FF0013C9E
:1035600050F8042B51F8043B9A4221D1A2EB0C03F2
:10357000934313EACC1317D150F8042B51F8043BB2
:103580009A4215D1A2EB0C03934313EACC130BD14F
:1035900050F8042B51F8043B9A4209D1A2EB0C03DA
:1035A000934313EACC13DBD04FF00000704700BF09
:1035B000D01A01BAB1FA81F101F0180122FA01F032
:1035C000CB40C1F12001DBB2C0B2C01A2CFA01F32A
:1035D000D11A914311EAC311E6D170475FEA400C5A
:1035E00008BF91F0000F4FEA8C234FEAC12243EA53
:1035F00051514FEA1C5018BF00F5F0404FEA30001F
:1036000018BF41F000415FEA6C5C00F02980BCF11A
:10361000FF3F08BF40F080407047130C06BF120404
:103620004FF0100C4FF0000C130E04BF12020CF1FF
:10363000080C130F04BF12010CF1040C930F04BF0C
:1036400092000CF1020CD30F04BF52000CF1010CDC
:1036500011464FF00002A0F11F00A0EB0C007047D4
:1036600011F0004F08BF704731F000413FF4D5AF73
:103670000B0C06BF09044FF0100C4FF0000C0B0EA2
:1036800004BF09020CF1080C0B0F04BF09010CF177
:10369000040C8B0F04BF89000CF1020CCB0F04BF8C
:1036A00049000CF1010CCCF12003A0EB0C0022FA34
:1036B00003F302FA0CF241EA030100F10100704742
:1036C00020F07F4C80EA030023F07F47ACEB070338
:1036D00003F57C5300F0004003F1FF032DE980491E
:1036E0004FEA154B09B44FEA144325EA0B4E24EA7E
:1036F00003480FF2042606EB132749083E785FEAD9
:10370000320203FB0667C7F5000707FB06F64FEA20
:1037100054374FEAD64606F1020607FB066CCCF199
:10372000005C4FEA1C472CEA074C07FB06F40CFB35
:1037300006F504EB15464FEA961634BF00204FF00D
:1037400000404FEAD13706FB07FC4FEA1C4C0CFB4C
:103750000BF7D21B03FB0CF761EB07010CFB0EF719
:10376000B0EB074072EB17420CFB08F734BFA2EB3B
:103770000742B2EB074261EB17414FEA0C444FEAB4
:10378000910706FB07FC4FEA1C4C0CFB0BF7B0EB58
:10379000C74072EB573203FB0CF734BFA2EBC742B2
:1037A000B2EBC74261EB57310CFB0EF7B0EBC70031
:1037B00072EB57720CFB08F734BFA2EBC702B2EBF7
:1037C000C70261EB5771039F4FEA816141EA921191
:1037D00004EBCC044FEAD1374FEA826206FB07FCC8
:1037E00042EA90124FEA80604FEA1C4C0CFB0BF748
:1037F000D21B03FB0CF761EB07010CFB0EF7B0EBE0
:10380000074072EB17420CFB08F734BFA2EB0742EC
:10381000B2EB074261EB17414FEA8C554FEA910733
:1038200004EB9C2406FB07FC4FEA1C4C0CFB0BF73B
:10383000B0EBC74072EB573203FB0CF734BFA2EB7F
:10384000C742B2EBC74261EB57310CFB0EF7B0EB4E
:10385000C70072EB57720CFB08F734BFA2EBC7022C
:10386000B2EBC70261EB577115EB4C254FEA816152
:1038700041EA92114FEA82624FEAD13742EA90124E
:1038800006FB07FC44F100044FEA80604FEA1C4C41
:103890000CFB0BF7D21B03FB0CF761EB07010CFBD6
:1038A0000EF7B0EB074072EB17420CFB08F734BF82
:1038B000A2EB0742B2EB074261EB174115EB1C1577
:1038C0004FEA813141EA92414FEA823242EA904224
:1038D0004FEA80304FEA0C7644F1000448EA034393
:1038E0004EEA0B484FF0000EB2EB080C71EB0307E9
:1038F00024BF624639464EEB0E0E4FF0000B001807
:10390000524149414BEB0B0BB2EB080C71EB030737
:103910007BF1000B24BF624639464EEB0E0E4FF092
:10392000000B0018524149414BEB0B0BB2EB080C5A
:1039300071EB03077BF1000B24BF624639464EEB67
:103940000E0E51EA020718BF46F0010616EB0E767E
:1039500055F1000254F1000103D5BDE88901BDE82D
:103960000088BDE88901BDE80048B619524141EB25
:103970000101A3F10103704780807F7E7D7C7B7A0B
:103980007978777676757473727171706F6E6E6D0B
:103990006C6C6B6A6A6968686766666564646363B1
:1039A00062616160605F5F5E5E5D5D5C5C5B5B5A37
:1039B0005A595958585757565655555554545353A4
:1039C00052525251515050504F4F4F4E4E4D4D4DFF
:1039D0004C4C4C4B4B4B4A4A4A494949484848474A
:1039E0004747474646464545454444444443434388
:1039F0004342424242414141002B9C4630D4770031
:103A00002BD01CB54FEA370703B44FF010004FF02E
:103A10001001BAF1000F06D0BCF1000FDCBF40F07E
:103A2000080040F008014FF000000FBCBDE8104056
:103A30000BF1010BBBF1010F08BF5FEA170722BFB3
:103A400012F1010211F101014FF0004143F10003B5
:103A500000F0004043EA00007047F9D35708D0E770
:103A600046EA064613F1400F4FEA16461FDD13F1F2
:103A7000200FDFBF16430A46002120335B42BED031
:103A8000C3F1200746EA064602FA07F74FEA164650
:103A900046EA0706C3F1200722FA03F201FA07F704
:103AA00021FA03F14FF0000342EA0702A7E746EAD2
:103AB000020646EA06464FEA164646EA0106BCBF3B
:103AC00046EA0646360C4FF000034FF000024FF076
:103AD000000194E72DE9804C9A46934670B491E832
:103AE000380007C831EA400C48BF34EA430C03D51C
:103AF000FFF7E6FDFFF780FFF0BCBDE8008C2DE985
:103B0000804C9A46934670B491E8380007C810F08C
:103B1000804F08BF13F0804F03D100F005F8FFF786
:103B20006BFFF0BCBDE8008C20F07F4780EA03000B
:103B300023F07F4C07EB0C03A3F57C5300F000400F
:103B4000A3F1FE0392F0000F00F0B38095F0000F98
:103B500000F077802DE901494FEA11404FEA144601
:103B600021EA004800FB06FC24EA064708FB06F6AB
:103B700007FB08F800FB07F718EB06484CEB164C60
:103B80004FEA124B18EB07484FEA15464CEB17402B
:103B900022EA0B4E0BFB06FC25EA06470EFB06F657
:103BA00007FB0EFE0BFB07F71EEB064E4CEB164C0D
:103BB0004FF000061EEB074E4CEB174B18EB0B08B3
:103BC00040F1000018EB0E0B58EB000840F100002C
:103BD0008F1A4FF000013CBFC943661B14BFB5EB01
:103BE000040C00213CBFC943F61B4FEA17444EEAC0
:103BF0008E0E27EA04454FEA1C4704FB07622CEAB5
:103C0000074C05FB07F70CFB05F604FB0CFC16EB59
:103C1000074642EB174216EB0C4642EB1C421BEBED
:103C2000060658EB0202414146EA9E0601D5BDE870
:103C30000189B619524141EB0101A3F10103BDE82D
:103C400001894FEA14454FEA114724EA054621EA63
:103C5000074C05FB07F406FB07F70CFB06F105FB19
:103C60000CFC11EB074144EB17444FEA124711EBF0
:103C70000C4144EB1C4422EA074C05FB07F206FB0F
:103C800007F70CFB06F605FB0CFC16EB074642EBB0
:103C9000174216EB0C4642EB1C456A1854F1000122
:103CA00048BF7047B619524141EB0101A3F101032E
:103CB000704795F0000F37D04FEA11424FEA144792
:103CC00021EA024624EA074C02FB07F106FB07F74C
:103CD0000CFB06F402FB0CFC14EB074441EB174110
:103CE0004FEA154714EB0C4441EB1C4125EA074C05
:103CF00002FB07F506FB07F70CFB06F602FB0CFCC4
:103D000016EB074645EB174516EB0C4645EB1C42F8
:103D1000121951F1000148BF7047B619524141EBE9
:103D20000101A3F1010370474FEA14454FEA11471F
:103D300024EA054621EA074C05FB07F106FB07F7D5
:103D40000CFB06F24FF0000605FB0CFC12EB0742E1
:103D500041EB174112EB0C4251EB1C4148BF70473D
:103D6000921841EB0101A3F10103704710B503F66E
:103D70004FFA10B102F064FA10BDBDE810402AF607
:103D800035BD02F067BB000010B52AF61BFE022805
:103D900018D00D4CD4F8880220F00100C4F8880235
:103DA0004FF0E0214FF00050C1F8800204F522747A
:103DB00002F042FC05484168491C4160206840F01F
:103DC0000100206010BD000000E00040342700200A
:103DD000FEE7FEE7FEE704F099BCFEE7024909684A
:103DE00001F007010170704700A00040024801681F
:103DF00041F470010160704788ED00E002480068FE
:103E0000001D04F0F9BD0000D025002002484068E4
:103E1000001D04F0F1BD0000D0250020FEE703B432
:103E200001984100009850EAC12018BF04204A0DB3
:103E300018BF40F0010040F2FF72B2EB515F08BFC3
:103E400040F00200012808BF052002B0704700289A
:103E500009DB00F01F02012191404009800000F1C0
:103E6000E020C0F88012704700280DDB00F01F0230
:103E7000012191404009800000F1E020C0F880114C
:103E8000BFF34F8FBFF36F8F7047002809DB00F03F
:103E90001F02012191404009800000F1E020C0F89C
:103EA00000117047002809DB00F01F02012191403A
:103EB0004009800000F1E020C0F8001170470028A0
:103EC00009DB00F01F02012191404009800000F150
:103ED000E020C0F80011704700280FDB410989007D
:103EE00001F1E021D1F8001100F01F020120904003
:103EF000014201D001207047002070470020704728
:103F000000280FDB4109890001F1E021D1F80011FF
:103F100000F01F0201209040014201D001207047B3
:103F20000020704700207047002804DB00F1E020EB
:103F300090F80004704700F00F0000F1E02090F8C6
:103F4000140D7047002804DB00F1E02090F8000415
:103F5000704700F00F0000F1E02090F8140D70475A
:103F600002480068C0F30220704700000CED00E03A
:103F700002480068C0F30220704700000CED00E02A
:103F8000EFF31080704700002DE9F0412DED020B9A
:103F90009FED3D0B2DED028B9FED3D8BDDE9025436
:103FA000C4F30A50A0F2FF36142E37DA002E18DAC6
:103FB00053EC102B9DED020B51EC100B09F0D6F8D1
:103FC00053EC182B09F0CEFC57D2002CBCBF4FF09D
:103FD0000044002551DB54EA050018BF2E4C1BD1CC
:103FE0004BE02E4820FA06F704EA070028431FD0CA
:103FF00053EC102B9DED020B51EC100B09F0B6F8B1
:1040000053EC182B09F0AEFC37D2002C03DD4FF433
:104010008010F0400444BC4300252EE0332E07DC22
:10402000A6F114004FF0FF3121FA00F73D4206D10E
:104030009DED020BBDEC028B02B0BDE8F08153ECAC
:10404000102B9DED020B51EC100B09F0C1FC53EC51
:10405000182B09F087FC10D2002C0DDD142E08BFA0
:10406000641C09D0C6F13400012101FA00F0284493
:10407000A84238BF641C0546BD43CDE902549DEDFE
:10408000020BD7E7000000009C7500883CE4377EF7
:1040900000000000000000000000F03FFFFF0F00E4
:1040A00080F31088704700002DE9F74F074602980B
:1040B000DFF86CA1DFF86C814FEA500B5A48019D84
:1040C0005C465646CAF80000D8F804203F2060F34A
:1040D0000502C8F80420DAF8000020F4700040EA75
:1040E0000750CAF80000DAF8000020F4702040EA17
:1040F0000740CAF800000D2F02D00E2F04D007E0B1
:10410000306840F4004002E0306840F480403060A5
:10411000306840F400503060306820F0605030600B
:10412000306820F00F0040F003003060002000F005
:10413000AFF8012872D13168B24641F08041316058
:104140000020424609E0D8F8083043F48033C8F82C
:104150000830811C00F1010005D091689046C1F340
:1041600000210029EFD1072000F092F8012855D155
:1041700042E000264FF47A7924E04E451ED9DAF861
:10418000001021F08041CAF80010DAF8001041F068
:104190000041CAF80010DAF8001021F00041CAF816
:1041A0000010002000F074F8012837D11F48016981
:1041B000491C01610520FCF5B5FC7FE70120FCF5F9
:1041C000B1FC761CD8F80800C0F300200028D4D039
:1041D000D8F80800434600F07F02A24200D92246E8
:1041E000002006E0196825F8021B090C25F8021BBF
:1041F000401C9042F6D3A41A002CBAD10298C007F2
:1042000007D040468168C1F300210029FAD0006838
:104210002880BDE8FE4F002000F03AB8BDE8FE8FD0
:1042200000A8004000E000400A07080734270020EB
:104230002DE9F041124904460020086010498039F8
:104240000860104D686A104E00F0010149420140BB
:10425000F061C8050DD440F20117A869B84208D032
:1042600024B10120641EFCF55DFCF6E70020BDE8EA
:10427000F0810648006870616868B0610120F6E767
:1042800094581C4200E000403427002000A8004061
:104290002DE9F041104F0546F868C0F30240A842EE
:1042A00017D0F86820F007002843F86000244FF684
:1042B000FF76F868C0F30240A84205D00120FCF563
:1042C00031FC641CB442F4D3B44202D10020BDE8F6
:1042D000F0810120FBE7000000E00040F0B50C4653
:1042E0002DED088B89B006469FED559B2021684631
:1042F000FEF784FAB0EE498AF0EE698A1022694628
:104300003046FFF7D1FE00256F4607EB4500008AD7
:1043100009F095F953EC182B08F028FF6D1C41ECBF
:10432000180BEDB2082DF0D39FED470B51EC180B95
:1043300053EC102B09F018FA41EC180B9FED44BB1D
:104340000D2E02D00E2E30D072E0608809F077F981
:1043500053EC1B2B08F0BEFF9FED3F0B41EC190BFC
:1043600051EC100B08F0F6FE41EC1A0BE08809F056
:1043700066F953EC1A2B09F0F7F941EC1A0B208877
:1043800009F05DF953EC182B09F022FB53EC1A2BC2
:1043900008F0A0FF9FED321B53EC112B08F09AFFA1
:1043A00053EC192B08F0E2FE40E0A07EFF2801D07C
:1043B000E8B13DE09FED2C0B51EC100B08F0CAFE6C
:1043C00041EC1A0BE08809F03AF941EC190B20890D
:1043D00009F035F953EC182B09F0FAFA53EC192BC4
:1043E00008F078FF53EC1A2B09F0BEF91EE0A08804
:1043F00009F025F941EC190BE08809F020F908F0E3
:10440000A9FE41EC1A0B208909F019F953EC182B7D
:1044100009F0DEFA53EC1A2B08F05CFF53EC192B71
:1044200009F0A2F953EC1B2B08F054FF41EC190BD7
:1044300009B0B0EE490AF0EE690ABDEC088BF0BD98
:104440000000000000000000000000000000C03F6D
:104450000000000000005940000000000000004083
:10446000DE718A8EE4F25FBFE2E1E1E1E1E10E405C
:1044700030380A2801D20120704700207047704769
:1044800010B51A4940F21A444FF4B9720B694FF44F
:1044900096710C3BA3420FD90424BE2801DC0C24E6
:1044A0001BE0DC2801DC082417E0FA280EDD884236
:1044B00010DD904211DD0FE0BE2801DC0B240CE082
:1044C000DC2801DC072408E0FA2801DC062404E0EB
:1044D000884201DC052400E00324204605F020F892
:1044E0002046BDE8104005F007B80000A83C0020B9
:1044F00010B58AB0044628216846FEF77FF9A06906
:10450000009015490098884202D0E4200AB010BDFE
:10451000207F8DF804000A2002904FF400100490D0
:10452000C0120590002006902021079104210891D7
:1045300009900021684600F07DFC084C21688887BE
:10454000002801DAE420E1E700F062FC21688862DB
:10455000091DC1620020D9E700400140D825002094
:104560001CB504461848C1688068CDE900010920DF
:104570008DF8040000208DF80500A06A00280AD1FB
:104580006068009060788DF806002078694600F039
:10459000DBFD002817D1E0680090607A8DF80600F6
:1045A000207A694600F0D0FD00280CD1E16AB1F113
:1045B000C05F08D360690090607C8DF80600207CA5
:1045C000694600F0C1FD1CBD94DE200010B5C46A30
:1045D000E069C0070CD04FF47A71204600F068F90A
:1045E00030B90C480068D4E90621491E22F81100B0
:1045F0000020206203F0F8F900280AD094F828007F
:10460000022806D10121204600F034F8204602F0AD
:1046100079FF10BD00E0004010B5C06AC16A41F0EA
:104620000401C16203F04CF910BD000070B5104DDB
:10463000286890F83E10012914D1001D02F0F8FFFF
:10464000012802D008B1002070BDEFF310840120D2
:1046500080F310882868001D03F054F924B101206C
:1046600080F31088012070BD002080F31088F9E7E6
:10467000D825002080F828107047000070B5234925
:10468000234800F0FDF920B1BDE8704021A0FDF7FE
:10469000F1BD1F4800F0C0F920B1BDE870402CA06A
:1046A000FDF7E8BD4FF480713948FEF785F839A071
:1046B000FDF7E0FD164C0020241F208080213448A7
:1046C00000F054F920880028FCD080223849304876
:1046D00000F03CFA37A0FDF7CDFD0024344D05EB8A
:1046E000C40090ED000B38A053EC102BFDF7C2FD79
:1046F00000F0A6FF641C802CF1D314A0FDF7BAFDD6
:1047000000F074F9BDE8704000F04EB96D4A200029
:104710002C2600200D0A41444320696E69746961AA
:104720006C206661696C65642120506C65617365FD
:1047300020636865636B2074686520696E707574AA
:1047400020706172616D65746572732E0D0A0000D0
:104750000D0A41444320696E697469616C20646D7F
:1047600061206661696C65642120506C65617365C8
:1047700020636865636B2074686520696E7075746A
:1047800020706172616D65746572732E0D0A000090
:104790003035002053746172742073696E676C65E4
:1047A0002073616D706C696E672E0D0A0000000049
:1047B00030360020436F6E76657273696F6E2076B7
:1047C000616C75653A0D0A0025302E33665620203F
:1047D0000000000010B50B4C2089012811D194F87D
:1047E0004B0000280DD1608F08F029FF9FED061BBC
:1047F00053EC112B08F0B8FF08F0F4FE218F0844A9
:10480000208710BD403B00209A9999999999A93F1A
:104810002DE9F04706460C46601C06D049F640409C
:10482000844202D90120BDE8F0871D48D0F80080FD
:104830001C4FD7F800904046494603F08BFD7D6839
:10484000FBF598FE18484FF47A710068B0FBF1F15F
:104850006143164B40F2011C13E0601C11D07868D4
:10486000401B88420DD904213046FFF703FFF06A50
:1048700040F00100F0624946404603F04BFD032042
:10488000D1E79869604501D1012200E00022002AA9
:10489000E3D04946404603F03DFD0020C3E7000059
:1048A000FCED00E0001000E05C00002000E00040B3
:1048B0002DE9F04706460C46601C06D049F64040FC
:1048C000844202D90120BDE8F0871A48D0F8008060
:1048D000194FD7F800904046494603F03BFD7D68EC
:1048E000FBF548FE15484FF47A710068B0FBF1F112
:1048F0006143134A13E0601C11D07868401B884262
:104900000DD904213046FFF7B5FEF06A40F00100F2
:10491000F0624946404603F0FDFC0320D3E790686F
:10492000C0F300200028E6D04946404603F0F2FCE0
:104930000020C8E7FCED00E0001000E05C00002073
:1049400000E000400748084901E0401E04D00A6822
:10495000C2F34002002AF8D108B1002070470320BA
:104960007047000020A1070038A7004010B50D4A8D
:104970001368002B0FD093F83E2062B168B161B18B
:1049800093F83F205AB10A460146181D02F010FF65
:104990000028FFD110BDE92010BDE42010BDE720A4
:1049A00010BD0000D825002070B50F4D28680028E4
:1049B00015D090F83E1091B1002480F83E40046478
:1049C0004464092006F072FA2868001D02F0C2FD56
:1049D000002805D1286890F83F0010B102E0E920D6
:1049E00070BD2C60002070BDD825002010B5094C8A
:1049F0002068002803D090F83F10012901D0E92059
:104A000010BDB0F93C0000F0C9F92168002081F820
:104A10003F0010BDD825002070B500280AD0124DE7
:104A2000296849B191F83E2032B191F83F1029B17F
:104A3000EA2070BDE52070BDE92070BDEFF3108461
:104A4000012181F31088FFF753FD18B92A6801216D
:104A500082F83F101CB1012181F3108870BD002144
:104A600081F3108870BD0000D82500200078002850
:104A700002D102490120088070470000282600204A
:104A800070B504460E46002C26D0144D04F13800B3
:104A900028602046FFF764FD00281CD1286840C02C
:104AA000182204F12001FDF74DFE2868001D02F0D8
:104AB00051FD00280FD12868001D02F0BDFD00281F
:104AC00009D109220321064806F0D8F929680120F6
:104AD00081F83E00002070BDE52070BDD825002083
:104AE00094DE200010B50B4B1C68002C0DD094F800
:104AF0003E3053B158B151B14AB113460A4601464E
:104B0000201D02F00FFF002010BDE92010BDE420A1
:104B100010BD0000D825002010B50B4B1C68002CE0
:104B20000DD094F83E3053B158B151B14AB113464B
:104B30000A460146201D02F08FFF002010BDE9202B
:104B400010BDE42010BD0000D825002010B50B4B8F
:104B50001C68002C0DD094F83E3053B158B151B1BF
:104B60004AB113460A460146201D02F0E5FF002027
:104B700010BDE92010BDE42010BD0000D8250020A4
:104B800006460F46154672B63846FDF777FD4028B3
:104B900001D9402002E03846FDF770FD80463046DE
:104BA000FDF76CFD402801D9402002E03046FDF7BA
:104BB00065FD04469C211048FDF720FE424639461B
:104BC0000D48FDF77AFD0C48224631465C30FDF772
:104BD00074FD09484FF0AA31016445644FF0BB31C0
:104BE00081644FF0CC3101654FF0DD3181650020EB
:104BF00000F004F8FEE700009033002030B5ADF27D
:104C00000C4D04464FF4806103A8FDF7F7FD194DE4
:104C1000202085F83F0085F89B003CB12846012CF8
:104C2000436DC26C09D0022C0CD00FE0114A12A1C6
:104C30005C3203A8FDF72AFB08E012A103A8FDF7E8
:104C400025FB03E017A103A8FDF720FB03A90CA295
:104C5000686CCDE90121009019A3064A19A1002032
:104C600000F022FD012C01D000F0D0FC0DF20C4D23
:104C700030BD0000903300205B4552524F525D2002
:104C8000257300005B5741524E494E475D205061ED
:104C900072616D303A25642C506172616D313A2534
:104CA000640000005B504152414D5D2050617261D3
:104CB0006D303A25642C506172616D313A25640083
:104CC000000000006170705F6173736572742E6321
:104CD00000000000014806F075BB0000002600201F
:104CE00006460F4690461D4672B64046FDF7C6FC86
:104CF000402801D9402002E04046FDF7BFFC0446B1
:104D00009C210D48FDF77AFD224641460A48FDF7F1
:104D1000D4FC09484FF05531016445644FF06631C9
:104D20008164C6644FF0773101654765C943816589
:104D30000220FFF763FFFEE7903300202DE9F041EA
:104D400006460F4690461D464046FDF797FC402814
:104D500001D9402002E04046FDF790FC04469C212A
:104D60000D48FDF74BFD224641460B48FDF7A5FCDB
:104D700009484FF011310164456449008164C664FB
:104D80004FF03331016547654FF044318165BDE82F
:104D9000F0410120FFF732BF9033002070B50528A5
:104DA00001D3E82070BD194D00EB400005EB401425
:104DB0002078C8B1EFF31086012080F31088201D01
:104DC00003F0DAF8002020700520A060002000EB3E
:104DD000400105EB41110978012902D0401C05284A
:104DE000F5D3052802D007E0E92070BD022006F0C7
:104DF0005DF8032003F007FC26B1012080F3108842
:104E0000002070BD002080F31088F9E7202F0020DB
:104E1000052801D30020704700EB4001044800EB57
:104E20004110017809B1001D704700207047000053
:104E3000202F00202DE9F0470546894600244FF039
:104E4000FF3846464FF0010A002D10D03C490320A0
:104E500006F06AFA287960B101280AD0022808D041
:104E6000032806D0042804D04046BDE8F087E5209A
:104E7000FBE7EFF31082012181F31088314F04EB3F
:104E8000440107EB41110B783BB14B68D5F800C0EA
:104E9000634510D18B6883420DD104EB440007EBCE
:104EA000401090F82C00022803D026B20120087090
:104EB00004E0052402E0641C052CE0D35AB3012071
:104EC00080F31088052C34D2022203211E4805F0FD
:104ED000D5FF04EB440107EB411428686060287992
:104EE000A06004F10C00202205F10801FDF72AFC66
:104EF000164860631648E0631648A06300202064EB
:104F0000C4F85C901449606888420ED10320FEF713
:104F1000E3FF20B109E0002080F31088D2E70320EE
:104F200003F064FB032003F07FFB201D03F05EF819
:104F30008246BAF1000F00D04646304695E70000A1
:104F4000A51E1000202F00208CDE2000E969200023
:104F50006169200019692000004001402DE9F041FD
:104F6000014600291BD000240F4E0E4A357814E06C
:104F700002EB04100F780378BB420CD14B684068F9
:104F8000034208D0707808B900F01EFB2046BDE847
:104F9000F04100F04DBA641CE4B2AC42E8D3BDE885
:104FA000F08100009C310020E42500207CB50546FE
:104FB0000E46002D01D0002418E0E5207CBD05EB55
:104FC000041041680091017A8DF80410417A8DF83F
:104FD000051000218DF80610C2680078002369468C
:104FE00000F038F80028E9D1641CE4B2B442E6D3FA
:104FF00000207CBD10B502460846052A25D2DFE810
:1050000002F0030303111900114951F83220010481
:10501000090C05D022B10146104603F010FA10E049
:10502000E42010BD10F0FF0F02D002F01DFE08E0DA
:10503000E42010BD10F0FF0F05D00146002003F062
:105040008FFA002010BDE42010BDE62010BD000046
:1050500090DD20002DE9F05F05460C46904699460C
:1050600026680027042D11D031462846FFF7C2FFDD
:105070002146284600F068F8002808D1032D08D002
:105080004FF0100A2807070E002451E0E620BDE883
:10509000F09F4FF0080AF7E7F00746D03DB1012D29
:1050A00005D0022D03D0032D27D0E620EFE72448BA
:1050B00000EBC50090F904B0BBF1000F17D0EFF37F
:1050C0001081012080F310881E4AE01942F83080D8
:1050D00002EBC000C0F8049059B1012080F31088A1
:1050E000584603F083FA584603F09EFA1DE0E42088
:1050F000CDE7002080F31088F2E7EFF31081012064
:1051000080F310880F4AE019703242F8308002EBC9
:10511000C000C0F8049079B1012080F310881520F8
:1051200003F064FA152003F07FFA7608641CE4B2F9
:105130005445B1D30020AAE7002080F31088EEE7A1
:1051400090DD2000702E002030B597B005460C464B
:105150001C22414910A8FDF7F5FA1C223E491C31DA
:1051600009A8FDF7EFFA20223B49383101A8FDF7E5
:10517000E9FA94B13949062006F0D6F838491520E5
:1051800006F0D2F834496C39A1F12C02052D61D218
:10519000DFE805F0060606213900E52017B030BD2E
:1051A000207931F810001190607932F810001290D7
:1051B000A0791390206810902748843850F8350063
:1051C00021880904090C04D018B110A903F09BF937
:1051D00039E0E420E2E7207901EB4000808A0A9080
:1051E000607902EB4000C0880B90A0790C90206899
:1051F0000990207810F0FF0F03D009A802F066FD97
:1052000021E0E420CAE72079031F042B01D8E7201E
:10521000C4E7022819D001200290207901EB400058
:10522000008D0390607902EB400080890490A079A2
:10523000059020680190207810F0FF0F08D001A998
:10524000002003F0BFF90020A8E702200290E4E765
:10525000E420A3E7E620A1E714DE2000411E1000B1
:105260003D1E100002460020052A11D2DFE802F0A0
:10527000030303090C00074850F8320089B203F019
:1052800064B988B202F066BD89B2002003F09CB90F
:105290007047000090DD2000002803D0024908601C
:1052A0000120704700207047E025002070B50546BA
:1052B0000024091F062917D2DFE801F003070C11AB
:1052C0001315284600F0A4F80EE00124284600F04B
:1052D0009FF809E00224284600F09AF804E003242D
:1052E00002E0042400E00524034A2146284612680F
:1052F000BDE8704010470000E02500202DE9F04196
:105300000446204600F0AEF801462E480023082649
:10531000025D00F10A0700F11405AAB1052A33D095
:10532000082A2AD1092945D0082926D1295D491CF6
:10533000C9B22955142920D32B5506552046BDE85E
:10534000F0410821FFF7B2BF052913D0042916D078
:10535000072914D0082910D1295D491CC9B2295543
:1053600014290AD32B5506552046BDE8F0410821E3
:10537000FFF79CBF3B5505210155BDE8F081204654
:10538000BDE8F041FFF792BF05290CD0395D491CFB
:10539000C9B239553229F0D303552046BDE8F04152
:1053A0000521FFF783BF03552046BDE8F0410621E4
:1053B000FFF77CBF03552046BDE8F0410921FFF708
:1053C00075BF00005C31002070B504460D4600F04A
:1053D0000FF808B100F00EF90348044A2946005DB1
:1053E0005268BDE87040104790310020E42500204D
:1053F0000020064911F810200AB100207047401C17
:10540000C0B20A28F6D30120704700007A3100208C
:105410000349002201F8102001EB40004270704760
:105420007A310020014A02F8101070477A310020CA
:10543000024A012102EB4000417070477A3100209E
:1054400070B50024064D05EB4400407810B12046AD
:10545000FFF754FF641CE4B20A2CF4D370BD0000C3
:105460007A31002070B500211D4B03F132051A5C22
:10547000002A09D0002403F10A06012A0AD0022AD0
:1054800012D0032A24D11FE015F8102002B3012204
:105490001A541DE015F810201AB1345402221A547F
:1054A00016E01C54042113E015F810204AB1325CB8
:1054B000521CD2B23254642A0AD3072103221A544E
:1054C00006E005211C5403E015F8101011B1082165
:1054D000084670BD1C54FFF79BFF0921F8E7000048
:1054E00048310020704700002DE9F0410E46174674
:1054F0000A2E02D80FB100231AE00020BDE8F08187
:1055000003EB430400EB8405114AA97AD1541049F6
:1055100010F824200C3101EB0314227069686160DB
:10552000297A2172697A61720A49E1605B1CDBB2F7
:10553000B342E5D3064831460C30FFF737FD064845
:10554000067047600548FFF7A7FE0120D6E7000078
:10555000903100205D4F2000E4250020C953200039
:105560002DE9F0410024124FDFF8488019E00026B1
:1055700007EB041528786968FFF774FE10B9697A9B
:10558000012902D0012802D005E0012603E0687A53
:10559000022800D1012631462046FFF743FF641C54
:1055A000E4B298F800008442E1D3BDE8F081000045
:1055B0009C310020E425002010B5FFF7D1FFBDE8A5
:1055C0001040FFF73DBF000010B5074A0121074812
:1055D00000F06AF900220A21044800F0BBFA0449ED
:1055E0000120487010BD0000B95520004032002055
:1055F000E425002010B5034800F084F9024900209A
:10560000487010BD40320020E42500200248406A66
:10561000002800D0004770476833002001494862E5
:105620007047000068330020002806D0002904D00D
:10563000024AD269002A00D0104770476833002020
:105640000248006A002800D00047704768330020F5
:1056500070B50D4616460D4C00280AD00178032976
:1056600011D80121A17601461A222046FDF725F81E
:1056700005E00020A0761A210448FDF7BFF8E56197
:105680002662002070BD012070BD0000683300203C
:10569000044A1044807D084201D001207047002058
:1056A00070470000683300202DE9FE4F0746924600
:1056B00099460024A046CDF80480CDF808805948CA
:1056C0000178B94202D2807E00287DD10EAD0095CE
:1056D000EFF311860220FEF735FC8346FEF748FC07
:1056E000401C012181400BEB0100C0B280F3118806
:1056F00001213846FFF7CCFF38B14B484B4950F8F1
:105700002720204600F0A4F804461C213846FFF765
:10571000BFFF00285ED046A24449204600F098F81A
:10572000204484B204213846FFF7B2FFF8B1524654
:105730003E49204600F08CF8204484B208213846C7
:10574000FFF7A6FF38B13BA23849204600F080F8A9
:10575000204484B20BE010213846FFF799FF30B1A6
:1057600035A23249204600F073F8204484B2082163
:105770003846FFF78DFF90B14A462C49204600F08D
:1057800067F8204484B210213846FFF781FF30B11A
:105790002AA22649204600F05BF8204484B210215A
:1057A0003846FFF775FF60B126A2052101A80C9BC2
:1057B000FCF782FD01AA1D49204600F049F820446B
:1057C00084B221A2194900E029E0204600F040F807
:1057D000204484B21548C4F5807120442B460D9AAC
:1057E000FCF72EFDCDF800804FF48071002804DB1B
:1057F0002044884201DC85B200E00D46A81C8842A6
:1058000000D9FE2511A20949284600F021F82844B4
:1058100081B20648FFF708FFF0B280F31188BDE8B7
:10582000FE8F000068330020EC2500206832002045
:1058300028000000200000003A000000204C696EA3
:10584000653A0000256C6400292000000D0A000064
:1058500030B50546002000290CD0002A0AD006E009
:105860002B18FF2B06D8CC54521C401C80B2147845
:10587000002CF5D130BD000010B508480178002992
:105880000AD101210170064829F60CF8BDE8104044
:105890000021044829F608B910BD0000CC250020DD
:1058A0000D1E100019AE20002DE9F04104460D46F2
:1058B0001746002D04D0012D02D00120BDE8F08153
:1058C000E4B1DFB1607801281AD0EFF3118602202D
:1058D000FEF72AFB8046FEF743FB401C0121814076
:1058E00008EB0100C0B280F3118800206070A57041
:1058F000E761F0B280F311880020DFE70120DDE7E7
:105900000620DBE710B50446002C0CD0204600F042
:10591000B3F9FF2060700021A160E1602161616145
:105920000020E06110BD012010BDF0B5DDE90745A4
:10593000059981614FF47A76A2FB061C03FB06C32E
:10594000002702FB0732C0E9021209196A41C0E9C7
:10595000041200210162F0BD2DE9F0410446002C43
:1059600013D0EFF311850220FEF7DEFA0746FEF7AB
:10597000F7FA401C012606FA00F03844C0B280F362
:1059800011881248002121620EE00020BDE8F0815C
:10599000D4E90432D1E9047CDB1B72EB0C0202D2A5
:1059A000016A216203E00846016A0029F0D104621D
:1059B0006670064810380168491C0160016B41603F
:1059C000E8B280F311880120E0E7000010310020E8
:1059D0002DE9F04105460024EFF311860220FEF781
:1059E000A3FA0746FEF7BCFA401C01218140781853
:1059F000C0B280F31188134A106BE8B115B102F1FF
:105A0000100010E00446206A10631068401E106009
:105A10000CE0A94206D11168491E1160296A016291
:105A20002C4603E00846016A0029F2D124B1002087
:105A300020626070106B5060F0B280F311882046D5
:105A4000BDE8F081003100202DE9F041EFF311872E
:105A50000220FEF769FA0446FEF782FA401C012193
:105A600081406018C0B280F31188114D002608E013
:105A70002078012804D1E16909B1A069884726701E
:105A80002D6A2C6A002CF3D1094D103D07E0E16925
:105A900009B1A06988472670206AA8632662AC6BAA
:105AA000002CF4D1F8B280F311880120BDE8F08118
:105AB000103100202DE9F041EFF311870220FEF7AD
:105AC00033FA0446FEF74CFA401C012606FA00F0B1
:105AD0002044C0B280F311881D4DA5F110082DE0BF
:105AE000D4E90430D8E902125B1A60EB0200D8E96D
:105AF0001021D21A814124D326702046FFF768FF77
:105B0000A078012806D012482830002121620168BF
:105B100061B10FE0D8E90220D4E9021351185841CD
:105B2000C4E904102046FFF717FF07E0046005E012
:105B300001F1200001680029FAD104602C6A002CD0
:105B4000CED1F8B280F311880120BDE8F0810000C9
:105B5000103100202DE9FF5F82460E4693464FF03C
:105B60000008BAF1000F20D0414886421DD8E6B1A6
:105B7000EFF311870220FEF7D7F90446FEF7F0F99C
:105B8000401C012181406018C0B280F3118850464A
:105B900003F09CFA10B19AF8010040B1F8B280F31A
:105BA00011880F2004B0BDE8F09F0120FAE704F04F
:105BB000E1F804460D464FF47A7106FB01F02246E7
:105BC0002B46002103F01CFADFF8A890B0B1D9F8F9
:105BD000040048B1D0E90410091B60EB0500C9E9D5
:105BE000021004F041F904E00021C9F80810C9F8D6
:105BF0000C104FF00108D9E9020106E0D9F80400C1
:105C0000D0E90421101B61EB0501CDE90201324608
:105C10000023CDF800B05046FFF787FE5046FFF74F
:105C20009BFE05F0A5FA4FF0E024D4F800014FF4F4
:105C3000801510F4801F01D0012000E0002020B961
:105C40001420FEF704F9C4F80051B8F1000F0AD08F
:105C5000D9F80400D0E90431D9E90202181A61EB3D
:105C6000020104F0BDF8F8B280F31188002099E732
:105C7000008AB907003100202DE9F04104460025D3
:105C8000002C39D0EFF311870220FEF74DF90646BC
:105C9000FEF766F9401C012181407018C0B280F304
:105CA00011886078012824D1144E7068A0420BD16D
:105CB00004F060F8D4E90432181A62EB0102C6E974
:105CC000020204F0D1F801252046FFF781FE5DB104
:105CD000706848B1D0E90421D6E90203101A61EBDB
:105CE000030104F07DF804E01DB9706808B904F000
:105CF000BBF8F8B280F31188BDE8F08100310020D4
:105D00002DE9F8430446334F57F82400061D022CB2
:105D10005ED290F8681000295AD00021D0E9032300
:105D20001344027D02F00102D21D9D184268D36F18
:105D3000C3F38003002BFAD090F80021A2B1264AC9
:105D40001368491C90F83A20102A06D08268B3FBE9
:105D5000F2F26A43B1EBC21FF3D957F824006C305A
:105D600005F06DF985B226E0B0F82480C58C001DE1
:105D700002F00EFD57F8240041F2883300EB0801D1
:105D8000491B7C31001D2A4602F0F2FEE5E757F878
:105D9000240001226C30694605F06CF957F82400A4
:105DA0004068C16FC1F340010029FAD09DF800108E
:105DB00001606D1EADB2002DE9D157F824006C30A2
:105DC00005F03DF90028C8D1306841694906FCD585
:105DD000BDE8F883D02500205C00002070B50446A3
:105DE0001A4D55F824006C3005F029F982B2164698
:105DF000A2B155F8240090F8FD1001290ED0012120
:105E000080F80011802A0FD355F82400802200F179
:105E10007C016C3005F02EF980260CE055F824103A
:105E2000002081F8FC0070BD55F8240000F17C01D1
:105E30006C3005F01FF955F82400324600F17C0162
:105E4000001D02F0CDFE0028EDD170BDD025002050
:105E5000704700002DE9F8430446534F57F82400DB
:105E6000061D022C7ED290F8681000297AD00129F4
:105E700078D190F8FC10012974D190F8FD10002918
:105E800070D1012180F8FD10002157F82400D0E9DD
:105E900003231344027D02F00102D21D9D184268C3
:105EA000D36FC3F38003002BFAD090F80021A2B186
:105EB0003E4A1368491C90F83A20102A06D082689E
:105EC000B3FBF2F26A43B1EBC21FF3D957F82400D7
:105ED0006C3005F0B4F885B226E0B0F82480C58CAB
:105EE000001D02F055FC57F8240041F2883300EB06
:105EF0000801491B7C31001D2A4602F039FEE5E706
:105F000057F8240001226C30694605F0B3F857F8C1
:105F100024004068C16FC1F340010029FAD09DF808
:105F2000001001606D1EADB2002DE9D157F82400BC
:105F30006C3005F084F80028C8D130684169490602
:105F4000FCD5EFF31085012080F3108857F824006A
:105F50006C3005F074F878B1EFF31081012080F314
:105F6000108800E015E03068426842F0820242602A
:105F700089B1012080F3108857F82410002081F89F
:105F8000FC0057F8241081F8FD0045B1012080F392
:105F90001088BDE8F883002080F31088ECE700202B
:105FA00080F31088F5E70000D02500205C00002079
:105FB0002DE9F04105460F46002D06D02AB12C7878
:105FC000022C04D3E820BDE8F081E520FBE7304E49
:105FD00005F1580046F82400D2E900310A466C3039
:105FE000194605F011F8291D286D06F0A1FC0028BE
:105FF000E9D156F82410281D086656F824000760D9
:1060000056F824001822083005F14001FCF79AFBED
:10601000204856F8241000EBC4056868486056F81C
:106020002400001D02F00EFC56F82400001D02F0B2
:1060300097FC184803221146103804F01FFF56F849
:106040002410012081F8680056F82410002081F8FF
:10605000FC0056F8241081F8FD0056F8241081F851
:10606000FE0056F8241081F8FF000B490C2005F0C3
:106070005BF90A490D2005F057F995F9010002F086
:10608000B5FA95F9010002F0CFFA00209BE7000075
:10609000D02500207CDE2000FD3D20000D3E2000AC
:1060A0002DE9F04104461A4D55F824006C3004F0F7
:1060B000C6FF82B2164600277AB155F8240090F840
:1060C000FD10012909D0802A0ED300F17C016C302B
:1060D000802204F0CFFF80260BE055F8240080F8E2
:1060E000FC700020BDE8F08100F17C016C3004F010
:1060F000C1FF55F8240080F8007155F8240032469D
:1061000000F17C01001D02F0B5FD0028EAD1E9E7AD
:10611000D025002070B5022801D3E82070BD104DB5
:1061200055F8204064B194F868604EB151B14AB15D
:106130005E1C09D049F64046B34205D9E42070BD43
:10614000E52070BDE42070BD002684F8FE6055F89F
:106150002000001D02F00CFD0028F4D170BD0000ED
:10616000D02500202DE9FC4781460D4616469A466B
:10617000DFF8A080D8F8FC00A84248DBD8F800017E
:10618000A84201DA01F042F9D8F80001A8423CDB4C
:1061900005F1F700F821B0FBF1F0C7B201242FE0C0
:1061A000002000900190ADF80090ADF802509DF8ED
:1061B000040067F3071064F303008DF80400052161
:1061C000684600F002F98DF805009DF8060020F001
:1061D0000300801C6AF382008DF80600684600F018
:1061E00025F90146304600F0F0F88DF807003246F8
:1061F0006946D8F8F80006F017FFF836641CE4B2D8
:10620000BC42CDD90020BDE8FC870520FBE7052076
:10621000F9E700002C34002010B50378002B03D0E0
:10622000FF2B01D0012010BD012205E0845C9C42BF
:1062300001D0012010BD521C8A42F7D3002010BDAE
:106240002CF65ABC10B500220821104603F0D8FCE9
:1062500000221021104603F0D3FC0022202110461A
:1062600003F0CEFC0649086843F63F72904308608D
:1062700000F048F800F006F8BDE8104000F026B83D
:1062800014AA004000B587B000228DF804204FF416
:106290008070029005218DF80C1001208DF80D0002
:1062A0008DF80E2003228DF81020402205928DF8E3
:1062B00018108DF819008DF81A00034A022101A860
:1062C000FFF712F907B000BDE55420007CB540206F
:1062D000009002248DF804408DF8054000258DF8CB
:1062E000065069460420FEF72FFF802000908DF8AD
:1062F00004408DF805408DF8065069460420FEF7ED
:1063000023FF7CBD00B587B000F026F803208DF890
:1063100000001D208DF8160001208DF817008DF863
:1063200018008DF81900064A06496846FFF790F9EB
:106330000548FFF773F9FEF7CDFC07B000BD00007C
:1063400053632000BD6320004D6320000020FFF751
:10635000D7BC0020FFF77EBD7CB5144800904FF4F9
:10636000806001901248002101704FF4E132026414
:10637000032242648164C16401650124446502749E
:106380000223436108254574017602718460072465
:106390004471017307494163816380F83C3080F8A0
:1063A0003D206A460449FFF703FE7CBDD02800204B
:1063B000D02C002000400140515E20000A460146DA
:1063C0004FF47A730020FFF7A5BE10B503460020F6
:1063D000002203E09C5C2044C0B2521C8A42F9D3E4
:1063E00010BD7CB540F6886201FB02F500226B46C9
:1063F000114600F075FE04463CB12146684606F0A1
:10640000B5F8F83D04F58070F0E728467CBD01F64C
:10641000FF72130B00F6FF72A3EB123252B2081A8E
:10642000C2EB1020C0EB4010C00070470279110988
:1064300002F00F028A4207D18078491EA1EB411178
:1064400000EBC100C0B200E0F820F82800D900201D
:1064500070470000174810B50068C0F3000038B15D
:10646000144808380068C0F3000008B104F0FEFECC
:1064700011480068C0F3000038B10F4808380068C0
:10648000C0F3000008B100F035FD04F067FE0028FD
:106490000FD002F04DFC00280BD00120FBF6CBFD05
:1064A0000648816821F4807181600548002181706F
:1064B000C17010BD08E4004008E5004000A00040A5
:1064C0000827002010B504F049FE20B102F030FC8E
:1064D00008B1012010BD002010BD000010B50E490C
:1064E0001E2004F021FF04F039FE88B10120FBF6E4
:1064F0007BFD0A49012008700949D1F8801211F486
:10650000403F00D1002004F083FE1E20FDF7CAFCAE
:1065100000F096FC10BD0000833D200008270020FD
:1065200000A00040704700002DE9F041C0B00F46C8
:1065300010494FF48078D1F8F420497808EB013104
:10654000561800F5807500240EE042466946304634
:1065500004F034F942466946284604F034F906F559
:10656000807605F58075641CBC42EED340B0BDE872
:10657000F08100002C3400202DE9F043C3B089469F
:1065800015494FF48078D1F8F420497808EB0131AF
:106590005618070B3F030024002201AB1146384672
:1065A00000F09EFD054685B1424603A9284604F049
:1065B00005F9424603A9304604F005F905F5807750
:1065C00006F58076641C0F2CE6D3C9F8007043B042
:1065D000E0B2BDE8F08300002C340020124810B572
:1065E000016821F00041016010490A78497842EAC7
:1065F0008103011D0A6863F31F720A60016841F09C
:10660000004101600A48D0F8881241F00101C0F849
:10661000881208491D2004F087FE4FF0E0214FF05A
:106620000050C1F8000110BD04A90040342700202B
:1066300000E00040893D2000F8B5EFF3108601200E
:1066400080F3108806208DF800006846FDF7C6FB31
:106650000220F9F56DFF3220FAF564FA184C206833
:1066600020F400302060251F286840F002002860D8
:10667000144F7889FAF556FA286820F0020028604D
:10668000B889FAF54FFA9DF80000F9F551FF0C486A
:106690003830016889020CD400682168C0F30440D6
:1066A00041F400312160216821F4F83141EA0030E1
:1066B00020601EB1012080F31088F8BD0020FAE7A9
:1066C00008A90040E42700202DE9F043C5B0DFF819
:1066D000B890D9F8F850A5F5807500240027002659
:1066E00019E041AB01220021284600F0F9FC0446E4
:1066F00020000ED0BDF8041143AB0122D9F8F400FC
:1067000000F0EEFC0746380009D0A74207D001266A
:1067100005E0A5F58075D9F8F400A842E1D3002E74
:1067200027D042994198CDE90101204601264FF03A
:10673000000803AA01A902F0D5FC90B1761CF6B2BC
:106740009DF80801B6EB101F02D94FF0010808E0D0
:10675000BDF8041101AB3246284600F0C1FC002808
:10676000E7D1B8F1000F07D02246394643A800F020
:106770005EF845B0BDE8F083214641A8D9F8F8207D
:1067800000F055F8F5E700002C34002010B50C4659
:10679000A17921F00301A171801D0122A11D04F046
:1067A00012F804480168F83101602088BDE8104003
:1067B00005F008BF283500202DE9F04FBFB0804616
:1067C0008A469146FF22F82101A8FBF7EDFF00273A
:1067D0000824002089F800004FF6FF7B08EB040531
:1067E0002888584519D0284602F097FCA8B1A87807
:1067F0000830C6B22888504504D13444012089F8B5
:10680000000008E001A8294638443246FBF755FF4E
:106810003444B819C7B2F82CE0D3F82201A908F122
:106820000800FBF74AFF3FB03846BDE8F08F2DE97E
:10683000FC4105460F461646287904090DE02988D3
:106840006B462246384600F04BFC20B1B04202D2E3
:106850006946FFF79BFF641EE4B2002CEFD1BDE850
:10686000FC812DE9FC410E4617466FF30B00002515
:1068700012E000226B46114600F032FC0446002C68
:106880000CD0B4420AD269462046FFF77FFF04F5D8
:106890008070B04202D26D1CBD42EAD3BDE8FC81DB
:1068A000F0B58BB004460025666827680F2060604D
:1068B0002060204600F04EFE10B100200BB0F0BD6D
:1068C000204600F0B9FE08B10020F7E7132201A925
:1068D000204600F0E9FE08B10020EFE7032101A8FF
:1068E00030F811201544491C89B21329F8D3C5F397
:1068F0000F1566602760204600F02CFE08B10020CE
:10690000DCE7204600F098FE08B10020D6E74FF6FD
:10691000FF7000EA4500D1E730B400210F4B01EBD6
:10692000410203EB42121478012C11D1946845689E
:10693000AC420DD152680468A24209D101EB41007A
:1069400003EB4010C16D002905D030BC0220084780
:10695000491C0529E3D330BC70470000202F0020DC
:1069600030B400210F4B01EB410203EB42121478CB
:10697000012C11D194684568AC420DD1526804686D
:10698000A24209D101EB410003EB4010C16D002987
:1069900005D030BC00200847491C0529E3D330BC92
:1069A00070470000202F002070B500240B4E04EB30
:1069B000440006EB4015287801280AD1281D01F073
:1069C00011FB18B1012801D0002070BD281D01F075
:1069D00082FC641C052CEAD3012070BD202F00200E
:1069E00080F828107047000030B400210F4B01EBF5
:1069F000410203EB42121478012C11D194684568CE
:106A0000AC420DD152680468A24209D101EB4100A9
:106A100003EB4010C16D002905D030BC01200847B0
:106A2000491C0529E3D330BC70470000202F00200B
:106A300000B500F007F802490120886100BD0000A0
:106A4000CC3B002030B5084C012504F8045B84E8F9
:106A50000F000648241F8068884201D2081A00E00F
:106A6000401A606130BD0000643C00201C270020FB
:106A700010B502F0C1F9044618210548FBF7BEFE27
:106A8000034A002120461170BDE8104000F018B9FB
:106A9000643C0020F0B40E460146224F2048BB68FB
:106AA0000578C0E90821994201D9CC1A00E05C1AA6
:106AB000FF68A7420AD28769A74201D9C0E9064206
:106AC000012D09D0022D1FD0032D27D113463246A8
:106AD000F0BC0020FFF7ACBF41619942016902D9C7
:106AE000491C816002E0491EC1608168C268914210
:106AF00006D211444908016101210170016909E0D0
:106B000002210170816805E0C3699342DED0032150
:106B1000017019463046F0BC00F006B8F0BC704772
:106B20000C3C00201C270020054A936A5B1C9362E2
:106B30008AB2C1B20348044B406802F007B90000B2
:106B40000C3C00201C270020956A200070B50E4CDC
:106B500005462C212046FBF751FE0020A06040F2A4
:106B6000FF10FF22C4E903024FF0FF30A061A06ACA
:106B7000E9B2401CA062012020700448044B406828
:106B8000BDE8704002F0E2B80C3C00201C27002059
:106B9000956A20002DE9F843254C07469046207859
:106BA0000D4601280BD0022813D008201346E061BF
:106BB0000A4601B03946BDE8F043FFF739BF40F25D
:106BC000FF11C4E903712846BDE8F843022200F032
:106BD00061B8002600966846676100F02BF870B136
:106BE000012810D0022817D003281FD007204346C1
:106BF0002A463946E061FFF71BFFBDE8F8832846C7
:106C0000FFF7A4FFF9E70F2D04D201223146681CDB
:106C1000A66006E00520EAE735B101220021681EE2
:106C2000A66000F037F8E8E70620E0E70098DEE726
:106C3000EC3B002010B51649144A144C0B698968C6
:106C4000D26864698A4201D98C4219D88A4201D239
:106C50008C4211D38A4201D9521A00E08A1A8C421E
:106C600001D9611A00E0091B9A4203D3994201D36A
:106C7000002010BD9A4201D2012010BD994201D2DC
:106C8000022010BD03210160084610BDEC3B00202E
:106C90001C270020074B30B49C69641C9C61586021
:106CA0001A708AB2C1B20448044B406830BC02F08A
:106CB0004DB80000EC3B00201C270020956B200005
:106CC00070B5074C054620212046FBF797FD0021B3
:106CD0002846A160BDE870400122FFF7DBBF00003D
:106CE000EC3B0020F8B51D4C00250E460095E169EF
:106CF000491CE161C4E90162E168C4E90301184982
:106D00008968814201D2401A00E0081A6169814213
:106D100001D9C4E90502684600F024F840B1012811
:106D20000BD002280FD0032811D00098A06200E0F9
:106D3000A562204600F098F8F8BD012084F82000F4
:106D40003046A16906E0A1683046491C02E0A1680E
:106D50003046491E00F04AF8F8BD0000383C0020DB
:106D60001C270020F0B51F4A1F4DD368A9688B422D
:106D700001D95C1A00E0CC1AED68A54210D2576A1E
:106D8000012F0DD092F82040012C09D0154CD66966
:106D90004FF0010CA569A468BE4203D3A54213D1EC
:106DA0000020F0BD012E08D916698E4201D98B4210
:106DB000F4D38E4201D28B42F0D88B4208D9B4F57D
:106DC000FF7F08D9092109E082F820C00120F0BD29
:106DD0001CB10320F0BD0220F0BD0A210160042097
:106DE000F0BD0000383C00201C2700208AB2C1B250
:106DF0000248034B406801F0A9BF00001C27002097
:106E0000E56C200070B50D46044616462C21094855
:106E1000FBF7F4FC074B0020B2B283F82000401EC1
:106E20005C6258610448E9B2044B4068BDE87040B8
:106E300001F08CBF383C00201C270020E56C2000AE
:106E400010B501F06BFF00280AD00648007818B191
:106E5000BDE8104000F02EB8BDE81040FFF708BEB6
:106E600010BD0000643C002000B500F007F80249A6
:106E70000120886100BD0000CC3B00200B490122AD
:106E80000A71826A8A60C269CA60C2680A6142681D
:106E90004A6182688A61C26805488068824201D975
:106EA000101A00E0801AC861704700007C3C002086
:106EB0001C2700202DE9F04101F09EFF804601F0E3
:106EC000ADFF07460A48094C20214669256820463F
:106ED000FBF794FC6D1C0020256020713A4641466A
:106EE0003046BDE8F041FFF78DBF00007C3C00203C
:106EF0001C27002010B50E4C2069401C206101F0B9
:106F0000B3FFE06001F078FF606001F087FF094A9D
:106F10000021A06011606161E3692BB10246217913
:106F2000E068BDE8104018470120A06110BD0000D6
:106F3000CC3B002000E5004070B5164890F80014E6
:106F4000154D28680122C0F30220401C8240881899
:106F5000C0B280F31188114C0F4821680C30626870
:106F6000A36880E80E00232204F10C010C48FBF713
:106F7000E9FB216B4FF0E020C0F80011616BC0F815
:106F80000411A06B286007484068C0B280F31188E4
:106F900070BD000002E000E00CED00E0103D0020BC
:106FA00000E400E0DC270020EFF311800D49486089
:106FB0004FF0E021D1F800210B480263D1F8041111
:106FC00041630A4909680A4A89B211438163074942
:106FD0000C310EC9016042608360232205490C30E8
:106FE000FBF7B0BBDC270020103D00200CED00E0DB
:106FF0000000FA0500E400E02DE9F0410546002D0F
:1070000031D00024032D01D8184E01E04FF47A76D8
:10701000174F21E0B4421BD9164C206820F0804065
:107020002060206840F000402060206820F0004090
:107030002060002002F0DAF80520F9F573FD2068E1
:1070400040F0804020602846BDE8F04102F0CEB814
:107050000120F9F567FD641CB86800F07F00022884
:10706000D8D338683868BDE8F081000040420F008E
:1070700000E0004000A8004070B5054605EB013473
:107080002646A4F58074204601F094FF40B12646C0
:10709000A4F58074200501D1A4F58074AC42F2D827
:1070A000304670BD7CB500260C48046804F5807439
:1070B000456808226946204603F080FB684602F0D6
:1070C0002CF848B104F58074200501D104F58074D2
:1070D000AC42EED330467CBD2646FBE7203500208F
:1070E0002DE9F04704460E4617461D464FF00009AD
:1070F0000020286068601448D0F8F88020051DD171
:1071000004F580741AE008222946204603F056FB55
:1071100016B12888B0420BD127B1287900F00F00B2
:10712000B84205D1284601F0F8FF08B1A14607E0B2
:1071300004F58074200501D104F580744445E2D340
:107140004846BDE8F08700002C340020F8B505461D
:107150000E4617461C4600953A466946304605F0ED
:1071600057FA78B10020206060600822214600981C
:1071700003F024FB204601F0D0FF08B10098F8BDD1
:107180000020F8BD23463A4631462846FFF7A8FFBF
:10719000F8BD2DE9F04106460F46B079400719D5F4
:1071A000304601F0BAFFA8B108244FF6FF78351930
:1071B000288840450ED0284601F0AFFF50B12888FE
:1071C000B84202D1E0B2BDE8F081688808340444D6
:1071D000F82CECD30020F6E738B503F039FC1D4C51
:1071E00000224FF48041204602F0F8FB0122D10337
:1071F000204602F0F3FB00224FF48031204602F0DB
:10720000EDFB01225104204602F0E8FB012291042B
:10721000204602F0E3FB0122D104204602F0DEFB0F
:1072200000208DF80000A3208DF8010002208DF8C9
:1072300002000098FAF56AFE03F0CCFB012003F08F
:1072400004F80548016821F000610160BDE838409C
:1072500003F028BC000001400CAA00400249496824
:10726000002900D008477047C828002070B50446A0
:1072700000BFFCF785FE05460120FCF711FF094819
:10728000047024B912220849084803F053F81DB9C4
:107290000020FCF705FF02E00120FCF701FF00BF22
:1072A00070BD0000AC260020783A0020002000E0ED
:1072B00010B5074840680749486006480830102262
:1072C0000349083103F036F803200249086010BD75
:1072D000303A0020002000E000200349096800291E
:1072E00000D0084770470000C828002070B500BFD4
:1072F000FCF746FE05460120FCF7D2FE0B48047859
:1073000034B912220A490B4803F014F8FFF7D0FFF2
:107310000120064908701DB90020FCF7C1FE02E0FB
:107320000120FCF7BDFE00BF204670BDAC2600204A
:10733000002000E0783A002013B501216846FEF7EE
:1073400073F901201CBD00002DE9F04788B0044608
:107350002D4ED6F8F80000F6FF70070B3F034FF4F0
:1073600080594FF0010A07947178D6F8F40000EBC9
:107370000130494603F0E1F907A92046FFF7FCF880
:10738000054628000AD02A462046079905F006FE41
:10739000200B00032A460799FFF763FA4FEA1438D7
:1073A0004FEA08384946404603F0C7F901A801F002
:1073B0009DFDD6F8F400201A0AEB10308DF8140069
:1073C0009DF8151008448DF8160001A805F01EFE62
:1073D00075B129464046FFF7A7F800200090717864
:1073E000D6F8F400012200EB0130694603F0EBF916
:1073F00004F58054BC42B6D37078002101F0BAFD88
:1074000008B0BDE8F08700002C34002070B502F011
:10741000FCFF094D2120287005F09CF8FFF742FE83
:1074200018B1FFF791FF044600E00A2420202870DD
:1074300002F0EAFF204670BD2C34002002460021F5
:107440000BE0084850F83130501E834204D1054803
:1074500000EBC10040687047491C1029F1DB002097
:10746000F9E70000C03A0020002101E0491C400873
:10747000C207FBD00846704770B5044600BFFCF752
:107480007FFD05460120FCF70BFE00201449087023
:107490001448154908601548154908601222154915
:1074A000154802F047FF154812494860032008605C
:1074B0001222134802F03EFF12220F490D4802F03B
:1074C00039FF882C01D004F021FF1DB90020FCF702
:1074D000E7FD02E00120FCF7E3FD00BF70BD000006
:1074E000AC2600206D722000CC280020ED72200018
:1074F000C8280020002000E0783A0020003F00204B
:10750000303A002008B511480068416C002901D0CC
:10751000491E4164416C89B1016CC96801640988E4
:107520000B4A136823F4702343EA01411160016C94
:10753000001D8A68496800F03BF908BD00210091F0
:1075400001680029F9D06846884708BDD825002081
:1075500000A8004070B506460D4D00242C6001F0D7
:10756000EFFD002000F040FA80B1304600F09AF8BC
:10757000F46200213046FDF77DF8064804620120E0
:107580002860034980390860002070BD012070BD6B
:1075900094581C4200E0004030B587B005460C46C8
:1075A000684603F0D1FE10B1002007B030BD9DF851
:1075B0001A00A072BDF804002081BDF80200E0802E
:1075C000E86830B1BDF818002080BDF81600608072
:1075D0002CE02969032907D0072913D00A2918D0DC
:1075E0000F291DD00020E0E768680D2806D0BDF8FF
:1075F00008002080BDF80600608017E0BDF800009C
:107600002080F7E7BDF80C002080BDF80A006080FC
:107610000CE0BDF810002080BDF80E00608005E091
:10762000BDF814002080BDF8120060800120BCE786
:1076300090F828007047000070B5044694F82800C0
:107640000026002810D115480660144880380660CE
:107650004FF47A712046FDF7DBF810B10120E062AB
:1076600070BD204600F01FF80D4D286820F08040C6
:107670002860204601F074FD002000F0B5F958B1F3
:10768000286840F0804028603546E66201212046A7
:10769000FCF7F0FF284670BD012070BD94581C42D5
:1076A00000A80040704770472DE9F0470746904614
:1076B00000264FEA58040D4600290AD0B8F1000F01
:1076C00007D097F82800012805D002263046BDE8EB
:1076D000F0870120FBE70020F86202213846FCF722
:1076E000C9FFDFF8A09005E0D9F8080040F4803029
:1076F000C9F80800D9F80800C0F300200028F3D129
:10770000D9F8040020F48030C9F80400786900F04A
:107710006BF910B14FF47A7A1AE00120D7E751469D
:107720003846FDF7C5F80646A6B9D9F8080000F0B6
:107730007F02A24200D92246002106E0D9F80000CB
:107740002880000C68802D1D491C9142F6D3A41A94
:10775000002CE4D154B95FEAC87007D051463846CE
:10776000FDF7A6F810B9D9F800002880002000F035
:107770003BF920B101213846FCF77CFFA6E7012048
:10778000A5E7000000E0004007490A6822F08042B7
:107790000A60026B0A60054A406B5060086840F05E
:1077A000804008607047000000A8004000E00040F2
:1077B0002DE9F04104460F4616460025002F08D05B
:1077C0003EB194F82800012809D002252846BDE8DA
:1077D000F081E06A40F00800E0620120F7E74FF036
:1077E0000008C4F82C8002212046FCF743FF606AA1
:1077F000C069202804D0E06A40F00800E06201255A
:1078000025B101212046FCF735FFDFE7102001F00C
:10781000F7FC284D686820F480306860102E05D28F
:10782000606A002203C802F010F805E0606A4FF4B5
:10783000004203C802F009F82662206AE061A761ED
:10784000616A1D480863616A1C488863606AC0F801
:107850003C8003E0A86840F48030A860A868C0F3CA
:1078600000200028F6D16868294640F4803068601E
:10787000206A012810D0206AA2694308606A00F0DB
:10788000C8FC05467DB1E06A40F00400E0620121D9
:107890002046FCF7EFFE99E70123A269606A00F039
:1078A000B8FC0546EEE7606900F09EF800288DD12F
:1078B00001208CE700E00040CD4520001946200063
:1078C00070B50446002594F82800022817D100203E
:1078D00000F08AF828B1606A90F82810022902D0D6
:1078E00009E0012070BD00F069FA05461DB1E06AAB
:1078F00040F00400E06201212046FCF7BBFE284670
:1079000070BD000005490A680263054A5268426377
:10791000086840F0804008607047000000A8004000
:1079200000E00040F0B50D462DED088B83B0164603
:107930001F4600210091019102916946FFF72CFE3C
:10794000012841D1BDF8000005F079FE41EC1A0B89
:10795000BDF8020005F073FE05F0FCFB41EC190BCD
:10796000BDF8060005F06BFE9FED191B53EC112BC3
:1079700005F0B0FC41EC1B0B002423E09FED160B3F
:1079800051EC190B53EC102B05F0EEFE41EC180BEB
:1079900035F8140005F053FE53EC1A2B06F024F8CA
:1079A00053EC182B05F096FC9FED0D1B53EC112B9F
:1079B00005F090FC53EC1B2B05F0D8FB06EBC40242
:1079C00003C2641CBC42D9D303B0BDEC088BF0BD2C
:1079D00000000000000059400000000000000040CE
:1079E000DE718A8EE4F25FBF2DE9F0410546DFF8D3
:1079F0006480D8F80C00C0F30240A84202D10120F4
:107A0000BDE8F081EFF31087012080F3108828464D
:107A100001F0ECFB2846FFF7EFFA00244FF6FF7663
:107A2000D8F80C00C0F30241A94205D00120F9F5B5
:107A300079F8641CB442F3D337B1012080F3108885
:107A4000B44205D10020DBE7002080F31088F7E77F
:107A50000120D5E700E00040F0B50D462DED068B86
:107A600083B016461F46002100910191029169469C
:107A7000FFF792FD012835D1BDF8000005F0DFFDCC
:107A800041EC190BBDF8020005F0D9FD05F062FBD1
:107A900041EC180BBDF8080005F0D1FD41EC1A0BC4
:107AA0009DF80A00FF2803D000281BD1002437E0EE
:107AB000002415E035F8140005F0C1FD53EC192B36
:107AC00005F092FF53EC182B05F004FC9FED161BFC
:107AD00053EC112B05F048FE06EBC40203C2641CF4
