:020000040020DA
:10200000E85701205920200009292000091E10004E
:1020100007292000FB212000552920000000000096
:10202000000000000000000000000000011E100081
:1020300005292000000000000B29200011292000A4
:10204000DFF810D000F0EAFB00F060F8004800472D
:1020500065972000E8570120014880470148004764
:1020600025292000859720000649074A0868504323
:1020700043F2390210440860400870470149086083
:1020800070470000CC2900206D4EC64110B5431AA0
:10209000934209D28318881803E010F8011D03F851
:1020A000011D521EF9D210BD40EA01039B0703D067
:1020B00009E008C9121F08C0042AFAD203E011F887
:1020C000013B00F8013B521EF9D210BDD2B201E033
:1020D00000F8012B491EFBD270470022F6E710B52D
:1020E00013460A4604461946FFF7F0FF204610BD86
:1020F00030B504460020034600E05B1C934203D247
:10210000E05CCD5C401BF8D030BD000070B5054CE4
:10211000054D03E0206820448047241DAC42F9D1DE
:1021200070BD000030D9200034D9200030B40446FE
:1021300096230800214604D0B62330BC002200F0CC
:1021400085BA20460021F8E70EB540F233410291EE
:102150000021CDE900110A460B4600F0B4FA03B0A5
:1021600000BD0EB540F2334202920022CDE90022BA
:10217000134600F0A8FA03B000BD20F00040C20DE5
:10218000C0F3160040F400007F2A02DA0020014666
:1021900070470021962A03DCC2F19602D0407047B6
:1021A000963A00F019BA70B5C1F30A5201F0004531
:1021B0000024C1F3130140F2FF3341F480119A422D
:1021C00001DA002070BD40F233439A42A2F233425A
:1021D00003DC524200F00FFA00E090402C43F1D0B3
:1021E000404270BD10B505F613F810B101F020FEA5
:1021F00010BDBDE810402CF6F9BAFEE702F034B885
:1022000058585247010000000554000000202000EB
:10221000002020005EEC924700010000000000005A
:1022200000000000000000000000000000000000AE
:10223000000000000000000000000000000000009E
:102240002DE9FE4F804681EA0300C00F0C46009046
:1022500021F0004123F00045B8EB0200A94105D26E
:102260004046214690461C460B46024623F000405D
:10227000104347D0270DC7F30A00C3F30A51029059
:10228000401A019040286BDAC3F3130040F4801B1E
:102290000098924620B10023D2EB030A63EB0B0BAC
:1022A00001985946C0F14002504600F095F90646A3
:1022B0000D4650465946019A00F0ADF910EB080062
:1022C0006141002487EA115284EAE7731A4340D03F
:1022D000009A62B3019A012A4FEA075215DC001BEB
:1022E00061EB02014FF0004202EA0752CDE90042E1
:1022F000001C41F5801132462B4600F0E4F903B092
:10230000BDE8F08F40462146F9E7001B61EB020172
:10231000001C41F5801300185B412018A2F500173E
:1023200047EB030140EAD570B6196D4111E06D0825
:102330004FEA360645EAC0754FEA0752001B61EBCB
:102340000201001C41F5801149084FEA30000019D4
:10235000514132462B4603B0BDE8F04F00F0A4B91E
:102360000098012240000023D0EB020263EBE073EF
:10237000009821464FEAE074B8EB000061EB0401DD
:10238000E9E783F000435BE781F0004158E72DE97E
:10239000FE4F81EA030404F0004421F00041009460
:1023A0004FF0000B23F0004350EA01045ED052EAE4
:1023B00003045BD0C3F30A54C1F30A552C44A4F2BE
:1023C000F3340194A0FB0254C1F3130141F48011D2
:1023D000C3F3130343F4801301FB024400FB034ED9
:1023E000840A970A44EA815447EA8357A4FB0768A2
:1023F00002958D0A05FB07854FEA932C04FB0C54CC
:102400002705029D4FEA065847EA1637B5EB08053F
:102410006EEB070C870E920E47EA811742EA831291
:10242000A7FB0201B6EB0B0164EB00042B0D43EAA2
:102430000C335E1844EB1C50DA465146E7FB0201B0
:10244000C5F313044FEA0B3343EA14534FEA043243
:10245000019C43EA0603A4F10C040294009CCDE91C
:1024600000B400F030F903B0BDE8F08F0020014661
:10247000F9E72DE9F04D81EA030404F0004B21F067
:10248000004514464FF0000A23F0004150EA0502CF
:1024900020D054EA01021DD0C5F30A570246C5F305
:1024A0001303C1F31300C1F30A5640F4801543F43B
:1024B0008013A7EB0608101BD64608F2FD3873EB15
:1024C000050002D308F1010801E092185B41B8F160
:1024D000000F03DA00200146BDE8F08D00204FF424
:1024E0008011064684460EE0171B73EB050705D3E3
:1024F000121B63EB050306434CEA010C49084FEA43
:10250000300092185B4150EA0107EDD152EA030016
:1025100012D082EA040083EA0501084305D0101BAB
:10252000AB4106D20122002306E000224FF0004317
:1025300002E06FF0010253101AEB06004CEB085159
:1025400010EB0A0041EB0B01BDE8F04D00F0ACB818
:10255000C1F30A5210B5C1F3130140F2FF3341F445
:1025600080119A4201DA002010BD40F233439A42B2
:10257000A2F2334203DC524200F03DF810BD90401D
:1025800010BD00F0004230F000400AD0C10D01F54E
:102590006071C0F3160042EA0151C20840071143BE
:1025A000704700200146704730B5041E71F10004E9
:1025B00004DB4FF00044404264EB0101141E73F150
:1025C000000405DB1C464FF00043524263EB04035A
:1025D000994208BF904230BD202A04DB203A00FA1D
:1025E00002F1002070479140C2F1200320FA03F36A
:1025F000194390407047202A04DB203A21FA02F068
:102600000021704721FA02F3D040C2F1200291402C
:10261000084319467047202A06DBCB17203A41FAB7
:1026200002F043EAE07306E041FA02F3D040C2F15F
:10263000200291400843194670470029A8BF7047FF
:10264000401C490008BF20F00100704710B4B0FAE8
:1026500080FC00FA0CF050EA010404BF10BC704783
:1026600049B1CCF1200421FA04F411FA0CF118BF9D
:10267000012121430843A3EB0C01CB1D4FEA00616C
:102680004FEA102042BF002010BC704700EBC3503F
:1026900010440029A4BF10BC7047401C490008BF6B
:1026A00020F0010010BC704710B5141E73F1000437
:1026B00008DA401C41F1000192185B411A4301D134
:1026C00020F0010010BD2DE9F04D92469B4611B15E
:1026D000B1FA81F202E0B0FA80F220329046FFF7C0
:1026E0007BFF04460F4640EA0A0041EA0B015346CD
:1026F0005A46084313D0114653EA010019D0C8F1D5
:1027000040025046FFF777FF05460E4650465946B1
:102710004246FFF761FF084305D0012004E0204650
:102720003946BDE8F08D0020054346EAE0762C43AB
:1027300037430A986305E40AA0EB08000022FD0A6B
:1027400044EA47540A3002D500200146E9E7010572
:1027500010196941DDE9084500196941BDE8F04DEE
:10276000A2E700002DE9F041054621F000400C46AB
:10277000284309D0C4F30A5040F23341884205DDB2
:1027800028462146BDE8F0812846FBE740F2FE31AD
:10279000884210DC0CDB4FEA043040EA155050EA66
:1027A000053105D0104804F0004101430020E9E75D
:1027B00000200146E6E7A0F233404642C6F140025F
:1027C00028462146FFF708FF074688462846214647
:1027D0003246FFF710FF43463A46FFF765FF3246A1
:1027E000BDE8F041FFF7F8BE0000F03F30B5041E31
:1027F00071F1000404DB4FF00044404264EB01013E
:10280000141E73F1000405DB1C464FF000435242D6
:1028100063EB04038B4208BF824230BD064C074D78
:1028200006E0E06840F0010394E8070098471034A0
:10283000AC42F6D3FFF708FCF0D8200030D92000D6
:1028400070B58C1810F8015B15F0070301D110F872
:10285000013B2A1106D110F8012B03E010F8016B9F
:1028600001F8016B5B1EF9D12B0705D40023521E22
:102870000DD401F8013BFAE710F8013BCB1A921C8A
:1028800003E013F8015B01F8015B521EF9D5A14288
:10289000D8D3002070BD000010B5122000F068F8F9
:1028A00002F006FC04490446496A88472046BDE810
:1028B000104002F0BFBB00004427002010B52CF6EA
:1028C00081F8022818D00D4CD4F8880220F00100BD
:1028D000C4F888024FF0E0214FF00050C1F88002A8
:1028E00004F5227401F01EFE05484168491C416050
:1028F000206840F00100206010BD000000E00040B2
:10290000C8270020FEE7FEE7FEE7FEE703F072BA05
:10291000FEE700000249096801F0070101707047F5
:1029200000A000400248016841F470010160704756
:1029300088ED00E002480068001D03F083BC000041
:10294000D026002002484068001D03F07BBC000038
:10295000D0260020FEE7002809DB00F01F0201213D
:1029600091404009800000F1E020C0F880127047DB
:10297000002809DB00F01F0201219140400980007E
:1029800000F1E020C0F880127047002809DB00F059
:102990001F02012191404009800000F1E020C0F8B1
:1029A0008012704700280DDB00F01F0201219140CA
:1029B0004009800000F1E020C0F88011BFF34F8F84
:1029C000BFF36F8F7047002809DB00F01F02012161
:1029D00091404009800000F1E020C0F800117047EC
:1029E000002809DB00F01F0201219140400980000E
:1029F00000F1E020C0F800117047002809DB00F06A
:102A00001F02012191404009800000F1E020C0F840
:102A10000011704700280FDB4109890001F1E02116
:102A2000D1F8001100F01F0201209040014201D0B6
:102A3000012070470020704700207047002804DB09
:102A400000F1E02090F80004704700F00F0000F162
:102A5000E02090F8140D7047002804DB00F1E0201E
:102A600090F80004704700F00F0000F1E02090F8AB
:102A7000140D704702480068C0F302207047000040
:102A80000CED00E0EFF31080704700000000000044
:102A90002DE9F0412DED020B9FED3D0B2DED028B4D
:102AA0009FED3D8BDDE90254C4F30A50A0F2FF36DE
:102AB000142E37DA002E18DA53EC102B9DED020B92
:102AC00051EC100BFFF7BCFB53EC182BFFF76CFD20
:102AD00057D2002CBCBF4FF00044002551DB54EA14
:102AE000050018BF2E4C1BD14BE02E4820FA06F7EC
:102AF00004EA070028431FD053EC102B9DED020B76
:102B000051EC100BFFF79CFB53EC182BFFF74CFD1F
:102B100037D2002C03DD4FF48010F0400444BC4356
:102B200000252EE0332E07DCA6F114004FF0FF3114
:102B300021FA00F73D4206D19DED020BBDEC028B60
:102B400002B0BDE8F08153EC102B9DED020B51EC6F
:102B5000100BFFF719FC53EC182BFFF725FD10D2D3
:102B6000002C0DDD142E08BF641C09D0C6F1340002
:102B7000012101FA00F02844A84238BF641C054630
:102B8000BD43CDE902549DED020BD7E700000000E4
:102B90009C7500883CE4377E0000000000000000C7
:102BA0000000F03FFFFF0F0010B52DED020B2DEDE3
:102BB000088B84B09DED0C0B51EC100BFFF7D2FD90
:102BC00041EC180B9DED0C0B53EC182B51EC100B3A
:102BD000FFF7D7FB41EC190B0D989FED290B10F077
:102BE000004F53EC102B51EC190B9FED21AB9FEDD7
:102BF00022BB0ED0FFF7FAFD0ED953EC1B2B51EC84
:102C0000190BFFF7D1FC1CD214E000BF41EC180BEC
:102C100017E0FFF7EBFD06D253EC1A2B51EC180B23
:102C2000FFF7AFFBF2E753EC1B2B51EC190BFFF74F
:102C3000BBFC06D853EC1A2B51EC180BFFF700FB2A
:102C4000E4E78DED028B9DED0C0B18EE901A10EE63
:102C5000900A8DED000B61F31E0003909DED020BB9
:102C600004B0BDEC088B02B010BD000000000000F5
:102C7000000000000000F03F000000000000E03F06
:102C8000000000000000E0BF02E008C8121F08C1F9
:102C9000002AFAD170477047002001E001C1121FDD
:102CA000002AFBD1704780F3108870472DE9F74F59
:102CB00007460298DFF86CA1DFF86C814FEA500BF1
:102CC0005A48019D5C465646CAF80000D8F80420D0
:102CD0003F2060F30502C8F80420DAF8000020F471
:102CE000700040EA0750CAF80000DAF8000020F44B
:102CF000702040EA0740CAF800000D2F02D00E2FC6
:102D000004D007E0306840F4004002E0306840F44E
:102D100080403060306840F400503060306820F00F
:102D200060503060306820F00F0040F003003060E9
:102D3000002000F0AFF8012872D13168B24641F0AE
:102D4000804131600020424609E0D8F8083043F461
:102D50008033C8F80830811C00F1010005D091686B
:102D60009046C1F300210029EFD1072000F092F82E
:102D7000012855D142E000264FF47A7924E04E45EF
:102D80001ED9DAF8001021F08041CAF80010DAF8F4
:102D9000001041F00041CAF80010DAF8001021F0EC
:102DA0000041CAF80010002000F074F8012837D163
:102DB0001F480169491C01610520FDF5B3FE7FE74D
:102DC0000120FDF5AFFE761CD8F80800C0F3002006
:102DD0000028D4D0D8F80800434600F07F02A24271
:102DE00000D92246002006E0196825F8021B090CCC
:102DF00025F8021B401C9042F6D3A41A002CBAD12D
:102E00000298C00707D040468168C1F3002100291D
:102E1000FAD000682880BDE8FE4F002000F03AB8E4
:102E2000BDE8FE8F00A8004000E000400A07080748
:102E3000C82700202DE9F04112490446002008600F
:102E4000104980390860104D686A104E00F0010189
:102E500049420140F061C8050DD440F20117A8694C
:102E6000B84208D024B10120641EFDF55BFEF6E7F0
:102E70000020BDE8F0810648006870616868B061B4
:102E80000120F6E794581C4200E00040C8270020CB
:102E900000A800402DE9F041104F0546F868C0F346
:102EA0000240A84217D0F86820F007002843F860D5
:102EB00000244FF6FF76F868C0F30240A84205D020
:102EC0000120FDF52FFE641CB442F4D3B44202D1BC
:102ED0000020BDE8F0810120FBE7000000E0004099
:102EE000F0B50C462DED088B89B006469FED559B3D
:102EF00020216846FFF7F1F8B0EE498AF0EE698AC2
:102F0000102269463046FFF7D1FE00256F4607EBD9
:102F10004500008AFFF718F953EC182BFFF790F9DA
:102F20006D1C41EC180BEDB2082DF0D39FED470B53
:102F300051EC180B53EC102BFFF729FA41EC180B4E
:102F40009FED44BB0D2E02D00E2E30D072E0608873
:102F5000FFF7FAF853EC1B2BFFF78BFA9FED3F0BB3
:102F600041EC190B51EC100B81F0004141EC1A0BB4
:102F7000E088FFF7E9F853EC1A2BFFF708FA41EC69
:102F80001A0B2088FFF7E0F853EC182BFFF7FCF939
:102F900053EC1A2BFFF76DFA9FED321B53EC112BFC
:102FA000FFF767FA53EC192BFFF74AF940E0A07ED0
:102FB000FF2801D0E8B13DE09FED2C0B51EC100B48
:102FC00081F0004141EC1A0BE088FFF7BDF841ECBD
:102FD000190B2089FFF7B8F853EC182BFFF7D4F939
:102FE00053EC192BFFF745FA53EC1A2BFFF7CFF9E7
:102FF0001EE0A088FFF7A8F841EC190BE088FFF766
:10300000A3F881F0004141EC1A0B2089FFF79CF8EE
:1030100053EC182BFFF7B8F953EC1A2BFFF729FAEA
:1030200053EC192BFFF7B3F953EC1B2BFFF721FAE5
:1030300041EC190B09B0B0EE490AF0EE690ABDEC9B
:10304000088BF0BD00000000000000000000000040
:103050000000C03F000000000000594000000000D8
:1030600000000040DE718A8EE4F25FBFE2E1E1E140
:10307000E1E10E4010B51A4940F21A444FF4B9721A
:103080000B694FF496710C3BA3420FD90424BE2860
:1030900001DC0C241BE0DC2801DC082417E0FA2802
:1030A0000EDD884210DD904211DD0FE0BE2801DC0C
:1030B0000B240CE0DC2801DC072408E0FA2801DC02
:1030C000062404E0884201DC052400E003242046B5
:1030D00005F00AF82046BDE8104004F0F1BF0000FA
:1030E000D8A6002010B50B4C2089012811D194F8E6
:1030F0004B0000280DD1608FFFF726F89FED061BCF
:1031000053EC112BFFF743F9FFF722FA218F084404
:10311000208710BD70A500209A9999999999A93F87
:1031200010B52BF643FF024601230621184614F67C
:10313000A1FE01210170BDE8104014F6E7BE14F6AF
:10314000E5BE2DE9F04104468846002640880CF68D
:103150004BF80546E84310F0FF0F14D02788A088ED
:103160000CF642F80246E3882946384614F682FEF9
:1031700020B1A0F10C010EB122884A81E288A8F8A2
:103180000020BDE8F081062562884FF45F670126C4
:10319000E9E700000748084901E0401E04D00A683A
:1031A000C2F34002002AF8D108B100207047032082
:1031B0007047000020A1070038A7004030B597B045
:1031C00005460C461C22414910A8FEF75FFF1C2251
:1031D0003E491C3109A8FEF759FF20223B493831EE
:1031E00001A8FEF753FF94B13949062008F0A2FB6D
:1031F0003849152008F09EFB34496C39A1F12C02A6
:10320000052D61D2DFE805F0060606213900E5202C
:1032100017B030BD207931F810001190607932F884
:1032200010001290A07913902068109027488438DD
:1032300050F8350021880904090C04D018B110A9F0
:1032400002F01DFD39E0E420E2E7207901EB4000C7
:10325000808A0A90607902EB4000C0880B90A079C8
:103260000C9020680990207810F0FF0F03D009A877
:1032700002F0F8FA21E0E420CAE72079031F042BCA
:1032800001D8E720C4E7022819D001200290207954
:1032900001EB4000008D0390607902EB40008089D3
:1032A0000490A079059020680190207810F0FF0F1D
:1032B00008D001A9002002F01DFD0020A8E702208F
:1032C0000290E4E7E420A3E7E620A1E7D8D52000B8
:1032D000111E10000D1E100010B5084801780029BD
:1032E0000AD10121017006482BF6DCFABDE8104036
:1032F000002104482BF6D8BB10BD0000CC260020CE
:103300001D1E10001DA820002DE9F04104460D46A9
:103310001746002D04D0012D02D00120BDE8F08118
:10332000E4B1DFB1607801281AD0EFF311860220F2
:10333000FFF784FB8046FFF79DFB401C0121814085
:1033400008EB0100C0B280F3118800206070A57006
:10335000E761F0B280F311880020DFE70120DDE7AC
:103360000620DBE710B50446002C0CD0204600F008
:10337000B3F9FF2060700021A160E160216161610B
:103380000020E06110BD012010BDF0B5DDE907456A
:10339000059981614FF47A76A2FB061C03FB06C3F4
:1033A000002702FB0732C0E9021209196A41C0E98D
:1033B000041200210162F0BD2DE9F0410446002C09
:1033C00013D0EFF311850220FFF738FB0746FFF714
:1033D00051FB401C012606FA00F03844C0B280F3CD
:1033E00011881248002121620EE00020BDE8F08122
:1033F000D4E90432D1E9047CDB1B72EB0C0202D26B
:10340000016A216203E00846016A0029F0D10462E2
:103410006670064810380168491C0160016B416004
:10342000E8B280F311880120E0E70000585C00203A
:103430002DE9F04105460024EFF311860220FFF745
:10344000FDFA0746FFF716FB401C01218140781862
:10345000C0B280F31188134A106BE8B115B102F1C4
:10346000100010E00446206A10631068401E1060CF
:103470000CE0A94206D11168491E1160296A016257
:103480002C4603E00846016A0029F2D124B100204D
:1034900020626070106B5060F0B280F3118820469B
:1034A000BDE8F081485C00202DE9F041EFF3118781
:1034B0000220FFF7C3FA0446FFF7DCFA401C0121A3
:1034C00081406018C0B280F31188114D002608E0D9
:1034D0002078012804D1E16909B1A06988472670E4
:1034E0002D6A2C6A002CF3D1094D103D07E0E169EB
:1034F00009B1A06988472670206AA8632662AC6B70
:10350000002CF4D1F8B280F311880120BDE8F081DD
:10351000585C00202DE9F041EFF311870220FFF7FE
:103520008DFA0446FFF7A6FA401C012606FA00F0C1
:103530002044C0B280F311881D4DA5F110082DE084
:10354000D4E90430D8E902125B1A60EB0200D8E932
:103550001021D21A814124D326702046FFF768FF3C
:10356000A078012806D01248283000212162016885
:1035700061B10FE0D8E90220D4E902135118584193
:10358000C4E904102046FFF717FF07E0046005E0D8
:1035900001F1200001680029FAD104602C6A002C96
:1035A000CED1F8B280F311880120BDE8F08100008F
:1035B000585C00202DE9FF5F82460E4693464FF08F
:1035C0000008BAF1000F20D0414886421DD8E6B16C
:1035D000EFF311870220FFF731FA0446FFF74AFAAA
:1035E000401C012181406018C0B280F31188504610
:1035F00004F0C2FB10B19AF8010040B1F8B280F3B8
:1036000011880F2004B0BDE8F09F0120FAE705F013
:10361000DDFF04460D464FF47A7106FB01F02246A9
:103620002B46002104F042FBDFF8A890B0B1D9F896
:10363000040048B1D0E90410091B60EB0500C9E99A
:10364000021006F03DF804E00021C9F80810C9F89E
:103650000C104FF00108D9E9020106E0D9F8040086
:10366000D0E90421101B61EB0501CDE902013246CE
:103670000023CDF800B05046FFF787FE5046FFF715
:103680009BFE08F07BF84FF0E024D4F800014FF4E3
:10369000801510F4801F01D0012000E0002020B927
:1036A0001420FFF758F9C4F80051B8F1000F0AD000
:1036B000D9F80400D0E90431D9E90202181A61EB03
:1036C000020105F0B9FFF8B280F31188002099E7F4
:1036D000008AB907485C00202DE9F0410446002526
:1036E000002C39D0EFF311870220FFF7A7F9064627
:1036F000FFF7C0F9401C012181407018C0B280F36F
:1037000011886078012824D1144E7068A0420BD132
:1037100005F05CFFD4E90432181A62EB0102C6E935
:10372000020205F0CDFF01252046FFF781FE5DB1C5
:10373000706848B1D0E90421D6E90203101A61EBA0
:10374000030105F079FF04E01DB9706808B905F0C0
:10375000B7FFF8B280F31188BDE8F081485C002023
:10376000002070472DE9F04105460F46002D06D098
:103770002AB12C78022C04D3E820BDE8F081E520A2
:10378000FBE7304E05F1580046F82400D2E900313D
:103790000A466C30194607F0E7FD291D286D09F02F
:1037A000F5FB0028E9D156F82410281D086656F8C4
:1037B0002400076056F824001822083005F1400163
:1037C000FEF764FC204856F8241000EBC405686836
:1037D000486056F82400001D02F05AFC56F82400F8
:1037E000001D02F0E3FC184803221146103807F0D0
:1037F0006BF856F82410012081F8680056F8241060
:10380000002081F8FC0056F8241081F8FD0056F8DD
:10381000241081F8FE0056F8241081F8FF000B49AF
:103820000C2008F087F80A490D2008F083F895F974
:10383000010002F061FA95F9010002F06AFA002035
:103840009BE70000D026002040D62000352920002C
:103850004529200070B5022801D3E82070BD134C23
:1038600054F820304BB193F8685035B139B132B1CA
:1038700093F8FF50012D04D010E0E52070BDE42046
:1038800070BD002583F8FF5054F820305B68022596
:10389000C3F8885054F820305B681B6854F8200047
:1038A000001D02F031FD0028EAD170BDD0260020B5
:1038B0002DE9F04104461A4D55F824006C3007F00C
:1038C0006EFD82B2164600277AB155F8240090F8B2
:1038D000FD10012909D0802A0ED300F17C016C3043
:1038E000802207F077FD80260BE055F8240080F851
:1038F000FC700020BDE8F08100F17C016C3007F025
:1039000069FD55F8240080F8007155F8240032460E
:1039100000F17C01001D02F083FD0028EAD1E9E7F7
:10392000D026002070B50446022C01D3E82070BDDB
:10393000184D55F8240090B190F868307BB181B1F2
:103940007AB1002680F8FE6055F824006C3007F04C
:103950008DFD55F8240090F8FC1021B10AE0E52017
:1039600070BDE42070BD90F8FD1019B990F8681092
:10397000012901D0E22070BD012180F8FC10204611
:10398000FFF796FF20B155F8241081F8FC6070BD58
:10399000002070BDD02600202DE9FC4781460D4651
:1039A00016469A46DFF8A080D8F8FC00A84248DB0B
:1039B000D8F80001A84201DA01F00CFCD8F80001A7
:1039C000A8423CDB05F1F700F821B0FBF1F0C7B2EB
:1039D00001242FE0002000900190ADF80090ADF898
:1039E00002509DF8040067F3071064F303008DF89C
:1039F00004000521684600F0ABFB8DF805009DF83A
:103A0000060020F00300801C6AF382008DF8060097
:103A1000684600F0CEFB0146304600F099FB8DF879
:103A2000070032466946D8F8F80009F017FDF83665
:103A3000641CE4B2BC42CDD90020BDE8FC8705205F
:103A4000FBE70520F9E70000905C002008480068CB
:103A500000280CD090F82E10012908D190F83000E1
:103A6000FF2804D20349086840F08060086070476E
:103A7000B429002000000E4010B586B00446684608
:103A80002CF666F99DE80E0003A80EC00B4A891CAF
:103A900021F07041516010462CF608FB07482CF6C7
:103AA00079FB207F002806D1054991F80101054ADC
:103AB00001EB0010426006B010BD0000501700205E
:103AC00064170020718A200010B50378002B03D002
:103AD000FF2B01D0012010BD012205E0845C9C4237
:103AE00001D0012010BD521C8A42F7D3002010BD26
:103AF00010B507F087FD07F0A9FDBDE8104004F000
:103B000041BE0000144810B5016821F004010160B5
:103B1000016841F002010160016841F001010160AA
:103B2000016821F002010160016841F004010160B7
:103B30000949022010390860074940F601701C3914
:103B400008600120091D08600002FCF5EBFF03F688
:103B500057F90028FBD010BDE0A400402DE9F05F2C
:103B60000C465FEA00091FD0F4B1EFF31188022080
:103B7000FEF772FF1F4909680122C1F30221491CA7
:103B80008A401044C0B280F311881B480027C688C1
:103B9000B0F808B08588D0F800A000F063F8A04223
:103BA00004D21020BDE8F09F0120FBE7B34504D804
:103BB0003019A84201D3401B87B2E21B0AEB060072
:103BC0004946FEF763FA09EB0400C11B3A4650462A
:103BD000FEF75CFA301980B2A84201D3401B80B2D4
:103BE0000549C88008F0FF0080F3118802F000FD4D
:103BF0000020D7E70CED00E074A9002010B528B331
:103C000002681AB3808808B301B3114B19601149D7
:103C10000A608880002008811C1DC880206898B137
:103C2000216989B1616979B18047606800B18047D5
:103C300009482BF62BF909482BF6FEF808482BF615
:103C40002BF9204609F046F8002010BD012010BDD8
:103C50005829002074A9002025752000E953200070
:103C6000557520002DE9F041104FFD883C89EFF398
:103C700011860220FEF7F0FE0D4909680122C1F30A
:103C80000221491C8A401044C0B280F31188AC4222
:103C900001D9601B02E0B888401B2044401E80B25E
:103CA000F1B281F31188BDE8F081000074A9002011
:103CB0000CED00E010B54FF4AE711648FEF70DFAAA
:103CC000144800210170032202710723437101236C
:103CD00083600173027408244474022444610176F1
:103CE0004FF4E134046442648164C1640165436556
:103CF000094A0A49FFF736FD074809490830FFF726
:103D00007DFFBDE810404FF4805206490020FFF7C8
:103D1000A1BD0000C45A0020D82600201978200038
:103D2000E5652000C44A002040F4404005F082BE12
:103D300038B50C462178009140F44040694605F0C2
:103D400059FF002208B1227038BDBDF80010FF29CC
:103D500002D92270022038BD217038BD10B505F09F
:103D6000E9FF002800D0012010BD40F4404006F0DB
:103D700029B9000004490160044941600449816097
:103D80000449C160704700005D3D2000313D2000C6
:103D90006B3D2000293D200010B5044608F040FA94
:103DA00000280ED00748407802280AD13C2C01DDBB
:103DB000142002E0322C04DA1C20BDE8104003F08D
:103DC000B5BE10BD30290020411E022905D34FF495
:103DD000C07203A107A000F633BA074948707047C4
:103DE00072665F6764785F636169726F5F62302ECD
:103DF0006300000030000000302900202BF658B886
:103E00004FF0E0214FF48020C1F80001704700001E
:103E100008B50020009068462EF654FE0348816ADB
:103E2000002901D00098884708BD000044270020E1
:103E30002EF662BE10B504468AB0474800F0F2F98B
:103E40000020FEF67DF84549122007F073FD444935
:103E5000022007F06FFD43482BF624F8424806F095
:103E6000F5FE4249606C084441490860204600F074
:103E7000B3F84048D0F88403C00607D547F61220AF
:103E80002EF658FE0120FEF7F9F812E03A480090AD
:103E90003A4801903A48406908B1804709E001A9D1
:103EA000684607F0E7FB0098FEF7E8F801982BF664
:103EB00031FF34482AF6DEFF33482AF6E1FF334863
:103EC0002EF64CFE32482AF687FF32482AF68AFF41
:103ED00031482AF68DFF31482BF620F83049314B16
:103EE000606A0A781B7809781A44B0FBF2F0C0B215
:103EF00010FB01F1206AFFF781FFFFF789FF002027
:103F0000089008A82EF6D8FD0898FFF733FF206820
:103F1000009060680190A0680290E06803902069BA
:103F2000049060690590A0690690E0690790684672
:103F30002EF6E4FD2EF6CCFD1B48D0F84011C0F85B
:103F40004011D0F84411C0F844112BF627FEFFF7BA
:103F500057FF0AB010BD0000EB7D2000992820001B
:103F6000E5360000FDB220008DAD200000C0FF1F2F
:103F70000402002000E000402222111144443333A7
:103F80004427002029740000D974000055B7200090
:103F90003D43200085432000CD432000F5B22000A2
:103FA000C0D72000C1D7200000000E4010B5044645
:103FB0000120FFF709FF00F03FF800F03FF800F0A4
:103FC0003FF800F03FF800F03FF800F08DF8204691
:103FD000BDE81040FFF72EBF70B5068F0446458F31
:103FE000701E0B2804D8681E092801D8012000E0A3
:103FF000002030B940F2DB6309A22946304600F6C2
:1040000027F90B48068045800A48A18F0180E18F7F
:104010004180B4F84000BDE8704002F63FBF0000A8
:1040200073797374656D5F73646B2E6300000000B9
:10403000080200200C02002000F008B800F01CB8B4
:1040400000F02AB800F038B800F046B80549044836
:10405000086006490448086006490548086070473A
:104060007D8C20008402002085882000C003002071
:104070002171200088030020044903480860054995
:104080000348086070470000896E20006C03002020
:10409000E5712000700300200449034808600549C9
:1040A0000348086070470000D56E200074030020AC
:1040B0005172200078030020044903480860054934
:1040C0000348086070470000316F20008003002023
:1040D000C57220007C030020024901480860704737
:1040E0007D7320008403002000F076BB70B5A0F53E
:1040F0005451AD394FF48272B1FBF2F1CCB2104998
:1041000001EBC40505F58875082C05D30146ED23A0
:104110000CA2204600F69CF804EB841043F2AD514B
:1041200001EB8000A8800DF6B9FC0446044829463E
:10413000143004F635F92046BDE870400DF6BCBCDD
:104140000C0D00206C6C645F70617463682E6300FA
:1041500010B503460020002203E09C5C2044C0B25E
:10416000521C8A42F9D310BD7CB540F6886201FB2F
:1041700002F500226B46114600F060FE04463CB199
:104180002146684608F020FDF83D04F58070F0E710
:1041900028467CBD01F6FF72130B00F6FF72A3EBFD
:1041A000123252B2081AC2EB1020C0EB4010C0000D
:1041B00070470279110902F00F028A4207D1807814
:1041C000491EA1EB411100EBC100C0B200E0F82094
:1041D000F82800D9002070470A2802D840F6641158
:1041E00003E0242804D840F6661101EB4000704734
:1041F000252804D0262805D04FF41B60704740F6D0
:104200006210704740F67A107047A0F57C41703913
:104210000D2905D9A0F500511F3901D000207047A4
:104220000120704710B5002198B1EFF310840122EE
:1042300082F310880B4A52F8213063B1491C0329DC
:10424000F9DB5CB1012080F31088032908DB0B2027
:1042500010BD022010BD42F82100F2E70020F2E775
:10426000002010BDF0A50020174810B50068C0F36D
:10427000000038B1144808380068C0F3000008B1E5
:1042800007F0FAFA11480068C0F3000038B10F488F
:1042900008380068C0F3000008B100F019FD07F00D
:1042A00063FA00280FD003F005FB00280BD0012093
:1042B000FDF66DFE0648816821F480718160054835
:1042C00000218170C17010BD08E4004008E5004085
:1042D00000A000409C27002010B507F045FA20B14F
:1042E00003F0E8FA08B1012010BD002010BD000065
:1042F00010B50E491E2007F01DFB07F035FA88B1F6
:104300000120FDF61DFE0A49012008700949D1F877
:10431000801211F4403F00D1002007F07FFA1E20E8
:10432000FEF75EFB00F07AFC10BD0000FD212000CE
:104330009C27002000A00040704700000F48D0F8E4
:10434000AC1121F0FF0141F08801C0F8AC110C491B
:1043500051F8842F22F47F0242F408020A600A68AE
:1043600022F07F4242F09E420A60D0F8181221F0FB
:10437000700141F02001C0F81812704700100F4082
:1043800000200F400F48D0F8AC1121F0FF0141F0A0
:104390008001C0F8AC110C4951F8842F22F47F023F
:1043A00042F400020A600A6822F07F4242F07C5226
:1043B0000A60D0F8181221F0700141F04001C0F8F5
:1043C0001812704700100F4000200F400F48D0F81F
:1043D000AC1121F0FF0141F08801C0F8AC110C498B
:1043E00051F8842F22F47F0242F408020A600A681E
:1043F00022F07F4242F09E420A60D0F8181221F06B
:10440000700141F02001C0F81812704700100F40F1
:1044100000200F402DE9F041C0B00F4610494FF485
:104420008078D1F8F420497808EB0131561800F56E
:10443000807500240EE042466946304605F0B8FD1E
:1044400042466946284605F0B8FD06F5807605F532
:104450008075641CBC42EED340B0BDE8F081000022
:10446000905C00202DE9F043C3B0894615494FF414
:104470008078D1F8F420497808EB01315618070B01
:104480003F030024002201AB1146384600F0D6FC61
:10449000054685B1424603A9284605F089FD4246F6
:1044A00003A9304605F089FD05F5807706F580768D
:1044B000641C0F2CE6D3C9F8007043B0E0B2BDE82D
:1044C000F0830000905C0020124810B5016821F0D4
:1044D0000041016010490A78497842EA8103011DD0
:1044E0000A6863F31F720A60016841F000410160CD
:1044F0000A48D0F8881241F00101C0F88812084932
:104500001D2007F017FA4FF0E0214FF00050C1F8DE
:10451000000110BD04A90040C827002000E00040B1
:10452000BD282000F8B5EFF31086012080F3108835
:1045300006208DF800006846FEF7ECF90220FBF536
:10454000F7FF3220FCF5EEFA184C206820F400301A
:104550002060251F286840F002002860144F7889E9
:10456000FCF5E0FA286820F002002860B889FCF524
:10457000D9FA9DF80000FBF5DBFF0C4838300168E4
:1045800089020CD400682168C0F3044041F4003172
:104590002160216821F4F83141EA003020601EB129
:1045A000012080F31088F8BD0020FAE708A9004038
:1045B000782800202DE9F043C5B0DFF8B890D9F88D
:1045C000F850A5F5807500240027002619E041ABBE
:1045D00001220021284600F031FC044620000ED0C4
:1045E000BDF8041143AB0122D9F8F40000F026FC19
:1045F0000746380009D0A74207D0012605E0A5F5F7
:104600008075D9F8F400A842E1D3002E27D0429952
:104610004198CDE90101204601264FF0000803AA88
:1046200001A903F0B5FB90B1761CF6B29DF8080124
:10463000B6EB101F02D94FF0010808E0BDF80411D5
:1046400001AB3246284600F0F9FB0028E7D1B8F16B
:10465000000F07D02246394643A800F081F845B044
:10466000BDE8F083214641A8D9F8F82000F078F899
:10467000F5E70000905C002010B50C46A17921F010
:104680000301A171801D0122A11D05F096FC0448C3
:104690000168F83101602088BDE8104008F0C0BA18
:1046A0008C5D00202DE9F04FBFB080468A469146D0
:1046B000FF22F82101A8FDF709FD002708240020AA
:1046C00089F800004FF6FF7B08EB04052888584561
:1046D00019D0284603F077FBA8B1A8780830C6B2F5
:1046E0002888504504D13444012089F8000008E0AE
:1046F00001A8294638443246FDF7C8FC3444B819AD
:10470000C7B2F82CE0D3F82201A908F10800FDF7A0
:10471000BDFC3FB03846BDE8F08F00002DE9FC41FC
:10472000804600260D4FD7F8F4506B4600224146D4
:10473000284600F0B9FB04462CB169462046FFF735
:104740009BFF04F58075002CEFD1D7F8F400A84248
:1047500000D104263046BDE8FC810000905C0020BA
:104760002DE9FC4105460F461646287904090DE05F
:1047700029886B462246384600F060FB20B1B042E3
:1047800002D26946FFF778FF641EE4B2002CEFD135
:10479000BDE8FC812DE9FC410E4617466FF30B0086
:1047A000002512E000226B46114600F047FB04464C
:1047B000002C0CD0B4420AD269462046FFF75CFFB9
:1047C00004F58070B04202D26D1CBD42EAD3BDE850
:1047D000FC8180F8281070470649054808600749A1
:1047E000054808600748064981600749C16070476D
:1047F0005D742000680300206D71200064030020B8
:10480000696E200078290020B570200000B500F006
:1048100007F802490120886100BD0000FCA50020C6
:1048200030B5084C012504F8045B84E80F00064805
:10483000241F8068884201D2081A00E0401A606193
:1048400030BD000094A60020B027002010B503F072
:1048500095F8044618210548FDF73FFC034A00215E
:1048600020461170BDE8104000F018B994A6002051
:10487000F0B40E460146224F2048BB680578C0E9D7
:104880000821994201D9CC1A00E05C1AFF68A742BE
:104890000AD28769A74201D9C0E90642012D09D091
:1048A000022D1FD0032D27D113463246F0BC002025
:1048B000FFF7ACBF41619942016902D9491C81608F
:1048C00002E0491EC1608168C268914206D211446B
:1048D0004908016101210170016909E002210170AB
:1048E000816805E0C3699342DED003210170194657
:1048F0003046F0BC00F006B8F0BC70473CA6002083
:10490000B0270020054A936A5B1C93628AB2C1B249
:104910000348044B406802F0DBBF00003CA60020C7
:10492000B02700207148200070B50E4C05462C21A0
:104930002046FDF7D2FB0020A06040F2FF10FF22CE
:10494000C4E903024FF0FF30A061A06AE9B2401C45
:10495000A062012020700448044B4068BDE870400C
:1049600002F0B6BF3CA60020B0270020714820000E
:104970002DE9F843254C0746904620780D4601283E
:104980000BD0022813D008201346E0610A4601B07C
:104990003946BDE8F043FFF739BF40F2FF11C4E9E3
:1049A00003712846BDE8F843022200F061B80026F2
:1049B00000966846676100F02BF870B1012810D0AE
:1049C000022817D003281FD0072043462A4639461D
:1049D000E061FFF71BFFBDE8F8832846FFF7A4FF5F
:1049E000F9E70F2D04D201223146681CA66006E0CB
:1049F0000520EAE735B101220021681EA66000F01B
:104A000037F8E8E70620E0E70098DEE71CA600207C
:104A100010B51649144A144C0B698968D268646948
:104A20008A4201D98C4219D88A4201D28C4211D3D0
:104A30008A4201D9521A00E08A1A8C4201D9611ABD
:104A400000E0091B9A4203D3994201D3002010BD14
:104A50009A4201D2012010BD994201D2022010BD1C
:104A600003210160084610BD1CA60020B0270020CD
:104A7000074B30B49C69641C9C6158601A708AB200
:104A8000C1B20448044B406830BC02F021BF0000B2
:104A90001CA60020B02700207149200070B5074CEB
:104AA000054620212046FDF718FB00212846A1607D
:104AB000BDE870400122FFF7DBBF00001CA600200C
:104AC000F8B51D4C00250E460095E169491CE161D1
:104AD000C4E90162E168C4E90301184989688142B7
:104AE00001D2401A00E0081A6169814201D9C4E983
:104AF0000502684600F024F840B101280BD00228D6
:104B00000FD0032811D00098A06200E0A5622046D3
:104B100000F098F8F8BD012084F820003046A16923
:104B200006E0A1683046491C02E0A1683046491EF3
:104B300000F04AF8F8BD000068A60020B027002069
:104B4000F0B51F4A1F4DD368A9688B4201D95C1A82
:104B500000E0CC1AED68A54210D2576A012F0DD0A3
:104B600092F82040012C09D0154CD6694FF0010C69
:104B7000A569A468BE4203D3A54213D10020F0BDAD
:104B8000012E08D916698E4201D98B42F4D38E4288
:104B900001D28B42F0D88B4208D9B4F5FF7F08D9F7
:104BA000092109E082F820C00120F0BD1CB10320DA
:104BB000F0BD0220F0BD0A2101600420F0BD00001C
:104BC00068A60020B02700208AB2C1B20248034B79
:104BD000406802F07DBE0000B0270020C14A2000DE
:104BE00070B50D46044616462C210948FDF775FAA6
:104BF000074B0020B2B283F82000401E5C6258616F
:104C00000448E9B2044B4068BDE8704002F060BE61
:104C100068A60020B0270020C14A200010B502F08D
:104C20003FFE00280AD00648007818B1BDE81040C1
:104C300000F02EB8BDE81040FFF708BE10BD000020
:104C400094A6002000B500F007F802490120886111
:104C500000BD0000FCA500200B4901220A71826AF8
:104C60008A60C269CA60C2680A6142684A61826831
:104C70008A61C26805488068824201D9101A00E042
:104C8000801AC86170470000ACA60020B027002041
:104C90002DE9F04102F072FE804602F081FE0746E7
:104CA0000A48094C2021466925682046FDF715FA77
:104CB0006D1C0020256020713A4641463046BDE813
:104CC000F041FFF78DBF0000ACA60020B027002008
:104CD00010B50E4C2069401C206102F087FEE06098
:104CE00002F04CFE606002F05BFE094A0021A06009
:104CF00011606161E3692BB102462179E068BDE88A
:104D0000104018470120A06110BD0000FCA5002044
:104D100000E5004070B5164890F80014154D28685D
:104D20000122C0F30220401C82408818C0B280F3E8
:104D30001188114C0F4821680C306268A36880E824
:104D40000E00232204F10C010C48FDF79FF9216BA2
:104D50004FF0E020C0F80011616BC0F80411A06BA7
:104D6000286007484068C0B280F3118870BD000019
:104D700002E000E00CED00E040A7002000E400E0CD
:104D800070280020EFF311800D4948604FF0E021BA
:104D9000D1F800210B480263D1F8041141630A499C
:104DA00009680A4A89B21143816307490C310EC967
:104DB000016042608360232205490C30FDF766B92B
:104DC0007028002040A700200CED00E00000FA054C
:104DD00000E400E070B5054605EB01342646A4F575
:104DE0008074204602F03CFF40B12646A4F5807452
:104DF000200501D1A4F58074AC42F2D8304670BDD4
:104E00007CB500260C48046804F5807445680822C7
:104E10006946204605F0CCF8684602F0D4FF48B158
:104E200004F58074200501D104F58074AC42EED302
:104E300030467CBD2646FBE7845D00202DE9F04727
:104E400004460E4617461D464FF000090020286014
:104E500068601448D0F8F88020051DD104F58074EE
:104E60001AE008222946204605F0A2F816B1288843
:104E7000B0420BD127B1287900F00F00B84205D11C
:104E8000284602F0A0FF08B1A14607E004F58074AF
:104E9000200501D104F580744445E2D34846BDE8BD
:104EA000F0870000905C0020F8B505460E461746D6
:104EB0001C4600953A466946304607F0D7FE78B161
:104EC00000202060606008222146009805F070F8FC
:104ED000204602F078FF08B10098F8BD0020F8BD28
:104EE00023463A4631462846FFF7A8FFF8BD2DE98C
:104EF000F04106460F46B079400719D5304602F01A
:104F000062FFA8B108244FF6FF783519288840457C
:104F10000ED0284602F057FF50B12888B84202D17F
:104F2000E0B2BDE8F081688808340444F82CECD382
:104F30000020F6E738B505F049FA1D4C00224FF481
:104F40008041204603F0DCF90122D103204603F022
:104F5000D7F900224FF48031204603F0D1F9012225
:104F60005104204603F0CCF901229104204603F0BD
:104F7000C7F90122D104204603F0C2F900208DF8C0
:104F80000000A3208DF8010002208DF80200009897
:104F9000FCF5BCFF05F018F9012004F0A6FC05485B
:104FA000016821F000610160BDE8384005F038BAC1
:104FB000000001400CAA0040064A10B55060118163
:104FC0000548106110462BF671F8BDE81040014805
:104FD0002BF6E0B858AB0020DD4F2000AFF3008087
:104FE0001248417812480229C16A41F08051C162D9
:104FF000C16A41F00051C162C16A0BD041F4007135
:10500000C162C16A41F08061C162C16A41F08071D0
:10501000C162704741F48071C162C16A41F0806130
:10502000C162C16A41F00071F2E70000302900203E
:1050300000200F4002494968002900D00847704706
:10504000BC29002070B5044600BFFDF71BFD0546D6
:105050000120FDF728FE0948047024B912220849EE
:10506000084804F0B7FC1DB90020FDF71CFE02E063
:105070000120FDF718FE00BF70BD00004027002092
:10508000A8A40020002000E010B5074840680749A8
:1050900048600648083010220349083104F09AFCA1
:1050A00003200249086010BD60A40020002000E039
:1050B000002003490968002900D008477047000014
:1050C000BC29002070B500BFFDF7DCFC05460120BF
:1050D000FDF7E9FD0B48047834B912220A490B4860
:1050E00004F078FCFFF7D0FF0120064908701DB9D5
:1050F0000020FDF7D8FD02E00120FDF7D4FD00BF40
:10510000204670BD40270020002000E0A8A4002019
:105110002DE9F04788B004462D4ED6F8F80000F689
:10512000FF70070B3F034FF480594FF0010A0794BB
:105130007178D6F8F40000EB0130494604F0F7FE30
:1051400007A92046FFF78EF9054628000AD02A460F
:105150002046079908F03CF9200B00032A460799DE
:10516000FFF718FB4FEA14384FEA08384946404623
:1051700004F0DDFE01A802F00FFDD6F8F400201ABD
:105180000AEB10308DF814009DF8151008448DF8C6
:10519000160001A808F054F975B129464046FFF7FA
:1051A00039F9002000907178D6F8F400012200EB64
:1051B0000130694604F001FF04F58054BC42B6D3C7
:1051C0007078002102F02CFD08B0BDE8F0870000E7
:1051D000905C002070B504F00CFD094D2120287072
:1051E00007F0E6FCFFF70CFE18B1FFF791FF04464D
:1051F00000E00A242020287004F0FAFC204670BD4C
:10520000905C00200948D0F89C10D0F8A020C1F391
:105210001401D0F88000C2F31403C0F3C112581A6D
:10522000034951F8221048437047000000200F4006
:105230000CD7200001480078704700007829002032
:10524000024600210BE0084850F83130501E8342DE
:1052500004D1054800EBC10040687047491C102983
:10526000F1DB0020F9E70000F0A40020002101E0BC
:10527000491C4008C207FBD00846704770B5044679
:1052800000BFFDF7FFFB05460120FDF70CFD0020E8
:1052900014490870144815490860154815490860F4
:1052A00012221549154804F095FB1548124948602B
:1052B000032008601222134804F08CFB12220F49CD
:1052C0000D4804F087FB882C01D007F041FB1DB985
:1052D0000020FDF7E8FC02E00120FDF7E4FC00BF40
:1052E00070BD00004027002045502000C02900204C
:1052F000C5502000BC290020002000E0A8A4002008
:1053000080AB002060A4002070B5124C082004F18E
:10531000080512F6EFF9608968802089288069887D
:1053200071B101F0D1F8606028B169882046BDE80C
:10533000704000F001B92046BDE8704000F094B81C
:105340000022114601F00AF92046BDE8704000F045
:1053500001B90000F0AA002070B5154D062005F136
:10536000080412F6C7F928892080A97AA17080B2B2
:1053700081B101F0FBFB0146A078814212D30221EA
:1053800012F618FC686068B1A1782846BDE8704044
:1053900000F0D2B8002201F0F1FB2846BDE87040D1
:1053A00000F0D8B82846BDE8704000F05DB80000B5
:1053B000F0AA002070B50B4C072004F1080512F686
:1053C00099F9A9782888626801F0D8FB606818B15B
:1053D00012F65CFA002060602046BDE8704000F0E4
:1053E000B9B80000F0AA002070B5054606F018F91B
:1053F000184A05EB850102EBC1042060FF2084F808
:105400002400002125750A4601EB410004EB8000D1
:10541000C1F1FF038261491C80F8223011F0FF01C5
:10542000F2D02068806880470B49052012F644F9C5
:105430000A49062012F640F90949072012F63CF9FC
:105440000849082012F638F92046BDE8704000F0FF
:1054500081B80000F0AA0020ED562000595320002A
:10546000B55320000953200070B5044601231022D3
:10547000002141F2031012F6FDFC0025057011F623
:105480005FFEA560E560607C2074204600F046F871
:10549000BDE8704004202AF663BB000038B504461E
:1054A00014A0002500680090042204F10E01684653
:1054B000FCF71EFE98B10A2204F108010E48FCF721
:1054C00017FE98B104202AF65BFB0022A318521C99
:1054D000587AD2B21872092AF8D3284638BD002269
:1054E000114640F6034001F049FB01E0FDF718FECC
:1054F0000125F2E701030C00D3D7200010B50122EB
:1055000082740268034608301468034AA047BDE865
:10551000104004202AF634BB7955200030B4032112
:10552000817401680346034A0C680121A44630BC1B
:10553000113060477955200030B402228274D0E9DE
:105540000025034614682846A44630BC004A60473C
:105550007955200010B50021817401680346054A81
:105560000C6801211130A047BDE8104004202AF644
:10557000F7BA00007955200038B5044621B1012959
:105580001FD0A07CE8B975E0A07C78B104F10802D6
:10559000012823D0022847D0032867D0BDE838402F
:1055A00040F2773238A13AA0FEF54ABE607C394914
:1055B000E07401280AD0022808D0042806D0102858
:1055C00006D02046BDE83840FFF74EBF095C00E03A
:1055D000097C2046BDE83840FFF790BFE07C0128F9
:1055E00007D0022807D0102807D0217D40F2FE23E3
:1055F00024E0062029E0082027E069461046FDF750
:10560000A0FD38B1BDF8001041B160602046FFF741
:1056100093FF38BD2046FFF727FF38BDFDF78FFD0C
:105620002046FFF797FF38BDE07C01280CD0022808
:105630000FD0102814D0217D40F25A3301B012A2AD
:10564000BDE83040FEF504BE0720BDE8384012F644
:10565000D9B8104662684188008800F07FFF09E0F1
:105660006068FDF76CFD0020606003E02046FFF7F6
:1056700015FF20B12046BDE83840FFF76BBF20463C
:10568000BDE83840FFF74ABF6834746C2E630000F1
:1056900030000000C2D7200010B5044629B140F206
:1056A000E91208A109A0FEF5CBFD94F82410002012
:1056B00001EB410104EB81018861BDE81040052048
:1056C00012F6A0B86834746C2E63000073746174B1
:1056D0007573203D3D20525749505F4549465F5301
:1056E00054415455535F4F4B000000002DE9F041E9
:1056F000052011F6FFFF0027DFF888803D4605EB07
:10570000850108EBC10494F82400FF282DD000EB9C
:10571000400004EB800050F8181F29BB40680026A9
:1057200000B18047FF21002000EB400204EB820221
:1057300052F8183F23B1927AB24201D90146164677
:10574000401C10F0FF00EFD084F82410FF290CD08B
:1057500001EB410004EB80002268018C80695668EF
:105760002346094A491CB04701276D1C15F0FF0567
:10577000C5D0002F04D1BDE8F04102202AF6F0B9CF
:10578000BDE8F081F0AA0020995620002DE9F041F3
:105790000446984615460E46012702202AF6F0F9DF
:1057A00006F8014D032C19D004DC012C16D0022C74
:1057B00004D113E0042C11D0102C0FD040F2C543BB
:1057C00012A239462046FEF543FD39462046BDE883
:1057D000F04140F2DD430DA2FEF53ABD0D4B002134
:1057E0009E611D84C3F81C8093F82400FF280AD111
:1057F00083F824101868691C074A44683046A44698
:10580000BDE8F0416047BDE8F08100006834746C89
:105810002E630000F0AA0020995620002DE9FE43D7
:105820000546002403208DF8000000260C4F4FF0A1
:105830000108E8070BD008FA04F0019007EBC40058
:105840004068029057F8341009B168468847641CD4
:10585000A4B26D08761C082EEBDBBDE8FE830000C9
:10586000402A002000B58DB001680591416801F023
:105870000302069282680792C2680892026909923E
:1058800042690A9280690B9008090C9009A80FC818
:105890008DE80F0005A80FC802F0AAFA0DB000BDF0
:1058A0002DE9F041104DD5F80802C4B2D5F88400B6
:1058B000C0F340066FF00207002C0CD0D5F80802A8
:1058C000A043C5F80802E043C5F80802C5F8847093
:1058D0002046FFF7A3FF002E03D0002C01D1C5F80E
:1058E0008470BDE8F081000000A0004010B5064CB7
:1058F0000448206002F002FCFDF74CFC002121600E
:1059000010BD0000A2B4982B04A7004001218140E3
:10591000024802688A43026070470000F4260020B3
:105920000121814002480268114301607047000074
:10593000F42600202DE9F047044600272F48D0F830
:105940000090DFF8BC80D8F800A04846514600F02F
:10595000EFF8D8F80460FAF50DFE2A484FF47A7192
:105960000068B0FBF1F54D43D4E9000102F01AFCE8
:105970006168226801EB410000EBC10002EBC0034B
:105980000EE0D8F80400801BA84209D9206C40F032
:105990002000206403212046FEF71BFF032725E09B
:1059A000186CC0F340200028EBD0104602F0D4FB66
:1059B0000EE0D8F80400801BA84209D9206C40F002
:1059C0002000206403212046FEF703FF03270DE09B
:1059D000D4E9000102F0D1FB0028EAD1D4E90001AA
:1059E00002F0D5FB01212046FEF7F3FE5146484662
:1059F00000F07EF83846BDE8F0870000FCED00E0DE
:105A0000001000E05C00002070B50446002594F80A
:105A1000280001280DD094F8280002280FD094F80F
:105A20002800042862D0206C40F004002064012586
:105A30005CE0E16B002959D02046884756E0D4E964
:105A4000000102F089FBD4E9000102F096FB002876
:105A5000F9D1217922680831012000FA01F1C2F858
:105A6000101321792268083100FA01F1C2F81813E5
:105A700021792268083100FA01F1C2F82013217956
:105A80002268083100FA01F1C2F82813217922684E
:105A9000083100FA01F1C2F830132279216800FAC6
:105AA00002F2C1F838232279216800FA02F2C1F823
:105AB00040232279216800FA02F2C1F848232179B3
:105AC000226800FA01F1C2F850132279216890404F
:105AD000C1F85803D4E9000102F044FB012120463B
:105AE000FEF777FEE16B09B120468847284670BD76
:105AF00010B5EFF31083012282F31088094C22685D
:105B0000521E2260002A03D1074A1160074908602B
:105B10001BB1012080F3108810BD002080F3108895
:105B200010BD0000B8240020001000E0FCED00E0F3
:105B300010B5EFF31083012282F310880B4A14682A
:105B4000641C146040F08072094802600268D2014F
:105B5000FCD541F00100074908601BB1012080F32A
:105B6000108810BD002080F3108810BDB8240020DC
:105B7000FCED00E0001000E00A4610B501460020F0
:105B8000FCF5CAF908B1002010BD012010BDFCF5DC
:105B9000C9B910B51446FCF531FA08B1002010BDA2
:105BA000204610BD2DE9F74F00244FF4807AC0B095
:105BB00017468B461546524501D9564600E03E46EB
:105BC0000BEB0401884632466846FCF75FFA4098C2
:105BD0003246204481466946FCF556FAB8B9484633
:105BE00032466946FCF50AFA88B9404632466946AB
:105BF000FCF77EFA58B9AD1B0DD034445646B54279
:105C000000D82E46BC4202D2A019B842D8D90020F2
:105C100043B0BDE8F08F3846FAE700002DE9FE43B7
:105C200080460F463846FFF721FB85B20024DFF897
:105C300034900D4E59F8340040450ED105EB041058
:105C400085B28DF80040019706EBC50040680290D0
:105C500056F835200AB168469047641C032CE9DBEE
:105C6000BDE8FE8354D52000D029002010B5816BFB
:105C700089B28163002901D0FFF7D0FF10BD10B5B4
:105C80008EB0044608680690087900F0030007907B
:105C900088680890C868099008690A9048690B905C
:105CA00088690C90486800090D90142209A968467B
:105CB000FCF7ECF906A920460EC902F07EFA0EB0F8
:105CC00010BD000004480068012800D0002008B181
:105CD0000120704700207047285B1C420448006880
:105CE000012800D0002008B1012070470020704733
:105CF0002C5B1C4202F074BB002809DB00F01F0281
:105D0000012191404009800000F1E020C0F880129C
:105D10007047002809DB00F01F0201219140400973
:105D2000800000F1E020C0F8001170472DE9F0413B
:105D3000EFF311870220FCF781FE0446FCF79AFE80
:105D4000401C012181406018C0B280F311880020FE
:105D5000FDF76EFB0546254ED5E90412C6E9021291
:105D60002348081A72F11E0019D306F110000EE044
:105D7000DCE90412D6E90234B1EB030872EB040843
:105D800004D3C91A62EB0402CCE90412006AD0F809
:105D900020C0BCF1000FEBD10021B160F160A87808
:105DA00001280AD1D6E90230D5E90212591850412A
:105DB000C5E904102846FDF7FFFAF8B280F3118810
:105DC000FDF7A8FB706840B1D0E90421D6E90203D1
:105DD000101A61EB030103F02FFCE96909B1A8690E
:105DE0008847BDE8F041FDF75FBB0000485C00203C
:105DF0000010C32C10B503496FF001000860FFF7D5
:105E000095FF10BD84A000400022012803D107485F
:105E1000026007480260012905D10448001D0260A4
:105E2000034880380260002070470000285B1C4255
:105E300080581C4270B50446194D00202860194E48
:105E40003060206802F0CCFB204600F0E7F801202B
:105E50003060311D0860EFF3108180F31088124A22
:105E6000D2F8D83203F4A053B3F5A05F00D1286074
:105E7000D2F8D82202F42052B2F5205F02D1084AAB
:105E8000803A106041B1012080F310880021204643
:105E900005F033FB002070BD002080F31088F5E78B
:105EA00080581C42285B1C4200E000402DE9F04F66
:105EB00085B004460D4691460026207D012804D079
:105EC000012605B03046BDE8F08F0221204605F0DE
:105ED00014FB60680090A0680190E068029020695F
:105EE0000390002004906946206802F08BFB6068F4
:105EF000B0F5C05F1AD1CDB1A068A8B329882068D9
:105F00000162698820680162A98820680162E988C5
:105F1000206801622989206801626989206801621C
:105F2000A98920680162E989206801622068016806
:105F300041F0010101602448D0F800A0DFF88C8016
:105F4000D8F800B050465946FFF7F2FDD8F8045093
:105F5000FAF510FB1E484FF47A710068B0FBF1F0BF
:105F6000C82148431B4F1CE0FFE7298820680162D5
:105F7000698820680162A98820680162E988206830
:105F80000162D3E7D8F80410491B814209D90421E2
:105F9000204605F0B2FA59465046FFF7A9FD032600
:105FA0008FE7796801F001010029EBD0594650468E
:105FB000FFF79EFDB868A061C9F8000001212046E6
:105FC00005F09BFA7DE70000FCED00E0001000E02A
:105FD0005C0000200090014010B50446207D0028A0
:105FE0000BD10C4908600B49803908600A490860E8
:105FF000091D0860204600F012F802202075206874
:10600000016821F0010101600121204605F075FAC7
:10601000002010BD80581C42285B1C42704770470E
:1060200070B504460D46142005F0B8FB02490D6416
:10603000024A14430C6070BD00A50040030000013B
:106040004FF40040704700000548816BC1F38001A8
:10605000002901D0806C70474FF0FF30704700007E
:1060600000A500400248806BC0F3000070470000AC
:1060700000A5004010B5142005F090FB034801680E
:1060800021F0010141F08071016010BD00A50040C8
:1060900070B5044694F8360094F83710084347D09A
:1060A00014220221204607F02EF820680025C0F8AF
:1060B000905041F2883300224021204607F080F8BA
:1060C000206802F0B9FA204600F01CF91B4A21684A
:1060D0000120914204D11A4908601A49086005E07C
:1060E0001749083108601749091D0860EFF310814E
:1060F000012282F31088144BD3F8CC62134A164065
:10610000B24302D10E4AD83A1060D3F8D43243F6E3
:10611000C34213409A4301D10D4A106051B101208E
:1061200080F31088A56300220221204606F0EBFFD1
:10613000002070BD002080F31088F3E700C5004008
:1061400080591C42805A1C4200E000400530063055
:1061500028581C421CB50446204606F005FF0022C4
:106160008DF80020A16B0191064951F8203083F889
:10617000FC2051F820000168002901D068468847BA
:106180001CBD0000D026002010F8361F407851EAD0
:10619000000202D0102902D003E00020704710282E
:1061A00001D01420704710207047000030B585B032
:1061B000044694F83600002500281DD194F83700D5
:1061C000D0B91C4805601B48803805601A49206812
:1061D000884205D11748D83005601848056008E0A6
:1061E0001749884224D11348E03005601348001D48
:1061F0000560204600F087F814220221204606F0B0
:1062000082FF60680090A068019020690390E068B8
:106210000290606904906946206802F011FAA56353
:1062200010220221204606F06EFF002005B030BD8E
:106230000120FBE7A8581C4200C50040805A1C42C0
:1062400000C6004070B504462268906800F00F0058
:106250000021022809D004280CD0062816D00C28CA
:1062600031D1A06901280BD00BE02046BDE8704079
:1062700006F06EBF2046BDE87040002106F0FABE71
:1062800001212046BDE8704006F0F4BE5069A16BC4
:1062900000F01E000143A163D06FC0F3C00018B12D
:1062A0000021204606F0E6FEA06B4FF000058007B7
:1062B00020D5204606F02AFE94F83500012803D0A8
:1062C0002046FFF747FF70BD206B68B10C49C163E2
:1062D000206BFFF799FB0028F5D084F83550206B30
:1062E000C16BBDE87040084784F835502046FFF781
:1062F00031FF70BD2046FFF72DFFA56370BD000084
:10630000FDCE20007047704710B5044694F8370062
:10631000102801D0022010BD616222856285002014
:10632000A06312220121204606F0EDFE2068022122
:10633000C0F89C1020684169890703D501680221D3
:10634000C0F88810EFF31081012080F310882068D6
:10635000426842F00502426021B1012080F31088BA
:10636000002010BD002080F31088F9E70168C26B9F
:10637000CA600268D36843F08003D360026C0A608D
:10638000426C4A600268D36823F08003D360826C59
:10639000C1F8C020C26C0A610622C1F88820026DD3
:1063A000C1F89820426DC1F8A020806DC1F89C0012
:1063B000704700001CB50446204606F0D5FD0221BA
:1063C0008DF80010218D628D891AADF804100449F2
:1063D00051F820000168002901D0684688471CBD9B
:1063E000D02600200168CA68C263CA6842F08002F1
:1063F000CA600A6802644A684264CA6822F080027D
:10640000CA60D1F8C02082640A69C264D1F89820B9
:106410000265D1F8A0204265D1F89C1081657047D3
:1064200010B5044694F83600102801D0022010BDA3
:10643000E161228462840020A063112200212046B1
:1064400006F061FE20680321C0F8A010EFF3108170
:10645000012080F310882068426842F08202426086
:1064600021B1012080F31088002010BD002080F3AE
:106470001088F9E77CB50546284606F075FD044608
:1064800001208DF80000288C698C401AADF80400BA
:106490000C4D55F8240090F8000118B12046FDF786
:1064A0005FF902E02046FDF703FA55F8240090F862
:1064B000FC10002904D10168002901D068468847F2
:1064C0007CBD0000D026002070B51D4B02460D4655
:1064D0001B88C2F30B010020920B5B1E8B4224DB56
:1064E000002A22D1012404EB012189B2FB22FF29D9
:1064F0001BD0954219D8C8B2012817D04FF4D262E8
:1065000010A113A0FDF59CFE01231A22002141F2E7
:10651000031011F6AFFC047010F612FE022128469B
:1065200011F648FB0B4981F82E4070BD01F6EEF9DB
:106530000028E9D0084909680818E5D070BD0000B6
:10654000080200206863695F746C2E63000000001D
:106550003000000018AB0020040200202DE9F041BB
:106560001A4F0C46054697F82E101646C0F30B003E
:1065700039B1104611F68AF9002087F82E00BDE8DF
:10658000F08113490988491E814216DB012101EB84
:10659000002081B20823002241F2061011F66AFCA5
:1065A000058044801CB10B490968711A00E0002184
:1065B0004160BDE8F04111F6A9BC29462046BDE87E
:1065C000F04140F2DF6304A2FDF542BE18AB0020AB
:1065D00008020020040200206863695F746C2E6367
:1065E000000000000A4601460020FDF79BB90000AC
:1065F00010B5114C207C00281DD0A4F10C0211898B
:10660000D088814201D8401A02E09288511A084489
:10661000E16880B288420ED389B2A06800F00EF81B
:10662000D4E900200021216061602174002A02D099
:10663000BDE81040104710BD80A900202DE9F35F90
:106640000D46EFF3118A0220FCF706FA2549096886
:106650000122C1F30221491C8A401044C0B280F3D8
:106660001188DFF884B04FF00008BBF80670BBF863
:106670000840BBF80460DBF80090A74205D3381B44
:1066800080B285420ED905460CE0301B384480B2FA
:10669000854200D905466019B04203D32819801BF2
:1066A0001FFA80F8A5EB080209EB04010098FBF73C
:1066B000EDFC009842464119A1EB08004946FBF762
:1066C000E5FC601980B2B04203D3B84201D9801B07
:1066D00080B2ABF808000AF0FF0080F3118828466A
:1066E000BDE8FC9F0CED00E074A9002072B6FEE747
:1066F0002DE9F047024680880024A0F5885104392E
:106700006FD17049107B704D91F83030DFF8BC913B
:106710004FF0010A022846D04F4602F10C0697F8C6
:1067200026700D284FEAC70C04D00F2841D0152839
:1067300057D15EE0B078C0F3411001280AD04FF085
:106740000008F67A012E08D091F83200022809D00C
:1067500030B108E04FF00108F3E791F83100F5E7B8
:10676000042B00D30124B8F1000F02D01CB1022089
:1067700002E0002000E00120012E04D081F8320068
:1067800001207CBB6DE081F83100FF2FF8D06B6EEB
:106790000C2606FA0CF706EA8000BB4300FA0CF060
:1067A00003436B66ECE7042B01D30124E8E70024E4
:1067B000E6E7F079012809D00027768851FA86F0BB
:1067C00090F83300022805D010B104E00127F4E767
:1067D000042B00D3012417B12CB1022004E00020C7
:1067E00002E06CE00DE0012051FA86F383F83300FB
:1067F000C6E791F82F30042B01D3012400E00024D8
:10680000C4B199F8260002264F46FF2806D0696ECB
:10681000C30006FA03F0814301436966104611F68E
:106820006BFB97F82600FF2849D0696EC0008640B0
:10683000B14343E0254890F82600C2000120904073
:10684000FF2F05D06A6E22EA000242EA00026A6661
:1068500003F1010381F82F3031D0696E21EA000184
:106860002CE060B399F82600FF2809D06B6E4FEA40
:10687000C0060AFA06F223EA020343EA02036B6641
:1068800011F8302F02F10102D2B20A7017D0696EEE
:106890004FEAC0004FF0F0034FEA027203FA00F330
:1068A0004FEA126221EA030102FA00F241EA020110
:1068B0006966696E0AFA00F221EA020169662046F9
:1068C000BDE8F08718AB002000000E404007002014
:1068D00030B48188A1F58852043A0FD1007B194A5F
:1068E00002280DD00D280BD00F2809D0152805D16E
:1068F00092F82F00F8B1401E82F82F0030BC70478C
:1069000092F83000A0B1401EC1B20F4882F830109A
:1069100090F82600FF28F1D00C4B5A6EC000F024EE
:1069200084400907090EA24381400A435A66E5E7FD
:1069300040F27D1201E04FF4C77230BC04A107A001
:10694000FDF57EBC18AB00204007002000000E4083
:106950006863695F746C2E63000000003000000003
:106960002DE9FC4100F10C07C41D05894089ADF8F3
:10697000040028460FF6DAFF01001AD0BDF80430F3
:10698000BBB18E6804207EB18878000606D43946F3
:1069900001AA0846009601F6D9FF04E0394601AA8B
:1069A0000846B047C0B280B140F23E23134A2946A0
:1069B00009E015B10120387007E04FF412730F4A57
:1069C000BDF804102846FDF543FC0E212170BDF8EA
:1069D0000410601CC91C00F8011B094991F92D2005
:1069E000002A02DD91F82D1000E0002100F8011BC3
:1069F000294602F6C7FA2046BDE8FC81506920000E
:106A000018AB00202DE9FC41044600F10C0800F110
:106A10000A06008961890025C7B2ADF80410FF2875
:106A200005D940F26D2325A20021FDF511FC384661
:106A30000FF6FAFF88B3D0F804C0BCF1000F2DD0D8
:106A4000807838B14146BDF8043001AA0846E047D5
:106A5000C5B209E04146CDF800C0BDF8043001AA36
:106A6000084601F673FF054635B140F2892313A2AB
:106A700039462846FDF5ECFB6089BDF804108842D4
:106A800006D24FF423730DA239462846FDF5E0FBEC
:106A90003770BDF8041071700CE004E060890028C4
:106AA000EAD00425E1E740F2962304A2002138460B
:106AB000FDF5CEFB3046BDE8FC8100006863695FF0
:106AC000746C2E63000000002DE9FC4100F10C07FE
:106AD000064690F80C804089ADF80400BD1E404683
:106AE0000FF6F2FFA0B3D0F804C00424BCF1000FED
:106AF00009D08078D8B13946BDF8043001AA0846DB
:106B0000E047C4B234B140F2C523174A414620469B
:106B1000FDF59EFB7189BDF80400814205D240F26B
:106B2000C623114A4146FDF593FB5CB118E0394696
:106B3000CDF800C0BDF8043001AA084601F606FFF2
:106B40000446DFE73E212970BDF80410697007E0B4
:106B5000FFE740F2D223044A00214046FDF578FBCE
:106B60002846BDE8FC8100005069200010B5FF24D4
:106B70000FF6DCFE00B1C478204610BD2DE9FC47BD
:106B800090460E4681460FF6D1FE05465D485E4FA3
:106B90000124047097F92D00002805DA40F27352A1
:106BA0005AA15DA0FDF54CFBA9F54061353904D033
:106BB00097F82D00401E87F82D00002D76D097F90C
:106BC0002D00002873DBA97801F00F00092833D2CB
:106BD000DFE800F0050905093232323207000027EC
:106BE00013E0022711E0022E21D3534AB8F8000027
:106BF0001288521E82421ADB504A0244127EB2B1FF
:106C000004EB002087B2FF2F11D00020ADF8040064
:106C1000044616B36C680CB3480616D4334601AA72
:106C200041460020009402F629F8044613E043464A
:106C30000222494628465BE002B04946BDE8F047DB
:106C40004FF4BD6331A2FDF503BB334601AA4146B3
:106C50000020A047C4B2012C2AD000E00424BDF8D3
:106C600004304A46394641F2051011F603F9074649
:106C700034B140F2146325A249462046FDF5E8FAF6
:106C8000CFB1BDF8040020B3D5F804C0BCF1000FAB
:106C90001FD0A878400616D4334601AA414638468C
:106CA000CDF800C001F6EAFF044612E025E01CE042
:106CB0000023122201E0002307224946284600F063
:106CC0003FF8BDE8FC87334601AA41463846E04715
:106CD000C4B234B140F22C630CA249462046FDF503
:106CE000B7FA384611F612F9EBE700230722A0E7BE
:106CF00002B0BDE8F04700F023B800230122494666
:106D00001846F5E7C503002018AB00206863695FEB
:106D1000746C2E63000000006863695F746C5F65CB
:106D20006E762E6E625F6832635F636D645F706B58
:106D30007473203E3D20300008020020D41600204D
:106D40002DE9FC411E4614460500884641F2011714
:106D50006AD0D5F808C0BCF1000F59D0A878000659
:106D600009D400214FF6FF7301AA0846CDF800C0F0
:106D700001F684FF05E0002301AA19461846E04702
:106D8000C0B238B140F2DD132AA24146FDF560FAE7
:106D9000BDE8FC8102222AA1A868FBF7A9F9C0B1CD
:106DA000032228A1A868FBF7A3F90028BDF8043046
:106DB00042464FF0000138461BD011F65BF80546FD
:106DC000BDF80410FBF789F92C70284610F6B8F9C5
:106DD000DEE7BDF8043042460021384611F64AF895
:106DE0000546BDF80410FBF778F92C7030886880F0
:106DF000EBE711F63FF80546BDF80410FBF76DF917
:106E00002C703068C5F80100B088A5F80500DCE7F3
:106E10000A460123002141F2021011F62BF80470FA
:106E2000BDE8FC4110F68CB901230A460021384622
:106E3000F3E700006863695F746C2E630000000074
:106E4000424800004236420070B50546002405481D
:106E50008168002902D08847688000E0112420461C
:106E600070BD0000782900200148C08870470000EC
:106E70007427002003490968C1F38821418000205C
:106E80007047000010A9004070B586B00E46054658
:106E90000C2402F051FBA0B12878272801D9122434
:106EA0000FE000208DF8000029788DF801100121F5
:106EB0008DF8041006498DF8050068460968884772
:106EC00004462146304625F6CFFE06B0002070BDB0
:106ED000B829002070B586B00E4604460C2502F095
:106EE0002BFBD8B12078272806D8607820B103285A
:106EF00002D8A078012801D912250FE000208DF8D2
:106F0000000021788DF8011061788DF80410074990
:106F10008DF80500684609688847054629463046C9
:106F200025F6A2FE06B0002070BD0000B8290020A2
:106F300070B586B00E4604460C2502F0FDFA18B373
:106F40002078272818D86178B1B1032914D8A078FF
:106F5000012811D8E07818B102280DD314280BD8D5
:106F60002279022A08D8627932B1022A04D8A27999
:106F7000022A01D34B2A01D9122526E008B10329A0
:106F800023D00C2A01D911251FE000208DF8000024
:106F900020788DF8010060788DF80400E0788DF895
:106FA000050020798DF8060060798DF80700A0793A
:106FB0008DF80800A279E11D0DF10900FBF766F8D4
:106FC000054968460968884705462946304625F63A
:106FD0004BFE06B0002070BDB829002070B500241B
:106FE000C2B240F30726272A36D81D4908681D4B30
:106FF0001861C8695861886998611B4D286CD8610F
:1070000040F6621000EB4200000408220A60C861EA
:107010004FF4F8708861FBF615F801461348022911
:1070200010D04FF08851C1624FF04451C1621048F6
:10703000002142693046904740B2102141EA0020C9
:1070400028640AE04FF09051C1624FF04851C1628C
:107050003046FBF60FF8EAE71224204670BD000028
:1070600000500F407829002000300F4000200F40D2
:10707000740900200146002001F13702462A02D897
:10708000024A1170704712207047000074290020D6
:1070900010B50024B0F5007F06D20549C96809B1D2
:1070A000884702E0112400E01224204610BD0000B1
:1070B0007829002001B582B0002001900090694637
:1070C00001A8FAF52FFF0198C0F30740852808D0E2
:1070D000C42805D1042202A94FF48370FAF5A0FF59
:1070E0000EBD042202A942F20600FAF599FF0EBD78
:1070F00010B50021B0F5007F09D2064A02EA8020CF
:10710000054B1A68054C224002431A6000E0122128
:10711000084610BDFFFF070010A90040FF03F8FF5D
:1071200010B502F0A1F904000CD0042342F21F02B2
:10713000002141F2011010F69DFE047000214180F3
:1071400000F0A4F9002010BD0246002091B2120CFC
:10715000012905D0022906D0072900D01220704746
:107160001046FFF73BBF50B2FFF784BF70B5024631
:10717000002591B2100C4FF4007401290AD0154B70
:1071800009290ED008291DD01046FFF7DDFF05465E
:10719000284670BDFFF722FF0546204628F6F0FC82
:1071A000F6E70D490020C8620C4819690160596969
:1071B000C161996981610A49D8690864204628F645
:1071C000CFFCE5E7187010B101F076FAE0E701F0C6
:1071D00079FADDE77829002000200F4000500F40A9
:1071E00000300F4070B586B00E4604460C2502F004
:1071F000A3F908B32078272802D8A078072801D956
:10720000122519E001208DF8000021788DF8011079
:1072100061788DF80210A1788DF8040000208DF8B7
:10722000050009488DF80310084900788DF815000D
:1072300009686846884705462946304625F614FD04
:1072400006B0002070BD000074290020B82900207D
:1072500070B586B00E4604460C2502F06DF930B3C9
:107260002078272806D8A078072803D8E07808B126
:10727000042801D912251AE001208DF80000207899
:107280008DF8010060788DF80200A0788DF8030079
:10729000E0788DF8040000208DF8050007480849C3
:1072A00000788DF815000968684688470546294624
:1072B000304625F6D9FC06B0002070BD74290020A8
:1072C000B829002070B586B00E4604460C2502F0A1
:1072D00033F9F8B12078272814D8A078072811D8D6
:1072E000E17879B104290DD8207918B1022809D3A1
:1072F000142807D86279022A04D8A279022A01D375
:107300004B2A01D912252DE008B103292AD20C2AD3
:1073100001D9112526E001208DF8000020788DF894
:10732000010060788DF80200A0788DF80300E07805
:107330008DF8040020798DF8050060798DF806003D
:10734000A0798DF80800A279E11D0DF10900FAF786
:107350009DFE0848084900788DF8150009686846C0
:10736000884705462946304625F67EFC06B00020B3
:1073700070BD000074290020B829002070B586B0C7
:107380000E4604460C2502F0D7F8E0B320782728F3
:1073900054D8A078072851D8E178A9B304294DD84A
:1073A000207918B1022849D3142847D86279022AD3
:1073B00044D830B1A079022840D34B283ED80329C5
:1073C00043D2A0790C2801D911253EE001208DF887
:1073D000000020788DF8010060788DF80200A07818
:1073E0008DF80300E0788DF8040020798DF8050011
:1073F00060798DF80600A0798DF80800A279E11D6A
:107400000DF1090001E020E018E0FAF73FFE9DF8D9
:10741000050028B1A0794B2802D2E11D405C01E0B3
:1074200094F852008DF8150094F9520000F17F0194
:10743000942905D37E2803D07F2801D0122504E0AB
:10744000054968460968884705462946304625F6B5
:107450000BFC06B0002070BDB829002003468AB29C
:10746000080C032A0DD0042A05D0052A0BD0062AC1
:1074700004D0122070471846FFF7FCBC1846FFF7EF
:10748000E3BCFFF735BEFFF703BE00002DE9F04770
:1074900081464C460C3CA088A0F58851023903D0A7
:1074A00041F20111884203D12089FCF7AEFE48B9B0
:1074B000A088A0F58851073904D04846BDE8F047B8
:1074C0000FF63EBEDFF84C80134E022798F83300CB
:1074D000FF2806D0716EC00007FA00F5A9432943C2
:1074E00071660E48007878B10D48816909B120466F
:1074F000884798F83300FF2804D0716EC000874099
:10750000B9437166BDE8F0874920E080484610F62F
:10751000FDFCEEE74007002000000E40C503002000
:10752000601A002010B50A4C68B940212046FAF7CD
:10753000D4FD204600F624FE04F1140000F620FEDF
:10754000012084F82C00052084F82D0010BD0000D7
:1075500018AB002070B504460AF6A0FA0546A088CC
:1075600000F6FA60B0F5005F04D02046FFF7C0F8DF
:1075700040B902E021460A4802E009482146143891
:1075800000F60EFF28460AF697FA0548143890F8D8
:107590002C00012803D1BDE8704000F053B870BD45
:1075A0002CAB00202DE9F041214EB46A0AF676FAA0
:1075B00007462046FFF78CF9012086F82C00A088AA
:1075C0006FF48851014406291BD2DFE801F0202026
:1075D00020202003164804F10C05143000F6C8FEE4
:1075E000144928880988C0F30B00491E814203DB37
:1075F000A88880B2FCF77AFD0020B0620AF686FF08
:1076000005E040F2DC430CA20021FCF521FEB06A4B
:1076100018B1074800F6ACFE0446204610F66CFC94
:1076200038460AF649FABDE8F04100F00BB8000010
:1076300018AB0020080200206863695F746C2E6339
:10764000000000002DE9F041DFF82C81D8F800504F
:107650003DB90AF665FF002878D040464569002DFF
:1076600074D0C8F828500024A8886FF488510144C9
:107670002646274606296BD2DFE801F003224D514A
:107680006A562889A0F57C41113915D0A0F54061D2
:10769000033911D0A0F5406135390DD098F82D008F
:1076A000401C40B288F82D00052805DD4FF47F729C
:1076B00032A135A0FCF5C4FD2846FFF751F931E0B1
:1076C00098F82D004646401C40B288F82D00052849
:1076D00005DD40F20B4229A12BA0FCF5B1FDEC1D0C
:1076E000204629890F2300F8013B042300F8013BC1
:1076F0002A7B00F8012B96F92D20002A02DD96F84E
:107700002D2000E0002200F8012B01F63BFC6678FA
:107710000427B61C22E02846FFF774F902E0284649
:10772000FFF7D2F90446F2E7234A2869A9891268CB
:10773000001F8418204601F625FCA01CE98901F6EB
:1077400021FC6088001D86B2022707E011E0FFE7F8
:1077500040F2634309A20021FCF57AFD002188F87C
:107760002C10324621463846BDE8F041134BFEF757
:107770000DB8BDE8F081000018AB00206863695FB8
:10778000746C2E63000000006863695F746C5F6551
:107790006E762E6E625F6832635F636D645F706BDE
:1077A0007473203C3D204843495F4E425F434D4443
:1077B0005F504B545300000004020020A5752000C8
:1077C00070470020704770477047000030B4064C87
:1077D00025682DB9C4E902010120C4E90023207401
:1077E00030BCFEF705BF000080A9002070B515462B
:1077F000024608481E46046814B189B21046A047E4
:10780000002D05D03046AC46BDE8704000216047F1
:1078100070BD00005829002010B50178022916D14A
:1078200081880B48FCF79AF920B1712209A117A0B1
:10783000FEF75CFF4FF4805421460548FAF74DFCF3
:107840002246BDE8104002490020FCF703B810BDF5
:10785000C44A00202E2E5C2E2E5C2E2E5C2E2E5C1A
:107860002E2E5C636F6D706F6E656E74735C6C69E9
:10787000627261726965735C6863695F7561727475
:107880005C6863695F756172742E63006572722053
:107890003D3D2053444B5F535543434553530000F4
:1078A0000348406908B1002070470120704700007C
:1078B000FCA5002000B5FFF7F3FF20B10348806965
:1078C00008B1012000BD002000BD0000FCA5002083
:1078D0002DE9F041984614460F460646FFF7E0FFB3
:1078E000002841D00120FAF62BFB204D0120AC608E
:1078F0006861C5E9006700201D4EC5E906083068CB
:1079000020F001003060384600F040F8204600F0DA
:1079100059F8174CDFF85880164F143408F10C084A
:10792000B86840F48070B860022000F045FD286817
:1079300000F04CFD206840F001002060206840F01D
:1079400002002060306840F001003060D8F800008C
:1079500030F07F40E4D008491E2003F0EBFFBDE883
:10796000F0411E20FBF73CB8BDE8F081FCA50020EB
:1079700000E5004000A00040FD2120000248006812
:1079800000F00F007047000054A8004003490A6847
:1079900022F00F0202430A607047000054A8004022
:1079A000074800684FF6FF71C0F3801001EA00211C
:1079B0000348001F0068C0F30740084370470000F9
:1079C00054A80040084AC1B2136823F47F0343EA75
:1079D00001411160111DC0F300200A6822F040022D
:1079E00042EA80100860704750A800402DE9F0413D
:1079F00015482DED028B0068002420F07F421248CC
:107A00000838006847F61223C0F30B00451CA2FBA0
:107A1000030704FB037102FB0411FAF787FB08EE6E
:107A2000100A28462146FAF781FB00EE100A0749A2
:107A3000C8EE000ABCEEE00A10EE100AC860BDEC09
:107A4000028BBDE8F08100000CE500409C2700207F
:107A50002DE9F047DFF8708000241C4D1C4F08F121
:107A60005009A24608262046FCF7B6FBA0F6621194
:107A700021F0010138F8012039F80110030700D086
:107A80000126AB680004D7F818C0030543EA8C331D
:107A900043EA86231343AB60EA683B7F4AEAC3624A
:107AA00042EA414141EA1030E86068686FF309003A
:107AB00020436860686840F480606860641CE4B2D9
:107AC000282CCFD3BDE8F087C0A8002000500F407D
:107AD0003029002007494A6909695043272290FB51
