:020000040020DA
:102000002059012059202000FB212000091E10002A
:10201000F9212000F121200085352000000000007A
:10202000000000000000000000000000011E100081
:10203000F721200000000000FD212000FF212000EA
:10204000DFF810D000F048FC00F066F800480047C8
:102050009DB72100205901200148804701480047D1
:1020600055352000C1B721000649074A086850438A
:1020700043F2390210440860400870470149086083
:1020800070470000703200206D4EC64110B5431AF3
:10209000934209D28318881803E010F8011D03F851
:1020A000011D521EF9D210BD40EA01039B0703D067
:1020B00009E008C9121F08C0042AFAD203E011F887
:1020C000013B00F8013B521EF9D210BDD2B201E033
:1020D00000F8012B491EFBD270470022F6E710B52D
:1020E00013460A4604461946FFF7F0FF204610BD86
:1020F000421C10F8011B0029FBD1801A704730B533
:1021000004460020034600E05B1C934203D2E05CDF
:10211000CD5C401BF8D030BD70B5054C054D03E0DB
:10212000206820448047241DAC42F9D170BD0000D6
:10213000AC442200B044220030B404469623080088
:10214000214604D0B62330BC002200F0C6BA204697
:102150000021F8E70EB540F2334102910021CDE9AC
:1021600000110A460B4600F0F5FA03B000BD0EB5AB
:1021700040F2334202920022CDE90022134600F0E1
:10218000E9FA03B000BD20F00040C20DC0F3160014
:1021900040F400007F2A02DA002001467047002147
:1021A000962A03DCC2F19602D0407047963A00F0BE
:1021B0005ABA70B5C1F30A5201F000450024C1F3C8
:1021C000130140F2FF3341F480119A4201DA0020FA
:1021D00070BD40F233439A42A2F2334203DC5242D2
:1021E00000F050FA00E090402C43F1D0404270BD26
:1021F000FEE709F0D7B9FEE7FEE7FEE7FEE7FEE7F8
:1022000058585247010000000554000000202000EB
:10221000002020005EEC924700010000000000005A
:1022200000000000000000000000000000000000AE
:10223000000000000000000000000000000000009E
:102240002DE9FE4F804681EA0300C00F0C46009046
:1022500021F0004123F00045B8EB0200A94105D26E
:102260004046214690461C460B46024623F000405D
:10227000104347D0270DC7F30A00C3F30A51029059
:10228000401A019040286BDAC3F3130040F4801B1E
:102290000098924620B10023D2EB030A63EB0B0BAC
:1022A00001985946C0F14002504600F0DCF906465C
:1022B0000D4650465946019A00F0F4F910EB08001B
:1022C0006141002487EA115284EAE7731A4340D03F
:1022D000009A62B3019A012A4FEA075215DC001BEB
:1022E00061EB02014FF0004202EA0752CDE90042E1
:1022F000001C41F5801132462B4600F02BFA03B04A
:10230000BDE8F08F40462146F9E7001B61EB020172
:10231000001C41F5801300185B412018A2F500173E
:1023200047EB030140EAD570B6196D4111E06D0825
:102330004FEA360645EAC0754FEA0752001B61EBCB
:102340000201001C41F5801149084FEA30000019D4
:10235000514132462B4603B0BDE8F04F00F0EBB9D7
:102360000098012240000023D0EB020263EBE073EF
:10237000009821464FEAE074B8EB000061EB0401DD
:10238000E9E783F000435BE781F0004158E72DE97E
:10239000FE4F81EA030404F0004421F00041009460
:1023A0004FF0000B23F0004350EA01045ED052EAE4
:1023B00003045BD0C3F30A54C1F30A552C44A4F2BE
:1023C000F3340194A0FB0254C1F3130141F48011D2
:1023D000C3F3130343F4801301FB024400FB034ED9
:1023E000840A970A44EA815447EA8357A4FB0768A2
:1023F00002958D0A05FB07854FEA932C04FB0C54CC
:102400002705029D4FEA065847EA1637B5EB08053F
:102410006EEB070C870E920E47EA811742EA831291
:10242000A7FB0201B6EB0B0164EB00042B0D43EAA2
:102430000C335E1844EB1C50DA465146E7FB0201B0
:10244000C5F313044FEA0B3343EA14534FEA043243
:10245000019C43EA0603A4F10C040294009CCDE91C
:1024600000B400F077F903B0BDE8F08F002001461A
:10247000F9E72DE9F04D81EA030404F0004B21F067
:10248000004514464FF0000A23F0004150EA0502CF
:1024900020D054EA01021DD0C5F30A570246C5F305
:1024A0001303C1F31300C1F30A5640F4801543F43B
:1024B0008013A7EB0608101BD64608F2FD3873EB15
:1024C000050002D308F1010801E092185B41B8F160
:1024D000000F03DA00200146BDE8F08D00204FF424
:1024E0008011064684460EE0171B73EB050705D3E3
:1024F000121B63EB050306434CEA010C49084FEA43
:10250000300092185B4150EA0107EDD152EA030016
:1025100012D082EA040083EA0501084305D0101BAB
:10252000AB4106D20122002306E000224FF0004317
:1025300002E06FF0010253101AEB06004CEB085159
:1025400010EB0A0041EB0B01BDE8F04D00F0F3B8D1
:10255000C1F30A5210B5C1F3130140F2FF3341F445
:1025600080119A4201DA002010BD40F233439A42B2
:10257000A2F2334203DC524200F084F810BD9040D6
:1025800010BD00F0004230F000400AD0C10D01F54E
:102590006071C0F3160042EA0151C20840071143BE
:1025A000704700200146704730B5041E71F10004E9
:1025B00004DB4FF00044404264EB0101141E73F150
:1025C000000405DB1C464FF00043524263EB04035A
:1025D000994208BF904230BD30B50B4601460020FD
:1025E0002022012409E021FA02F59D4205D303FAD5
:1025F00002F5491B04FA02F52844151EA2F1010256
:10260000F1DC30BD2DE9F05F0546002092469B4687
:1026100088460646814640241BE0284641464746F8
:10262000224600F02FF853465A46C01A914110D363
:1026300011461846224600F016F82D1A67EB0108DD
:102640004F4622460120002100F00DF817EB00094B
:102650004E41201EA4F10104DFDC484631462A46E3
:102660004346BDE8F09F202A04DB203A00FA02F13D
:10267000002070479140C2F1200320FA03F3194370
:1026800090407047202A04DB203A21FA02F0002112
:10269000704721FA02F3D040C2F120029140084372
:1026A00019467047202A06DBCB17203A41FA02F080
:1026B00043EAE07306E041FA02F3D040C2F120029F
:1026C00091400843194670470029A8BF7047401C35
:1026D000490008BF20F00100704710B4B0FA80FC38
:1026E00000FA0CF050EA010404BF10BC704749B175
:1026F000CCF1200421FA04F411FA0CF118BF0121E5
:1027000021430843A3EB0C01CB1D4FEA00614FEAC4
:10271000102042BF002010BC704700EBC350104493
:102720000029A4BF10BC7047401C490008BF20F01E
:10273000010010BC704710B5141E73F1000408DAD4
:10274000401C41F1000192185B411A4301D120F075
:10275000010010BD2DE9F04D92469B4611B1B1FA32
:1027600081F202E0B0FA80F220329046FFF77BFF60
:1027700004460F4640EA0A0041EA0B0153465A4616
:10278000084313D0114653EA010019D0C8F14002A2
:102790005046FFF777FF05460E46504659464246DB
:1027A000FFF761FF084305D0012004E020463946C9
:1027B000BDE8F08D0020054346EAE0762C43374320
:1027C0000A986305E40AA0EB08000022FD0A44EA27
:1027D00047540A3002D500200146E9E701051019E7
:1027E0006941DDE9084500196941BDE8F04DA2E7FE
:1027F0002DE9F041054621F000400C46284309D060
:10280000C4F30A5040F23341884205DD2846214690
:10281000BDE8F0812846FBE740F2FE31884210DC3B
:102820000CDB4FEA043040EA155050EA053105D080
:10283000104804F0004101430020E9E70020014670
:10284000E6E7A0F233404642C6F140022846214660
:10285000FFF709FF07468846284621463246FFF71C
:1028600011FF43463A46FFF766FF3246BDE8F041A6
:10287000FFF7F9BE0000F03FC1F30A52C1F31301A4
:1028800040F2FF3341F480119A4202DA00200146FF
:10289000704740F233439A42A2F2334202DC524282
:1028A000FFF7F0BEFFF7DFBE30B5041E71F1000484
:1028B00004DB4FF00044404264EB0101141E73F14D
:1028C000000405DB1C464FF00043524263EB040357
:1028D0008B4208BF824230BD064C074D06E0E068DF
:1028E00040F0010394E8070098471034AC42F6D357
:1028F000FFF7AAFB6C442200AC44220070B58C1890
:1029000010F8015B15F0070301D110F8013B2A1103
:1029100006D110F8012B03E010F8016B01F8016BF0
:102920005B1EF9D12B0705D40023521E0DD401F8EC
:10293000013BFAE710F8013BCB1A921C03E013F8B5
:10294000015B01F8015B521EF9D5A142D8D30020EA
:1029500070BDF0B5002508222B4650F8227051F8C2
:102960002260BE1943EB030476195C4104F00104B4
:102970001C4301D0012500E0002540F822600446F8
:10298000521EEAD5002150F8212012B9491C09290C
:10299000F9DBC1F109016162F0BDF0B50024082343
:1029A000254650F8236051F82370F61945EB0507CA
:1029B00036196F4107F001042C4301D0012400E0D7
:1029C000002442F823605B1EEBD5002052F8201053
:1029D00011B9401C0928F9DBC0F10901C2E9091548
:1029E000F0BD000010B51446FFF7D7FFA06A20B174
:1029F0002046BDE8104000F01DB80D4B606A596AD2
:102A000088420ED813D3C0F1090108E053F8212001
:102A100054F8210082420AD803D301F101010929A7
:102A2000F4D32046BDE81040014900F005BD10BDBB
:102A3000F422220010B58CB0044601466A460748CD
:102A400000F05AFC694624222046FFF71FFB099834
:102A500060620020A0620CB010BD0000F4222200D1
:102A60002DE9F0410446DFF808C1806A8CB04FF0D0
:102A7000000848B16246606A536A2146984250D8BD
:102A800027D3C0F1090022E04FF000014FF0080009
:102A9000424654F820505CF82030ED1842EB020317
:102AA0006D18534103F00101114301D0012100E0F1
:102AB000002144F82050401EEBD518E052F8203099
:102AC00051F82050AB4204D82BD300F10100092863
:102AD000F4D36A46264800F00FFC694625462422B6
:102AE0002046FFF7D3FA09986862C4F828800022CC
:102AF0001046454654F82010491945EB02035A0880
:102B00004FEA310244F8202021F001028A1A00F134
:102B1000010023460928EDD3002054F8201001BB02
:102B20001CE00023082241465CF8225054F82200A1
:102B3000EE1841EB0107861B71EB07062B4406D20A
:102B4000C01A001C44F822004FF0010303E0C31A2E
:102B500044F822300023521EE6D5C8E7401C09285D
:102B6000DBDBC0F1090058620CB0BDE8F081000069
:102B7000F422220010B5122000F055FD0AF074FB7B
:102B800004490446C96A88472046BDE810400AF057
:102B90002DBB0000002F002010B504F639FB10B14A
:102BA00008F040F810BDBDE810402BF61FBE000035
:102BB00010B52BF607FF022818D00D4CD4F8880268
:102BC00020F00100C4F888024FF0E0214FF00050DF
:102BD000C1F8800204F5227408F0B2FE054841688D
:102BE000491C4160206840F00100206010BD0000D9
:102BF00000E00040982F00202DE9F04FADF5317D29
:102C0000814600F12C0B58308890859001F12C0002
:102C10008490CDE989012C300E4687908690154628
:102C200024211046FFF759FA002405F12C076C62A5
:102C3000B84624213846AC62FFF74FFA7C62BC628A
:102C40002C3724213846FFF748FA7C6237A8242124
:102C5000BC62FFF742FA40940BA824214194FFF78D
:102C60003CFA149442A824211594FFF736FA4B94A9
:102C700016A824214C94FFF730FA1F9421A8242190
:102C80002094FFF72AFA2A94684624212B94FFF710
:102C900024FA09944DA824210A94FFF71EFA5694A9
:102CA00058A824215794FFF718FA619463A82421A7
:102CB0006294FFF712FA6C942CA824216D94FFF70C
:102CC0000CFA359479A824213694FFF706FA8294F9
:102CD0006EA824218394FFF700FA77944846A1490F
:102CE000789418F061FF9F4C010004F12C0A04F164
:102CF000580409D15146584618F056FF20B92146CC
:102D0000889818F051FF28B13046964918F04CFFCA
:102D100078B339E03046934918F046FF50B9514630
:102D2000849818F041FF28B92146879818F03CFF95
:102D300000287DD0242231462846FFF7A7F9706A83
:102D40006862B06AA862849D4446242229464046AF
:102D5000FFF79CF9686A6062A86AA062879C2422D7
:102D600021463846FFF792F9606A7862A06AB86235
:102D7000F5E0FFE75146849818F016FF20B9214688
:102D8000879818F011FF28B14946304618F00CFF1B
:102D9000B8B122E04C46242249462846FFF776F98E
:102DA000606A6862A06AA8625D4644462422594669
:102DB0004046FFF76BF9686A6062A86AA062889C67
:102DC000CDE75946849818F0EFFE002830D1306DD9
:102DD000012802D8F06C0028ABD037AA85998998D1
:102DE00000F0CEF90BAA5846869900F0C9F942AA1C
:102DF00085998A9800F0C4F916AA4846869900F089
:102E0000BFF916A942A818F0CFFE00287ED021AA4B
:102E10000BA937A800F09AFA6A4616A942A800F052
:102E200095FADDE9850158AA00F0AAF9A5A800E005
:102E30007BE02421FFF751F90024AE9484A82421DB
:102E4000AF94FFF74AF98D948FA824218E94FFF751
:102E500044F998949AA824219994FFF73EF9694679
:102E6000A39463AA0846A49400F08AF92CAA6946A0
:102E700063A800F085F921A979AA084600F080F935
:102E80006EAA16A963A800F07BF99AAA02216EA87F
:102E900000F058F984AA58A979A800F071F98FAA0E
:102EA0002CA984A800F052FA4DAA9AA98FA800F084
:102EB0004DFA2A464DA9684600F062F984A82421FB
:102EC000FFF70BF98D948FA824218E94FFF705F955
:102ED00098949AA824219994FFF7FFF8A39484AAC0
:102EE0004DA96EA8A49400F031FA8FAA84A921A854
:102EF00000F046F99AAA0BA92CA800F041F9424625
:102F00009AA98FA800F022FA3A4600E008E058A9F2
:102F10002CA800F035F901200DF5317DBDE8F08FCA
:102F20000BA937A818F040FEA8B10E4E2422314656
:102F30002846FFF7ABF8706A6862B06AA862564626
:102F40004546242251464046FFF7A0F8706A686261
:102F5000B06AA86203E72946484600F005F8002059
:102F6000DAE70000702322002DE9F04F0C465B4E9B
:102F7000016D06F12C085836F9B0834600F12C0596
:102F800000F1580A04F12C0904F15807012902D86C
:102F9000296A00297ED0514918F006FE50B94146F1
:102FA000284618F001FE28B93146504618F0FCFDBD
:102FB000002873D037AA51465846FFF713FD42AA9E
:102FC0005146584600F0C2F94DAA42A937A800F070
:102FD000D7F80BAA03214DA800F0B4F86A46514671
:102FE000284600F0CDF837AA6946284600F0C8F810
:102FF00016AA37A9584600F0C3F80BA937AA084605
:1030000000F0BEF842AA082116A800F09BF821AAF9
:1030100042A937A800F09AF937AA694621A800F01A
:10302000AFF82246022137A800F08CF8294637AACB
:10303000084600F0A5F869462CAA084600F0A0F85A
:1030400042AA2CA937A800F09BF84DAA082142A853
:1030500000F078F858AA042116A800F073F863AAC3
:1030600021A958A800F072F96EAA63A90BA800F074
:1030700087F84A464DA96EA800F068F937AA694654
:103080002CA800F07DF83A46082137A800F05AF83D
:10309000002000E002E079B0BDE8F08F0F4D24225F
:1030A00029462046FEF7F2FF686A6062A86AA062BD
:1030B00045464C46242241464846FEF7E7FF686AEB
:1030C0006062A86AA062242231463846FEF7DEFF1D
:1030D000706A7862B06AB862DAE700007023220092
:1030E0002DE9F043154F0446154EF87D10258BB0A1
:1030F00091468846FF2806D0716EC20005FA02F09C
:10310000814301437166694604F1580004F05CF99B
:10311000F87DFF2804D0716EC0008540A943716618
:1031200042466946204600F02BF84A46694604F1BB
:103130002C0000F025F80BB0BDE8F083400700201C
:1031400000000E40F0B4002508232F4650F82360FD
:103150002C463D46E6FB014542F823405B1EF5D573
:10316000002152F8213013B9491C0929F9DBC1F1BA
:1031700009035362806A9062F0BC10461BF0ECBEFB
:103180002DE9F74FA0B082460C4668468346482199
:10319000FEF7A3FF4FF00009CDF848900821CDF8C5
:1031A0004C90002208204D4646180BEB860354F83D
:1031B00020805F685AF821C0BE1845EB0502ECFB81
:1031C00008625E60401EEFD5491EEAD569460020C0
:1031D00051F8202012B9401C1228F9DBC0F112006E
:1031E0008864DAF82800A16A884201D0012000E052
:1031F000002000246D46139000E0641C55F8240064
:1032000008B9092CF9D313982D491E9012988B6C8C
:103210002A46984215D818D3C0F112000DE051F893
:10322000203052F82060B34206D0B34201D20120D0
:1032300000E0002028B908E0401C1228EFDB00E085
:10324000641C55F824000028FAD005EB84012422E0
:1032500014A8FEF71BFF14A9002051F8202012B972
:10326000401C0928F9DBC0F10900486204F109009B
:103270001228084615D21BF06FFE14A82022011D4B
:10328000FEF704FF05EB840014A9406A1C9000209F
:10329000641C51F82020002AE5D1401C0928F8DBE5
:1032A000E1E71BF059FE229C14A924222046FEF7D8
:1032B000EDFE1D9860621E98A06223B0BDE8F08FFD
:1032C0002023220010B54342421E0A60C1E90130AA
:1032D0004FF0000001F1100C4FF0FF34C8608CE893
:1032E00015008862C1E9074301D0092000E00820E9
:1032F000486210BD10F0AAB9F0B500240823274693
:1033000051F8236050F8235016EB040C47EB070EDE
:10331000B5EB0C0C77EB0E0C344406D22C1B241CA2
:1033200042F823404FF0010403E02D1B42F82350E4
:1033300000245B1EE4D5002052F8201011B9401C77
:103340000928F9DBC0F109005062F0BD2DE9F04118
:103350000F460346816A0125B86A1446002641B12A
:1033600090B3786A596A884244D849D3C0F10900B9
:103370003EE020B139461846FFF70FFB16E0586AC9
:10338000796A88420ED81BD3C0F1090008E057F8CB
:10339000202053F820108A4212D803D300F10100F4
:1033A0000928F4D322463946184626E02149A66268
:1033B000606A4A6A904234D839D3C0F109002EE0DD
:1033C0002246194638461EE0FFE739461846FFF701
:1033D000E4FA2046A562BDE8F041FFF72BBB53F8A5
:1033E000202057F820108A420AD803D300F10100A8
:1033F0000928F4D3224619463846FFF77DFFD5E762
:10340000224639461846FFF777FFE2E751F82030A9
:1034100054F8202093420AD803D300F10100092870
:10342000F4D32046BDE8F041024900F005B8BDE8FC
:10343000F0810000F4222200F0B5002308221E468D
:1034400051F8225050F82240EF1846EB060CE71BCB
:1034500076EB0C072B4406D2E31A1B1C40F82230F3
:103460004FF0010303E0E41A40F822400023521E0B
:10347000E6D5002150F8212012B9491C0929F9DBB1
:10348000C1F109014162F0BD70B50B460446816A85
:103490000025986A8CB0012641B140B1586A616A32
:1034A000884239D846D3C0F1090033E030B10CB0BE
:1034B0002046BDE870401946FFF74BBA606A596A6A
:1034C000884237D80ED3C0F1090008E053F8202015
:1034D00054F820108A4205D82CD300F101000928A5
:1034E000F4D327E06A4621461846FFF705FF6946F0
:1034F00024222046FEF7CAFD0998C4E909060CB04B
:1035000070BD54F8202053F820108A4212D803D3FB
:1035100000F101000928F4D36A4621461846FFF756
:10352000EBFE694624222046FEF7B0FD0998C4E967
:103530000905E4E70CB02046BDE870401946FFF7E6
:103540007BBF00000249096801F007010170704764
:1035500000A000400248016841F47001016070471A
:1035600088ED00E002480068001D10F0E9BA000094
:10357000D02D002002484068001D10F0E1BA000084
:10358000D02D0020FEE700000FB41CB5024600203D
:1035900007AC00290BD0491ECDE90021054B6A4636
:1035A0002146069800F014FD009A002111701CBC01
:1035B0005DF814FBFF4620000FB4084B10B504A9BA
:1035C00002AA039800F004FD044602A9002001F0BD
:1035D000A1F8204610BC5DF814FB00001547200040
:1035E0007CB5044600201D46164600290BD0491E16
:1035F000CDE90041044B6A462946304600F0E8FC1C
:10360000009A002111707CBDFF462000002809DBD4
:1036100000F01F02012191404009800000F1E020EC
:10362000C0F880127047002809DB00F01F0201215A
:1036300091404009800000F1E020C0F880127047FE
:10364000002809DB00F01F020121914040098000A1
:1036500000F1E020C0F88012704700280DDB00F078
:103660001F02012191404009800000F1E020C0F8D4
:103670008011BFF34F8FBFF36F8F7047002809DBB6
:1036800000F01F02012191404009800000F1E0207C
:10369000C0F800117047002809DB00F01F0201216B
:1036A00091404009800000F1E020C0F8001170470F
:1036B000002809DB00F01F02012191404009800031
:1036C00000F1E020C0F80011704700280FDB41092D
:1036D000890001F1E021D1F8001100F01F02012062
:1036E0009040014201D00120704700207047002027
:1036F0007047002804DB00F1E02090F800047047D8
:1037000000F00F0000F1E02090F8140D7047002841
:1037100004DB00F1E02090F80004704700F00F0097
:1037200000F1E02090F8140D7047002804DB00F150
:10373000E02090F80004704700F00F0000F1E02056
:1037400090F8140D7047002804DB00F1E02090F899
:103750000004704700F00F0000F1E02090F8140D15
:103760007047002804DB00F1E02090F80004704767
:1037700000F00F0000F1E02090F8140D70470028D1
:1037800004DB00F1E02090F80004704700F00F0027
:1037900000F1E02090F8140D7047002804DB00F1E0
:1037A000E02090F80004704700F00F0000F1E020E6
:1037B00090F8140D7047002804DB00F1E02090F829
:1037C0000004704700F00F0000F1E02090F8140DA5
:1037D0007047002804DB00F1E02090F800047047F7
:1037E00000F00F0000F1E02090F8140D7047000089
:1037F00002480068C0F30220704700000CED00E0B2
:1038000002480068C0F30220704700000CED00E0A1
:1038100002480068C0F30220704700000CED00E091
:1038200002480068C0F30220704700000CED00E081
:1038300002480068C0F30220704700000CED00E071
:1038400002480068C0F30220704700000CED00E061
:1038500002480068C0F30220704700000CED00E051
:10386000EFF31080704700002DE9F0412DED020BC1
:103870009FED3D0B2DED028B9FED3D8BDDE902545D
:10388000C4F30A50A0F2FF36142E37DA002E18DAED
:1038900053EC102B9DED020B51EC100BFEF7D0FCFE
:1038A00053EC182BFEF780FE57D2002CBCBF4FF014
:1038B0000044002551DB54EA050018BF2E4C1BD1F3
:1038C0004BE02E4820FA06F704EA070028431FD0F1
:1038D00053EC102B9DED020B51EC100BFEF7B0FCDE
:1038E00053EC182BFEF760FE37D2002C03DD4FF4AB
:1038F0008010F0400444BC4300252EE0332E07DC4A
:10390000A6F114004FF0FF3121FA00F73D4206D135
:103910009DED020BBDEC028B02B0BDE8F08153ECD3
:10392000102B9DED020B51EC100BFEF72DFD53EC0F
:10393000182BFEF739FE10D2002C0DDD142E08BF17
:10394000641C09D0C6F13400012101FA00F02844BA
:10395000A84238BF641C0546BD43CDE902549DED25
:10396000020BD7E7000000009C7500883CE4377E1E
:1039700000000000000000000000F03FFFFF0F000B
:1039800010B52DED020B2DED088B84B09DED0C0BC9
:1039900051EC100BFEF72CFF41EC180B9DED0C0BBE
:1039A00053EC182B51EC100BFEF7EBFC41EC190B10
:1039B0000D989FED290B10F0004F53EC102B51EC9C
:1039C000190B9FED21AB9FED22BB0ED0FEF76CFFD4
:1039D0000ED953EC1B2B51EC190BFEF7E5FD1CD255
:1039E00014E000BF41EC180B17E0FEF75DFF06D2B4
:1039F00053EC1A2B51EC180BFEF7C3FCF2E753EC17
:103A00001B2B51EC190BFEF7CFFD06D853EC1A2BEC
:103A100051EC180BFEF714FCE4E78DED028B9DEDE5
:103A20000C0B18EE901A10EE900A8DED000B61F35E
:103A30001E0003909DED020B04B0BDEC088B02B09C
:103A400010BD000000000000000000000000F03F7A
:103A5000000000000000E03F000000000000E0BFA8
:103A600002E008C8121F08C1002AFAD17047704747
:103A7000002001E001C1121F002AFBD1704780F332
:103A8000108870472DE9F74F07460298DFF86CA1C0
:103A9000DFF86C814FEA500B5A48019D5C46564650
:103AA000CAF80000D8F804203F2060F30502C8F8E7
:103AB0000420DAF8000020F4700040EA0750CAF849
:103AC0000000DAF8000020F4702040EA0740CAF84D
:103AD00000000D2F02D00E2F04D007E0306840F414
:103AE000004002E0306840F480403060306840F4CC
:103AF00000503060306820F060503060306820F056
:103B00000F0040F003003060002000F0AFF8012803
:103B100072D13168B24641F08041316000204246A6
:103B200009E0D8F8083043F48033C8F80830811C25
:103B300000F1010005D091689046C1F300210029F1
:103B4000EFD1072000F092F8012855D142E000267D
:103B50004FF47A7924E04E451ED9DAF8001021F0AE
:103B60008041CAF80010DAF8001041F00041CAF8AC
:103B70000010DAF8001021F00041CAF8001000200F
:103B800000F074F8012837D11F480169491C016110
:103B90000520FCF5C7FF7FE70120FCF5C3FF761C7D
:103BA000D8F80800C0F300200028D4D0D8F80800C6
:103BB000434600F07F02A24200D92246002006E0E0
:103BC000196825F8021B090C25F8021B401C9042BD
:103BD000F6D3A41A002CBAD10298C00707D04046E9
:103BE0008168C1F300210029FAD000682880BDE86F
:103BF000FE4F002000F03AB8BDE8FE8F00A800405C
:103C000000E000400A070807982F00202DE9F04146
:103C10001249044600200860104980390860104DA0
:103C2000686A104E00F0010149420140F061C80588
:103C30000DD440F20117A869B84208D024B1012080
:103C4000641EFCF56FFFF6E70020BDE8F081064832
:103C5000006870616868B0610120F6E794581C4202
:103C600000E00040982F002000A800402DE9F0411E
:103C7000104F0546F868C0F30240A84217D0F86814
:103C800020F007002843F86000244FF6FF76F8681C
:103C9000C0F30240A84205D00120FCF543FF641C9C
:103CA000B442F4D3B44202D10020BDE8F081012037
:103CB000FBE7000000E000402DE9FF5F82B000213B
:103CC000DDE90430020DDDF840B0034318D044F6BE
:103CD0001050A2F2FF3242431514119801281FD050
:103CE000A5EB0B00401C5FEA000A4FF000064E4FA8
:103CF000DFF83891B046504615D5CAF1000413E0FC
:103D0000119801244AA3012801D16FEA0B010298FE
:103D1000119AC0E90031C0E9024206B0BDE8F09F47
:103D2000CBF10000DFE704460021404A491842EB8E
:103D30000450CDE9001012E0E00707D032463B46C0
:103D400040464946FEF723FB8046894632463B46BD
:103D500010461946FEF71BFB06460F466410002C62
:103D6000EAD1DDE90401DDE90023BAF1000F06DA4A
:103D7000FEF70DFB42464B46FEF709FB05E0FEF75A
:103D800078FB42464B46FEF774FB04460E46002283
:103D9000284BFEF709FC03D84FF0FF30014607E03F
:103DA0000022254B20463146FEF74AFAFEF764FD15
:103DB000102409E0002C0ADB0A220023FEF722FC73
:103DC000039B30321A55641E50EA0102F2D1641C82
:103DD000039AC4F111031444119A012A03D0012259
:103DE00008430DD10AE0084304D000204FF0110B26
:103DF000119072E7A3EB0B056D1E0DE05B4504DD32
:103E00004FF0000205F1010504E003DA4FF0000273
:103E1000A5F10105002AECD002981199C0E9023100
:103E2000C0E9004579E70000000014400000F03FC1
:103E3000300000000000F0430000E03FF0B50C4609
:103E40002DED088B89B006469FED559B20216846D5
:103E5000FEF743F9B0EE498AF0EE698A102269460E
:103E60003046FFF70FFE00256F4607EB4500008A3E
:103E7000FEF770F953EC182BFEF7E2F96D1C41ECDC
:103E8000180BEDB2082DF0D39FED470B51EC180B3A
:103E900053EC102BFEF77BFA41EC180B9FED44BB63
:103EA0000D2E02D00E2E30D072E06088FEF752F94F
:103EB00053EC1B2BFEF7DDFA9FED3F0B41EC190B8A
:103EC00051EC100B81F0004141EC1A0BE088FEF739
:103ED00041F953EC1A2BFEF75AFA41EC1A0B2088E1
:103EE000FEF738F953EC182BFEF74EFA53EC1A2B69
:103EF000FEF7BFFA9FED321B53EC112BFEF7B9FA18
:103F000053EC192BFEF79CF940E0A07EFF2801D06E
:103F1000E8B13DE09FED2C0B51EC100B81F000411E
:103F200041EC1A0BE088FEF715F941EC190B2089DA
:103F3000FEF710F953EC182BFEF726FA53EC192B69
:103F4000FEF797FA53EC1A2BFEF721FA1EE0A08831
:103F5000FEF700F941EC190BE088FEF7FBF881F061
:103F6000004141EC1A0B2089FEF7F4F853EC182BB2
:103F7000FEF70AFA53EC1A2BFEF77BFA53EC192BD7
:103F8000FEF705FA53EC1B2BFEF773FA41EC190B05
:103F900009B0B0EE490AF0EE690ABDEC088BF0BD3D
:103FA0000000000000000000000000000000C03F12
:103FB0000000000000005940000000000000004028
:103FC000DE718A8EE4F25FBFE2E1E1E1E1E10E4001
:103FD0002DE9FF4F95B09B468946064600250FE226
:103FE000252877D100242746F84A0121059400E0CE
:103FF000044316F8013F203B01FA03F01042F7D1C9
:1040000030782A2811D06FF02F033078A0F13002D9
:10401000092A16D8059A44F0020402EB820203EB47
:1040200042021044761C0590EFE759F8042B0592E4
:10403000002A03DA504244F40054059044F002048C
:10404000761C30782E2816D116F8010F44F004049F
:104050002A280DD06FF02F023078A0F13003092B01
:1040600009D807EB870302EB4303C718761CF3E775
:1040700059F8047B761C30786C280FD006DC4C286D
:1040800017D068280DD06A2814D104E0742810D005
:104090007A280FD10DE044F400140AE044F48014AF
:1040A00001E044F440147278824202D104F5801495
:1040B000761C761C307866280BD013DC582877D015
:1040C00009DC002875D04528F6D04628F4D04728CA
:1040D0001AD19DE118E0632835D0642879D065288D
:1040E00012D195E1702873D008DC6728F1D06928D7
:1040F0006FD06E280DD06F2806D1B5E073282CD074
:10410000752875D0782874D05A46179990476D1C39
:1041100075E1C4F30250022809D003280DD0D9F864
:10412000001004280DD00D6009F1040967E1D9F8E9
:104130000010EA17C1E90052F6E7D9F800100D8027
:10414000F2E70D70F0E719F8041B8DF8001000205D
:104150008DF80100EA46012003E059F804AB4FF066
:10416000FF3061074FF0000102D40DE008F10101BA
:104170008846B9420FDA8045F8DB1AF808100029A2
:10418000F4D108E008F1010188468142FADB1AF80F
:1041900008100029F6D105985B46A0EB08072146D8
:1041A0003846179A00F094FA284400EB080507E017
:1041B0004DE029E10DE01AF8010B5A461799904796
:1041C000B8F10108F7D25B4621463846179A13E149
:1041D00042E00A220092C4F302524FF0000A022A7F
:1041E00008D059F804CB032A4FEAEC710AD00DE04D
:1041F00029E02AE009F1070121F00702F2E802C1F3
:10420000914609E00FFA8CFC4FEAEC71042A03D1C5
:104210004FFA8CFC4FEAEC71002907DA0A460021BC
:10422000DCF1000C61EB02012D2202E0220504D535
:104230002B228DF80420012203E0E20701D0202286
:10424000F7E7904659E00A2102E010220DE0102124
:104250004FF0000A00910BE010224FF0000A44F0EA
:1042600004040827009203E008224FF0000A00929D
:10427000C4F30252022A05D059F804CB0021032AC4
:1042800008D009E009F1070121F00702F2E802C1B4
:10429000914605E01FFA8CFC042A01D10CF0FF0CBA
:1042A0004FF00008220728D5702806D0009B83F025
:1042B000100353EA0A0305D00EE040228DF80420D3
:1042C000012208E05CEA010206D030228DF80420C9
:1042D0008DF8050002229046009B83F0080353EA04
:1042E0000A030AD15CEA010201D1620705D5302236
:1042F0008DF804204FF001087F1E582804D034A008
:1043000003900EA802900DE036A0F9E753466046F0
:10431000009AFEF777F984460398825C0298401E63
:10432000029002705CEA0100F0D1029806A9081A16
:1043300000F1200A600702D524F4803400E0012750
:10434000574502DDA7EB0A0000E0002000EB0A0160
:10435000009005984144401A0590E00306D45B465E
:104360002146179A059800F0B3F90544002706E0A6
:1043700001A85A46C05D179990476D1C7F1C4745A0
:10438000F6DBE0030CD55B462146179A059800F052
:104390009FF9054404E030205A46179990476D1C58
:1043A0000099481E00900029F5DC08E00298029967
:1043B0005A460078491C0291179990476D1CBAF132
:1043C0000001AAF1010AF1DC65E100000928010001
:1043D000303132333435363738396162636465667B
:1043E000000000003031323334353637383941423D
:1043F000434445460000000000F058F90544761C8F
:10440000307800287FF4ECAD19B02846BDE8F08F75
:10441000620700D4062709F1070222F0070CFCE826
:104420000223E14603F000485FEA080C02D00FF2D5
:10443000702C0DE05FEA045C02D50FF2682C07E0F7
:104440005FEAC47C02D00FF2602C01E0AFF2700C86
:104450004FF0FF3823F00043CDF850C065280CD052
:1044600006DC452809D046281DD047283DD13DE02F
:10447000662818D067287ED138E00021112F01DB93
:10448000112000E0781CCDE9000106A90EA8FFF775
:1044900013FCDDE90F010E9A03910021009207F150
:1044A000010A04914DE04FF000400097CDE9011062
:1044B00006A90EA8FFF700FCDDE90F0203920E9B90
:1044C00011990022DDF80CA00093049211B9791C17
:1044D00000EB010AB7EB0A0004D4C0F1FF3007F18A
:1044E000010A0490AAEB0700019044E0012F00DAD2
:1044F00001270021112F01DD112000E03846CDE910
:10450000000106A90EA8FFF7D7FBDDE90F010E9AFF
:104510000391002104910092BA4621070CD403991B
:10452000514500DA8A46BAF1010F05DD009AAAF179
:104530000101515C302908D0B84202DA10F1040FB1
:1045400006DA0121CDE9011015E0AAF10101E9E740
:10455000002805DC049901440491AAEB000102E063
:10456000411C514500DD8A460499401A401C0190C7
:104570004FF000400290200704D40198504501DB21
:10458000CDF8048000208DF84F0002980DF14F0700
:10459000B0F1004F25D02B200E9002984FF002086A
:1045A00000280CDA404202902D200E9007E00A21EC
:1045B0000298FEF711F83031029007F8011DB8F1AA
:1045C0000001A8F10108F2DC02980028EFD1791E61
:1045D0000E980870307800F0200040F0450007F891
:1045E000020D12A8C01B00F107081498007800B152
:1045F000012000EB0A01019801EBE07105984144AC
:10460000401A401E0590E00306D45B462146179AE7
:10461000059800F05DF805441498007818B15A46E2
:10462000179990476D1CE00324D55B462146179AE5
:10463000059800F04DF805441CE00498002807DBBD
:10464000DDE90301884203DD0098405C179901E031
:10465000179930205A469047049805F10105401CEF
:1046600004900198401E019004D12E205A461799BB
:1046700090476D1CBAF10001AAF1010ADDDC05E0EA
:1046800017F8010B5A46179990476D1CB8F10001B5
:10469000A8F10108F4DC5B462146179A0598ABE6C1
:1046A0002D0000002B000000200000002DE9F0414B
:1046B000044600251E461746880404D405E0394602
:1046C0002020B0476D1C641EF9D52846BDE8F08156
:1046D0002DE9F041044600251E469046C80301D549
:1046E000302700E02027880404D505E041463846FD
:1046F000B0476D1C641EF9D52846BDE8F0814A68B4
:10470000002A06D00A68531C0B6010704868401ECF
:10471000486070470A68531C0B60107070470000B7
:1047200010B501461BF0D8F8B0B116480068C0F3C8
:10473000805088B901F11400134A142802D240F2C3
:10474000DC5007E011F1140F02DA4FF4AF6001E022
:104750004FF4C8605061D0611BF0CEF800280FD034
:104760000C46FDF66FFC02280AD13C2C01DD14201A
:1047700002E0322C04DA1C20BDE8104010F0CCBB63
:1047800010BD000014A800403493002010B51A4951
:1047900040F21A444FF4B9720B694FF496710C3B16
:1047A000A3420FD90424BE2801DC0C241BE0DC2822
:1047B00001DC082417E0FA280EDD884210DD904263
:1047C00011DD0FE0BE2801DC0B240CE0DC2801DC4D
:1047D000072408E0FA2801DC062404E0884201DC12
:1047E000052400E00324204612F05AFB2046BDE8D1
:1047F000104012F041BB00003493002010B50B4C68
:104800002089012811D194F84B0000280DD1608F28
:10481000FDF7A0FC9FED061B53EC112BFDF7B7FD38
:10482000FDF796FE218F0844208710BD609100207F
:104830009A9999999999A93F0648016841F001010F
:1048400001600648044901600549416005498160ED
:104850007047000034310020ADDA2000C0960020FF
:104860000DD92000C9D2200000280CD01030C1780A
:1048700059B10189202904D3428944F250618A4206
:1048800003D90120704702207047027944F2316158
:104890002AB18289203A8A4201D3012070474279A5
:1048A0002AB1008A2038884201D3012070470020B5
:1048B00070470000104A012992F8502006D00229C2
:1048C0000BD003290ED0042914D10FE0817821B137
:1048D000817911B90AB101207047C17811B10AB1CB
:1048E00002207047017909B103207047407908B16F
:1048F00004207047002070477C470020401C0621A0
:10490000B0FBF1F201FB1200704700002DE9F0410D
:104910001D469046DDE906230F4606460D498020D8
:10492000FEF59FFF044680F83C50202239463D307A
:10493000FDF7ACFB2022314604F15D00FDF7A6FB3C
:1049400004F13C0241462046BDE8F0414123FFF519
:104950000DB9000059492000FFF568B82DE9F0476E
:104960001D46DDE9097392468946064600221F4925
:10497000A820DDF82080FEF574FF002180F8A51046
:10498000C763044680F85010012084F85100D8F81D
:104990000010C4F85210B8F80410A4F8561098F893
:1049A000060084F858002868C4F85900A888A4F8BC
:1049B0005D00A87984F85F001022514604F1600080
:1049C000FDF764FB1022494604F17000FDF75EFB21
:1049D0000748324606490068C4F880002046BDE812
:1049E000F0472023091DFFF5C1B80000F54920005C
:1049F000542222002DE9F0478A4604460027FFF59D
:104A000015F850B394F8A5004FF0010904F15008CF
:104A100004F1400630B104F1850501280DD00228CB
:104A200028D11BE0102251463046FDF72FFB002015
:104A300084F8840084F8A59009E0102251462846A5
:104A4000FDF724FB84F88490022084F8A500352328
:104A5000424631462046FFF589F80BE010225146C8
:104A600004F19500FDF712FBE36B29460020A269D3
:104A7000984701273846BDE8F08700002DE9F05F30
:104A80009B4692460546DDE90D230AA8894690E833
:104A9000C0011C498020FEF5E4FE04461022494670
:104AA0006D30FDF7F3FA1022514604F15D00FDF779
:104AB000EDFA1022594604F14D00FDF7E7FA30886F
:104AC000A4F84A00B07884F84C003968C4F8431060
:104AD000B988A4F84710B87984F84900D8F80000DC
:104AE000E063B8F80400A4F8400098F8060084F8E1
:104AF000420004F13C0229462046BDE8F05F412314
:104B0000FFF534B8094B2000FEF590BF2DE9F041C8
:104B10001F469046DDE906230E4605460F498C20C8
:104B2000FEF59FFE0446202229466C30FDF7AEFAC2
:104B30002022314604F14C00FDF7A8FA04F13C00B4
:104B4000102239460546FDF7A1FA2A46414620467D
:104B5000BDE8F0415023FFF509B80000614B20008B
:104B6000FEF564BF0748084901E0401E04D00A680A
:104B7000C2F34002002AF8D108B100207047032098
:104B80007047000020A1070038A7004000B58DB095
:104B9000302101A8FDF7A1FA1B480C901B480B908F
:104BA00000218DF8141001208DF815008DF81600E5
:104BB0008DF817008DF818008DF819008DF81A106F
:104BC0002020ADF81C004FF4FA70ADF81E00502004
:104BD000ADF820004FF47A70ADF822004FF4A070C9
:104BE000ADF82400ADF82610094801900E20ADF86C
:104BF000080007480E3003900C20ADF8100001A803
:104C000002F054FE0DB000BD05762000697620004C
:104C10004C1A220010B586B0012002F07BFE04463B
:104C2000002C09D01422054901A8FDF72FFAADF890
:104C3000084001A800F04AF906B010BD441B22004C
:104C400006460F46154672B63846FDF751FA40281B
:104C500001D9402002E03846FDF74AFA8046304646
:104C6000FDF746FA402801D9402002E03046FDF722
:104C70003FFA04469C211048FDF72FFA4246394678
:104C80000D48FDF703FA0C48224631465C30FDF72B
:104C9000FDF909484FF0AA31016445644FF0BB317A
:104CA00081644FF0CC3101654FF0DD31816500202A
:104CB00000F004F8FEE70000603C002030B5ADF2E3
:104CC0000C4D04464FF4806103A8FDF706FA194D18
:104CD000202085F83F0085F89B003CB12846012C38
:104CE000436DC26C09D0022C0CD00FE0114A12A106
:104CF0005C3203A8FEF760FC08E012A103A8FEF7EF
:104D00005BFC03E017A103A8FEF756FC03A90CA265
:104D1000686CCDE90121009019A3064A19A1002071
:104D200000F0FCFC012C01D000F0AAFC0DF20C4DAF
:104D300030BD0000603C00205B4552524F525D2068
:104D4000257300005B5741524E494E475D2050612C
:104D500072616D303A25642C506172616D313A2573
:104D6000640000005B504152414D5D205061726112
:104D70006D303A25642C506172616D313A256400C2
:104D8000000000006170705F6173736572742E6360
:104D90000000000001481AF087B90000F42D00203F
:104DA00006460F4690461D4672B64046FDF7A0F9EE
:104DB000402801D9402002E04046FDF799F9044619
:104DC0009C210D48FDF789F9224641460A48FDF726
:104DD0005DF909484FF05531016445644FF0663183
:104DE0008164C6644FF0773101654765C9438165C9
:104DF0000220FFF763FFFEE7603C00202DE9F04151
:104E000006460F4690461D464046FDF771F940287C
:104E100001D9402002E04046FDF76AF904469C2192
:104E20000D48FDF75AF9224641460B48FDF72EF989
:104E300009484FF011310164456449008164C6643A
:104E40004FF03331016547654FF044318165BDE86E
:104E5000F0410120FFF732BF603C002010B58EB05A
:104E60001748C1688068CDE905011C2107A8FDF736
:104E700034F901208DF81C0005A9089142F2107147
:104E8000099147F230510A9103218DF82C108DF8C9
:104E90002D000C480C900C480D9007A803F070FBF7
:104EA0000446002C0AD014220549F4316846FDF767
:104EB000EDF8ADF80440684600F008F80EB010BDFB
:104EC0003C1A2200E1812000E58020003EB5044626
:104ED0004FF400711A48FDF700F9207810B101284D
:104EE00019D01DE000211748A28830F831309A42CD
:104EF00007D100EBC10014A143681148FEF75CFB29
:104F00000EE02E2902D0491CC9B2EEE714A10C48CC
:104F1000FEF752FB04E01DA109486268FEF74CFB56
:104F2000074921A22069CDE901210090D4E902239B
:104F30001EA1002000F0F2FBBDE83E4000F0BABB2D
:104F4000603A0020881022004572726F7220636FF1
:104F50006465203078253034583A202573000000ED
:104F60004572726F7220636F64652030782530342B
:104F7000583A204E6F20666F756E6420696E666FBA
:104F8000726D6174696F6E2E000000002825732910
:104F9000206973206E6F742065737461626C69732D
:104FA0006865642E00000000257300006170705F6A
:104FB0006572726F722E63002DE9F041014600297F
:104FC0001BD000240F4E0E4A357814E002EB04107B
:104FD0000F780378BB420CD14B684068034208D07D
:104FE000707808B900F02AFB2046BDE8F04100F0D7
:104FF0004DBA641CE4B2AC42E8D3BDE8F0810000D5
:105000000C3D0020002E00207CB505460E46002DEC
:1050100001D0002418E0E5207CBD05EB04104168B8
:105020000091017A8DF80410417A8DF80510002165
:105030008DF80610C26800780023694600F038F841
:105040000028E9D1641CE4B2B442E6D300207CBD60
:1050500010B502460846052A25D2DFE802F0030310
:1050600003111900114951F832200104090C05D02F
:1050700022B1014610460EF07CF910E0E42010BD8C
:1050800010F0FF0F02D00DF05FFE08E0E42010BD2D
:1050900010F0FF0F05D0014600200EF013FA00209B
:1050A00010BDE42010BDE62010BD00008C0F2200D2
:1050B0002DE9F05F05460C46904699462668002784
:1050C000042D11D031462846FFF7C2FF214628465D
:1050D00000F068F8002808D1032D08D04FF0100A1E
:1050E0002807070E002451E0E620BDE8F09F4FF0AE
:1050F000080AF7E7F00746D03DB1012D05D0022D93
:1051000003D0032D27D0E620EFE7244800EBC500AD
:1051100090F904B0BBF1000F17D0EFF3108101201C
:1051200080F310881E4AE01942F8308002EBC0007C
:10513000C0F8049059B1012080F3108858460EF051
:1051400007FA58460EF011FA1DE0E420CDE70020E2
:1051500080F31088F2E7EFF31081012080F31088CC
:105160000F4AE019703242F8308002EBC000C0F8FC
:10517000049079B1012080F3108815200EF0E8F931
:1051800015200EF0F2F97608641CE4B25445B1D350
:105190000020AAE7002080F31088EEE78C0F2200A1
:1051A000D037002030B597B005460C461C22414947
:1051B00010A8FCF76BFF1C223E491C3109A8FCF724
:1051C00065FF20223B49383101A8FCF75FFF94B10D
:1051D0003949062019F0B8FE3849152019F0B4FEF7
:1051E00034496C39A1F12C02052D61D2DFE805F0BC
:1051F000060606213900E52017B030BD207931F8C8
:1052000010001190607932F810001290A07913907C
:10521000206810902748843850F835002188090408
:10522000090C04D018B110A90EF007F939E0E420F8
:10523000E2E7207901EB4000808A0A90607902EB76
:105240004000C0880B90A0790C90206809902078CD
:1052500010F0FF0F03D009A80DF0A8FD21E0E42015
:10526000CAE72079031F042B01D8E720C4E70228EE
:1052700019D001200290207901EB4000008D0390AD
:10528000607902EB400080890490A0790590206845
:105290000190207810F0FF0F08D001A900200EF037
:1052A00043F90020A8E702200290E4E7E420A3E706
:1052B000E620A1E710102200111E10000D1E1000A4
:1052C00002460020052A11D2DFE802F00303030999
:1052D0000C00074850F8320089B20EF0D0B888B2FE
:1052E0000DF0A8BD89B200200EF020B97047000073
:1052F0008C0F2200002803D002490860012070476B
:1053000000207047082E002070B505460024091FB4
:10531000062917D2DFE801F003070C111315284600
:1053200000F0A4F80EE00124284600F09FF809E000
:105330000224284600F09AF804E0032402E0042442
:1053400000E00524034A214628461268BDE8704063
:1053500010470000082E00202DE9F04104462046A9
:1053600000F0AEF801462E4800230826025D00F149
:105370000A0700F11405AAB1052A33D0082A2AD158
:10538000092945D0082926D1295D491CC9B22955CA
:10539000142920D32B5506552046BDE8F04108219D
:1053A000FFF7B2BF052913D0042916D0072914D05E
:1053B000082910D1295D491CC9B2295514290AD3DD
:1053C0002B5506552046BDE8F0410821FFF79CBF4C
:1053D0003B5505210155BDE8F0812046BDE8F0416F
:1053E000FFF792BF05290CD0395D491CC9B2395568
:1053F0003229F0D303552046BDE8F0410521FFF7DF
:1054000083BF03552046BDE8F0410621FFF77CBF6E
:1054100003552046BDE8F0410921FFF775BF0000A4
:10542000EC3D002070B504460D4600F00FF808B1C1
:1054300000F01AF90348044A2946005D5268BDE8A5
:1054400070401047003D0020002E0020002006493B
:1054500011F810200AB100207047401CC0B20A2881
:10546000F6D30120704700000A3E002003490022C5
:1054700001F8102001EB4000427070470A3E002006
:10548000014A02F8101070470A3E0020024A01212A
:1054900002EB4000417070470A3E002070B50024C6
:1054A000064D05EB4400407810B12046FFF754FF4D
:1054B000641CE4B20A2CF4D370BD00000A3E002044
:1054C00070B500211D4B03F132051A5C002A09D08A
:1054D000002403F10A06012A0AD0022A12D0032A64
:1054E00024D11FE015F8102002B301221A541DE048
:1054F00015F810201AB1345402221A5416E01C5424
:10550000042113E015F810204AB1325C521CD2B2CB
:105510003254642A0AD3072103221A5406E00521D3
:105520001C5403E015F8101011B10821084670BD95
:105530001C54FFF79BFF0921F8E70000D83D00202D
:10554000012905D0042905D0022905D10FF0E6BFB5
:1055500010F01AB80FF0BEBF704700002DE9F041FF
:105560000E4617460A2E02D80FB100231AE000207B
:10557000BDE8F08103EB430400EB8405114AA97AEE
:10558000D154104910F824200C3101EB031422707F
:1055900069686160297A2172697A61720A49E160F9
:1055A0005B1CDBB2B342E5D3064831460C30FFF753
:1055B0002BFD0648067047600548FFF79BFE01205B
:1055C000D6E70000003D0020B94F2000002E00204B
:1055D000255420002DE9F0410024124FDFF84880C7
:1055E00019E0002607EB041528786968FFF768FEC4
:1055F00010B9697A012902D0012802D005E00126FC
:1056000003E0687A022800D1012631462046FFF7E0
:1056100037FF641CE4B298F800008442E1D3BDE88F
:10562000F08100000C3D0020002E002010B5FFF797
:10563000D1FFBDE81040FFF731BF000010B5074AA9
:105640000121074800F064FA00220A21044800F012
:10565000B5FB04490120487010BD00002D56200004
:10566000B03D0020002E002010B5034800F07EFA67
:1056700002490020487010BDB03D0020002E0020DF
:105680000248406A002800D000477047383A00209E
:105690000149486270470000383A0020002806D0CF
:1056A000002904D0024AD269002A00D0104770476E
:1056B000383A00200248006A002800D000477047AE
:1056C000383A002070B50D4616460D4C00280AD019
:1056D0000178032911D80121A17601461A2220461A
:1056E000FCF7D4FC05E00020A0761A210448FCF762
:1056F000F4FCE5612662002070BD012070BD000051
:10570000383A0020044A1044807D084201D001202C
:105710007047002070470000383A00202DE9FE4F06
:105720000746924699460024A046CDF80480CDF85D
:10573000088059480178B94202D2807E00287DD184
:105740000EAD0095EFF311860220FDF7E0FF8346D2
:10575000FEF756F8401C012181400BEB0100C0B25E
:1057600080F3118801213846FFF7CCFF38B14B4850
:105770004B4950F82720204600F0A4F804461C218D
:105780003846FFF7BFFF00285ED046A244492046B6
:1057900000F098F8204484B204213846FFF7B2FFA5
:1057A000F8B152463E49204600F08CF8204484B2BD
:1057B00008213846FFF7A6FF38B13BA238492046FA
:1057C00000F080F8204484B20BE010213846FFF747
:1057D00099FF30B135A23249204600F073F82044D9
:1057E00084B208213846FFF78DFF90B14A462C4914
:1057F000204600F067F8204484B210213846FFF7B5
:1058000081FF30B12AA22649204600F05BF82044EF
:1058100084B210213846FFF775FF60B126A205213A
:1058200001A80C9BFDF7B0FE01AA1D49204600F01F
:1058300049F8204484B221A2194900E029E0204619
:1058400000F040F8204484B21548C4F5807120442B
:105850002B460D9AFDF7C4FECDF800804FF4807101
:10586000002804DB2044884201DC85B200E00D46BC
:10587000A81C884200D9FE2511A20949284600F03B
:1058800021F8284481B20648FFF708FFF0B280F300
:105890001188BDE8FE8F0000383A0020E42D00207A
:1058A0003839002028000000200000003A000000E5
:1058B000204C696E653A0000256C640029200000C8
:1058C0000D0A000030B50546002000290CD0002A42
:1058D0000AD006E02B18FF2B06D8CC54521C401CD3
:1058E00080B21478002CF5D130BD704710B5074A4E
:1058F00006214CF2010016F055FC05F025FD1AF0CA
:10590000C9FFBDE81040002029F662B82C1A220019
:1059100010B50848017800290AD101210170064814
:1059200028F6C0FFBDE810400021044829F6BCB8A5
:1059300010BD0000CC2D00201D1E1000FDC921004F
:1059400030B587B00546012003F088FB0C222CA15E
:10595000002003F0AFF90121962003F0FBFB044681
:105960004CB114222A496846FCF790FBADF804407C
:105970006846FFF7ABFA002D29D003F0BFF80446C4
:1059800054B11422224914316846FCF77FFBADF86C
:1059900004406846FFF79AFA03F054FD044654B1F8
:1059A00014221B4928316846FCF770FBADF804400F
:1059B0006846FFF78BFA17A04FF4A971CDE90010E4
:1059C000134B1DA2103B22A10320FFF7A7FE104896
:1059D000783803C8CDE9050105A805F015FA044695
:1059E000002C0AD014220A493C316846FCF74EFBD1
:1059F000ADF804406846FFF769FA07B030BD000013
:105A0000476F6F6469785F4D6F75736500000000C4
:105A1000B41A2200426F6E64696E6720616E642062
:105A200057686974656C6973742061726520636C72
:105A300065617265640000002E2E5C5372635C75B4
:105A40007365725C757365725F6170702E630000C0
:105A50004E4F5F544147000070B58CB006460C466F
:105A6000002C31D0242103A8FCF737FB2078002537
:105A7000012410B1012823D104E08DF80C508DF8D9
:105A80000D401DE011A040F24521CDE90010174B5B
:105A900017A21DA10220FFF741FE8DF80C408DF8E2
:105AA0000D4010210DF10E00FCF717FB40208DF882
:105AB0000E00E2208DF80F008DF810408DF8115087
:105AC00003A9304605F000F90CB070BD506C65615B
:105AD000736520496E7075742070696E20636F6401
:105AE000653A203132333435362E0000A81B2200AF
:105AF0002E2E5C5372635C757365725C7573657290
:105B00005F6170702E6300004E4F5F54414700008C
:105B10002DE9F04104460D461746002D04D0012D15
:105B200002D00120BDE8F081E4B1DFB16078012846
:105B30001AD0EFF311860220FDF7DBFD8046FDF75A
:105B400057FE401C0121814008EB0100C0B280F3E8
:105B5000118800206070A570E761F0B280F31188B1
:105B60000020DFE70120DDE70620DBE710B5044673
:105B7000002C0CD0204600F0B3F9FF20607000210B
:105B8000A160E160216161610020E06110BD012040
:105B900010BDF0B5DDE90745059981614FF47A76CE
:105BA000A2FB061C03FB06C3002702FB0732C0E969
:105BB000021209196A41C0E9041200210162F0BD14
:105BC0002DE9F0410446002C13D0EFF3118502209B
:105BD000FDF78FFD0746FDF70BFE401C012606FA78
:105BE00000F03844C0B280F31188124800212162CD
:105BF0000EE00020BDE8F081D4E90432D1E9047C54
:105C0000DB1B72EB0C0202D2016A216203E0084640
:105C1000016A0029F0D104626670064810380168F4
:105C2000491C0160016B4160E8B280F311880120DA
:105C3000E0E70000D83800202DE9F04105460024B7
:105C4000EFF311860220FDF754FD0746FDF7D0FD66
:105C5000401C012181407818C0B280F31188134A9A
:105C6000106BE8B115B102F1100010E00446206A93
:105C700010631068401E10600CE0A94206D1116844
:105C8000491E1160296A01622C4603E00846016A38
:105C90000029F2D124B1002020626070106B5060A6
:105CA000F0B280F311882046BDE8F081C8380020AA
:105CB0002DE9F041EFF311870220FDF71AFD0446AC
:105CC000FDF796FD401C012181406018C0B280F3B1
:105CD0001188114D002608E02078012804D1E169DF
:105CE00009B1A069884726702D6A2C6A002CF3D16F
:105CF000094D103D07E0E16909B1A06988472670A8
:105D0000206AA8632662AC6B002CF4D1F8B280F351
:105D100011880120BDE8F081D83800202DE9F0413C
:105D2000EFF311870220FDF7E4FC0446FDF760FD68
:105D3000401C012606FA00F02044C0B280F311880E
:105D40001D4DA5F110082DE0D4E90430D8E9021268
:105D50005B1A60EB0200D8E91021D21A814124D3EA
:105D600026702046FFF768FFA078012806D0124869
:105D7000283000212162016861B10FE0D8E90220DA
:105D8000D4E9021351185841C4E904102046FFF722
:105D900017FF07E0046005E001F120000168002919
:105DA000FAD104602C6A002CCED1F8B280F31188AD
:105DB0000120BDE8F0810000D83800202DE9FF5F08
:105DC00082460E4693464FF00008BAF1000F20D0ED
:105DD000414886421DD8E6B1EFF311870220FDF756
:105DE00088FC0446FDF704FD401C01218140601839
:105DF000C0B280F3118850460FF0C8FA10B19AF87B
:105E0000010040B1F8B280F311880F2004B0BDE862
:105E1000F09F0120FAE715F0F9FB04460D464FF418
:105E20007A7106FB01F022462B4600210FF038FA6A
:105E3000DFF8A890B0B1D9F8040048B1D0E9041057
:105E4000091B60EB0500C9E9021015F059FC04E0DC
:105E50000021C9F80810C9F80C104FF00108D9E961
:105E6000020106E0D9F80400D0E90421101B61EB1F
:105E70000501CDE9020132460023CDF800B05046BD
:105E8000FFF787FE5046FFF79BFE18F05DFF4FF0CF
:105E9000E024D4F800014FF4801510F4801F01D0E5
:105EA000012000E0002020B91420FDF7AFFBC4F86A
:105EB0000051B8F1000F0AD0D9F80400D0E904313C
:105EC000D9E90202181A61EB020115F0D5FBF8B20C
:105ED00080F31188002099E7008AB907C8380020AC
:105EE0002DE9F04104460025002C39D0EFF311874D
:105EF0000220FDF7FEFB0646FDF77AFC401C01215F
:105F000081407018C0B280F311886078012824D1D4
:105F1000144E7068A0420BD115F078FBD4E904321E
:105F2000181A62EB0102C6E9020215F0E9FB01252D
:105F30002046FFF781FE5DB1706848B1D0E90421C9
:105F4000D6E90203101A61EB030115F095FB04E09A
:105F50001DB9706808B915F0D3FBF8B280F3118849
:105F6000BDE8F081C83800202DE9F8430446334FDE
:105F700057F82400061D022C5ED290F86810002904
:105F80005AD00021D0E903231344027D02F001021C
:105F9000D21D9D184268D36FC3F38003002BFAD043
:105FA00090F80021A2B1264A1368491C90F83A20C3
:105FB000102A06D08268B3FBF2F26A43B1EBC21F2B
:105FC000F3D957F824006C3017F0C1FD85B226E0F4
:105FD000B0F82480C58C001D0DF07EFC57F824001D
:105FE00041F2883300EB0801491B7C31001D2A4631
:105FF0000DF090FEE5E757F8240001226C30694669
:1060000017F0C0FD57F824004068C16FC1F340018C
:106010000029FAD09DF8001001606D1EADB2002D70
:10602000E9D157F824006C3017F091FD0028C8D151
:10603000306841694906FCD5BDE8F883D02D0020C1
:106040005C00002070B504461A4D55F824006C30F1
:1060500017F07DFD82B21646A2B155F8240090F8E3
:10606000FD1001290ED0012180F80011802A0FD3E4
:1060700055F82400802200F17C016C3017F082FD7D
:1060800080260CE055F82410002081F8FC0070BD3B
:1060900055F8240000F17C016C3017F073FD55F8C1
:1060A0002400324600F17C01001D0DF06BFE00283B
:1060B000EDD170BDD02D0020704700002DE9F843D0
:1060C0000446534F57F82400061D022C7ED290F848
:1060D000681000297AD0012978D190F8FC100129A4
:1060E00074D190F8FD10002970D1012180F8FD10C5
:1060F000002157F82400D0E903231344027D02F065
:106100000102D21D9D184268D36FC3F38003002B98
:10611000FAD090F80021A2B13E4A1368491C90F8C9
:106120003A20102A06D08268B3FBF2F26A43B1EB40
:10613000C21FF3D957F824006C3017F008FD85B260
:1061400026E0B0F82480C58C001D0DF0C5FB57F883
:10615000240041F2883300EB0801491B7C31001D0B
:106160002A460DF0D7FDE5E757F8240001226C30F0
:10617000694617F007FD57F824004068C16FC1F366
:1061800040010029FAD09DF8001001606D1EADB2EB
:10619000002DE9D157F824006C3017F0D8FC002806
:1061A000C8D1306841694906FCD5EFF3108501205C
:1061B00080F3108857F824006C3017F0C8FC78B1D1
:1061C000EFF31081012080F3108800E015E03068C3
:1061D000426842F08202426089B1012080F3108857
:1061E00057F82410002081F8FC0057F8241081F89B
:1061F000FD0045B1012080F31088BDE8F883002040
:1062000080F31088ECE7002080F31088F5E70000A9
:10621000D02D00205C0000202DE9F04105460F46FE
:10622000002D06D02AB12C78022C04D3E820BDE83A
:10623000F081E520FBE7304E05F1580046F82400D8
:10624000D2E900310A466C30194617F065FC291D69
:10625000286D1AF053FA0028E9D156F82410281DA9
:10626000086656F82400076056F824001822083003
:1062700005F14001FBF70AFF204856F8241000EB17
:10628000C4056868486056F82400001D0DF07EFBC8
:1062900056F82400001D0DF007FC18480322114693
:1062A000103816F0C9FB56F82410012081F8680058
:1062B00056F82410002081F8FC0056F8241081F8CC
:1062C000FD0056F8241081F8FE0056F8241081F8DD
:1062D000FF000B490C2018F037FE0A490D2018F07A
:1062E00033FE95F901000DF033F995F901000DF039
:1062F0003CF900209BE70000D02D00207810220000
:10630000653520007535200070B5022801D3E820DE
:1063100070BD134C54F820304BB193F8685035B130
:1063200039B132B193F8FF50012D04D010E0E520CF
:1063300070BDE42070BD002583F8FF5054F8203074
:106340005B680225C3F8885054F820305B681B68EE
:1063500054F82000001D0DF051FC0028EAD170BD5A
:10636000D02D002070B5007802285BD1FF250024D5
:1063700002222DA12D48FBF7C2FEC0B104222CA1A0
:106380002A48FBF7BCFEA8B104222BA12748FBF743
:10639000B6FE90B105222AA12448FBF7B0FE78B1E1
:1063A000022229A12148FBF7AAFE60B10DE00224D8
:1063B00000250AE00424012507E00424022504E066
:1063C0000524032501E00224042518480122044481
:1063D0001EA12046FBF793FE80B1204601221CA19E
:1063E000FBF78DFEA0B10124F4211048FBF775FEE8
:1063F00021462846BDE87040FFF7A2B82046022299
:1064000014A1FBF77CFE08B10224EDE70324EBE7BF
:106410002046022210A1FBF772FE08B10524E3E733
:106420000424E1E770BD00007570000020420020E8
:10643000646F776E000000006C65667400000000F9
:1064400072696768740000006F6B00002B00000029
:106450002D0000002B2B00002D2D00002DE9F04118
:1064600004461A4D55F824006C3017F070FB82B2C8
:10647000164600277AB155F8240090F8FD1001293E
:1064800009D0802A0ED300F17C016C30802217F0F5
:1064900079FB80260BE055F8240080F8FC70002082
:1064A000BDE8F08100F17C016C3017F06BFB55F812
:1064B000240080F8007155F82400324600F17C0178
:1064C000001D0DF0A9FC0028EAD1E9E7D02D00203D
:1064D00070B5022801D3E82070BD104D55F820405A
:1064E00064B194F868604EB151B14AB15E1C09D0F4
:1064F00049F64046B34205D9E42070BDE52070BDA1
:10650000E42070BD002684F8FE6055F82000001DD0
:106510000DF000FC0028F4D170BD0000D02D00204B
:106520002DE9FC4781460D4616469A46DFF8A080C5
:10653000D8F8FC00A84248DBD8F80001A84201DAEC
:106540000CF0C0F9D8F80001A8423CDB05F1F700D7
:10655000F821B0FBF1F0C7B201242FE00020009039
:106560000190ADF80090ADF802509DF8040067F37B
:10657000071064F303008DF804000521684604F059
:10658000A6FF8DF805009DF8060020F00300801C92
:106590006AF382008DF80600684604F0C9FF0146E0
:1065A000304604F094FF8DF8070032466946D8F86B
:1065B000F8001AF06FFCF836641CE4B2BC42CDD986
:1065C0000020BDE8FC870520FBE70520F9E7000077
:1065D00070440020FEB50C4606460A7900210120D1
:1065E0008DE80700164D03230D2240212D68002061
:1065F000A84760780125162811D1012130460AF6F6
:10660000ADFB60B1407850B10E49207951F82610A9
:1066100081F848000021304600F036FC0025607803
:106620000C2805D12079072802D1304600F052FC11
:1066300025B12279012130460AF648FE0020FEBD30
:10664000E0010020CC19002070B50D46044608F684
:106650007BFD6988884200D2014620460AF624FF65
:10666000012120460AF63EFB012801D0412200E02C
:106670000022012120460AF629FE002070BD0000FC
:1066800038B50446134D0020009002230D222D68DA
:106690004021A847012120460AF624FB0C2803D0FC
:1066A0000E2814D041220CE0012120460AF656FBA8
:1066B0004189008981420AD0074850F8240090F8A7
:1066C0004820012120460AF601FE002038BD0022A4
:1066D000F7E70000E0010020CC1900202DE9F04789
:1066E0000F46814601210AF6FDFA032801D0402217
:1066F00042E0012148460AF631FB4FF6FF7A054693
:106700000026D04624E0012148460AF65FFB6B785C
:106710000146052202EB092240F604409B1D11F6BA
:10672000A9FB0446B819B61C80882080B0B239187D
:10673000801C8988618086B26878207188466A7872
:1067400005F10801601DFBF7A1FC204611F6DEFBF8
:106750007888B042D7D8E98808F1010080B2514565
:1067600000D35146814206D328B1A8800121484672
:106770000AF662FD04E00A22012148460AF6A6FD57
:106780000020BDE8F0872DE9F0470F468246012141
:106790000AF6A8FA072801D0402246E00121504617
:1067A0000AF6DCFA81467878012803D01026002505
:1067B000A84622E00226FAE7012150460AF606FB27
:1067C0000146052202EB0A22331D40F6074011F66E
:1067D00051FB04467819AD1CB0F80480ADB2A4F8A2
:1067E00000807919A6703246E01C091DFBF74EFCAB
:1067F000A81985B2204611F689FB7888A842DBD813
:10680000B9F8061008F101004FF6FF7280B291420C
:1068100000D31146814207D330B1A9F80400012109
:1068200050460AF609FD04E00A22012150460AF604
:106830004DFD0020BDE8F087084A52F82020126A7A
:1068400008E093888B4204D8D3888B4201D3108907
:1068500070471268002AF4D104F6F6B9CC1900206A
:106860000348024901600E2141607047B02B2200AD
:106870007805002070B5164A0C460546126849880E
:1068800090470146A088801D83B2052000EB0522B9
:1068900020781B2817D040F60D4011F6EBFA05467C
:1068A00020781B2812D012202870A0886880608869
:1068B000A880A288A11DA81DFBF7E8FB284611F6B9
:1068C00025FB002070BD40F60C40E6E71120EBE709
:1068D0004432002070B50D46064601210AF602FA40
:1068E0000C2806D04122012130460AF6EFFC002098
:1068F00070BD012130460AF631FA0446A888E188C5
:10690000401A80B2608104F10C010144EA8805F16B
:106910000800FBF7F4FB28B96089E988084421895D
:10692000884201D94FF6FF706081012130460AF696
:1069300083FCDCE72DE9F35F0D4648884978B0FB1E
:10694000F1F4012100980AF6CDF9022869D1002C52
:1069500067D0012100980AF601FA8046002668787F
:10696000B146142801D0022700E010274FF0000A9A
:106970004FF6FF7B30E0012100980AF627FA014626
:106980000098052202EB0022BB1D40F6044011F6E0
:1069900071FA0446A819B61C81882180B1B2681822
:1069A000891C828862808EB29146A91927713A4665
:1069B000601D091DFBF76AFBF01986B298F80130DB
:1069C00008F108023946601DFEF51DF808B14FF0C8
:1069D000010A204611F69AFA6888B04204D9BAF141
:1069E000000F01D1D945C6D109F1010080B2BAF139
:1069F000000F0ED1B8F80610594500D35946814210
:106A000007D330B1A8F80400012100980AF614FC5D
:106A100004E00022012100980AF658FC0020BDE89D
:106A2000FC9F4122F6E700002DE9F34F81B00025DD
:106A30000C46A8460121009501980AF653F9052253
:106A40000199042802EB012966D0052805D0062803
:106A500003D00A2871D04022FEE0012101980AF6F5
:106A60007DF907466078072801D9102000E0022050
:106A700082464FF0050B3DE06019B0F8048038788D
:106A800005280AD005EB0B0020447B7807F10802AB
:106A90005146001DFDF5B7FF48B3012101980AF6E4
:106AA00095F901464A460AF1060340F6064011F6FA
:106AB000E1F90646A0F80080AD1CA8B22118401CE0
:106AC0000979317180B22118801C8988718085B262
:106AD000611986F805A05246B01D091DFBF7D6FACC
:106AE00005EB0A0085B2304611F610FA02E0607834
:106AF000284485B26088A842BED8F98808F1010010
:106B00004FF6FF7280B2914200D31146814279D391
:106B1000002877D0B8806FE0012101980AF61EF9AD
:106B20008346A0784FF0000A5646400701D0102750
:106B300031E04FF0010A02272DE065E001210198C4
:106B40000AF644F901464A4607F1080340F60540B3
:106B500011F690F906466019AD1C81883180A9B202
:106B60006018891C828889B260187280891C8288AA
:106B7000B2808DB2BAF1000F14D06119B7713A46E4
:106B8000F01D091DFBF782FAE81985B2B6F80080FE
:106B9000304611F6BBF96088A842CFD8BAF1000F91
:106BA00009D01AE03D4A0198A6F10C0152F82000E4
:106BB0000C3001F6F5FB86B1002000904B460A220E
:106BC0000421019812F682F90146708848800198E4
:106BD00000F042F90020BDE8FE8FBBF8061008F176
:106BE00001004FF6FF7280B2914200D311468142FC
:106BF00008D330B1ABF80400012101980AF61CFB60
:106C00002EE0FFE70A2227E06078FF282AD00198CB
:106C10000AF624F86178801E884223DD012101985C
:106C20000AF6D4F8637801464A4640F609401B1D2F
:106C300011F620F9A1880546018014F8010F611DA5
:106C4000801E82B2AA8000206880A81DFBF71EFA71
:106C5000284611F65BF90022012101980AF636FB5D
:106C60000098B8E7A4F10805012101980AF676F822
:106C7000A18881806178891EC180002101816078AE
:106C8000A5F10C01801E68800448019A50F822008A
:106C90000C3001F685FB01200090ADE7CC190020F7
:106CA0002DE9F05F8946834601210AF61BF80B287F
:106CB00001D0412245E0012158460AF64FF800254F
:106CC0008046AA462E4631E0012158460AF67EF853
:106CD00008EB86070146F8880522801D83B202EB87
:106CE0000B2240F6094011F6C5F8B9880446018028
:106CF000B9F80200F988401B814200D2084682B2EE
:106D0000A2800020608009EB0501A01D091DFBF792
:106D1000BDF9A08841198DB2F988884201D04FF0A1
:106D2000500A204611F6F2F8761CF6B298F80100E7
:106D3000B042C9D8B9F80200A84201D04FF0500AB9
:106D40005246012158460AF6C1FA0020BDE8F09FDC
:106D50002DE9F0470C4606464FF00008012109F6E0
:106D6000C1FFDFF8F090042807D008282BD00928AD
:106D700029D00A2827D0412259E00121304609F6BE
:106D8000EDFF074659F826000C3001F6F1FA00F144
:106D90000C051022211DE81DFBF778F91020A871C1
:106DA000284611F6B3F82888F988401C4FF6FF7280
:106DB00080B2914200D31146814202D308B1B8801B
:106DC00041E00A2233E00121304609F6C7FF0546BB
:106DD000A11F002021F80E0959F826004F460C305B
:106DE00001F6DEFA288920B16188814200D2084686
:106DF000608057F8260062884FF00108C068C1899A
:106E0000114489B2C181B1F5006F01D911220EE0A0
:106E1000304609F623FF6188401E884203DC28893A
:106E2000814209D340B1304600F054F800220121DC
:106E300030460AF64BFA0AE0EA881144E98010B1BC
:106E40006188401A2881012130460AF6F5F940464A
:106E5000BDE8F087CC19002010B50C460978024631
:106E6000D2290CD052290AD01E2908D0052000EBC7
:106E7000022147F2305240F61D4011F617FB204622
:106E8000BDE8104012F646BB38B50446002000901D
:106E900005200D4600EB042318220421204612F69B
:106EA00015F8014645702046BDE83840FFF7D4BFCD
:106EB00038B5044600200090052000EB04231E2274
:106EC0000421204612F602F801462046BDE838406B
:106ED000FFF7C2BF2DE9F05F374C814654F8290017
:106EE000C068002866D00121484609F637FF82466F
:106EF00054F82900A3464FF00008C468012104F1AA
:106F00000C06E789484609F661FF0146B81D83B2C1
:106F1000052202EB092240F6094010F6ABFF8780FC
:106F2000BAF804100180BAF8061005464180307A9C
:106F3000092833D1727A06F10807A81DB91D921EDF
:106F4000FBF7A4F87878811E1FFA81F8216819B13F
:106F50006988081A801C68802468A6F10C0010F665
:106F6000CBFF04F10C0619E006F1080705EB080059
:106F70007289391D801DFBF789F8788800EB0801BC
:106F80001FFA81F8216811B16988081A688024689D
:106F9000A7F1140004F10C0610F6AEFF002CE3D1AB
:106FA0005BF829000C3001F6EBF82846BDE8F05FED
:106FB00010F6ACBFBDE8F09FCC19002010B5044618
:106FC000012109F68FFE0C2801D0412200E00022A9
:106FD000012120460AF67AF9002010BD0249014835
:106FE00008607047ED6F20003405002070B506463C
:106FF0000D461020288029463046FEF55BF80446F1
:1070000024B929463046FDF561FF0446074A298820
:1070100002A012689047204670BD000064625F7352
:10702000697A65203D2025640A000000E401002003
:107030003EB505461A20124B1B7899421FD8C1EB6A
:10704000C10101EB41030F4901EB8304627104EBC1
:1070500045014989012912D100208DF80000221D27
:107060002189022015F0F8FBADF802000120ADF8EF
:107070000400641D02946946284602F097FB3EBD59
:10708000742E0020B4460020002816D0028800F19B
:107090000801B2F5806F0AD0A2F58062013A09D0EA
:1070A000032A0AD1428A018A007900F007B80079E0
:1070B00000F078B8007900F019B970472DE9F84F61
:1070C0000746894616464FF0000A0024304615F060
:1070D00017FC00282FD0214DDFF8848011E0C4EB8D
:1070E000C40000EB400005EB8000031D0189052270
:1070F000484615F0CCFB8246BAF1000F05D1641C5E
:10710000E4B298F800008442E9D3BAF1030F14D036
:1071100000208DF800009DF8000000280BD0C4EB83
:10712000C40000EB400055F82010002903D08DF872
:10713000017068468847BDE8F88FC4EBC40000EBD7
:10714000400005EB800000EB47004681012E03D094
:1071500002208DF80000DEE70120FAE7B4460020A7
:10716000742E002010B588B00F208DF81C0064200C
:107170008DF81D0000200690012106A800F074F88B
:107180000446002C09D01422054901A8FAF77EFF15
:10719000ADF8084001A8FDF799FE08B010BD000049
:1071A000881C22002DE9F04385B081460E78ADF8A9
:1071B000006000278DF804700024294DDFF8A480BA
:1071C0000EE0C4EBC40000EB400005EB8002131D91
:1071D00011890522304615F05AFB28B9641CE4B227
:1071E00098F800108C42ECD3012102280ED003281D
:1071F00017D0042823D0ADF802708DF8041069462A
:10720000484602F0B1FB05B0BDE8F083ADF80210CE
:10721000C4EBC40000EB400005EB8000401D029071
:10722000EDE70220ADF80200C4EBC40000EB400023
:1072300005EB800000EB49000A300290DFE70720F1
:10724000ADF80200C4EBC40000EB400005EB800188
:107250001E3103A815F05EFB03A80290CFE70000E3
:10726000B4460020742E002070B506460D4600205E
:10727000002E03D0012D03D9012070BD022070BD66
:10728000002426E0C4EBC40000EB4001134806EBE9
:10729000C40200EB810006CAC0E90012002101818E
:1072A00000F1080282620E4AC262021D02630522D8
:1072B00080F8342080F8521080F853100849891C57
:1072C00081632830074902F021FB0028D7D1641CD4
:1072D000E4B2AC42D6D304490D7070BDB446002070
:1072E0006619220089702000742E00202DE9FC47C9
:1072F00006460F46B7F8008000200024ADF8008055
:1073000000218DF80210244DDFF890900EE0C4EBC0
:10731000C40000EB400005EB8000031D018905223D
:10732000404615F0B4FA28B9641CE4B299F800108C
:107330008C42ECD303281AD001208DF802009DF86E
:10734000020001280DD09DF8040050B1C4EBC40028
:1073500000EB400055F8201019B18DF8056001A828
:1073600088476946304602F0DDFCBDE8FC87B86816
:107370000FF000FCC4EBC40101EB410105EB8101FE
:1073800001EB46014881012803D002208DF804005A
:10739000D5E70120FAE70000B4460020742E002053
:1073A00010B50378002B03D0FF2B01D0012010BDB6
:1073B000012205E0845C9C4201D0012010BD521CDA
:1073C0008A42F7D3002010BDF0B5AFB000240D46BF
:1073D0000646846219A82421FAF77FFE229403A8A6
:1073E00024212394FAF779FE0C940EA82422314626
:1073F0000D94FAF74BFE706A1790B06A784E1890A9
:1074000024A824223146FAF741FE706A2D90B06A12
:107410002E90012021902290CDE90B40B4E0002372
:107420000EAA1846264652F82010891946EB030783
:107430007B084FEA310342F8203021F00103CB1AD8
:1074400000F101000928EED3002052F8201011B9F4
:10745000401C0928F9DBC0F1090050622198C007DF
:1074600006D019A8FBF7FCFA1698C007D7D044E05D
:10747000002319AA1846374652F82010C91947EBBD
:10748000030673084FEA310342F8203021F001036C
:10749000CB1A00F101000928EED3002052F8201089
:1074A00011B9401C0928F9DBC0F109005062DBE783
:1074B000002324AA1846264652F82010891946EBC4
:1074C00003077B084FEA310342F8203021F0010323
:1074D000CB1A00F101000928EED3002052F8201049
:1074E00011B9401C0928F9DBC0F1090050620B9862
:1074F000C0070FD003A8FBF7B3FA2C98C007D7D06A
:107500002D9B17980EA924AA98422FD835D3C0F1E5
:10751000090029E04FF0000303AA1846374652F845
:107520002010C91947EB030673084FEA310342F8EC
:10753000203021F00103CB1A00F101000928EED31D
:10754000002052F8201011B9401C0928F9DBC0F1C5
:1075500009005062D1E752F8203051F82060B34260
:107560000BD803D300F101000928F4D311460EA86B
:10757000FBF762FF03A919A804E01046FBF75CFFC4
:1075800019A903A8FBF780FF179800288FD10D9841
:1075900008B103A815E012490C9B03AA486A984257
:1075A00013D80DD3C0F1090008E052F8203051F88B
:1075B0002040A34204D808D300F101000928F4D3E5
:1075C000104617F0C9FC03A900E011462422284602
:1075D000FAF75CFD0C9868620D98A8622FB0F0BDB8
:1075E000F422220005484179002905D0407800287E
:1075F00002D1012000F08EB9704700007C470020C6
:1076000010F062BB0EB506A14FF48672CDE90021E1
:1076100002900C4B0CA212A10020FEF77FF80EBDC9
:10762000626C655F6164765F6572725F6576745FD8
:1076300068616E646C65723A203078253032782E3D
:10764000000000007C1A22002E2E5C5372635C75D1
:107650007365725C757365725F6170702E63000094
:107660004E4F5F54414700001CB506280FD2DFE89B
:1076700000F042030F1B273325A040F21911CDE97A
:1076800000102B4B2BA231A10220FEF747F81CBDA6
:1076900030A04FF48E71CDE90010254B25A22BA10F
:1076A0000220FEF73BF81CBD32A04FF49171CDE9EA
:1076B00000101F4B1FA225A10220FEF72FF81CBDB2
:1076C00031A040F22511CDE90010194B19A21FA1DC
:1076D0000220FEF723F81CBD30A04FF49471CDE9D1
:1076E0000010134B13A219A10220FEF717F8BDE8F2
:1076F0001C4004F0EBBA31A04FF49671CDE90010B4
:107700000B4B0CA211A10220FEF708F81CBD0000D3
:10771000424C455F4144565F4556545F444952458B
:10772000435445445F484947485F445554592E00E7
:10773000901A22002E2E5C5372635C757365725C26
:10774000757365725F6170702E6300004E4F5F54F9
:1077500041470000424C455F4144565F4556545FE7
:1077600044495245435445445F4C4F575F44555438
:10777000592E0000424C455F4144565F4556545FC8
:10778000464153542E000000424C455F4144565F31
:107790004556545F534C4F572E000000424C455FF6
:1077A0004144565F4556545F4449525F41444452F8
:1077B0005F524551554553542E000000496E766185
:1077C0006C696420416476206576656E74207479F6
:1077D00070652E0000200D4A9178012906D00229FB
:1077E00006D0032906D0042907D105E0012004E0D2
:1077F000022002E0032000E0042001215170D16941
:10780000002902D0002800D0084770477C4700209C
:1078100010B50D4900224A70002809D0022811D164
:10782000087900280ED0BDE81040012000F072B8A1
:107830008878FDF763F800F06DF8BDE81040C0B23D
:1078400000F018B810BD00007C4700200178002926
:107850000BD0074902680A6082888A808079887123
:10786000012081F8260000207047012070470000A9
:10787000A64700200349096A002902D0002800D049
:10788000084770477C4700200188A1F5007107393F
:1078900005D0012905D0FB2906D1FFF7A3BEFFF7CC
:1078A00099BF007AFFF7B4BF7047000070B5044677
:1078B000174D2878002801D00F2070BD2046FCF716
:1078C000D3FF0028F9D100212846A970A16AC1611F
:1078D000E16A0162162204F11001001DFAF7D6FBDD
:1078E0000021A3880846226800F0B8FFA2684AB1C8
:1078F000A3893BB1A17D29B90121002000F0AEFF91
:107900000028DAD10028D8D10121297070BD0000EB
:107910007C47002070B50546354C2078002817D0EC
:107920001E3404F81C5C0121E1710020A0720722C2
:10793000A277E072E17714F8142C1E3C62B1627EEB
:107940000AB184F83D20227E22B184F8412003E070
:107950000F2070BD84F84110A17909B1012D23D009
:10796000E2790AB1012D1FD00AB1022D1CD0C4F852
:107970002A00E08584F830002946201DFCF79AFF94
:10798000A070A17A39B1617E09B184F83D10217EE1
:1079900009B184F8411001280CD0022810D0032826
:1079A00014D004281DD117E0E1690029E4D0052096
:1079B0008847E1E70E4804F0ABF90028C9D110E090
:1079C0000B4804F0B6F90028C3D10AE0084804F0D7
:1079D000BDFF0028BDD104E0054817F005FA0028D6
:1079E000B7D10349BDE870404C31002000F0B2BF70
:1079F0007C47002000B589B007A818F037F9BDF81A
:107A00001E1008989DF81D20CDE904109DF81C302B
:107A100015A040F28521CDE90232CDE900101C4BC2
:107A20001CA222A10220FDF779FE22A040F28721AC
:107A3000CDE90010164B17A21CA10220FDF76EFE27
:107A40000DF0A4FA18F092FC04F0E6F817F05FF9D4
:107A500000F0F0FAFDF774FFFDF700FAFDF796F875
:107A6000FDF7D8F809B000BD476F6F646978204210
:107A70004C452053444B205625642E25642E256406
:107A80002028636F6D6D697420257829000000003F
:107A9000D41B22002E2E5C5372635C757365725C7E
:107AA000757365725F6170702E6300004E4F5F5496
:107AB00041470000484944204D6F75736520657843
:107AC000616D706C6520737461727465642E000062
:107AD000FCF546BC2DE9FF410DF1280898E8F000BF
