:020000040020DA
:10200000E857012059202000CF282000091E100089
:10201000CD282000F921200019292000000000000F
:10202000000000000000000000000000011E100081
:10203000FF21200000000000D1282000D728200028
:10204000DFF810D000F0D6FB00F054F8004800474D
:1020500009852000E85701200148804701480047D2
:10206000E9282000B185200010B5431A934209D217
:102070008318881803E010F8011D03F8011D521E93
:10208000F9D210BD40EA01039B0703D009E008C95B
:10209000121F08C0042AFAD203E011F8013B00F82D
:1020A000013B521EF9D210BDD2B201E000F8012B63
:1020B000491EFBD270470022F6E710B513460A46C8
:1020C00004461946FFF7F0FF204610BD421C10F8E9
:1020D000011B0029FBD1801A704730B5044600204F
:1020E000034600E05B1C934203D2E05CCD5C401BE6
:1020F000F8D030BD70B5054C054D03E02068204494
:102100008047241DAC42F9D170BD000000BF200003
:1021100004BF20002DE9FE4F81EA030404F00044CF
:1021200021F0004100944FF0000B23F0004350EAEF
:1021300001045ED052EA03045BD0C3F30A54C1F336
:102140000A552C44A4F2F3340194A0FB0254C1F3C9
:10215000130141F48011C3F3130343F4801301FB13
:10216000024400FB034E840A970A44EA815447EA7A
:102170008357A4FB076802958D0A05FB07854FEA84
:10218000932C04FB0C542705029D4FEA065847EA9E
:102190001637B5EB08056EEB070C870E920E47EA73
:1021A000811742EA8312A7FB0201B6EB0B0164EB35
:1021B00000042B0D43EA0C335E1844EB1C50DA4646
:1021C0005146E7FB0201C5F313044FEA0B3343EA20
:1021D00014534FEA0432019C43EA0603A4F10C04B1
:1021E0000294009CCDE900B400F086FA03B0BDE88B
:1021F000F08F00200146F9E7FEE703F06DB8FEE737
:1022000058585247010000000554000000202000EB
:10221000002020005EEC924700010000000000005A
:1022200000000000000000000000000000000000AE
:10223000000000000000000000000000000000009E
:102240002DE9FE4F804681EA0300C00F0C46009046
:1022500021F0004123F00045B8EB0200A94105D26E
:102260004046214690461C460B46024623F000405D
:10227000104347D0270DC7F30A00C3F30A51029059
:10228000401A019040286BDAC3F3130040F4801B1E
:102290000098924620B10023D2EB030A63EB0B0BAC
:1022A00001985946C0F14002504600F0AEF906468A
:1022B0000D4650465946019A00F0C6F910EB080049
:1022C0006141002487EA115284EAE7731A4340D03F
:1022D000009A62B3019A012A4FEA075215DC001BEB
:1022E00061EB02014FF0004202EA0752CDE90042E1
:1022F000001C41F5801132462B4600F0FDF903B079
:10230000BDE8F08F40462146F9E7001B61EB020172
:10231000001C41F5801300185B412018A2F500173E
:1023200047EB030140EAD570B6196D4111E06D0825
:102330004FEA360645EAC0754FEA0752001B61EBCB
:102340000201001C41F5801149084FEA30000019D4
:10235000514132462B4603B0BDE8F04F00F0BDB905
:102360000098012240000023D0EB020263EBE073EF
:10237000009821464FEAE074B8EB000061EB0401DD
:10238000E9E783F000435BE781F0004158E72DE97E
:10239000F04D81EA030404F0004B21F0004514469F
:1023A0004FF0000A23F0004150EA050220D054EA21
:1023B00001021DD0C5F30A570246C5F31303C1F34A
:1023C0001300C1F30A5640F4801543F48013A7EBC1
:1023D0000608101BD64608F2FD3873EB050002D341
:1023E00008F1010801E092185B41B8F1000F03DA2F
:1023F00000200146BDE8F08D00204FF48011064614
:1024000084460EE0171B73EB050705D3121B63EB25
:10241000050306434CEA010C49084FEA30009218C4
:102420005B4150EA0107EDD152EA030012D082EA83
:10243000040083EA0501084305D0101BAB4106D216
:102440000122002306E000224FF0004302E06FF07B
:10245000010253101AEB06004CEB085110EB0A0076
:1024600041EB0B01BDE8F04D00F037B930B4044644
:1024700096230800214604D0B62330BC002200F089
:10248000FEB820460021F8E70EB540F23341029134
:102490000021CDE900110A460B4600F02DF903B0EA
:1024A00000BD0EB540F2334202920022CDE9002277
:1024B000134600F021F903B000BD20F00040C20D2A
:1024C000C0F3160040F400007F2A02DA0020014623
:1024D00070470021962A03DCC2F19602D040704773
:1024E000963A00F092B870B5C1F30A5201F0004577
:1024F0000024C1F3130140F2FF3341F480119A42EA
:1025000001DA002070BD40F233439A42A2F2334216
:1025100003DC524200F088F800E090402C43F1D0F8
:10252000404270BDC1F30A5210B5C1F3130140F22D
:10253000FF3341F480119A4201DA002010BD40F2CD
:1025400033439A42A2F2334203DC524200F06CF869
:1025500010BD904010BD00F0004230F000400AD0A5
:10256000C10D01F56071C0F3160042EA0151C208C5
:1025700040071143704700200146704730B50B46B5
:10258000014600202022012409E021FA02F59D42A3
:1025900005D303FA02F5491B04FA02F52844151E77
:1025A000A2F10102F1DC30BD2DE9F05F054600200B
:1025B00092469B4688460646814640241BE02846B4
:1025C00041464746224600F02FF853465A46C01A65
:1025D000914110D311461846224600F016F82D1AE4
:1025E00067EB01084F4622460120002100F00DF85C
:1025F00017EB00094E41201EA4F10104DFDC484620
:1026000031462A464346BDE8F09F202A04DB203AA3
:1026100000FA02F1002070479140C2F1200320FA35
:1026200003F3194390407047202A04DB203A21FA33
:1026300002F00021704721FA02F3D040C2F12002DB
:102640009140084319467047202A06DBCB17203AF1
:1026500041FA02F043EAE07306E041FA02F3D040A7
:10266000C2F1200291400843194670470029A8BFD3
:102670007047401C490008BF20F00100704710B4AB
:10268000B0FA80FC00FA0CF050EA010404BF10BC60
:10269000704749B1CCF1200421FA04F411FA0CF18D
:1026A00018BF012121430843A3EB0C01CB1D4FEAC6
:1026B00000614FEA102042BF002010BC704700EBC1
:1026C000C35010440029A4BF10BC7047401C4900EF
:1026D00008BF20F0010010BC704710B5141E73F144
:1026E000000408DA401C41F1000192185B411A43D2
:1026F00001D120F0010010BD2DE9F04D92469B461E
:1027000011B1B1FA81F202E0B0FA80F220329046C3
:10271000FFF77BFF04460F4640EA0A0041EA0B013F
:1027200053465A46084313D0114653EA010019D0C4
:10273000C8F140025046FFF777FF05460E46504667
:1027400059464246FFF761FF084305D0012004E0E7
:1027500020463946BDE8F08D0020054346EAE07684
:102760002C4337430A986305E40AA0EB08000022D3
:10277000FD0A44EA47540A3002D500200146E9E741
:10278000010510196941DDE9084500196941BDE8F5
:10279000F04DA2E7C1F30A52C1F3130140F2FF3337
:1027A00041F480119A4202DA00200146704740F25B
:1027B00033439A42A2F2334202DC5242FFF734BF63
:1027C000FFF723BF30B5041E71F1000404DB4FF0A6
:1027D0000044404264EB0101141E73F1000405DB68
:1027E0001C464FF00043524263EB0403994208BF7A
:1027F000904230BD064C074D06E0E06840F0010312
:1028000094E8070098471034AC42F6D3FFF71CFC5D
:10281000C0BE200000BF200070B58C1810F8015B0E
:1028200015F0070301D110F8013B2A1106D110F869
:10283000012B03E010F8016B01F8016B5B1EF9D16D
:102840002B0705D40023521E0DD401F8013BFAE7F3
:1028500010F8013BCB1A921C03E013F8015B01F85E
:10286000015B521EF9D5A142D8D3002070BD10B52E
:1028700004F6CEFC10B102F087FC10BDBDE810409C
:102880002BF6B4BF10B52CF69DF8022818D00D4CCD
:10289000D4F8880220F00100C4F888024FF0E0214B
:1028A0004FF00050C1F8800204F5227402F006FED9
:1028B00005484168491C4160206840F001002060E3
:1028C00010BD000000E00040A0270020FEE7FEE76A
:1028D000FEE704F04BB8FEE70249096801F0070182
:1028E0000170704700A000400248016841F4700187
:1028F0000160704788ED00E002480068001D04F0A8
:1029000071BC0000D025002002484068001D04F082
:1029100069BC0000D0250020FEE700000FB4054B85
:1029200010B503A9044A029800F026FC10BC5DF81B
:1029300014FB0000B55F2000FC2500200FB41CB57F
:102940000246002007AC00290BD0491ECDE900212A
:10295000054B6A462146069800F00EFC009A0021BD
:1029600011701CBC5DF814FBA73820000FB4084B95
:1029700010B504A902AA039800F0FEFB044602A9C0
:10298000002000F09BFF204610BC5DF814FB000007
:10299000BD3820007CB5044600201D46164600299F
:1029A0000BD0491ECDE90041044B6A46294630460A
:1029B00000F0E2FB009A002111707CBDA7382000D6
:1029C000002809DB00F01F0201219140400980002E
:1029D00000F1E020C0F880127047002809DB00F009
:1029E0001F02012191404009800000F1E020C0F861
:1029F0008012704700280DDB00F01F02012191407A
:102A00004009800000F1E020C0F88011BFF34F8F33
:102A1000BFF36F8F7047002809DB00F01F02012110
:102A200091404009800000F1E020C0F8001170479B
:102A3000002809DB00F01F020121914040098000BD
:102A400000F1E020C0F800117047002809DB00F019
:102A50001F02012191404009800000F1E020C0F8F0
:102A60000011704700280FDB4109890001F1E021C6
:102A7000D1F8001100F01F0201209040014201D066
:102A8000012070470020704700207047002804DBB9
:102A900000F1E02090F80004704700F00F0000F112
:102AA000E02090F8140D7047002804DB00F1E020CE
:102AB00090F80004704700F00F0000F1E02090F85B
:102AC000140D704702480068C0F3022070470000F0
:102AD0000CED00E002480068C0F3022070470000DF
:102AE0000CED00E0EFF310807047000000000000E4
:102AF0002DE9F0412DED020B9FED3D0B2DED028BED
:102B00009FED3D8BDDE90254C4F30A50A0F2FF367D
:102B1000142E37DA002E18DA53EC102B9DED020B31
:102B200051EC100BFFF78CFB53EC182BFFF74AFE10
:102B300057D2002CBCBF4FF00044002551DB54EAB3
:102B4000050018BF2E4C1BD14BE02E4820FA06F78B
:102B500004EA070028431FD053EC102B9DED020B15
:102B600051EC100BFFF76CFB53EC182BFFF72AFE10
:102B700037D2002C03DD4FF48010F0400444BC43F6
:102B800000252EE0332E07DCA6F114004FF0FF31B4
:102B900021FA00F73D4206D19DED020BBDEC028B00
:102BA00002B0BDE8F08153EC102B9DED020B51EC0F
:102BB000100BFFF7E9FB53EC182BFFF703FE10D2C5
:102BC000002C0DDD142E08BF641C09D0C6F13400A2
:102BD000012101FA00F02844A84238BF641C0546D0
:102BE000BD43CDE902549DED020BD7E70000000084
:102BF0009C7500883CE4377E000000000000000067
:102C00000000F03FFFFF0F0002E008C8121F08C1DC
:102C1000002AFAD170477047002001E001C1121F5D
:102C2000002AFBD1704780F3108870472DE9F74FD9
:102C300007460298DFF86CA1DFF86C814FEA500B71
:102C40005A48019D5C465646CAF80000D8F8042050
:102C50003F2060F30502C8F80420DAF8000020F4F1
:102C6000700040EA0750CAF80000DAF8000020F4CB
:102C7000702040EA0740CAF800000D2F02D00E2F46
:102C800004D007E0306840F4004002E0306840F4CF
:102C900080403060306840F400503060306820F090
:102CA00060503060306820F00F0040F0030030606A
:102CB000002000F0AFF8012872D13168B24641F02F
:102CC000804131600020424609E0D8F8083043F4E2
:102CD0008033C8F80830811C00F1010005D09168EC
:102CE0009046C1F300210029EFD1072000F092F8AF
:102CF000012855D142E000264FF47A7924E04E4570
:102D00001ED9DAF8001021F08041CAF80010DAF874
:102D1000001041F00041CAF80010DAF8001021F06C
:102D20000041CAF80010002000F074F8012837D1E3
:102D30001F480169491C01610520FDF5F3FE7FE78D
:102D40000120FDF5EFFE761CD8F80800C0F3002046
:102D50000028D4D0D8F80800434600F07F02A242F1
:102D600000D92246002006E0196825F8021B090C4C
:102D700025F8021B401C9042F6D3A41A002CBAD1AD
:102D80000298C00707D040468168C1F3002100299E
:102D9000FAD000682880BDE8FE4F002000F03AB865
:102DA000BDE8FE8F00A8004000E000400A070807C9
:102DB000A02700202DE9F0411249044600200860B8
:102DC000104980390860104D686A104E00F001010A
:102DD00049420140F061C8050DD440F20117A869CD
:102DE000B84208D024B10120641EFDF59BFEF6E731
:102DF0000020BDE8F0810648006870616868B06135
:102E00000120F6E794581C4200E00040A027002073
:102E100000A800402DE9F041104F0546F868C0F3C6
:102E20000240A84217D0F86820F007002843F86055
:102E300000244FF6FF76F868C0F30240A84205D0A0
:102E40000120FDF56FFE641CB442F4D3B44202D1FC
:102E50000020BDE8F0810120FBE7000000E0004019
:102E60002DE9FF5F82B00021DDE90430020DDDF8BD
:102E700040B0034318D044F61050A2F2FF32424350
:102E80001514119801281FD0A5EB0B00401C5FEA18
:102E9000000A4FF000064E4FDFF83891B04650461A
:102EA00015D5CAF1000413E0119801244AA30128A2
:102EB00001D16FEA0B010298119AC0E90031C0E913
:102EC000024206B0BDE8F09FCBF10000DFE7044608
:102ED0000021404A491842EB0450CDE9001012E0AD
:102EE000E00707D032463B4640464946FFF712F915
:102EF0008046894632463B4610461946FFF70AF996
:102F000006460F466410002CEAD1DDE90401DDE934
:102F10000023BAF1000F06DAFFF7FCF842464B46F1
:102F2000FFF7F8F805E0FFF732FA42464B46FFF7A5
:102F30002EFA04460E460022284BFFF743FC03D826
:102F40004FF0FF30014607E00022254B2046314676
:102F5000FFF776F9FFF71EFC102409E0002C0ADBCE
:102F60000A220023FFF720FB039B30321A55641E10
:102F700050EA0102F2D1641C039AC4F11103144413
:102F8000119A012A03D0012208430DD10AE0084317
:102F900004D000204FF0110B119072E7A3EB0B054A
:102FA0006D1E0DE05B4504DD4FF0000205F10105EB
:102FB00004E003DA4FF00002A5F10105002AECD08D
:102FC00002981199C0E90231C0E9004579E7000093
:102FD000000014400000F03F300000000000F0430B
:102FE0000000E03FF0B50C462DED088B89B0064699
:102FF0009FED559B20216846FFF75DF8B0EE498AAA
:10300000F0EE698A102269463046FFF70FFE002570
:103010006F4607EB4500008AFFF736FA53EC182B92
:10302000FFF70EF96D1C41EC180BEDB2082DF0D333
:103030009FED470B51EC180B53EC102BFFF76AF880
:1030400041EC180B9FED44BB0D2E02D00E2E30D05C
:1030500072E06088FFF718FA53EC1B2BFFF797F923
:103060009FED3F0B41EC190B51EC100B81F000412F
:1030700041EC1A0BE088FFF707FA53EC1A2BFFF725
:1030800049F841EC1A0B2088FFF7FEF953EC182B96
:10309000FFF77AF953EC1A2BFFF779F99FED321B02
:1030A00053EC112BFFF773F953EC192BFFF7C8F80A
:1030B00040E0A07EFF2801D0E8B13DE09FED2C0B61
:1030C00051EC100B81F0004141EC1A0BE088FFF746
:1030D000DBF941EC190B2089FFF7D6F953EC182BDB
:1030E000FFF752F953EC192BFFF751F953EC1A2B58
:1030F000FFF710F81EE0A088FFF7C6F941EC190BA6
:10310000E088FFF7C1F981F0004141EC1A0B2089FA
:10311000FFF7BAF953EC182BFFF736F953EC1A2BDB
:10312000FFF735F953EC192BFEF7F4FF53EC1B2B8B
:10313000FFF72DF941EC190B09B0B0EE490AF0EE9A
:10314000690ABDEC088BF0BD000000000000000023
:10315000000000000000C03F0000000000005940D7
:103160000000000000000040DE718A8EE4F25FBFC4
:10317000E2E1E1E1E1E10E402DE9FF4F95B09B4630
:103180008946064600250FE2252877D100242746E8
:10319000F84A0121059400E0044316F8013F203B62
:1031A00001FA03F01042F7D130782A2811D06FF0DD
:1031B0002F033078A0F13002092A16D8059A44F07E
:1031C000020402EB820203EB42021044761C0590DB
:1031D000EFE759F8042B0592002A03DA504244F431
:1031E0000054059044F00204761C30782E2816D145
:1031F00016F8010F44F004042A280DD06FF02F02B6
:103200003078A0F13003092B09D807EB870302EBD4
:103210004303C718761CF3E759F8047B761C307813
:103220006C280FD006DC4C2817D068280DD06A28EF
:1032300014D104E0742810D07A280FD10DE044F4A2
:1032400000140AE044F4801401E044F4401472785D
:10325000824202D104F58014761C761C30786628F0
:103260000BD013DC582877D009DC002875D045280E
:10327000F6D04628F4D047281AD19DE118E06328FB
:1032800035D0642879D0652812D195E1702873D0A3
:1032900008DC6728F1D069286FD06E280DD06F2820
:1032A00006D1B5E073282CD0752875D0782874D055
:1032B0005A46179990476D1C75E1C4F302500228D5
:1032C00009D003280DD0D9F8001004280DD00D60C6
:1032D00009F1040967E1D9F80010EA17C1E90052C1
:1032E000F6E7D9F800100D80F2E70D70F0E719F855
:1032F000041B8DF8001000208DF80100EA46012023
:1033000003E059F804AB4FF0FF3061074FF00001C4
:1033100002D40DE008F101018846B9420FDA804578
:10332000F8DB1AF808100029F4D108E008F10101CF
:1033300088468142FADB1AF808100029F6D1059870
:103340005B46A0EB080721463846179A00F094FA2E
:10335000284400EB080507E04DE029E10DE01AF8EC
:10336000010B5A4617999047B8F10108F7D25B460E
:1033700021463846179A13E142E00A220092C4F32C
:1033800002524FF0000A022A08D059F804CB032A4F
:103390004FEAEC710AD00DE029E02AE009F10701BB
:1033A00021F00702F2E802C1914609E00FFA8CFC15
:1033B0004FEAEC71042A03D14FFA8CFC4FEAEC710E
:1033C000002907DA0A460021DCF1000C61EB02015A
:1033D0002D2202E0220504D52B228DF804200122A3
:1033E00003E0E20701D02022F7E7904659E00A21E6
:1033F00002E010220DE010214FF0000A00910BE0D6
:1034000010224FF0000A44F004040827009203E061
:1034100008224FF0000A0092C4F30252022A05D09B
:1034200059F804CB0021032A08D009E009F107016B
:1034300021F00702F2E802C1914605E01FFA8CFC78
:10344000042A01D10CF0FF0C4FF00008220728D508
:10345000702806D0009B83F0100353EA0A0305D0BE
:103460000EE040228DF80420012208E05CEA01020F
:1034700006D030228DF804208DF8050002229046F7
:10348000009B83F0080353EA0A030AD15CEA0102B5
:1034900001D1620705D530228DF804204FF00108D4
:1034A0007F1E582804D034A003900EA802900DE08F
:1034B00036A0F9E753466046009AFFF775F8844650
:1034C0000398825C0298401E029002705CEA010040
:1034D000F0D1029806A9081A00F1200A600702D567
:1034E00024F4803400E00127574502DDA7EB0A00F1
:1034F00000E0002000EB0A01009005984144401ACA
:103500000590E00306D45B462146179A059800F023
:10351000B3F90544002706E001A85A46C05D179993
:1035200090476D1C7F1C4745F6DBE0030CD55B46DE
:103530002146179A059800F09FF9054404E03020D1
:103540005A46179990476D1C0099481E0090002913
:10355000F5DC08E0029802995A460078491C02916D
:10356000179990476D1CBAF10001AAF1010AF1DC2C
:1035700065E1000009280100303132333435363737
:1035800038396162636465660000000030313233AF
:10359000343536373839414243444546000000004F
:1035A00000F058F90544761C307800287FF4ECAD23
:1035B00019B02846BDE8F08F620700D4062709F14C
:1035C000070222F0070CFCE80223E14603F0004862
:1035D0005FEA080C02D00FF2702C0DE05FEA045C89
:1035E00002D50FF2682C07E05FEAC47C02D00FF22C
:1035F000602C01E0AFF2700C4FF0FF3823F0004375
:10360000CDF850C065280CD006DC452809D04628E6
:103610001DD047283DD13DE0662818D067287ED1CF
:1036200038E00021112F01DB112000E0781CCDE9EA
:10363000000106A90EA8FFF713FCDDE90F010E9AA1
:1036400003910021009207F1010A04914DE04FF02F
:1036500000400097CDE9011006A90EA8FFF700FC75
:10366000DDE90F0203920E9B11990022DDF80CA0F8
:103670000093049211B9791C00EB010AB7EB0A0020
:1036800004D4C0F1FF3007F1010A0490AAEB07004F
:10369000019044E0012F00DA01270021112F01DD04
:1036A000112000E03846CDE9000106A90EA8FFF779
:1036B000D7FBDDE90F010E9A0391002104910092DE
:1036C000BA4621070CD40399514500DA8A46BAF16B
:1036D000010F05DD009AAAF10101515C302908D0E3
:1036E000B84202DA10F1040F06DA0121CDE9011027
:1036F00015E0AAF10101E9E7002805DC049901447D
:103700000491AAEB000102E0411C514500DD8A460C
:103710000499401A401C01904FF00040029020078D
:1037200004D40198504501DBCDF8048000208DF8C9
:103730004F0002980DF14F07B0F1004F25D02B201C
:103740000E9002984FF0020800280CDA40420290D6
:103750002D200E9007E00A210298FEF70FFF30316E
:10376000029007F8011DB8F10001A8F10108F2DC90
:1037700002980028EFD1791E0E980870307800F07A
:10378000200040F0450007F8020D12A8C01B00F110
:1037900007081498007800B1012000EB0A01019895
:1037A00001EBE07105984144401A401E0590E0038A
:1037B00006D45B462146179A059800F05DF805444B
:1037C0001498007818B15A46179990476D1CE00379
:1037D00024D55B462146179A059800F04DF805441C
:1037E0001CE00498002807DBDDE90301884203DDC3
:1037F0000098405C179901E0179930205A4690478D
:10380000049805F10105401C04900198401E0190A8
:1038100004D12E205A46179990476D1CBAF1000129
:10382000AAF1010ADDDC05E017F8010B5A461799E9
:1038300090476D1CB8F10001A8F10108F4DC5B466B
:103840002146179A0598ABE62D0000002B000000DA
:10385000200000002DE9F041044600251E461746D1
:10386000880404D405E039462020B0476D1C641E4E
:10387000F9D52846BDE8F0812DE9F0410446002540
:103880001E469046C80301D5302700E02027880453
:1038900004D505E041463846B0476D1C641EF9D595
:1038A0002846BDE8F0814A68002A06D00A68531C01
:1038B0000B6010704868401E486070470A68531CCF
:1038C0000B6010707047000010B51A4940F21A449E
:1038D0004FF4B9720B694FF496710C3BA3420FD9A8
:1038E0000424BE2801DC0C241BE0DC2801DC0824B5
:1038F00017E0FA280EDD884210DD904211DD0FE05E
:10390000BE2801DC0B240CE0DC2801DC072408E0E5
:10391000FA2801DC062404E0884201DC052400E0EA
:103920000324204604F08CF92046BDE8104004F042
:1039300073B90000D035002010B50B4C2089012848
:1039400011D194F84B0000280DD1608FFEF79CFD3B
:103950009FED061B53EC112BFEF7DCFBFEF7E2FD9F
:10396000218F0844208710BD683400209A999999C6
:103970009999A93F0748084901E0401E04D00A6808
:10398000C2F34002002AF8D108B10020704703209A
:103990007047000020A1070038A7004006460F46E8
:1039A000154672B63846FEF791FB402801D94020F3
:1039B00002E03846FEF78AFB80463046FEF786FB7B
:1039C000402801D9402002E03046FEF77FFB044644
:1039D0009C211048FEF76FFB424639460D48FEF722
:1039E00043FB0C48224631465C30FEF73DFB09485C
:1039F0004FF0AA31016445644FF0BB3181644FF050
:103A0000CC3101654FF0DD318165002000F00CF80C
:103A1000FEE7000028310020024B1B68002B00D07D
:103A2000184770470026002030B5ADF20C4D044613
:103A30004FF4806103A8FEF73EFB194D202085F866
:103A40003F0085F89B003CB12846012C436DC26CB9
:103A500009D0022C0CD00FE0114A12A15C3203A84D
:103A6000FEF784FF08E012A103A8FEF77FFF03E042
:103A700017A103A8FEF77AFF03A90CA2686CCDE991
:103A80000121009019A3064A19A1002000F064FB4F
:103A9000012C01D000F020FA0DF20C4D30BD0000D9
:103AA000283100205B4552524F525D2025730000A3
:103AB0005B5741524E494E475D20506172616D30F7
:103AC0003A25642C506172616D313A256400000022
:103AD0005B504152414D5D20506172616D303A251D
:103AE000642C506172616D313A2564000000000061
:103AF0006170705F6173736572742E630000000003
:103B0000014806F009BA00000026002006460F46CC
:103B100090461D4672B64046FEF7D8FA402801D9B5
:103B2000402002E04046FEF7D1FA04469C210D48B1
:103B3000FEF7C1FA224641460A48FEF795FA0948BF
:103B40004FF05531016445644FF066318164C664BD
:103B50004FF0773101654765C94381650220FFF762
:103B600063FFFEE7283100202DE9F04106460F46AD
:103B700090461D464046FEF7A9FA402801D940204C
:103B800002E04046FEF7A2FA04469C210D48FEF7EB
:103B900092FA224641460B48FEF766FA09484FF072
:103BA00011310164456449008164C6644FF03331CA
:103BB000016547654FF044318165BDE8F041012062
:103BC000FFF732BF283100207CB505460E46002D98
:103BD00001D0002418E0E5207CBD05EB041041680D
:103BE0000091017A8DF80410417A8DF805100021BA
:103BF0008DF80610C26800780023694600F038F896
:103C00000028E9D1641CE4B2B442E6D300207CBDB4
:103C100010B502460846052A25D2DFE802F0030364
:103C200003111900114951F832200104090C05D083
:103C300022B10146104602F046FD10E0E42010BD1E
:103C400010F0FF0F02D002F0BFFA08E0E42010BD30
:103C500010F0FF0F05D00146002002F0C4FD002047
:103C600010BDE42010BDE62010BD000070BA200099
:103C70002DE9F05F05460C469046994626680027D8
:103C8000042D11D031462846FFF7C2FF21462846B1
:103C900000F068F8002808D1032D08D04FF0100A72
:103CA0002807070E002451E0E620BDE8F09F4FF002
:103CB000080AF7E7F00746D03DB1012D05D0022DE7
:103CC00003D0032D27D0E620EFE7244800EBC50002
:103CD00090F904B0BBF1000F17D0EFF31081012071
:103CE00080F310881E4AE01942F8308002EBC000D1
:103CF000C0F8049059B1012080F31088584602F0B2
:103D0000B7FD584602F0C1FD1DE0E420CDE70020DC
:103D100080F31088F2E7EFF31081012080F3108820
:103D20000F4AE019703242F8308002EBC000C0F850
:103D3000049079B1012080F31088152002F098FDDD
:103D4000152002F0A2FD7608641CE4B25445B1D3FC
:103D50000020AAE7002080F31088EEE770BA200068
:103D6000982E002030B597B005460C461C224149DC
:103D700010A8FEF779F91C223E491C3109A8FEF76C
:103D800073F920223B49383101A8FEF76DF994B14F
:103D90003949062005F0A2FD3849152005F09EFDA1
:103DA00034496C39A1F12C02052D61D2DFE805F010
:103DB000060606213900E52017B030BD207931F81C
:103DC00010001190607932F810001290A0791390D1
:103DD000206810902748843850F83500218809045D
:103DE000090C04D018B110A902F0D1FC39E0E4208C
:103DF000E2E7207901EB4000808A0A90607902EBCB
:103E00004000C0880B90A0790C9020680990207821
:103E100010F0FF0F03D009A802F008FA21E0E42017
:103E2000CAE72079031F042B01D8E720C4E7022842
:103E300019D001200290207901EB4000008D039001
:103E4000607902EB400080890490A0790590206899
:103E50000190207810F0FF0F08D001A9002002F097
:103E6000F4FC0020A8E702200290E4E7E420A3E7A6
:103E7000E620A1E7F4BA2000111E10000D1E10006C
:103E800010B50B461146002903D0012901D0E420CA
:103E900010BD05281CD2DFE800F00303030F130058
:103EA0000C4A52F8300028B19BB20A46194602F07B
:103EB00090FC0BE0E42010BD98B202F0FBF905E0A5
:103EC00098B20A460146002002F0C2FC002010BD54
:103ED000E62010BD70BA20000248406A002800D0D9
:103EE00000477047003100200149486270470000D8
:103EF00000310020002806D0002904D0024AD269EF
:103F0000002A00D010477047003100202DE9FE4FF5
:103F10000746894600240025002001900290EFF317
:103F2000118000900220FEF7BFFD0646FEF7D2FD8D
:103F3000401C012181407018C0B280F311884FEA03
:103F4000D90BA0464FF02E0A55E00121032000F0C6
:103F5000F7F838B163486449C268204600F0D0F9E8
:103F6000204484B2002628466D1C3B5CADB25FA2A3
:103F7000082101A8FEF7E2FC01AA5B49204600F0F7
:103F8000BFF9204484B2761CF6B2082EEBD3680742
:103F900022D158A2082101A8FEF7D0FC01AA52495B
:103FA000204600F0ADF9204484B2083DADB20020B7
:103FB0004D4A795DA1F12003602B04D302F804A0DF
:103FC000641CA4B202E01155641CA4B26D1CADB215
:103FD000401CC0B20828ECD347A24349204600F059
:103FE0008FF9204481B24048FFF784FF002408F194
:103FF000010808F0FF08D845A7D35FEA49706BD0E5
:104000000121032000F09CF830B136483649C268DF
:10401000204600F075F904464FF0000809F0070645
:1040200013E028466D1C3B5CADB230A2082101A80C
:10403000FEF784FC01AA2C49204600F061F92044D7
:1040400084B208F1010808F0FF084645E9D84FF0AE
:104050000008C6F108090FE028A2082101A8FEF710
:104060006DFC01AA2049204600F04AF9204484B2A0
:1040700008F1010808F0FF08C145EDD81DA208218C
:1040800001A8FEF75BFC01AA1749204600F038F9A9
:10409000204484B2A81B81B20020134D10E07A5C4A
:1040A000A2F12003602B04D305F804A0641CA4B281
:1040B00002E02A55641CA4B2491C89B2401CC0B25B
:1040C0008642ECD80CA20849204600F019F9204499
:1040D00081B20548FFF70EFF0098C0B280F3118847
:1040E000BDE8FE8FEC25002000300020253032583E
:1040F00020000000207C20000D0A0000202020006D
:1041000070B50D4616460D4C00280AD001780329DB
:1041100011D80121A17601461A222046FDF7A4FFFD
:1041200005E00020A0761A210448FDF7C4FFE561F0
:104130002662002070BD012070BD0000003100200B
:10414000044A1044807D084201D0012070470020BD
:1041500070470000003100202DE9FE4F07469246CF
:1041600099460024A046CDF80480CDF8088059482F
:104170000178B94202D2807E00287DD10EAD009533
:10418000EFF311860220FEF78FFC8346FEF7A2FCB8
:10419000401C012181400BEB0100C0B280F311886B
:1041A00001213846FFF7CCFF38B14B484B4950F856
:1041B0002720204600F0A4F804461C213846FFF7CB
:1041C000BFFF00285ED046A24449204600F098F880
:1041D000204484B204213846FFF7B2FFF8B15246BA
:1041E0003E49204600F08CF8204484B2082138462D
:1041F000FFF7A6FF38B13BA23849204600F080F80F
:10420000204484B20BE010213846FFF799FF30B10B
:1042100035A23249204600F073F8204484B20821C8
:104220003846FFF78DFF90B14A462C49204600F0F2
:1042300067F8204484B210213846FFF781FF30B17F
:104240002AA22649204600F05BF8204484B21021BF
:104250003846FFF775FF60B126A2052101A80C9B27
:10426000FEF76CFB01AA1D49204600F049F82044E6
:1042700084B221A2194900E029E0204600F040F86C
:10428000204484B21548C4F5807120442B460D9A11
:10429000FEF780FBCDF800804FF48071002804DB2E
:1042A0002044884201DC85B200E00D46A81C88420B
:1042B00000D9FE2511A20949284600F021F828441A
:1042C00081B20648FFF716FEF0B280F31188BDE810
:1042D000FE8F000000310020EC250020003000207F
:1042E00028000000200000003A000000204C696E09
:1042F000653A0000256C6400292000000D0A0000CA
:1043000030B50546002000290CD0002A0AD006E06E
:104310002B18FF2B06D8CC54521C401C80B21478AA
:10432000002CF5D130BD000010B5084801780029F7
:104330000AD10121017006482AF6B4FABDE81040FE
:10434000002104482AF6B0BB10BD0000CC25002097
:104350001D1E10003D9320001CB505A09A21CDE93B
:1043600000100A4B0AA20EA10220FFF7F5FE1CBDA9
:1043700043414E20524553544F52452046524F4DD3
:10438000204255534F46462E00000000C0BC20007E
:104390002E2E5C5372635C6D61696E2E63000000AB
:1043A0004E4F5F54414700000EB506A19F22CDE954
:1043B00000210290094B0AA20DA10220FFF7CCFEBA
:1043C0000EBD000043414E204552524F525F434FB5
:1043D0004445203D2030782578000000DEBC2000D8
:1043E0002E2E5C5372635C6D61696E2E630000005B
:1043F0004E4F5F5441470000F0B593B00446002C87
:104400003AD0002006F058FF7C48217A00F8081CBA
:10441000617A00F8071CE16840F8041C0321017070
:104420000125457000268670227C0271627C4271F3
:1044300062698260017345738573227E0274627EB5
:104440004274E269426101764576857694F82020CF
:10445000027794F821204277626A026280F8241081
:1044600080F8256080F8265065490C3800F03AF94C
:1044700020B1002013B0F0BD0020FBE71296022708
:104480008DF848708DF84A60E06811908DF84950B9
:10449000207A11A9FFF766FC207A0122E168FFF774
:1044A000EFFC8DF848708DF84A60E06A11908DF845
:1044B000497094F8280011A9FFF754FC94F83800CB
:1044C0008DF82400E06B0A9005208DF82C008DF803
:1044D0002D504C490C9194F830108DF83410616BCC
:1044E0000E918DF83C008DF83D504748109047489C
:1044F000D4E90C12C0E90112022109A8FFF764FBFC
:1045000094F83000424D434E032864D0606B7062D3
:1045100094F828000122E16AFFF7B2FC0A20FCF5BA
:10452000FBFA94F828000022E16AFFF7A9FC0A20B0
:10453000FCF5F2FA20788DF8040060788DF805001B
:1045400060788DF80600E07800EB4001324830F8E2
:104550001110ADF80810E17801EB410100EB4101C9
:104560004988ADF80A10E17801EB410100EB410107
:1045700009798DF80C10217901EB410110F8111027
:104580008DF80E10217901EB410100EB4101897892
:104590008DF80F10217901EB410100EB410000790A
:1045A0008DF810001D4806901D4805901D48079085
:1045B0001D48089001A806F017FEE8B194F83000F5
:1045C00003280FD00620FEF708FA606B306206F071
:1045D00009FE01204EE7606BD5F800128143C5F853
:1045E000001295E71520FEF7F8F9606BD5F8001278
:1045F0000143C5F80012EAE700203BE72C26002023
:10460000919A2000B3B82000A17720004833002001
:1046100000A0004000000140F4BC200095462000AE
:104620002D462000A9432000594320003EB50C46EA
:10463000154609A18E23CDE9003102900C4B0DA245
:1046400010A10220FFF788FD03B029462046BDE8EF
:104650003040FFF75BBC000043414E2052582044DD
:104660004F4E45204944203D20307825782E0000CB
:1046700092BC20002E2E5C5372635C6D61696E2EBD
:10468000630000004E4F5F544147000006F015BE26
:1046900006F015BE1CB507490120087006A095213B
:1046A000CDE90010084B09A20CA10220FFF754FD30
:1046B0001CBD00001026002043414E2054582044C9
:1046C0004F4E452E00000000A9BC20002E2E5C534A
:1046D00072635C6D61696E2E630000004E4F5F5423
:1046E000414700002DE9F04105460F46002D05D059
:1046F0002C78022C04D3E820BDE8F081E520FBE70C
:104700002D4E05F1680046F8240095F8641080F8F5
:104710008F102878291D05F0CFF90028ECD156F824
:104720002410281DC1F8840056F82400076056F8AC
:1047300024001C22083005F14801FDF795FC1F48B4
:1047400056F8241050F82400486095F864000025BD
:1047500020B156F824101A48486202E056F82400A6
:10476000456256F82400001D02F058F956F824005E
:10477000001D02F0C3F9114805220321083004F09E
:104780000FFE56F82410012081F88C0056F8240002
:1047900080F88E500B49052005F0A0F80A49042046
:1047A00005F09CF8054D2D1F285702F061F8285799
:1047B00002F06BF800209FE7D825002070BB200096
:1047C000AFBEADDEF71E1000ED1E10002DE9F0416A
:1047D00004460D461746002D04D0012D02D00120BD
:1047E000BDE8F081E4B1DFB1607801281AD0EFF3C1
:1047F00011860220FEF74AF98046FEF763F9401C55
:104800000121814008EB0100C0B280F31188002033
:104810006070A570E761F0B280F311880020DFE7D7
:104820000120DDE70620DBE710B50446002C0CD0A4
:10483000204600F0B3F9FF2060700021A160E16024
:10484000216161610020E06110BD012010BDF0B563
:10485000DDE90745059981614FF47A76A2FB061CD4
:1048600003FB06C3002702FB0732C0E90212091945
:104870006A41C0E9041200210162F0BD2DE9F04156
:104880000446002C13D0EFF311850220FEF7FEF84A
:104890000746FEF717F9401C012606FA00F03844D7
:1048A000C0B280F311881248002121620EE000207E
:1048B000BDE8F081D4E90432D1E9047CDB1B72EB62
:1048C0000C0202D2016A216203E00846016A002953
:1048D000F0D104626670064810380168491C016016
:1048E000016B4160E8B280F311880120E0E700002D
:1048F000A02F00202DE9F04105460024EFF311869A
:104900000220FEF7C3F80746FEF7DCF8401C012141
:1049100081407818C0B280F31188134A106BE8B157
:1049200015B102F1100010E00446206A106310680F
:10493000401E10600CE0A94206D11168491E1160AA
:10494000296A01622C4603E00846016A0029F2D177
:1049500024B1002020626070106B5060F0B280F3D0
:1049600011882046BDE8F081902F00202DE9F0410C
:10497000EFF311870220FEF789F80446FEF7A2F84C
:10498000401C012181406018C0B280F31188114D94
:10499000002608E02078012804D1E16909B1A06966
:1049A000884726702D6A2C6A002CF3D1094D103DE2
:1049B00007E0E16909B1A06988472670206AA86309
:1049C0002662AC6B002CF4D1F8B280F31188012080
:1049D000BDE8F081A02F00202DE9F041EFF3118711
:1049E0000220FEF753F80446FEF76CF8401C01263F
:1049F00006FA00F02044C0B280F311881D4DA5F1E5
:104A000010082DE0D4E90430D8E902125B1A60EBFB
:104A10000200D8E91021D21A814124D32670204601
:104A2000FFF768FFA078012806D01248283000213F
:104A30002162016861B10FE0D8E90220D4E90213D4
:104A400051185841C4E904102046FFF717FF07E04A
:104A5000046005E001F1200001680029FAD104603A
:104A60002C6A002CCED1F8B280F311880120BDE869
:104A7000F0810000A02F00202DE9FF5F82460E4646
:104A800093464FF00008BAF1000F20D0414886420B
:104A90001DD8E6B1EFF311870220FDF7F7FF0446BA
:104AA000FEF710F8401C012181406018C0B280F36D
:104AB0001188504602F002FF10B19AF8010040B18F
:104AC000F8B280F311880F2004B0BDE8F09F0120F8
:104AD000FAE703F04DFC04460D464FF47A7106FBED
:104AE00001F022462B46002102F082FEDFF8A8905A
:104AF000B0B1D9F8040048B1D0E90410091B60EB4B
:104B00000500C9E9021003F0ADFC04E00021C9F87A
:104B10000810C9F80C104FF00108D9E9020106E0AD
:104B2000D9F80400D0E90421101B61EB0501CDE99F
:104B3000020132460023CDF800B05046FFF787FE51
:104B40005046FFF79BFE04F0EDFD4FF0E024D4F853
:104B500000014FF4801510F4801F01D0012000E007
:104B6000002020B91420FDF72BFFC4F80051B8F144
:104B7000000F0AD0D9F80400D0E90431D9E90202C3
:104B8000181A61EB020103F029FCF8B280F31188D6
:104B9000002099E7008AB907902F00202DE9F04105
:104BA00004460025002C39D0EFF311870220FDF7D1
:104BB0006DFF0646FDF786FF401C012181407018FD
:104BC000C0B280F311886078012824D1144E706837
:104BD000A0420BD103F0CCFBD4E90432181A62EBEB
:104BE0000102C6E9020203F03DFC01252046FFF761
:104BF00081FE5DB1706848B1D0E90421D6E90203B5
:104C0000101A61EB030103F0E9FB04E01DB97068C1
:104C100008B903F027FCF8B280F31188BDE8F081F1
:104C2000902F00202DE9F8430446334F57F8240015
:104C3000061D022C5ED290F8681000295AD000217F
:104C4000D0E903231344027D02F00102D21D9D1816
:104C50004268D36FC3F38003002BFAD090F8002191
:104C6000A2B1264A1368491C90F83A20102A06D0AF
:104C70008268B3FBF2F26A43B1EBC21FF3D957F873
:104C800024006C3004F063FC85B226E0B0F8248088
:104C9000C58C001D02F072F957F8240041F28833E8
:104CA00000EB0801491B7C31001D2A4602F056FB2F
:104CB000E5E757F8240001226C30694604F062FCF5
:104CC00057F824004068C16FC1F340010029FAD0B1
:104CD0009DF8001001606D1EADB2002DE9D157F8AE
:104CE00024006C3004F033FC0028C8D130684169DE
:104CF0004906FCD5BDE8F883D02500205C000020E3
:104D000070B504461A4D55F824006C3004F01FFCB1
:104D100082B21646A2B155F8240090F8FD10012980
:104D20000ED0012180F80011802A0FD355F82400FD
:104D3000802200F17C016C3004F024FC80260CE021
:104D400055F82410002081F8FC0070BD55F82400AF
:104D500000F17C016C3004F015FC55F8240032465B
:104D600000F17C01001D02F031FB0028EDD170BD87
:104D7000D0250020704700002DE9F8430446534F2A
:104D800057F82400061D022C7ED290F868100029E6
:104D90007AD0012978D190F8FC10012974D190F8CB
:104DA000FD10002970D1012180F8FD10002157F875
:104DB0002400D0E903231344027D02F00102D21D36
:104DC0009D184268D36FC3F38003002BFAD090F88C
:104DD0000021A2B13E4A1368491C90F83A20102ADB
:104DE00006D08268B3FBF2F26A43B1EBC21FF3D97B
:104DF00057F824006C3004F0AAFB85B226E0B0F826
:104E00002480C58C001D02F0B9F857F8240041F247
:104E1000883300EB0801491B7C31001D2A4602F053
:104E20009DFAE5E757F8240001226C30694604F04A
:104E3000A9FB57F824004068C16FC1F34001002965
:104E4000FAD09DF8001001606D1EADB2002DE9D1C1
:104E500057F824006C3004F07AFB0028C8D1306881
:104E600041694906FCD5EFF31085012080F31088D5
:104E700057F824006C3004F06AFB78B1EFF310812E
:104E8000012080F3108800E015E03068426842F0AD
:104E90008202426089B1012080F3108857F8241003
:104EA000002081F8FC0057F8241081F8FD0045B17E
:104EB000012080F31088BDE8F883002080F310887B
:104EC000ECE7002080F31088F5E70000D0250020F3
:104ED0005C0000202DE9F04105460F46002D06D06C
:104EE0002AB12C78022C04D3E820BDE8F081E5201B
:104EF000FBE7304E05F1580046F82400D2E90031B6
:104F00000A466C30194604F007FB291D286D06F08F
:104F100071FA0028E9D156F82410281D086656F8C1
:104F20002400076056F824001822083005F14001DB
:104F3000FDF79AF8204856F8241000EBC40568687D
:104F4000486056F82400001D02F072F856F824005C
:104F5000001D02F0FBF8184803221146103804F037
:104F60001FFA56F82410012081F8680056F8241022
:104F7000002081F8FC0056F8241081F8FD0056F856
:104F8000241081F8FE0056F8241081F8FF000B4928
:104F90000C2004F0A3FC0A490D2004F09FFC95F9B5
:104FA000010001F065FC95F9010001F06EFC0020A4
:104FB0009BE70000D02500205CBB2000F9282000E2
:104FC000092920002DE9F04104461A4D55F8240026
:104FD0006C3004F0BCFA82B2164600277AB155F85C
:104FE000240090F8FD10012909D0802A0ED300F189
:104FF0007C016C30802204F0C5FA80260BE055F865
:10500000240080F8FC700020BDE8F08100F17C01F4
:105010006C3004F0B7FA55F8240080F8007155F8A8
:105020002400324600F17C01001D02F019FA00282C
:10503000EAD1E9E7D025002070B50446022C01D35F
:10504000E82070BD184D55F8240090B190F86830F4
:105050007BB181B17AB1002680F8FE6055F824005A
:105060006C3004F0DBFA55F8240090F8FC1021B104
:105070000AE0E52070BDE42070BD90F8FD1019B97C
:1050800090F86810012901D0E22070BD012180F85C
:10509000FC102046FFF796FF20B155F8241081F848
:1050A000FC6070BD002070BDD02500202DE9FC47BC
:1050B00081460D4616469A46DFF8A080D8F8FC00D7
:1050C000A84248DBD8F80001A84201DA00F0DCFF72
:1050D000D8F80001A8423CDB05F1F700F821B0FB4D
:1050E000F1F0C7B201242FE0002000900190ADF84C
:1050F0000090ADF802509DF8040067F3071064F3C8
:1051000003008DF804000521684600F0A0F88DF832
:1051100005009DF8060020F00300801C6AF3820061
:105120008DF80600684600F0C3F80146304600F0EE
:105130008EF88DF8070032466946D8F8F80006F078
:105140001BFCF836641CE4B2BC42CDD90020BDE89B
:10515000FC870520FBE70520F9E70000C4310020AB
:1051600010B50378002B03D0FF2B01D0012010BD18
:10517000012205E0845C9C4201D0012010BD521C3C
:105180008A42F7D3002010BD2DF6B6BC00B587B01B
:1051900000F026F803208DF800001D208DF8160081
:1051A00001208DF817008DF818008DF81900064AB7
:1051B00006496846FEF7A4FF0548FEF795FEFEF790
:1051C0009FFC07B000BD0000DB51200045522000CD
:1051D000D55120000020FFF725BD0020FFF7CCBDF2
:1051E0007CB5144800904FF4806001901248002173
:1051F00001704FF4E1320264032242648164C164AD
:105200000165012444650274022343610825457445
:105210000176027184600724447101730749416378
:10522000816380F83C3080F83D206A460449FFF7EE
:1052300051FE7CBD3C2900203C2D00200040014057
:10524000754D20000A4601460020FFF7F5BE10B557
:1052500003460020002203E09C5C2044C0B2521CA4
:105260008A42F9D310BD7CB540F6886201FB02F595
:1052700000226B46114600F071FD04463CB1214608
:10528000684605F029FFF83D04F58070F0E72846F0
:105290007CBD01F6FF72130B00F6FF72A3EB123216
:1052A00052B2081AC2EB1020C0EB4010C000704789
:1052B0000279110902F00F028A4207D18078491E53
:1052C000A1EB411100EBC100C0B200E0F820F828CA
:1052D00000D9002070470000174810B50068C0F3DF
:1052E000000038B1144808380068C0F3000008B165
:1052F00004F096FA11480068C0F3000038B10F4876
:1053000008380068C0F3000008B100F071FC04F038
:10531000FFF900280FD002F001F900280BD001207E
:10532000FCF667FE0648816821F4807181600548BB
:1053300000218170C17010BD08E4004008E5004004
:1053400000A000407427002010B504F0E1F920B15E
:1053500002F0E4F808B1012010BD002010BD0000EB
:1053600010B50E491E2004F0B9FA04F0D1F988B145
:105370000120FCF617FE0A49012008700949D1F8FE
:10538000801211F4403F00D1002004F01BFA1E20CF
:10539000FDF74EFB00F0D2FB10BD0000FB2120000A
:1053A0007427002000A00040704700002DE9F04164
:1053B000C0B00F4610494FF48078D1F8F4204978F6
:1053C00008EB0131561800F5807500240EE04246C6
:1053D0006946304603F058FC42466946284603F0C9
:1053E00058FC06F5807605F58075641CBC42EED34A
:1053F00040B0BDE8F0810000C43100202DE9F04349
:10540000C3B0894615494FF48078D1F8F420497823
:1054100008EB01315618070B3F030024002201ABB3
:105420001146384600F09AFC054685B1424603A96C
:10543000284603F029FC424603A9304603F029FC24
:1054400005F5807706F58076641C0F2CE6D3C9F845
:10545000007043B0E0B2BDE8F0830000C43100202A
:10546000124810B5016821F00041016010490A7826
:10547000497842EA8103011D0A6863F31F720A60DA
:10548000016841F0004101600A48D0F8881241F0FB
:105490000101C0F8881208491D2004F01FFA4FF0DE
:1054A000E0214FF00050C1F8000110BD04A90040F8
:1054B000A027002000E0004085282000F8B5EFF389
:1054C0001086012080F3108806208DF800006846C1
:1054D000FDF702FA0220FBF52BF83220FBF522FB48
:1054E000184C206820F400302060251F286840F008
:1054F00002002860144F7889FBF514FB286820F01F
:1055000002002860B889FBF50DFB9DF80000FBF553
:105510000FF80C483830016889020CD40068216803
:10552000C0F3044041F400312160216821F4F831D6
:1055300041EA003020601EB1012080F31088F8BDE0
:105540000020FAE708A90040502800202DE9F04388
:10555000C5B0DFF8B890D9F8F850A5F580750024EB
:105560000027002619E041AB01220021284600F067
:10557000F5FB044620000ED0BDF8041143AB012218
:10558000D9F8F40000F0EAFB0746380009D0A7423A
:1055900007D0012605E0A5F58075D9F8F400A842EA
:1055A000E1D3002E27D042994198CDE90101204650
:1055B00001264FF0000803AA01A902F08BF990B16F
:1055C000761CF6B29DF80801B6EB101F02D94FF019
:1055D000010808E0BDF8041101AB3246284600F08E
:1055E000BDFB0028E7D1B8F1000F07D022463946AD
:1055F00043A800F05EF845B0BDE8F083214641A81D
:10560000D9F8F82000F055F8F5E70000C431002083
:1056100010B50C46A17921F00301A171801D012272
:10562000A11D03F036FB04480168F83101602088B1
:10563000BDE8104005F07CBDC03200202DE9F04FE0
:10564000BFB080468A469146FF22F82101A8FCF7A8
:105650002BFD00270824002089F800004FF6FF7B6F
:1056600008EB04052888584519D0284602F04DF962
:10567000A8B1A8780830C6B22888504504D134446F
:10568000012089F8000008E001A829463844324684
:10569000FCF7EAFC3444B819C7B2F82CE0D3F8227E
:1056A00001A908F10800FCF7DFFC3FB03846BDE86F
:1056B000F08F2DE9FC4105460F461646287904096E
:1056C0000DE029886B462246384600F047FB20B1A2
:1056D000B04202D26946FFF79BFF641EE4B2002C81
:1056E000EFD1BDE8FC812DE9FC410E4617466FF372
:1056F0000B00002512E000226B46114600F02EFB45
:105700000446002C0CD0B4420AD269462046FFF76A
:105710007FFF04F58070B04202D26D1CBD42EAD317
:10572000BDE8FC8180F828107047000000B500F04B
:1057300007F802490120886100BD0000F434002010
:1057400030B5084C012504F8045B84E80F000648D6
:10575000241F8068884201D2081A00E0401A606164
:1057600030BD00008C3500208827002010B501F0E6
:1057700039FF044618210548FCF79DFC034A002127
:1057800020461170BDE8104000F018B98C3500209B
:10579000F0B40E460146224F2048BB680578C0E9A8
:1057A0000821994201D9CC1A00E05C1AFF68A7428F
:1057B0000AD28769A74201D9C0E90642012D09D062
:1057C000022D1FD0032D27D113463246F0BC0020F6
:1057D000FFF7ACBF41619942016902D9491C816060
:1057E00002E0491EC1608168C268914206D211443C
:1057F0004908016101210170016909E0022101707C
:10580000816805E0C3699342DED003210170194627
:105810003046F0BC00F006B8F0BC704734350020CC
:1058200088270020054A936A5B1C93628AB2C1B242
:105830000348044B406801F07FBE0000343500206F
:10584000882700209157200070B50E4C05462C216A
:105850002046FCF730FC0020A06040F2FF10FF2241
:10586000C4E903024FF0FF30A061A06AE9B2401C16
:10587000A062012020700448044B4068BDE87040DD
:1058800001F05ABE343500208827002091572000AF
:105890002DE9F843254C0746904620780D4601280F
:1058A0000BD0022813D008201346E0610A4601B04D
:1058B0003946BDE8F043FFF739BF40F2FF11C4E9B4
:1058C00003712846BDE8F843022200F061B80026C3
:1058D00000966846676100F02BF870B1012810D07F
:1058E000022817D003281FD0072043462A463946EE
:1058F000E061FFF71BFFBDE8F8832846FFF7A4FF30
:10590000F9E70F2D04D201223146681CA66006E09B
:105910000520EAE735B101220021681EA66000F0EB
:1059200037F8E8E70620E0E70098DEE714350020C6
:1059300010B51649144A144C0B698968D268646919
:105940008A4201D98C4219D88A4201D28C4211D3A1
:105950008A4201D9521A00E08A1A8C4201D9611A8E
:1059600000E0091B9A4203D3994201D3002010BDE5
:105970009A4201D2012010BD994201D2022010BDED
:1059800003210160084610BD14350020882700203F
:10599000074B30B49C69641C9C6158601A708AB2D1
:1059A000C1B20448044B406830BC01F0C5BD0000E2
:1059B00014350020882700209158200070B5074C2E
:1059C000054620212046FCF776FB00212846A160F1
:1059D000BDE870400122FFF7DBBF00001435002056
:1059E000F8B51D4C00250E460095E169491CE161A2
:1059F000C4E90162E168C4E9030118498968814288
:105A000001D2401A00E0081A6169814201D9C4E953
:105A10000502684600F024F840B101280BD00228A6
:105A20000FD0032811D00098A06200E0A5622046A4
:105A300000F098F8F8BD012084F820003046A169F4
:105A400006E0A1683046491C02E0A1683046491EC4
:105A500000F04AF8F8BD00006035002088270020DB
:105A6000F0B51F4A1F4DD368A9688B4201D95C1A53
:105A700000E0CC1AED68A54210D2576A012F0DD074
:105A800092F82040012C09D0154CD6694FF0010C3A
:105A9000A569A468BE4203D3A54213D10020F0BD7E
:105AA000012E08D916698E4201D98B42F4D38E4259
:105AB00001D28B42F0D88B4208D9B4F5FF7F08D9C8
:105AC000092109E082F820C00120F0BD1CB10320AB
:105AD000F0BD0220F0BD0A2101600420F0BD0000ED
:105AE00060350020882700208AB2C1B20248034BEB
:105AF000406801F021BD000088270020E159200006
:105B000070B50D46044616462C210948FCF7D3FA19
:105B1000074B0020B2B283F82000401E5C6258613F
:105B20000448E9B2044B4068BDE8704001F004BD90
:105B30006035002088270020E159200010B501F0D1
:105B4000E3FC00280AD00648007818B1BDE81040F0
:105B500000F02EB8BDE81040FFF708BE10BD0000F1
:105B60008C35002000B500F007F80249012088615B
:105B700000BD0000F43400200B4901220A71826A42
:105B80008A60C269CA60C2680A6142684A61826802
:105B90008A61C26805488068824201D9101A00E013
:105BA000801AC86170470000A435002088270020B3
:105BB0002DE9F04101F016FD804601F025FD074674
:105BC0000A48094C2021466925682046FCF773FAEB
:105BD0006D1C0020256020713A4641463046BDE8E4
:105BE000F041FFF78DBF0000A4350020882700207A
:105BF00010B50E4C2069401C206101F02BFDE060C7
:105C000001F0F0FC606001F0FFFC094A0021A06097
:105C100011606161E3692BB102462179E068BDE85A
:105C2000104018470120A06110BD0000F43400208E
:105C300000E5004070B5164890F80014154D28682E
:105C40000122C0F30220401C82408818C0B280F3B9
:105C50001188114C0F4821680C306268A36880E8F5
:105C60000E00232204F10C010C48FCF7FDF9216B16
:105C70004FF0E020C0F80011616BC0F80411A06B78
:105C8000286007484068C0B280F3118870BD0000EA
:105C900002E000E00CED00E03836002000E400E017
:105CA00048280020EFF311800D4948604FF0E021B3
:105CB000D1F800210B480263D1F8041141630A496D
:105CC00009680A4A89B21143816307490C310EC938
:105CD000016042608360232205490C30FCF7C4B99F
:105CE00048280020383600200CED00E00000FA05BE
:105CF00000E400E070B5054605EB01342646A4F546
:105D00008074204601F04EFD40B12646A4F5807413
:105D1000200501D1A4F58074AC42F2D8304670BDA4
:105D20007CB500260C48046804F580744568082298
:105D30006946204602F0A8FF684601F0E6FD48B13A
:105D400004F58074200501D104F58074AC42EED3D3
:105D500030467CBD2646FBE7B83200202DE9F047EF
:105D600004460E4617461D464FF0000900202860E5
:105D700068601448D0F8F88020051DD104F58074BF
:105D80001AE008222946204602F07EFF16B1288834
:105D9000B0420BD127B1287900F00F00B84205D1ED
:105DA000284601F0B2FD08B1A14607E004F5807471
:105DB000200501D104F580744445E2D34846BDE88E
:105DC000F0870000C4310020F8B505460E4617469E
:105DD0001C4600953A466946304605F0CFF978B141
:105DE00000202060606008222146009802F04CFFED
:105DF000204601F08AFD08B10098F8BD0020F8BDEA
:105E000023463A4631462846FFF7A8FFF8BD2DE95C
:105E1000F04106460F46B079400719D5304601F0EB
:105E200074FDA8B108244FF6FF783519288840453D
:105E30000ED0284601F069FD50B12888B84202D141
:105E4000E0B2BDE8F081688808340444F82CECD353
:105E50000020F6E738B503F061F81D4C00224FF43E
:105E60008041204602F05EF80122D103204602F074
:105E700059F800224FF48031204602F053F80122F5
:105E80005104204602F04EF801229104204602F00F
:105E900049F80122D104204602F044F800208DF890
:105EA0000000A3208DF8010002208DF80200009868
:105EB000FCF52CF802F0F4FF012002F02CFC054860
:105EC000016821F000610160BDE8384003F050B87E
:105ED000000001400CAA004002494968002900D096
:105EE000084770473429002070B5044600BFFCF70E
:105EF000F9FD05460120FCF796FE0948047024B917
:105F000012220849084802F07BFC1DB90020FCF76A
:105F10008AFE02E00120FCF786FE00BF70BD000093
:105F200018270020A0330020002000E010B507480B
:105F30004068074948600648083010220349083184
:105F400002F05EFC03200249086010BD58330020B7
:105F5000002000E0002003490968002900D008471C
:105F6000704700003429002070B500BFFCF7BAFD6F
:105F700005460120FCF757FE0B48047834B912227D
:105F80000A490B4802F03CFCFFF7D0FF012006490C
:105F900008701DB90020FCF746FE02E00120FCF766
:105FA00042FE00BF204670BD18270020002000E000
:105FB000A033002013B501216846FDF79BFF0120A7
:105FC0001CBD00002DE9F04788B004462D4ED6F8E0
:105FD000F80000F6FF70070B3F034FF480594FF0B5
:105FE000010A07947178D6F8F40000EB01304946B5
:105FF00002F009FE07A92046FFF700FA054628002F
:106000000AD02A462046079905F070FC200B0003B1
:106010002A460799FFF767FB4FEA14384FEA08381A
:106020004946404602F0EFFD01A801F055FBD6F8C5
:10603000F400201A0AEB10308DF814009DF81510AA
:1060400008448DF8160001A805F088FC75B12946B2
:106050004046FFF7ABF9002000907178D6F8F400C5
:10606000012200EB0130694602F013FE04F5805472
:10607000BC42B6D37078002101F072FB08B0BDE8D5
:10608000F0870000C431002070B502F024FC094DF7
:106090002120287005F014F8FFF742FE18B1FFF731
:1060A00091FF044600E00A242020287002F012FC30
:1060B000204670BDC4310020024600210BE0084894
:1060C00050F83130501E834204D1054800EBC10026
:1060D00040687047491C1029F1DB0020F9E70000F7
:1060E000E8330020002101E0491C4008C207FBD032
:1060F0000846704770B5044600BFFCF7F3FC054640
:106100000120FCF790FD002014490870144815493F
:10611000086015481549086012221549154802F013
:106120006FFB15481249486003200860122213488B
:1061300002F066FB12220F490D4802F061FB882C29
:1061400001D004F08DFE1DB90020FCF76CFD02E0CB
:106150000120FCF768FD00BF70BD0000182700207B
:10616000E95E200038290020695F200034290020E2
:10617000002000E0A0330020003800205833002029
:106180002DE9FE430546002403208DF8000000267B
:106190000C4F4FF00108E8070BD008FA04F001900B
:1061A00007EBC4004068029057F8341009B1684604
:1061B0008847641CA4B26D08761C082EEBDBBDE892
:1061C000FE830000082F002070B50446204601F031
:1061D00043FC0121204601F057FC13480168A1430C
:1061E00001608168A14381600221204601F092FC98
:1061F0000121204601F0A8FC0121204601F0B6FC57
:106200000021204601F034FC01250AE094FAA4F0B4
:10621000B0FA80F105FA01F0611E0C40002101F096
:1062200053FC002CF2D170BD00A2004000B58DB02F
:1062300001680591416801F00302069282680792A5
:10624000C26808920269099242690A9280690B90B9
:1062500008090C9009A80FC88DE80F0005A80FC801
:1062600001F066FB0DB000BD2DE9F041104DD5F8F1
:106270000802C4B2D5F88400C0F340066FF00207EC
:10628000002C0CD0D5F80802A043C5F80802E04362
:10629000C5F80802C5F884702046FFF771FF002E8C
:1062A00003D0002C01D1C5F88470BDE8F081000056
:1062B00000A00040002908D005490A684FF6FF7386
:1062C00003EA002002430A60704701F0C5BB0000EA
:1062D00018AA004010B5064C0448206001F0BAFC32
:1062E000FDF748FB0021216010BD0000A2B4982BEF
:1062F00004A7004001218140024802688A430260ED
:10630000704700000C2600200121814002480268ED
:1063100011430160704700000C2600202DE9F04772
:10632000044600272F48D0F80090DFF8BC80D8F84A
:1063300000A04846514600F051F9D8F80460FAF53B
:1063400019F92A484FF47A710068B0FBF1F54D4312
:10635000D4E9000101F038FD6168226801EB4100D9
:1063600000EBC10002EBC0030EE0D8F80400801B74
:10637000A84209D9206C40F0200020640321204667
:10638000FFF7D0F9032725E0186CC0F34020002860
:10639000EBD0104601F0A8FC0EE0D8F80400801BFA
:1063A000A84209D9206C40F0200020640321204637
:1063B000FFF7B8F903270DE0D4E9000101F0E3FC91
:1063C0000028EAD1D4E9000101F0E7FC01212046D0
:1063D000FFF7A8F95146484600F0E0F83846BDE816
:1063E000F0870000FCED00E0001000E05C00002001
:1063F00070B50446002594F8280001280DD094F8C3
:10640000280002280FD094F82800042862D0206CBD
:1064100040F00400206401255CE0E16B002959D0C4
:106420002046884756E0D4E9000101F05DFCD4E93C
:10643000000101F0A8FC0028F9D121792268083177
:10644000012000FA01F1C2F8101321792268083105
:1064500000FA01F1C2F8181321792268083100FA14
:1064600001F1C2F8201321792268083100FA01F104
:10647000C2F8281321792268083100FA01F1C2F824
:1064800030132279216800FA02F2C1F83823227908
:10649000216800FA02F2C1F840232279216800FA4B
:1064A00002F2C1F848232179226800FA01F1C2F80A
:1064B0005013227921689040C1F85803D4E90001B3
:1064C00001F023FC01212046FFF72CF9E16B09B113
:1064D00020468847284670BD70B50446204600F027
:1064E00007F8054615B903CC01F01AFC284670BD23
:1064F0002DE9F84304460F4690461D460026002D20
:1065000007D094F82800012809D002263046BDE8BB
:10651000F883206C40F0080020640120F7E7022196
:106520002046FFF7FFF8D4E9000101F0EEFBD4E9C3
:10653000000101F0DFFBD4E9000101F0CAFB206992
:106540000090D4E9000143463A4601F0B1FBD4E99A
:1065500000012A4601F02CFC21792068012505FA6A
:1065600001F1C0F83813D4E9000101F002FC2179EF
:10657000206805FA01F1C0F84013D4E9000101F0E8
:10658000E4FB217920688D40C0F85853D4E900011C
:1065900001F0E5FB03CC01F0CDFBB7E710B5EFF35D
:1065A0001083012282F31088094C2268521E226057
:1065B000002A03D1074A1160074908601BB1012076
:1065C00080F3108810BD002080F3108810BD0000FB
:1065D000B8230020001000E0FCED00E010B5EFF360
:1065E0001083012282F310880B4A1468641C146023
:1065F00040F08072094802600268D201FCD541F087
:106600000100074908601BB1012080F3108810BD0C
:10661000002080F3108810BDB8230020FCED00E0BE
:10662000001000E00A4610B501460020FBF574FC9E
:1066300008B1002010BD012010BDFBF573BC10B5E2
:106640001446FBF5DBFC08B1002010BD204610BD50
:106650002DE9F74F00244FF4807AC0B017468B46DF
:106660001546524501D9564600E03E460BEB040163
:10667000884632466846FBF7F7FC4098324620448D
:1066800081466946FBF500FDB8B948463246694681
:10669000FBF5B4FC88B9404632466946FBF71DFD60
:1066A00058B9AD1B0DD034445646B54200D82E46DD
:1066B000BC4202D2A019B842D8D9002043B0BDE8EC
:1066C000F08F3846FAE770B505460C466868A04377
:1066D000686001222146284601F0E8FB6C62AC6349
:1066E00002222146284601F035FC01222146284697
:1066F00001F048FC01222146284601F051FC00220D
:106700002146284601F0C6FB01260BE094FAA4F0CE
:10671000B0FA80F006FA00F1601E0440002228461C
:1067200001F0E0FB002CF1D170BD00002DE9FE432B
:1067300080460F463846FFF7D5FC85B20024DFF8C7
:1067400034900D4E59F8340040450ED105EB04103D
:1067500085B28DF80040019706EBC50040680290B5
:1067600056F835200AB168469047641C032CE9DBD3
:10677000BDE8FE8370BA2000982E002010B5816B12
:1067800089B28163002901D0FFF7D0FF10BD10B599
:106790008EB0044608680690087900F00300079060
:1067A00088680890C868099008690A9048690B9041
:1067B00088690C90486800090D90142209A9684660
:1067C000FBF752FC06A920460EC901F008FB0EB0EB
:1067D00010BD002A03D042680A43426070474268F5
:1067E0008A434260704770B505460C460122214637
:1067F000284601F03FFC01222146284601F06EFCAC
:1068000002222146284601F09FFC0122214628460B
:1068100001F0B6FC01222146284601F0C3FC00220B
:106820002146284601F04CFC01260BE094FAA4F026
:10683000B0FA80F006FA00F1601E044000222846FB
:1068400001F05EFC002CF1D170BD01F0DBBB00005B
:10685000064BC1F30900002A03D0196801431960EF
:1068600070471968814319607047000000AA004012
:10687000002809DB00F01F0201219140400980003F
:1068800000F1E020C0F880127047002809DB00F01A
:106890001F02012191404009800000F1E020C0F872
:1068A000001170472DE9F041EFF311870220FCF74A
:1068B000EDF80446FCF706F9401C01218140601800
:1068C000C0B280F311880020FEF714F80546254E6B
:1068D000D5E90412C6E902122348081A72F11E0013
:1068E00019D306F110000EE0DCE90412D6E90234F7
:1068F000B1EB030872EB040804D3C91A62EB04027B
:10690000CCE90412006AD0F820C0BCF1000FEBD132
:106910000021B160F160A87801280AD1D6E90230DF
:10692000D5E9021259185041C5E904102846FDF76F
:10693000A5FFF8B280F31188FEF74EF8706840B1F9
:10694000D0E90421D6E90203101A61EB030101F03A
:1069500045FDE96909B1A8698847BDE8F041FEF73E
:1069600005B80000902F00200010C32C10B503497B
:106970006FF001000860FFF795FF10BD84A0004094
:1069800070B504460D46142002F0DCFE02490D6489
:10699000024A14430C6070BD00A5004003000001D2
:1069A0004FF40040704700000548816BC1F380013F
:1069B000002901D0806C70474FF0FF307047000015
:1069C00000A500400248806BC0F300007047000043
:1069D00000A5004010B5142002F0B4FE0348016881
:1069E00021F0010141F08071016010BD00A500405F
:1069F0001CB503F04FF804218DF800100649002261
:106A000051F8203083F88E2051F8200001680029C9
:106A100001D0684688471CBDD825002070B50446C3
:106A200090F85000E8B3204D2068A84202D101F050
:106A3000F0FB01E001F02EFC204600F0F7F92068A1
:106A40000121A84204D1194801601848E43007E048
:106A5000174A904205D11548001D01601348E830DF
:106A60000160EFF31080012282F31088114BD3F8FC
:106A7000CC52114A1540AA4301D1104A1160D3F8F3
:106A8000D43243F6C34213409A4302D10B4A803AB0
:106A9000116000B1012080F310880020606584F847
:106AA0005000002070BD000000C00040C4591C42CE
:106AB00000C1004000E0004005300630A8581C42EC
:106AC0001CB50446204602F0E5FF00228DF80020A8
:106AD000616D0191064951F8203083F88E2051F8FC
:106AE00020000168002901D0684688471CBD0000CD
:106AF000D825002090F8500070470000F0B58BB00A
:106B000004461C224A496846FBF7AEFA49484A49FE
:106B100007AB0068494FB0FBF1F0059044481C30CA
:106B200007C883E8070094F850000026E8B94448F5
:106B300006604348803806602068B84204D1414866
:106B400006604048E43007E03F49884205D13D48AF
:106B5000001D06603B48E8300660204600F067F9FB
:106B600041F28831204600F0A3F9206800218161BC
:106B700021680020C8612168042008652168002080
:106B80004865024601212046A36D03F035F9050052
:106B90004AD12068816821F0010181602068B842F3
:106BA00060680FD10190A0680290E0680390A0692E
:106BB000049020690590E06906906946206801F01C
:106BC00034FB08E00790A0680890E068099007A9E6
:106BD000206801F068FB20686169026822F03002D9
:106BE0000A4302602068816841F0010181606068A9
:106BF000B0F5E02F05D81548E06315482064154826
:106C00000DE0B0F5702F05D81348E06313482064F9
:106C1000134804E01348E063134820641348666592
:106C20006064012084F850000BB02846F0BD0000DD
:106C300098BB20005C00002080841E0000C0004043
:106C4000A8581C42C4591C4200C10040EF9C2000BF
:106C5000859C2000AD9D2000A79C20003D9C20002D
:106C6000119D2000CB9C2000619C20005F9D200096
:106C7000F8B504460068056B6A4E15F02E0F27D054
:106C8000816C0091C16A21F03F01C162606D40F0EA
:106C900002006065206AB04203D19321204600F0D3
:106CA00009F92068C16C69B10021C164A16C5E481A
:106CB000C863E16CC863A06CFFF79AFBE06CFFF758
:106CC00097FB05E0012084F850002046FFF7F8FE0E
:106CD000E8065BD5216C20468847A06B20BB206866
:106CE000C16A21F01001C16294F85000222808D036
:106CF00094F85000322818D094F85000082828D072
:106D000044E0012084F850000121206801F07AFA63
:106D10000028F9D1206AB04203D19121204600F029
:106D2000C9F8204600F0A6F830E0012084F85000B1
:106D30000121206801F066FA0028F9D1206AB042EA
:106D400003D19221204600F0B5F8204600F0F8F873
:106D50001CE0012084F850002068816821F00101C6
:106D600081602068816841F0010181600121206813
:106D700001F048FA0028F9D1206AB04203D19521E8
:106D8000204600F097F82046FFF732FEE80709D0CA
:106D9000E06A40B1E16B20468847E06A002801D1F3
:106DA00021688861F8BD2068C16A21F00101C162D3
:106DB00094F85000122821D094F850000828F1D1FE
:106DC000012084F850002068816821F00101816071
:106DD0002068816841F0010181600121206801F093
:106DE00011FA0028F9D1206AB04203D1942120463B
:106DF00000F060F82046FFF7FBFDF8BD012084F8A5
:106E000050000121206801F0FDF90028F9D1206A25
:106E1000B04203D19021204600F04CF8204600F00B
:106E200071F8F8BDAFBEADDE319A200070477047F3
:106E30000168C26D8A61026ECA61426E0A65826E25
:106E40004A658A6822F001028A60094A914203D1A8
:106E5000C26E4A61026F0A61826F0A60C26FC1F836
:106E6000F020406FC862886840F001008860704779
:106E700000C000401CB50446204602F00BFE022173
:106E80008DF80010616BA26B891AADF804100749E8
:106E9000002251F8203083F88E2051F8200001683C
:106EA000002901D0684688471CBD0000D825002075
:106EB0008165704710B502F0EDFD0649012251F8D9
:106EC0002000D0F8840041680078BDE81040FCF74D
:106ED000D7BF0000D825002001688A69C265CA6949
:106EE00002660A6D42664A6D82664A69C2660A692E
:106EF0000267CA6A42670A688267D1F8F010C16700
:106F0000704700001CB50446204602F0C3FD012175
:106F10008DF80010A16AE26A891AADF804100749D9
:106F2000002251F8203083F88E2051F820000168AB
:106F3000002901D0684688471CBD0000D8250020E4
:106F40001CB50446204602F0A5FD03218DF8001073
:106F5000616BA26B891AADF804100749002251F841
:106F6000203083F88E2051F820000168002901D0DC
:106F7000684688471CBD0000D825002070B504462F
:106F8000EFF31081012080F310882068426822F01E
:106F900082024260002916D0012080F3108894F804
:106FA00034000025012812D0658421680420C1F82E
:106FB000880010220021204604F0D9FA204600F073
:106FC00021F8002070BD002080F31088E7E7E06A18
:106FD00048B10B49C163E06AFFF70AFA60B1E06AA1
:106FE000C16B884708E0658410220021204604F028
:106FF000BEFA204600F006F884F83450E1E70000BD
:1070000051B320001CB504F0E3F903218DF8001002
:107010000649002251F8203083F8FC2051F8200066
:107020000168002901D0684688471CBDD025002092
:1070300070B5044694F8360094F83710084347D0EA
:1070400014220221204604F092FA20680025C0F89C
:10705000905041F2883300224021204604F03CFB4E
:10706000206801F045F9204600F01CF91B4A216810
:107070000120914204D11A4908601A49086005E0CC
:107080001749083108601749091D0860EFF310819E
:10709000012282F31088144BD3F8CC62134A1640B5
:1070A000B24302D10E4AD83A1060D3F8D43243F634
:1070B000C34213409A4301D10D4A106051B10120DF
:1070C00080F31088A56300220221204604F04FFAC5
:1070D000002070BD002080F31088F3E700C5004059
:1070E00080591C42805A1C4200E0004005300630A6
:1070F00028581C421CB50446204604F069F90022B9
:107100008DF80020A16B0191064951F8203083F8D9
:10711000FC2051F820000168002901D0684688470A
:107120001CBD0000D025002010F8361F407851EA21
:10713000000202D0102902D003E00020704710287E
:1071400001D01420704710207047000030B585B082
:10715000044694F83600002500281DD194F8370025
:10716000D0B91C4805601B48803805601A49206862
:10717000884205D11748D83005601848056008E0F6
:107180001749884224D11348E03005601348001D98
:107190000560204600F087F814220221204604F002
:1071A000E6F960680090A068019020690390E068AB
:1071B0000290606904906946206801F09DF8A5631B
:1071C00010220221204604F0D2F9002005B030BD83
:1071D0000120FBE7A8581C4200C50040805A1C4211
:1071E00000C6004070B504462268906800F00F00A9
:1071F0000021022809D004280CD0062816D00C281B
:1072000031D1A06901280BD00BE02046BDE87040C9
:1072100004F0D2B92046BDE87040002104F05EB908
:1072200001212046BDE8704004F058B95069A16BB7
:1072300000F01E000143A163D06FC0F3C00018B17D
:107240000021204604F04AF9A06B4FF000058007AA
:1072500020D5204604F08DF894F83500012803D09D
:107260002046FFF747FF70BD206B68B10C49C16332
:10727000206BFFF7BDF80028F5D084F83550206B5F
:10728000C16BBDE87040084784F835502046FFF7D1
:1072900031FF70BD2046FFF72DFFA56370BD0000D4
:1072A000C3B22000704770470168C26BCA600268B1
:1072B000D36843F08003D360026C0A60426C4A607A
:1072C0000268D36823F08003D360826CC1F8C020C9
:1072D000C26C0A610622C1F88820026DC1F89820AC
:1072E000426DC1F8A020806DC1F89C00704700007D
:1072F0001CB50446204604F06BF802218DF80010FE
:10730000218D628D891AADF80410044951F82000CE
:107310000168002901D0684688471CBDD02500209F
:107320000168CA68C263CA6842F08002CA600A681B
:1073300002644A684264CA6822F08002CA60D1F8D6
:10734000C02082640A69C264D1F898200265D1F82D
:10735000A0204265D1F89C10816570472DE9F0416D
:1073600006460D4614461F4696F83600102802D0F1
:107370000220BDE8F0810020B063112200213046D8
:1073800004F0F5F834840EE03B460022022130463A
:1073900004F04AF908B10320EBE7641EA4B2306898
:1073A00015F8011B0160002CEED13B460022402164
:1073B000304604F091F908B10320DAE710220021E9
:1073C000304604F0D4F80020D3E7000070B504463E
:1073D000154694F83600102802D00225284670BDC4
:1073E00020680122C0F8A020E06AD0E9002000EB6C
:1073F000400303EBC00002EBC000826922F460523C
:1074000042F400628261E161258465840026A663FE
:1074100011220021204604F0AAF8012084F834004B
:10742000E16A0D480863E16A0C488863E06AC66354
:1074300022682B46E169E06AFFF74EF80546002D09
:10744000CCD0A06B40F48070A063102200212046B5
:1074500004F08DF8C2E7000019B32000D3B2200079
:1074600010B5044694F83600102801D0022010BD53
:10747000E161228462840020A06311220021204661
:1074800004F075F820680321C0F8A010EFF3108114
:10749000012080F310882068426842F08202426036
:1074A00021B1012080F31088002010BD002080F35E
:1074B0001088F9E77CB50546284603F089FF0446A5
:1074C00001208DF80000288C698C401AADF804006A
:1074D0000C4D55F8240090F8000118B12046FDF736
:1074E0000FFC02E02046FDF76DFD55F8240090F8F2
:1074F000FC10002904D10168002901D068468847A2
:107500007CBD0000D02500200348406908B1002060
:107510007047012070470000F434002000B5FFF7E9
:10752000F3FF20B10348806908B1012000BD0020AD
:1075300000BD0000F43400202DE9F04198461446C7
:107540000F460646FFF7E0FF002841D00120FAF67B
:1075500029FD204D0120AC606861C5E9006700206D
:107560001D4EC5E90608306820F00100306038463D
:1075700000F040F8204600F059F8174CDFF858802A
:10758000164F143408F10C08B86840F48070B860E5
:10759000022000F023FD286800F02AFD206840F05A
:1075A00001002060206840F002002060306840F058
:1075B00001003060D8F8000030F07F40E4D0084986
:1075C0001E2002F08BF9BDE8F0411E20FBF730BA17
:1075D000BDE8F081F434002000E5004000A0004048
:1075E000FB2120000248006800F00F0070470000F7
:1075F00054A8004003490A6822F00F0202430A60BF
:107600007047000054A80040074800684FF6FF711B
:10761000C0F3801001EA00210348001F0068C0F396
:10762000074008437047000054A80040084AC1B210
:10763000136823F47F0343EA01411160111DC0F375
:1076400000200A6822F0400242EA80100860704779
:1076500050A800402DE9F04115482DED028B00683F
:10766000002420F07F4212480838006847F61223B1
:10767000C0F30B00451CA2FB030704FB037102FBD4
:107680000411FAF7F3FE08EE100A28462146FAF72D
:10769000EDFE00EE100A0749C8EE000ABCEEE00A53
:1076A00010EE100AC860BDEC028BBDE8F08100004E
:1076B0000CE5004074270020054A0649002052F8D6
:1076C000203041F83030401C2928F8D370470000A2
:1076D0004CBD20007836002010B50446FF2218214A
:1076E0002046FAF7E1FC06480168216041686160C4
:1076F0008168A160C068E06002484078607410BD95
:1077000088BB2000C431002070B586B00546134EFA
:10771000681C0103D6F8F40001F075FA6846FFF71B
:10772000DBFF01240BE08DF810409DF81100204490
:107730008DF81200684604F011F9641CE4B2AC4202
:10774000F1D956F8F40F00F58070706040F688604B
:107750004543B560F56006B0002070BDC43100201F
:107760002DE9F04107460E460C4C14F8F31C206836
:1077700000EB01353946FEF7BDFA60602946FDF79A
:1077800088FDE06039462068FDF76DFDA0600EB110
:10779000FDF7DCFE0020BDE8F0810000B8320020DB
:1077A00003F088BD30B5C1B005464FF4807101A823
:1077B000FAF781FC012201A9284601F065FA9DF83B
:1077C0000410FF2902D0002041B030BD01ACFF22DF
:1077D000611C284601F058FA0120215CFF2901D0E4
:1077E0000020F1E7401CFF28F7D90120ECE700005A
:1077F0002DE9F04705460E4617469846EFF31184EB
:107800000220FBF743F98146FBF75CF9401C01219C
:10781000814009EB0100C0B280F311880B48406839
:1078200048B1E81B76EB08060AD2E0B280F3118873
:107830000120BDE8F087E0B280F311880120F8E76D
:10784000E0B280F311880020F3E70000902F0020C1
:107850002DE9F043C1B0804616460124F82101A865
:10786000FAF729FC144FE2B23FAB4146D7F8F400D7
:10787000FEF7AAFA0546E5B13FA8FDF719FD8146D6
:107880004A4601A905F1080001F0FEF94A463146D1
:1078900001A8FAF722FC18B1002041B0BDE8F0833E
:1078A0004E44641C9DF80001B4EB101FDBD3012093
:1078B000F3E70020F1E70000C4310020002805D0E4
:1078C000C16919B1807818B1012801D00020704732
:1078D000012070472DE9F04107460C461546204629
:1078E000FDF7E6FC06463246294607F1080001F09E
:1078F000CBF931462846FDF7AAFCE179884202D14E
:107900000120BDE8F0810020FBE710B50446A07916
:1079100000F00300022808D105212046FDF797FC5E
:107920006179884201D1012010BD002010BD000006
:107930000FB470B5049C01250AE094FAA4F0B0FAE3
:1079400080F105FA01F0611E0C40079900F0BCF8C7
:10795000002CF2D10899049800F0F6F809990498DF
:1079600000F004F90A99049800F082F8DDE90401B6
:1079700000F08AF80699049800F0CCF8049835498C
:10798000D1F800228243C1F80022059801285DD178
:10799000049A4FF6FF7000EA022012060B9B120AAF
:1079A000062B44D2DFE803F0431203212E3B049B55
:1079B000DBB2D1F800428443C1F80042D1F804425E
:1079C000034394431C43C1F8044230E0049BDBB200
:1079D000D1F800428443C1F80042D1F80442104378
:1079E00084431C43C1F8044221E0049AD2B2D1F886
:1079F00000328343C1F80032D1F804029043C1F849
:107A0000040214E0049AD2B2D1F800320343C1F860
:107A10000032D1F804029043C1F8040207E0049850
:107A2000C0B2D1F8043210430343C1F804320498C1
:107A3000D1F808228243C1F808220B98002805D00B
:107A40000498D1F800220243C1F8002270BC5DF80E
:107A500014FB000000A0004004490A684FF6FF73C1
:107A600003EA002082430A607047000018AA004021
:107A7000C0B2044B1A688243012900D0002002439F
:107A80001A6070471CAA004030B50206120AC0B244
:107A9000012912D0032910D0002302290FD0032975
:107AA0000DD00021074D2C6894431C432C602B1DE6
:107AB0001A6882430A431A6030BD1346EDE7014657
:107AC000F0E7000014AA004010B5104A002917D0B2
:107AD000136843EA0043136090FAA0F0B0FA80F014
