:020000040020DA
:10200000205901204121200017242000091E100022
:1020100015242000FD212000612420000000000084
:10202000000000000000000000000000011E100081
:10203000FF21200000000000192420001F242000A0
:1020400000F002F800F06CF80AA090E8000C82445E
:102050008344AAF10107DA4501D100F061F8AFF23B
:10206000090EBAE80F0013F0010F18BFFB1A43F076
:102070000103184754880000948800000A444FF078
:10208000000C10F8013B13F0070408BF10F8014BD7
:102090001D1108BF10F8015B641E05D010F8016B1C
:1020A000641E01F8016BF9D113F0080F1EBF10F880
:1020B000014BAD1C0C1B09D16D1E58BF01F801CBA3
:1020C000FAD505E014F8016B01F8016B6D1EF9D526
:1020D0009142D6D370470000103A24BF78C878C127
:1020E000FAD8520724BF30C830C144BF04680C601E
:1020F000704700000023002400250026103A28BF66
:1021000078C1FBD8520728BF30C148BF0B60704769
:102110001FB508F08EFA00F031F91FBD10B510BDE3
:10212000DFF80CD0FFF7F4FF04F018F800F038F9EE
:102130002059012003B4FFF7F1FF03BC00F0E8FCD5
:102140000148804701480047312420006761200092
:1021500040EA010310B59B070FD1042A0DD310C824
:1021600008C9121F9C42F8D020BA19BA884201D976
:10217000012010BD4FF0FF3010BD1AB1D30703D0BE
:10218000521C07E0002010BD10F8013B11F8014B74
:102190001B1B07D110F8013B11F8014B1B1B01D190
:1021A000921EF1D1184610BD02F0FF0343EA03224C
:1021B00042EA024200F002B84FF000020429C0F0E7
:1021C000128010F0030C00F0B480CCF1040CBCF1D0
:1021D000020F18BF00F8012BA8BF20F8022BA1EBBB
:1021E0000C0100F0A6B85FEAC17C24BF00F8012B07
:1021F00000F8012B48BF00F8012B7047FEE7FEE70F
:1022000058585247010000000554000000202000EB
:10221000002020005EEC924700010000000000005A
:1022200000000000000000000000000000000000AE
:10223000000000000000000000000000000000009E
:10224000032A40F2308010F0030C00F0158011F8E2
:10225000013BBCF1020F624498BF11F801CB00F8BA
:10226000013B38BF11F8013BA2F1040298BF00F80E
:1022700001CB38BF00F8013B11F0030300F02580CB
:10228000083AC0F0088051F8043B083A51F804CBF2
:10229000A0E80810F5E7121D5CBF51F8043B40F8B8
:1022A000043BAFF30080D20724BF11F8013B11F8C3
:1022B00001CB48BF11F8012B24BF00F8013B00F807
:1022C00001CB48BF00F8012B704710B5203AC0F091
:1022D0000B80B1E81850203AA0E81850B1E8185027
:1022E000A0E81850BFF4F5AF5FEA027C24BFB1E864
:1022F0001850A0E8185044BF18C918C0BDE81040D5
:102300005FEA827C24BF51F8043B40F8043B08BFDD
:102310007047D20728BF31F8023B48BF11F8012BA4
:1023200028BF20F8023B48BF00F8012B70474FF050
:10233000000200B5134694469646203922BFA0E815
:102340000C50A0E80C50B1F12001BFF4F7AF090721
:1023500028BFA0E80C5048BF0CC05DF804EB890012
:1023600028BF40F8042B08BF704748BF20F8022B55
:1023700011F0804F18BF00F8012B704770B5064C64
:102380007C44064D7D4403E0206820448047241DA2
:10239000AC42F9D170BD0000848500008485000046
:1023A00010B50446AFF300802046BDE81040FFF7AB
:1023B000C1BE10B504F62CFF10B101F061F810BDDC
:1023C000BDE810402CF612BA01F0ECB810B52CF6AE
:1023D000F9FA022818D00D4CD4F8880220F0010038
:1023E000C4F888024FF0E0214FF00050C1F880029D
:1023F00004F5227401F0C8F905484168491C4160A0
:10240000206840F00100206010BD000000E00040A6
:1024100038290020FEE7FEE7FEE702F001BCFEE7F8
:102420000249096801F007010170704700A00040EF
:102430000248016841F470010160704788ED00E0D6
:1024400002480068001D02F0F1BC0000D026002008
:1024500002484068001D02F0E9BC0000D0260020C0
:10246000FEE7002809DB00F01F020121914040092E
:10247000800000F1E020C0F88012704700280DDBDA
:1024800000F01F02012191404009800000F1E0208E
:10249000C0F88011BFF34F8FBFF36F8F70470028D4
:1024A00009DB00F01F02012191404009800000F18A
:1024B000E020C0F800117047002809DB00F01F027F
:1024C000012191404009800000F1E020C0F8001196
:1024D0007047002809DB00F01F02012191404009EC
:1024E000800000F1E020C0F80011704700280FDBE9
:1024F0004109890001F1E021D1F8001100F01F022B
:1025000001209040014201D0012070470020704717
:1025100000207047002804DB00F1E02090F8000460
:10252000704700F00F0000F1E02090F8140D7047A4
:1025300002480068C0F30220704700000CED00E084
:10254000EFF31080704700002DE9F0412DED020BF4
:102550009FED3D0B2DED028B9FED3D8BDDE9025490
:10256000C4F30A50A0F2FF36142E37DA002E18DA20
:1025700053EC102B9DED020B51EC100B07F036FACB
:1025800053EC182B07F02EFE57D2002CBCBF4FF097
:102590000044002551DB54EA050018BF2E4C1BD126
:1025A0004BE02E4820FA06F704EA070028431FD024
:1025B00053EC102B9DED020B51EC100B07F016FAAB
:1025C00053EC182B07F00EFE37D2002C03DD4FF42E
:1025D0008010F0400444BC4300252EE0332E07DC7D
:1025E000A6F114004FF0FF3121FA00F73D4206D169
:1025F0009DED020BBDEC028B02B0BDE8F08153EC07
:10260000102B9DED020B51EC100B07F07BFE53ECF1
:10261000182B07F0E7FD10D2002C0DDD142E08BF9B
:10262000641C09D0C6F13400012101FA00F02844ED
:10263000A84238BF641C0546BD43CDE902549DED58
:10264000020BD7E7000000009C7500883CE4377E51
:1026500000000000000000000000F03FFFFF0F003E
:1026600010B52DED020B2DED088B84B09DED0C0BFC
:1026700051EC100B07F0ECFD41EC180B9DED0C0B31
:1026800053EC182B51EC100B07F048FE41EC190BE2
:102690000D989FED290B10F0004F53EC102B51ECCF
:1026A000190B9FED21AB9FED22BB0ED007F060FC14
:1026B0000ED953EC1B2B51EC190B07F093FD1CD2D8
:1026C00014E000BF41EC180B17E007F051FC06D2F4
:1026D00053EC1A2B51EC180B07F020FEF2E753ECE9
:1026E0001B2B51EC190B07F07DFD06D853EC1A2B70
:1026F00051EC180B07F07AF9E4E78DED028B9DEDB4
:102700000C0B18EE901A10EE900A8DED000B61F391
:102710001E0003909DED020B04B0BDEC088B02B0CF
:1027200010BD000000000000000000000000F03FAD
:10273000000000000000E03F000000000000E0BFDB
:1027400080F31088704700002DE9F74F0746029884
:10275000DFF86CA1DFF86C814FEA500B5A48019DFD
:102760005C465646CAF80000D8F804203F2060F3C3
:102770000502C8F80420DAF8000020F4700040EAEE
:102780000750CAF80000DAF8000020F4702040EA90
:102790000740CAF800000D2F02D00E2F04D007E02A
:1027A000306840F4004002E0306840F4804030601F
:1027B000306840F400503060306820F06050306085
:1027C000306820F00F0040F003003060002000F07F
:1027D000AFF8012872D13168B24641F080413160D2
:1027E0000020424609E0D8F8083043F48033C8F8A6
:1027F0000830811C00F1010005D091689046C1F3BA
:1028000000210029EFD1072000F092F8012855D1CE
:1028100042E000264FF47A7924E04E451ED9DAF8DA
:10282000001021F08041CAF80010DAF8001041F0E1
:102830000041CAF80010DAF8001021F00041CAF88F
:102840000010002000F074F8012837D11F480169FA
:10285000491C01610520FEF565F97FE70120FEF5C1
:1028600061F9761CD8F80800C0F300200028D4D005
:10287000D8F80800434600F07F02A24200D9224661
:10288000002006E0196825F8021B090C25F8021B38
:10289000401C9042F6D3A41A002CBAD10298C0076B
:1028A00007D040468168C1F300210029FAD00068B2
:1028B0002880BDE8FE4F002000F03AB8BDE8FE8F4A
:1028C00000A8004000E000400A070807382900205F
:1028D0002DE9F04112490446002008601049803972
:1028E0000860104D686A104E00F001014942014035
:1028F000F061C8050DD440F20117A869B84208D0AC
:1029000024B10120641EFEF50DF9F6E70020BDE8B4
:10291000F0810648006870616868B0610120F6E7E0
:1029200094581C4200E000403829002000A80040D4
:102930002DE9F041104F0546F868C0F30240A84267
:1029400017D0F86820F007002843F86000244FF6FD
:10295000FF76F868C0F30240A84205D00120FEF5DA
:10296000E1F8641CB442F4D3B44202D10020BDE8C3
:10297000F0810120FBE7000000E00040F0B50C46CC
:102980002DED088B89B006469FED559B20216846AA
:10299000FFF7CDFCB0EE498AF0EE698A1022694655
:1029A0003046FFF7D1FE00256F4607EB4500008A51
:1029B00007F085FA53EC182B07F018F86D1C41EC62
:1029C000180BEDB2082DF0D39FED470B51EC180B0F
:1029D00053EC102B07F008FB41EC180B9FED44BBA8
:1029E0000D2E02D00E2E30D072E0608807F067FA0C
:1029F00053EC1B2B07F0AEF89FED3F0B41EC190B8E
:102A000051EC100B06F0E6FF41EC1A0BE08807F0E2
:102A100056FA53EC1A2B07F0E7FA41EC1A0B208810
:102A200007F04DFA53EC182B07F06CFC53EC1A2B03
:102A300007F090F89FED321B53EC112B07F08AF84A
:102A400053EC192B06F0D2FF40E0A07EFF2801D006
:102A5000E8B13DE09FED2C0B51EC100B06F0BAFFF6
:102A600041EC1A0BE08807F02AFA41EC190B208997
:102A700007F025FA53EC182B07F044FC53EC192B04
:102A800007F068F853EC1A2B07F0AEFA1EE0A088A6
:102A900007F015FA41EC190BE08807F010FA06F080
:102AA00099FF41EC1A0B208907F009FA53EC182B17
:102AB00007F028FC53EC1A2B07F04CF853EC192BB9
:102AC00007F092FA53EC1B2B07F044F841EC190B7A
:102AD00009B0B0EE490AF0EE690ABDEC088BF0BD12
:102AE0000000000000000000000000000000C03FE7
:102AF00000000000000059400000000000000040FD
:102B0000DE718A8EE4F25FBFE2E1E1E1E1E10E40D5
:102B10007047000010B5014605F090FDB0B11648B1
:102B20000068C0F3805088B901F11400134A1428DA
:102B300002D240F2DC5007E011F1140F02DA4FF438
:102B4000AF6001E04FF4C8605061D06105F086FDD0
:102B500000280FD00C46FFF6EDFB02280AD13C2CD2
:102B600001DD142002E0322C04DA1C20BDE8104004
:102B700002F082BC10BD000014A800407C3500208B
:102B800010B51A4940F21A444FF4B9720B694FF468
:102B900096710C3BA3420FD90424BE2801DC0C24FF
:102BA0001BE0DC2801DC082417E0FA280EDD88424F
:102BB00010DD904211DD0FE0BE2801DC0B240CE09B
:102BC000DC2801DC072408E0FA2801DC062404E004
:102BD000884201DC052400E00324204602F0ECFEDC
:102BE0002046BDE8104002F0D3BE00007C35002036
:102BF00010B50B4C2089012811D194F84B00002806
:102C00000DD1608F07F05BF99FED061B53EC112B84
:102C100007F0EAF907F026F9218F0844208710BD54
:102C2000203400209A9999999999A93F0748084911
:102C300001E0401E04D00A68C2F34002002AF8D125
:102C400008B10020704703207047000020A1070052
:102C500038A7004030B597B005460C461C224149C4
:102C600010A8FFF732FB1C223E491C3109A8FFF7D0
:102C70002CFB20223B49383101A8FFF726FB94B1F9
:102C80003949062005F0AEF83849152005F0AAF8B4
:102C900034496C39A1F12C02052D61D2DFE805F031
:102CA000060606213900E52017B030BD207931F83D
:102CB00010001190607932F810001290A0791390F2
:102CC000206810902748843850F83500218809047E
:102CD000090C04D018B110A901F0FFFE39E0E4207E
:102CE000E2E7207901EB4000808A0A90607902EBEC
:102CF0004000C0880B90A0790C9020680990207843
:102D000010F0FF0F03D009A801F07AFC21E0E420C5
:102D1000CAE72079031F042B01D8E720C4E7022863
:102D200019D001200290207901EB4000008D039022
:102D3000607902EB400080890490A07905902068BA
:102D40000190207810F0FF0F08D001A9002001F0B9
:102D5000E6FE0020A8E702200290E4E7E420A3E7D3
:102D6000E620A1E7E4A62000411E10003D1E100051
:102D700010B50848017800290AD1012101700648E0
:102D80002BF690FDBDE81040002104482BF68CBEC8
:102D900010BD0000CC2600200D1E10009D6E2000EE
:102DA0002DE9F0410446002C13D0EFF311850220E9
:102DB000FFF7B0FB0746FFF7BBFB401C012606FAF6
:102DC00000F03844C0B280F311881248002121621B
:102DD0000EE00020BDE8F081D4E90432D1E9047CA2
:102DE000DB1B72EB0C0202D2016A216203E008468F
:102DF000016A0029F0D10462667006481038016843
:102E0000491C0160016B4160E8B280F31188012028
:102E1000E0E70000E02A00202DE9F041054600240B
:102E2000EFF311860220FFF775FB0746FFF780FBE3
:102E3000401C012181407818C0B280F31188134AE8
:102E4000106BE8B115B102F1100010E00446206AE1
:102E500010631068401E10600CE0A94206D1116892
:102E6000491E1160296A01622C4603E00846016A86
:102E70000029F2D124B1002020626070106B5060F4
:102E8000F0B280F311882046BDE8F081D02A0020FE
:102E90002DE9F041EFF311870220FFF73BFB0446D9
:102EA000FFF746FB401C012181406018C0B280F34F
:102EB0001188114D002608E02078012804D1E1692D
:102EC00009B1A069884726702D6A2C6A002CF3D1BD
:102ED000094D103D07E0E16909B1A06988472670F6
:102EE000206AA8632662AC6B002CF4D1F8B280F3A0
:102EF00011880120BDE8F081E02A00202DE9F04191
:102F0000EFF311870220FFF705FB0446FFF710FBE4
:102F1000401C012606FA00F02044C0B280F311885C
:102F20001D4DA5F110082DE0D4E90430D8E90212B6
:102F30005B1A60EB0200D8E91021D21A814124D338
:102F400026702046FFF768FFA078012806D01248B7
:102F5000283000212162016861B10FE0D8E9022028
:102F6000D4E9021351185841C4E904102046FFF770
:102F700017FF07E0046005E001F120000168002967
:102F8000FAD104602C6A002CCED1F8B280F31188FB
:102F90000120BDE8F0810000E02A002070B5044661
:102FA000012520780A4E012800D1357020780228AA
:102FB00008D17570A088708072880649A1F50070EC
:102FC000FFF73EF92078002801D13570757070BD8B
:102FD000DC260020102F00207CB50025184800902A
:102FE0004FF4007601966A461649174800F06CF8CF
:102FF000002823D1144941F2883423464922543908
:1030000000F07CF91049234609220B39002000F01A
:1030100075F90D4C583C657032460C49002000F0A3
:10302000CBF860780028FCD0257062880849002021
:1030300000F02AF920780028FCD0ECE77CBD0000E5
:10304000103100209D2F200034270020102F002059
:10305000102D002070B504461A4D55F824006C3030
:1030600004F0D5FC82B21646A2B155F8240090F8BF
:10307000FD1001290ED0012180F80011802A0FD304
:1030800055F82400802200F17C016C3004F0DAFC59
:1030900080260CE055F82410002081F8FC0070BD5B
:1030A00055F8240000F17C016C3004F0CBFC55F89D
:1030B0002400324600F17C01001D01F0D9FF0028F8
:1030C000EDD170BDD02600202DE9F04105460F4618
:1030D000002D06D02AB12C78022C04D3E820BDE8BC
:1030E000F081E520FBE7304E05F1580046F824005A
:1030F000D2E900310A466C30194604F06DFC291DF6
:10310000286D06F025F90028E9D156F82410281D6D
:10311000086656F82400076056F824001822083084
:1031200005F14001FFF7D1F8204856F8241000EBD4
:10313000C4056868486056F82400001D01F09CFD35
:1031400056F82400001D01F025FE18480322114600
:10315000103803F0C1FE56F82410012081F86800F1
:1031600056F82410002081F8FC0056F8241081F84D
:10317000FD0056F8241081F8FE0056F8241081F85E
:10318000FF000B490C2004F02DFE0A490D2004F02D
:1031900029FE95F9010001F0C4FC95F9010001F048
:1031A000CDFC00209BE70000D02600204CA720008B
:1031B000412420005124200070B5022801D3E820CA
:1031C00070BD134C54F820304BB193F8685035B1B2
:1031D00039B132B193F8FF50012D04D010E0E52051
:1031E00070BDE42070BD002583F8FF5054F82030F6
:1031F0005B680225C3F8885054F820305B681B6870
:1032000054F82000001D01F06FFE0028EAD170BDC7
:10321000D02600202DE9F04104461A4D55F824002F
:103220006C3004F0F4FB82B2164600277AB155F8F0
:10323000240090F8FD10012909D0802A0ED300F156
:103240007C016C30802204F0FDFB80260BE055F8F9
:10325000240080F8FC700020BDE8F08100F17C01C2
:103260006C3004F0EFFB55F8240080F8007155F83D
:103270002400324600F17C01001D01F043FF0028CC
:10328000EAD1E9E7D026002070B50446022C01D32C
:10329000E82070BD184D55F8240090B190F86830C2
:1032A0007BB181B17AB1002680F8FE6055F8240028
:1032B0006C3004F013FC55F8240090F8FC1021B198
:1032C0000AE0E52070BDE42070BD90F8FD1019B94A
:1032D00090F86810012901D0E22070BD012180F82A
:1032E000FC102046FFF796FF20B155F8241081F816
:1032F000FC6070BD002070BDD026002070B5022893
:1033000001D3E82070BD104D55F8204064B194F809
:1033100068604EB151B14AB15E1C09D049F64046D1
:10332000B34205D9E42070BDE52070BDE42070BD36
:10333000002684F8FE6055F82000001D01F060FEB4
:103340000028F4D170BD0000D02600202DE9FC47F4
:1033500081460D4616469A46DFF8A080D8F8FC0054
:10336000A84248DBD8F80001A84201DA01F016F8BB
:10337000D8F80001A8423CDB05F1F700F821B0FBCA
:10338000F1F0C7B201242FE0002000900190ADF8C9
:103390000090ADF802509DF8040067F3071064F345
:1033A00003008DF804000521684600F09DF88DF8B3
:1033B00005009DF8060020F00300801C6AF38200DF
:1033C0008DF80600684600F0C0F80146304600F06F
:1033D0008BF88DF8070032466946D8F8F80006F0F9
:1033E0008FFAF836641CE4B2BC42CDD90020BDE8A7
:1033F000FC870520FBE70520F9E700000C2C0020E6
:1034000010B50378002B03D0FF2B01D0012010BD95
:10341000012205E0845C9C4201D0012010BD521CB9
:103420008A42F7D3002010BD144810B5016821F07E
:1034300004010160016841F002010160016841F08E
:1034400001010160016821F002010160016841F0A1
:10345000040101600949022010390860074940F65B
:1034600001701C3908600120091D08600002FDF58B
:1034700059FB03F6C5FC0028FBD010BDE0A40040BA
:103480002FF63ABB70B5A0F55451AD394FF48272A6
:10349000B1FBF2F1CCB2104901EBC40505F588751A
:1034A000082C05D30146D9230CA2204600F6D0FEF5
:1034B00004EB841043F2AD5101EB8000A8800EF6BE
:1034C000EDFA044604482946143004F669FF204604
:1034D000BDE870400EF6F0BA0C0D00206C6C645F15
:1034E00070617463682E630010B5034600200022EB
:1034F00003E09C5C2044C0B2521C8A42F9D310BD48
:103500007CB540F6886201FB02F500226B4611464D
:1035100000F08AFD04463CB12146684605F01AFDDC
:10352000F83D04F58070F0E728467CBD01F6FF7297
:10353000130B00F6FF72A3EB123252B2081AC2EB61
:103540001020C0EB4010C00070470279110902F052
:103550000F028A4207D18078491EA1EB411100EB8E
:10356000C100C0B200E0F820F82800D90020704760
:103570000A2802D840F6641103E0242804D840F653
:10358000661101EB40007047252804D0262805D09D
:103590004FF41B60704740F66210704740F67A1097
:1035A00070470000174810B50068C0F3000038B13C
:1035B000144808380068C0F3000008B104F0B4FBF8
:1035C00011480068C0F3000038B10F48083800689F
:1035D000C0F3000008B100F071FC04F02DFB0028DE
:1035E0000FD001F0EDFD00280BD00120FEF6CFFC3E
:1035F0000648816821F4807181600548002181704E
:10360000C17010BD08E4004008E5004000A0004083
:103610000829002010B504F00FFB20B101F0D0FD07
:1036200008B1012010BD002010BD000010B50E49EA
:103630001E2004F0D7FB04F0FFFA88B10120FEF64B
:103640007FFC0A49012008700949D1F8801211F461
:10365000403F00D1002004F039FB1E20FEF72CFF74
:1036600000F0D2FB10BD0000C92320000829002073
:1036700000A00040704700002DE9F041C0B00F46A7
:1036800010494FF48078D1F8F420497808EB0131E3
:10369000561800F5807500240EE042466946304613
:1036A00003F0C4F842466946284603F0C4F806F51C
:1036B000807605F58075641CBC42EED340B0BDE851
:1036C000F08100000C2C00202DE9F043C3B08946A6
:1036D00015494FF48078D1F8F420497808EB01318E
:1036E0005618070B3F030024002201AB1146384651
:1036F00000F09AFC054685B1424603A9284603F02E
:1037000095F8424603A9304603F095F805F5807711
:1037100006F58076641C0F2CE6D3C9F8007043B020
:10372000E0B2BDE8F08300000C2C0020124810B578
:10373000016821F00041016010490A78497842EAA5
:103740008103011D0A6863F31F720A60016841F07A
:10375000004101600A48D0F8881241F00101C0F828
:10376000881208491D2004F03DFB4FF0E0214FF086
:103770000050C1F8000110BD04A900403829002004
:1037800000E00040CD232000F8B5EFF310860120C3
:1037900080F3108806208DF800006846FEF740FE92
:1037A0000220FCF5C5FE3220FDF5BCF9184C20685E
:1037B00020F400302060251F286840F002002860B7
:1037C000144F7889FDF5AEF9286820F002002860D2
:1037D000B889FDF5A7F99DF80000FCF5A9FE0C4895
:1037E0003830016889020CD400682168C0F30440B5
:1037F00041F400312160216821F4F83141EA0030C0
:1038000020601EB1012080F31088F8BD0020FAE787
:1038100008A90040E82900202DE9F043C5B0DFF8F1
:10382000B890D9F8F850A5F5807500240027002637
:1038300019E041AB01220021284600F0F5FB0446C7
:1038400020000ED0BDF8041143AB0122D9F8F400DA
:1038500000F0EAFB0746380009D0A74207D001264E
:1038600005E0A5F58075D9F8F400A842E1D3002E53
:1038700027D042994198CDE90101204601264FF019
:10388000000803AA01A901F0EDFE90B1761CF6B282
:103890009DF80801B6EB101F02D94FF0010808E0AF
:1038A000BDF8041101AB3246284600F0BDFB0028EC
:1038B000E7D1B8F1000F07D02246394643A800F0FF
:1038C0005EF845B0BDE8F083214641A8D9F8F8205C
:1038D00000F055F8F5E700000C2C002010B50C4660
:1038E000A17921F00301A171801D0122A11D02F027
:1038F000A2FF04480168F83101602088BDE810404B
:1039000005F054BB082D00202DE9F04FBFB08046D4
:103910008A469146FF22F82101A8FEF745FC0027C0
:103920000824002089F800004FF6FF7B08EB04050F
:103930002888584519D0284601F0AFFEA8B1A878CC
:103940000830C6B22888504504D13444012089F893
:10395000000008E001A8294638443246FEF770FC12
:103960003444B819C7B2F82CE0D3F82201A908F101
:103970000800FEF765FC3FB03846BDE8F08F2DE942
:10398000FC4105460F461646287904090DE02988B2
:103990006B462246384600F047FB20B1B04202D2C7
:1039A0006946FFF79BFF641EE4B2002CEFD1BDE82F
:1039B000FC812DE9FC410E4617466FF30B000025F4
:1039C00012E000226B46114600F02EFB0446002C4C
:1039D0000CD0B4420AD269462046FFF77FFF04F5B7
:1039E0008070B04202D26D1CBD42EAD3BDE8FC81BA
:1039F00080F828107047000000B500F007F8024971
:103A00000120886100BD0000A034002030B5084CC2
:103A1000012504F8045B84E80F000648241F806831
:103A2000884201D2081A00E0401A606130BD0000EF
:103A3000383500202029002010B501F037FC04465D
:103A400018210548FEF773FC034A00212046117037
:103A5000BDE8104000F018B938350020F0B40E462B
:103A60000146224F2048BB680578C0E908219942E9
:103A700001D9CC1A00E05C1AFF68A7420AD2876914
:103A8000A74201D9C0E90642012D09D0022D1FD05D
:103A9000032D27D113463246F0BC0020FFF7ACBF00
:103AA00041619942016902D9491C816002E0491EC5
:103AB000C1608168C268914206D21144490801611F
:103AC00001210170016909E002210170816805E0AE
:103AD000C3699342DED00321017019463046F0BC21
:103AE00000F006B8F0BC7047E03400202029002028
:103AF000054A936A5B1C93628AB2C1B20348044BC5
:103B0000406801F06BBB0000E03400202029002059
:103B10005D3A200070B50E4C05462C212046FEF77C
:103B200006FC0020A06040F2FF10FF22C4E903025F
:103B30004FF0FF30A061A06AE9B2401CA0620120F2
:103B400020700448044B4068BDE8704001F046BB5B
:103B5000E0340020202900205D3A20002DE9F843C0
:103B6000254C0746904620780D4601280BD00228A8
:103B700013D008201346E0610A4601B03946BDE87B
:103B8000F043FFF739BF40F2FF11C4E90371284643
:103B9000BDE8F843022200F061B8002600966846AE
:103BA000676100F02BF870B1012810D0022817D0FF
:103BB00003281FD0072043462A463946E061FFF715
:103BC0001BFFBDE8F8832846FFF7A4FFF9E70F2D98
:103BD00004D201223146681CA66006E00520EAE70F
:103BE00035B101220021681EA66000F037F8E8E731
:103BF0000620E0E70098DEE7C034002010B5164943
:103C0000144A144C0B698968D26864698A4201D9E4
:103C10008C4219D88A4201D28C4211D38A4201D9EE
:103C2000521A00E08A1A8C4201D9611A00E0091B7D
:103C30009A4203D3994201D3002010BD9A4201D287
:103C4000012010BD994201D2022010BD0321016064
:103C5000084610BDC034002020290020074B30B496
:103C60009C69641C9C6158601A708AB2C1B2044895
:103C7000044B406830BC01F0B1BA0000C0340020F1
:103C8000202900205D3B200070B5074C054620210F
:103C90002046FEF74CFB00212846A160BDE870409D
:103CA0000122FFF7DBBF0000C0340020F8B51D4C37
:103CB00000250E460095E169491CE161C4E90162F5
:103CC000E168C4E9030118498968814201D2401AB8
:103CD00000E0081A6169814201D9C4E90502684619
:103CE00000F024F840B101280BD002280FD003289F
:103CF00011D00098A06200E0A562204600F098F87C
:103D0000F8BD012084F820003046A16906E0A168D2
:103D10003046491C02E0A1683046491E00F04AF8CE
:103D2000F8BD00000C35002020290020F0B51F4A06
:103D30001F4DD368A9688B4201D95C1A00E0CC1AE8
:103D4000ED68A54210D2576A012F0DD092F820409D
:103D5000012C09D0154CD6694FF0010CA569A46857
:103D6000BE4203D3A54213D10020F0BD012E08D9D5
:103D700016698E4201D98B42F4D38E4201D28B4216
:103D8000F0D88B4208D9B4F5FF7F08D9092109E0A2
:103D900082F820C00120F0BD1CB10320F0BD02203C
:103DA000F0BD0A2101600420F0BD00000C350020A8
:103DB000202900208AB2C1B20248034B406801F0BA
:103DC0000DBA000020290020AD3C200070B50D4642
:103DD000044616462C210948FEF7A9FA074B002095
:103DE000B2B283F82000401E5C6258610448E9B218
:103DF000044B4068BDE8704001F0F0B90C3500207C
:103E000020290020AD3C200010B501F0CFF900289A
:103E10000AD00648007818B1BDE8104000F02EB86E
:103E2000BDE81040FFF708BE10BD00003835002087
:103E300000B500F007F802490120886100BD0000CC
:103E4000A03400200B4901220A71826A8A60C2698B
:103E5000CA60C2680A6142684A6182688A61C2684F
:103E600005488068824201D9101A00E0801AC861B2
:103E70007047000050350020202900202DE9F04136
:103E800001F014FA804601F023FA07460A48094C6B
:103E90002021466925682046FEF749FA6D1C00205E
:103EA000256020713A4641463046BDE8F041FFF7B3
:103EB0008DBF0000503500202029002010B50E4C89
:103EC0002069401C206101F015FAE06001F0EEF974
:103ED000606001F0FDF9094A0021A0601160616194
:103EE000E3692BB102462179E068BDE8104018472C
:103EF0000120A06110BD0000A034002000E50040BA
:103F000070B5164890F80014154D28680122C0F3CA
:103F10000220401C82408818C0B280F31188114CE6
:103F20000F4821680C306268A36880E80E002322E5
:103F300004F10C010C48FEF7C8F9216B4FF0E020AA
:103F4000C0F80011616BC0F80411A06B286007482D
:103F50004068C0B280F3118870BD000002E000E04C
:103F60000CED00E0E435002000E400E0E029002052
:103F7000EFF311800D4948604FF0E021D1F80021A6
:103F80000B480263D1F8041141630A4909680A4ADF
:103F900089B21143816307490C310EC90160426047
:103FA0008360232205490C30FEF78FB9E0290020F9
:103FB000E43500200CED00E00000FA0500E400E02C
:103FC00070B5054605EB01342646A4F580742046FD
:103FD00001F0ECFA40B12646A4F58074200501D129
:103FE000A4F58074AC42F2D8304670BD7CB5002692
:103FF0000C48046804F58074456808226946204628
:1040000002F014FC684601F048FB48B104F58074E6
:10401000200501D104F58074AC42EED330467CBD5E
:104020002646FBE7002D00202DE9F04704460E460A
:1040300017461D464FF000090020286068601448AC
:10404000D0F8F88020051DD104F580741AE008220C
:104050002946204602F0EAFB16B12888B0420BD16F
:1040600027B1287900F00F00B84205D1284601F0A9
:1040700014FB08B1A14607E004F58074200501D1C6
:1040800004F580744445E2D34846BDE8F08700005B
:104090000C2C0020F8B505460E4617461C46009528
:1040A0003A466946304604F0A7FF78B10020206008
:1040B000606008222146009802F0B8FB204601F01B
:1040C000ECFA08B10098F8BD0020F8BD23463A4646
:1040D00031462846FFF7A8FFF8BD2DE9F041064616
:1040E0000F46B079400719D5304601F0D6FAA8B18D
:1040F00008244FF6FF783519288840450ED0284609
:1041000001F0CBFA50B12888B84202D1E0B2BDE844
:10411000F081688808340444F82CECD30020F6E7DA
:1041200038B502F0E7FC1B4C00224FF480412046DA
:1041300001F0B4FD0122D103204601F0AFFD0022C1
:104140004FF48031204601F0A9FD012251042046A0
:1041500001F0A4FD01229104204601F09FFD0122FF
:10416000D104204601F09AFD00208DF80000A32024
:104170008DF8010002208DF802000098FDF5C6FEC2
:1041800002F060FC012002F0A2F8BDE8384002F025
:10419000DBBC00000000014002494968002900D052
:1041A00008477047C82A002070B5044600BFFEF7D4
:1041B000C7F905460120FEF7C3FA0948047024B97F
:1041C000482208490848FEF780F81DB90020FEF78C
:1041D000B7FA02E00120FEF7B3FA00BF70BD00009D
:1041E0009028002058330020002000E010B5074838
:1041F00040680749486006480830402203490831B2
:10420000FEF763F803200249086010BD1033002058
:10421000002000E0002003490968002900D0084779
:1042200070470000C82A002070B500BFFEF788F96B
:1042300005460120FEF784FA0B48047834B9482279
:104240000A490B48FEF741F8FFF7D0FF0120064965
:1042500008701DB90020FEF773FA02E00120FEF796
:104260006FFA00BF204670BD90280020002000E0BB
:104270005833002070B504460D4642F23906322309
:104280003246002141F2051013F6F4FD002D02D054
:104290004FF0010101E04FF0000101704FF001010A
:1042A0004170217B817007D06B88A17F022907D0E4
:1042B000C381297980F8261012F6B0FE668270BD9F
:1042C000591E44F24F62914201D8C381F1E744F292
:1042D0005061C181EDE700002DE9F04788B0044648
:1042E0002D4ED6F8F80000F6FF70070B3F034FF491
:1042F00080594FF0010A07947178D6F8F40000EB6A
:104300000130494602F051FA07A92046FFF7DCF9CF
:10431000054628000AD02A462046079905F0AAFA41
:10432000200B00032A460799FFF743FB4FEA143896
:104330004FEA08384946404602F037FA01A801F032
:10434000D1F8D6F8F400201A0AEB10308DF81400DA
:104350009DF8151008448DF8160001A805F0C2FA62
:1043600075B129464046FFF787F900200090717823
:10437000D6F8F400012200EB0130694602F05BFA46
:1043800004F58054BC42B6D37078002101F0EEF8F9
:1043900008B0BDE8F08700000C2C002070B502F0DA
:1043A0006CF8094D2120287004F0C8FDFFF71EFEAF
:1043B00018B1FFF791FF044600E00A24202028707E
:1043C00002F05AF8204670BD0C2C00200948D0F8A5
:1043D0009C10D0F8A020C1F31401D0F88000C2F3E3
:1043E0001403C0F3C112581A034951F8221048436C
:1043F0007047000000200F40B8A8200002460021AE
:104400000BE0084850F83130501E834204D1054873
:1044100000EBC10040687047491C1029F1DB002007
:10442000F9E70000A0330020002101E0491C40080A
:10443000C207FBD0084670472DE9F04104460D46FF
:10444000002600BFFEF77CF807460120FEF778F94A
:104450002F480078102801DB761E4CE048222D49B9
:104460002D48FDF732FF48222C492A48FDF72DFF41
:104470002B482749097840F831402549097800EB55
:10448000C100456024F0010425F0010504F003009B
:1044900090B124F0030040F001021E4908311C4B8A
:1044A0001B7841F8232001881E4A11441E4A184BEC
:1044B0001B7842F823100EE044F001011548083043
:1044C000134A127840F822104DF6FF701649104A30
:1044D000127841F8220048220E491048FDF7F5FEF7
:1044E00048220D490B48FDF7F0FE09480078401CB2
:1044F0000749087000BF1FB90020FEF721F902E04C
:104500000120FEF71DF900BF3046BDE8F081000034
:1045100091280020002000E05833002010330020B4
:10452000A03300200000FFDF8039002070B5044672
:1045300000BFFEF705F805460120FEF701F900204F
:104540001449087014481549086015481549086051
:10455000482215491548FDF7B8FE1548124948602C
:104560000320086048221348FDF7AFFE48220F4998
:104570000D48FDF7AAFE882C01D004F0AFFB1DB951
:104580000020FEF7DDF802E00120FEF7D9F800BFB9
:1045900070BD000090280020A9412000CC2A0020F6
:1045A00029422000C82A0020002000E058330020C3
:1045B00080390020103300202DE9FE4305460024F9
:1045C00003208DF8000000260C4F4FF00108E8078B
:1045D0000BD008FA04F0019007EBC4004068029089
:1045E00057F8341009B168468847641CA4B26D08B6
:1045F000761C082EEBDBBDE8FE830000CC2B0020F0
:1046000000B58DB001680591416801F00302069282
:1046100082680792C26808920269099242690A9206
:1046200080690B9008090C9009A80FC88DE80F004D
:1046300005A80FC801F044F80DB000BD2DE9F04108
:10464000104DD5F80802C4B2D5F88400C0F3400676
:104650006FF00207002C0CD0D5F80802A043C5F873
:104660000802E043C5F80802C5F884702046FFF749
:10467000A3FF002E03D0002C01D1C5F88470BDE843
:10468000F081000000A0004010B5064C04482060F6
:1046900001F09CF9FEF7CAFA0021216010BD00006C
:1046A000A2B4982B04A7004001218140024802686F
:1046B0008A43026070470000D82600200121814013
:1046C000024802681143016070470000D8260020AC
:1046D0002DE9F047044600272F48D0F80090DFF876
:1046E000BC80D8F800A04846514600F051F9D8F8EF
:1046F0000460FBF53FFF2A484FF47A710068B0FB75
:10470000F1F54D43D4E9000101F01AFA616822681D
:1047100001EB410000EBC10002EBC0030EE0D8F852
:104720000400801BA84209D9206C40F020002064BE
:1047300003212046FFF75CF9032725E0186CC0F33E
:1047400040200028EBD0104601F08AF90EE0D8F89E
:104750000400801BA84209D9206C40F0200020648E
:1047600003212046FFF744F903270DE0D4E90001B7
:1047700001F0C5F90028EAD1D4E9000101F0C9F936
:1047800001212046FFF734F95146484600F0E0F891
:104790003846BDE8F0870000FCED00E0001000E0C6
:1047A0005C00002070B50446002594F8280001281C
:1047B0000DD094F8280002280FD094F8280004287F
:1047C00062D0206C40F00400206401255CE0E16BC5
:1047D000002959D02046884756E0D4E9000101F06D
:1047E0003FF9D4E9000101F08AF90028F9D12179D3
:1047F00022680831012000FA01F1C2F81013217972
:104800002268083100FA01F1C2F8181321792268F0
:10481000083100FA01F1C2F8201321792268083129
:1048200000FA01F1C2F8281321792268083100FA50
:1048300001F1C2F830132279216800FA02F2C1F8BE
:1048400038232279216800FA02F2C1F84023227944
:10485000216800FA02F2C1F848232179226800FA9F
:1048600001F1C2F85013227921689040C1F8580331
:10487000D4E9000101F005F901212046FFF7B8F85D
:10488000E16B09B120468847284670BD70B50446E3
:10489000204600F007F8054615B903CC01F0FCF8F6
:1048A000284670BD2DE9F84304460F4690461D4644
:1048B0000026002D07D094F82800012809D00226F0
:1048C0003046BDE8F883206C40F0080020640120E9
:1048D000F7E702212046FFF78BF8D4E9000101F049
:1048E000D0F8D4E9000101F0C1F8D4E9000101F0E9
:1048F000ACF820690090D4E9000143463A4601F043
:1049000093F8D4E900012A4601F00EF921792068D4
:10491000012505FA01F1C0F83813D4E9000101F0CE
:10492000E4F82179206805FA01F1C0F84013D4E9D0
:10493000000101F0C6F8217920688D40C0F8585375
:10494000D4E9000101F0C7F803CC01F0AFF8B7E7F4
:1049500010B5EFF31083012282F31088094C22680E
:10496000521E2260002A03D1074A116007490860DD
:104970001BB1012080F3108810BD002080F3108847
:1049800010BD000080240020001000E0FCED00E0DD
:1049900010B5EFF31082012383F310880A4B1C68D3
:1049A000641C1C60094B40F08070186041F00100ED
:1049B00007490860002A03D0012080F3108810BD49
:1049C000002080F3108810BD80240020FCED00E062
:1049D000001000E00A4610B501460020FDF59CFAE3
:1049E00008B1002010BD012010BDFDF59BBA10B527
:1049F0001446FDF503FB08B1002010BD204610BD94
:104A00002DE9F74F00244FF4807AC0B017468B464B
:104A10001546524501D9564600E03E460BEB0401CF
:104A2000884632466846FDF70BFC409832462044E3
:104A300081466946FDF528FBB8B9484632466946C5
:104A4000FDF5DCFA88B9404632466946FDF780FB41
:104A500058B9AD1B0DD034445646B54200D82E4649
:104A6000BC4202D2A019B842D8D9002043B0BDE858
:104A7000F08F3846FAE700002DE9FE4380460F46E6
:104A80003846FFF7D1FC85B20024DFF834900D4E94
:104A900059F8340040450ED105EB041085B28DF86D
:104AA0000040019706EBC5004068029056F835209B
:104AB0000AB168469047641C032CE9DBBDE8FE831D
:104AC00060A620005C2B002010B5816B89B2816349
:104AD000002901D0FFF7D0FF10BD10B58EB00446FD
:104AE00008680690087900F003000790886808902D
:104AF000C868099008690A9048690B9088690C9009
:104B0000486800090D90142209A96846FDF7DDFBED
:104B100006A920460EC901F01EF80EB010BD01F026
:104B20002DB9002809DB00F01F0201219140400946
:104B3000800000F1E020C0F880127047002809DBF7
:104B400000F01F02012191404009800000F1E020A7
:104B5000C0F80011704700002DE9F041EFF3118714
:104B60000220FDF7D7FC0446FDF7E2FC401C0121C2
:104B700081406018C0B280F311880020FEF74CF924
:104B80000546254ED5E90412C6E902122348081A43
:104B900072F11E0019D306F110000EE0DCE90412D8
:104BA000D6E90234B1EB030872EB040804D3C91A46
:104BB00062EB0402CCE90412006AD0F820C0BCF118
:104BC000000FEBD10021B160F160A87801280AD173
:104BD000D6E90230D5E9021259185041C5E904104E
:104BE0002846FEF7DDF8F8B280F31188FEF786F963
:104BF000706840B1D0E90421D6E90203101A61EBD4
:104C0000030101F02DFAE96909B1A8698847BDE8F7
:104C1000F041FEF73DB90000D02A00200010C32C5F
:104C200010B503496FF001000860FFF795FF10BD54
:104C300084A0004070B504460D46142003F006F829
:104C400002490D64024A14430C6070BD00A5004087
:104C5000030000014FF40040704700000148806CE1
:104C60007047000000A500400248806BC0F30000C0
:104C70007047000000A5004070B5044694F8360067
:104C800094F83710084347D014220221204604F03C
:104C90001CFC20680025C0F8905041F288330022A7
:104CA0004021204604F0C6FC206801F067F9204648
:104CB00000F018F91B4A21680120914204D11A49D9
:104CC00008601A49086005E017490831086017496B
:104CD000091D0860EFF31081012282F31088144B44
:104CE000D3F8CC62134A1640B24302D10E4AD83AE6
:104CF0001060D3F8D43243F6C34213409A4301D133
:104D00000D4A106051B1012080F31088A563002284
:104D10000221204604F0D9FB002070BD002080F362
:104D20001088F3E700C5004080591C42805A1C429D
:104D300000E000400530063028581C421CB50446EF
:104D4000204604F0F3FA00228DF80020A16B0191B7
:104D5000064951F8203083F8FC2051F82000016802
:104D6000002901D0684688471CBD0000D0260020DD
:104D700010F8361F407851EA000202D0102902D004
:104D800003E000207047102801D014207047102045
:104D90007047000030B585B0044694F83600002511
:104DA00000281DD194F83700D0B91C4805601B4875
:104DB000803805601A492068884205D11748D830E4
:104DC00005601848056008E01749884224D1134857
:104DD000E03005601348001D0560204600F083F8B0
:104DE00014220221204604F070FB60680090A06845
:104DF000019020690390E068029060690490694620
:104E0000206801F0BFF8A56310220221204604F0BB
:104E10005CFB002005B030BD0120FBE7A8581C4218
:104E200000C50040805A1C4200C6004070B50446D0
:104E30002268906800F00F000021022809D00428A1
:104E40000CD0062816D00C2831D1A06901280BD02F
:104E50000BE02046BDE8704004F05CBB2046BDE896
:104E60007040002104F0E8BA01212046BDE87040FE
:104E700004F0E2BA5069A16B00F01E000143A16387
:104E8000D06FC0F3C00018B10021204604F0D4FA5E
:104E9000A06B4FF0000580071CD5204604F017FAE0
:104EA00094F83500012803D02046FFF747FF70BD76
:104EB000206B48B10A49C163206BFFF773FC30B126
:104EC000206BC16B884702E02046FFF737FF84F86C
:104ED000355070BD2046FFF731FFA56370BD00005F
:104EE000419220007047704710B5044694F837008F
:104EF000102801D0022010BD616222856285002049
:104F0000A06312220121204604F0DFFA206802216A
:104F1000C0F89C1020684169890703D50168022107
:104F2000C0F88810EFF31081012080F3108820680A
:104F3000426842F00502426021B1012080F31088EE
:104F4000002010BD002080F31088F9E70168C26BD3
:104F5000CA600268D36843F08003D360026C0A60C1
:104F6000426C4A600268D36823F08003D360826C8D
:104F7000C1F8C020C26C0A610622C1F88820026D07
:104F8000C1F89820426DC1F8A020806DC1F89C0046
:104F9000704700001CB50446204604F0C7F9022102
:104FA0008DF80010218D628D891AADF80410044926
:104FB00051F820000168002901D0684688471CBDCF
:104FC000D02600200168CA68C263CA6842F0800225
:104FD000CA600A6802644A684264CA6822F08002B1
:104FE000CA60D1F8C02082640A69C264D1F89820EE
:104FF0000265D1F8A0204265D1F89C108165704708
:105000002DE9F04106460D4614461F4696F8360037
:10501000102802D00220BDE8F0810020B0631122E8
:105020000021304604F051FA34840EE03B46002261
:105030000221304604F0A6FA08B10320EBE7641E13
:10504000A4B2306815F8011B0160002CEED13B467C
:1050500000224021304604F0EDFA08B10320DAE7DF
:1050600010220021304604F030FA0020D3E700007F
:1050700070B50446154694F83600102802D0022573
:10508000284670BD20680122C0F8A020E06AD0E95F
:10509000002000EB400303EBC00002EBC00082697C
:1050A00022F4605242F400628261E16125846584E9
:1050B0000026A66311220021204604F006FA0120F2
:1050C00084F83400E16A0D480863E16A0C4888639B
:1050D000E06AC66322682B46E169E06AFFF7D6FB07
:1050E0000546002DCCD0A06B40F48070A063102248
:1050F0000021204604F0E9F9C2E700009792200061
:105100005192200010B5044694F83600102801D0C2
:10511000022010BDE161228462840020A06311227C
:105120000021204604F0D1F920680321C0F8A01026
:10513000EFF31081012080F310882068426842F06C
:105140008202426021B1012080F31088002010BD4E
:10515000002080F31088F9E77CB50546284604F066
:10516000E5F8044601208DF80000288C698C401A6F
:10517000ADF804000C4D55F8240090F8000118B16A
:105180002046FDF767FF02E02046FEF743F855F89A
:10519000240090F8FC10002904D10168002901D0F6
:1051A000684688477CBD0000D0260020034840693F
:1051B00008B100207047012070470000A034002093
:1051C00000B5FFF7F3FF20B10348806908B1012063
:1051D00000BD002000BD0000A03400202DE9F041FA
:1051E0001E4614460D460746FFF7E0FF002850D044
:1051F0000120FCF6A5FEDFF8A0800120C8F80070B1
:10520000C8F814000020C8E90606244EC8E9015475
:10521000306820F001003060284600F04FF8204947
:10522000E0B20A6822F47F0242EA00400860091DE9
:10523000C4F300200A6822F0400242EA80100860AD
:10524000164C164F174D14340C37A86840F4807074
:10525000A860022000F07EFDD8F8000000F084FD78
:10526000206840F001002060206840F002002060CB
:10527000306840F001003060386830F07F40E4D0A2
:1052800009491E2002F0AEFDBDE8F0411E20FDF7E9
:1052900013B9BDE8F0810000A034002000E5004013
:1052A00050A8004000A00040C92320000248006828
:1052B00000F00F007047000054A8004003490A683E
:1052C00022F00F0202430A607047000054A8004019
:1052D000074800684FF6FF71C0F3801001EA002113
:1052E0000348001F0068C0F30740084370470000F0
:1052F00054A800402DE9F04115482DED028B0068BF
:10530000002420F07F4212480838006847F6122334
:10531000C0F30B00451CA2FB030704FB037102FB57
:10532000041105F010F908EE100A2846214605F090
:105330000AF900EE100A0749C8EE000ABCEEE00ABE
:1053400010EE100AC860BDEC028BBDE8F0810000D1
:105350000CE50040082900200748016821F470612D
:1053600041F480710160016821F40051016001681D
:1053700021F480410160704700CD0040064801687B
:1053800041F001010160016841F004010160016820
:1053900021F008010160704700500F402DE9F047EF
:1053A000DFF8708000241C4D1C4F08F15009A24604
:1053B00008262046FEF7DCF8A0F6621121F0010174
:1053C00038F8012039F80110030700D00126AB6836
:1053D0000004D7F818C0030543EA8C3343EA862358
:1053E0001343AB60EA683B7F4AEAC36242EA414149
:1053F00041EA1030E86068686FF309002043686094
:10540000686840F480606860641CE4B2282CCFD3E4
:10541000BDE8F087A438002000500F40A82A0020E3
:1054200007494A6909695043272290FBF2F0084472
:105430000449B1FBF0F00449098A084480B270477E
:10544000A82A00200000127A4439002007494A693E
:1054500009695043272290FBF2F008440449B1FB4C
:10546000F0F00449498A084480B27047A82A002015
:105470000000127A4439002010B5044601F6C0FC41
:1054800000280BD00648B0F91210A14206D0448281
:1054900000F008F8BDE81040FFF780BF10BD000025
:1054A0004439002010B5064C00231846FFF7CEFF04
:1054B00024F813005B1CDBB2282BF6D310BD0000D0
:1054C000F4380020054A0649002052F8203041F8FF
:1054D0003030401C2828F8D37047000084A72000F3
:1054E0002036002010B50446FF2218212046FCF784
:1054F0005BFE064801682160416861608168A160C7
:10550000C068E06002484078607410BD5CA720006D
:105510000C2C002070B586B00546134E681C0103A4
:10552000D6F8F40001F041F96846FFF7DBFF0124EB
:105530000BE08DF810409DF8110020448DF812000A
:10554000684604F0CFF9641CE4B2AC42F1D956F8D5
:10555000F40F00F58070706040F688604543B560D8
:10556000F56006B0002070BD0C2C00202DE9F04144
:1055700007460E460C4C14F8F31C206800EB01356E
:105580003946FEF71DFD60602946FDF7CFFFE0605C
:1055900039462068FDF7B4FFA0600EB1FEF73CF974
:1055A0000020BDE8F0810000002D002030B5C1B022
:1055B00005464FF4807101A8FCF7B9FE012201A94C
:1055C000284601F033F99DF80410FF2902D000208D
:1055D00041B030BD01ACFF22611C284601F026F924
:1055E0000120215CFF2901D00020F1E7401CFF28A9
:1055F000F7D90120ECE700002DE9F043C1B0804667
:1056000016460124F82101A8FCF791FE144FE2B2DE
:105610003FAB4146D7F8F400FEF73CFD0546E5B147
:105620003FA8FDF792FF81464A4601A905F108000F
:1056300001F0FCF84A46314601A8FCF789FD18B193
:10564000002041B0BDE8F0834E44641C9DF8000189
:10565000B4EB101FDBD30120F3E70020F1E70000DB
:105660000C2C00202DE9F04107460C46154620463B
:10567000FDF76BFF06463246294607F1080001F0A8
:10568000D5F831462846FDF72FFFE179884202D14F
:105690000120BDE8F0810020FBE710B50446A079A9
:1056A00000F00300022808D105212046FDF71CFF69
:1056B0006179884201D1012010BD002010BD000099
:1056C0000FB470B5049C01250AE094FAA4F0B0FA76
:1056D00080F105FA01F0611E0C40079900F0B0F866
:1056E000002CF2D10899049800F0EAF8099904987E
:1056F00000F0F8F80A99049800F076F8DDE9040162
:1057000000F07EF80699049800F0C0F80498354936
:10571000D1F800228243C1F80022059801285DD10A
:10572000049A4FF6FF7000EA022012060B9B120A41
:10573000062B44D2DFE803F0431203212E3B049BE7
:10574000DBB2D1F800428443C1F80042D1F80442F0
:10575000034394431C43C1F8044230E0049BDBB292
:10576000D1F800428443C1F80042D1F8044210430A
:1057700084431C43C1F8044221E0049AD2B2D1F818
:1057800000328343C1F80032D1F804029043C1F8DB
:10579000040214E0049AD2B2D1F800320343C1F8F3
:1057A0000032D1F804029043C1F8040207E00498E3
:1057B000C0B2D1F8043210430343C1F80432049854
:1057C000D1F808228243C1F808220B98002805D09E
:1057D0000498D1F800220243C1F8002270BC5DF8A1
:1057E00014FB000000A00040C0B2044B1A688243C2
:1057F000012900D0002002431A6070471CAA004013
:1058000030B50206120AC0B2012912D0032910D005
:10581000002302290FD003290DD00021074D2C6849
:1058200094431C432C602B1D1A6882430A431A6060
:1058300030BD1346EDE70146F0E7000014AA004032
:1058400010B5104A002917D0136843EA00431360CB
:1058500090FAA0F0B0FA80F082088007C00E9300A2
:10586000094A1A44D2F81439FF248440A3438140E2
:105870000B43C2F8143910BD136823EA00431360C8
:10588000E6E7000028AA004000E0004030B54FF6EF
:10589000FF7202EA0022C0B201290AD0002351B1EE
:1058A0000146064C25681043854319430D43256086
:1058B00030BD1346F3E70021F3E7000014AA0040CF
:1058C000074A002906D0116821EA002141EA002098
:1058D00010607047116821EA0020106070470000D6
:1058E0001CAA0040C1F3001301F001020B49002B78
:1058F00004D00B68834303430B6002E00B688343CF
:105900000B6032B10A6822EA002242EA00200860F5
:1059100070470A6822EA00200860704720AA004009
:1059200003490A6822F4E00242EA00500860704726
:1059300004A8004003490A6822F4780242EAC04001
:105940000860704708A8004003490A6822F48002F2
:1059500042EA80500860704714A8004003490A6872
:1059600022F4401242EA00500860704714A8004038
:1059700006490A6822F4785242EA40200860081F6B
:10598000016841F48071016070470000C4A80040C4
:1059900003490A6822F4706242EA002008607047F6
:1059A00094A8004003490A6822F4706242EA002089
:1059B0000860704754A8004003490A6822F00F02AB
:1059C00002430A607047000094A800400348016841
:1059D00021F0010141F080710160704700A7004093
:1059E0000248006800F007007047000048A400402B
:1059F00003498A6922F0010202438A61704700006C
:105A000000A0004003490A6822F0300202430A6005
:105A10007047000000A0004002480068C0F30B106F
:105A2000704700000CE8004030B5039C01EB4105D5
:105A300005EBC10140F8312000EBC10083608169B2
:105A400021F440112143816130BD01EB410202EBA1
:105A5000C10100EBC100016C21F400310164704709
:105A6000083101228A40C0F8A023704701EB4102AF
:105A700002EBC10100EBC100016C21F48031016433
:105A8000704701EB410202EBC10100EBC1008169EB
:105A900021F001018161704701F10803012202FA3E
:105AA00003F38A409918C0F8A013704701EB410234
:105AB00002EBC10100EBC100816941F0010181618C
:105AC000704701F10803012202FA03F38A40991892
:105AD000C0F81813704701F10803012202FA03F31A
:105AE0008A409918C0F83013704701F10803012269
:105AF00002FA03F38A409918C0F810137047D0F8DF
:105B0000A00301228A40104201D0012070470020EA
:105B1000704701EB410202EBC10100EBC100016CD7
:105B200021F480710164704701EB410303EBC10173
:105B300000EBC100C1696FF30B011143C1617047F4
:105B400001EB410202EBC10100EBC100016C41F429
:105B50008071016470470FB470B50446059D01263D
:105B60000BE095FAA5F0B0FA80F006FA00F1681E95
:105B700005402046089A00F071F8002DF1D1DDE9CA
:105B80000512204600F04EF82046099A059900F0CB
:105B9000B5F820460A9A059900F0BEF820460B9AFF
:105BA000059900F033F82046079A059900F08EF821
:105BB000059860620698012824D10598A0630C9886
:105BC00006281AD2DFE800F01908030D1115059810
:105BD0006063A062606410E005982063A062606466
:105BE0000BE005982063E06207E005986063E062DF
:105BF00003E005986063A06220640C98002801D03F
:105C00000598206270BC5DF814FB000088B2044B5C
:105C100019688143012A00D00020014319607047B0
:105C200038E9004070B58BB289B2012A0FD0032A3F
:105C30000DD00024022A0CD0032A0AD00022064DDF
:105C40002E689E4326432E604161026170BD1C4652
:105C5000F0E70A46F3E700002CE9004010B591FA9E
:105C6000A1F1B1FA81F10B4B984204D1C1F3870045
:105C70008907C90E00E00420830007481844D0F8C3
:105C80000039FF248C40A3438A401343C0F80039F5
:105C900010BD00000000014000E0004010B50A4BBC
:105CA0001C688C43012A08D0002004431C60064B6A
:105CB0001B1F1868884312B102E00846F5E700216F
:105CC0000843186010BD000034E9004010B50A4BCD
:105CD0001C688C43012A08D0002004431C60064B3A
:105CE0001B1F1868884312B102E00846F5E700213F
:105CF0000843186010BD000034E900400548002A40
:105D000004D002688A430A430260704702688A43EB
:105D1000026070473CE90040C2F3001002F001024B
:105D20000B4B002804D0186888430843186002E031
:105D30001868884318600648001D22B102688A432B
:105D40000A430260704702688A430260704700009D
:105D500040E9004003490A6822F0FF0202430A605A
:105D60007047000020E5004003490A686FF30B020A
:105D700002430A607047000004E500402DE9F0414D
:105D800007460C46256801260BE095FAA5F0B0FA07
:105D900080F006FA00F1681E05403846226900F0DE
:105DA0006BF8002DF1D138466269216800F0A4F843
:105DB0003846A269216800F0B1F83846E2692168E6
:105DC00000F03AF8207A216800F00302384600F02B
:105DD00041F8D4E90012384600F008F83846E26885
:105DE0002168BDE8F04100F06BB8000030B56FF0FD
:105DF000404000EA01500E4B03EA8121012A12D0F3
:105E0000032A10D00023022A0FD0032A0DD000222B
:105E1000084C256885431D432560201F03688B437C
:105E20001343036030BD0346EDE70A46F0E7000088
:105E3000FFFF0F0004AA0040C1F30900044B1968DA
:105E40008143012A00D000200143196070470000FF
:105E500008AA00406FF0404000EA01500549012ABD
:105E600003D00A6882430A6070470A6802430A60E6
:105E7000704700000CAA004010B50F48002A16D049
:105E800003680B43036091FAA1F0B0FA80F0810837
:105E90008007C00E8B0009491944D1F81C39FF2432
:105EA0008440A34382401343C1F81C3910BD0368EA
:105EB0008B430360E7E7000010AA004000E00040C9
:105EC00030B50B4800EA8123C1F30900012A0AD04A
:105ED000002452B10146074A1568184385432143FF
:105EE0000D43156030BD1C46F3E70021F3E70000C9
:105EF000FFFF0F0004AA00400748002A06D00268EE
:105F000022EA812242EA812101607047026822EA86
:105F1000812101607047000008AA0040C2F300130D
:105F200002F001020B48002B04D003688B430B43A3
:105F3000036002E003688B43036032B1026822EA27
:105F4000812242EA812101607047026822EA8121B0
:105F5000016070470CAA004002480068C0F300408E
:105F60007047000090A4004003490A6822F006022E
:105F700042EA40000860704724A400400121C0F8B4
:105F80008810704770B504460D46D5E90112E868DF
:105F9000E368104323F03F0308430343E360FAF54B
:105FA00085FA2968B0FBF1F21209E36843F0800337
:105FB000E360D3B22360C2F307226260E26822F09A
:105FC0008002E260B0FBF1F000F00F00C4F8C00006
:105FD0002869216921F02201014321610420C4F8CC
:105FE00088000220C4F888000120C4F89800C4F892
:105FF000A0000020C4F89C0070BD000070B5164ED3
:10600000307D164DC0EBC004286800EB840000F51D
:106010004050B0F81405002809D101F61DFE30B13A
:10602000296801EB840101F54051A1F81405002114
:10603000286800EB840000F54050B0F8002522F4F9
:106040000042A0F80025307D401CC0B23075062803
:1060500000D3317570BD0000680F002004020020DD
:1060600070B505462DED028B0E460024FEF7F2FDBD
:1060700003F025FF41EC180B2846314603F032FFB0
:1060800053EC182B03F0B0FF9FED131B53EC112BB7
:1060900003F060FD9FED121B53EC112B03F0A6FCE7
:1060A00003F0E0FE01460420FEF7C4FD4FF47A75CC
:1060B00006E00120FAF536FD2046641CA84207D20E
:1060C000FEF7D2FD0028F4D0FEF7C8FD401CF0D04A
:1060D000BDEC028B70BD00000000000080842E41EA
:1060E000000000000000E03F184810B50068C0F351
:1060F0000B01164808300068491C00EE101ADFED4D
:10610000140A20F07F40B8EE400A124C124960EEAB
:10611000200A00EE100AB8EE401A80EE810AF6EE70
:10612000000A84ED020A30EE200ABCEEC00A10EE2E
:10613000100A08602CF6FEFC6069002804D094ED7B
:10614000020ABDE81040004710BD000004E4004012
:106150000024F44B08290020A02A002010B5FCF7E9
:106160003BFF002010BD10B528F6C4FB10B103F0B2
:1061700076FBFEE7BDE81040FBF762BF2DE9FC416E
:106180000646089F884614461D46FF220821684699
:10619000FCF70AF8ADF80080ADF802409DF8040065
:1061A00020F0F000103020F00F00401C8DF80400AB
:1061B00005216846FDF798F98DF805009DF8060061
:1061C00020F00300801C20F004008DF8060021461A
:1061D0002846FDF789F98DF80700F01900998160CC
:1061E0000199C160103022462946FCF729F8BDE824
:1061F000FC8100002DE9FF41044600200090019041
:10620000029003902148224920F07F4021F07F41F5
:10621000B0F5001F02D9B0F1907F04D300F084F8EC
:106220002168084320601B4F1B480025C61B10E057
:1062300007EB051110226846FCF702F80198029955
:1062400020F07F40014400F06FF8216808436D1C86
:106250002060B5EB161FEBD31048114920F07F40AA
:1062600021F07F4100F060F82168084320600D486C
:106270000D4920F07F4021F07F41884204D000F09A
:1062800053F8216808432060BDE8FF81002020000A
:106290000CA92000C8A8200008A92000203901204E
:1062A00020590120203901202039012008B56846F5
:1062B00001F05AFE48B99DF80000302806D0402869
:1062C00004D0502802D0602800D0602008BD38B526
:1062D00040F603410091012808D040F6FF742046A3
:1062E00000F054F8204600F009F838BD6846FFF782
:1062F00081FF009800F04AF80098F4E708B5009094
:10630000684602F0ADFC00980649C0F30B00086037
:106310000449012010310860FFF71EFE0028FBD160
:1063200008BD000080A40040F0B50027DFF858C089
:106330003D463A463E463C465CF824301D44A84261
:1063400001D2224603E0641CE4B2062CF4D3002000
:1063500003465CF823402044814201D81E4603E0F6
:106360005B1CDBB2062BF4D35100032303FA01F0CC
:10637000384305E0540003FA04F10843521CD2B23A
:10638000B242F7D9F0BD00006CA7200008B500901C
:10639000684602F065FC009840F6AA2108400549CD
:1063A00008600449012008310860FFF7D5FD002886
:1063B000FBD108BD88A400407CB505460C462805E5
:1063C00001D008207CBD4FF482710D48FBF7AFFF70
:1063D000002001900090694601A800F01DFA009885
:1063E000641C05EB043100F50010814205D821033F
:1063F000284600F0DAF900207CBD08207CBD0000B2
:106400000C2C002010B5034600204CF201041A1B8E
:106410001946A34213D00ADCA1F50041203910D05F
:1064200001290ED002290CD003290CD109E0012A40
:1064300005D0022A03D0042A01D0152A03D1204610
:1064400001E048F22000A3F500414039962912D21C
:1064500089B20322B1FBF2F402FB14142CB1B1FB9C
:10646000F2F402FB1414012C05D1B1FBF2F002FB93
:106470001010181A80B210BD704770472DE9FE4FFA
:1064800082460D46914600264F46DFF8F48098F884
:10649000000000281AD0B5B12888A0B1B9F1000FCA
:1064A00011D0BAF1000F0ED0AAF57F40FF380AD004
:1064B0005046FFF7A7FF58B14B462A46514600F019
:1064C0007DF8064651E00720BDE8FE8F0320FBE77C
:1064D00000F0A4F904461220FCF708F8834698F867
:1064E0000000800606D4012202A9500500F09CF9A4
:1064F000012804D0204600F09BF90E20E4E712208A
:10650000FBF7BCFF202088F80000204600F090F93F
:1065100001246B4622465146D8F8F400FDF7BAFD37
:10652000C8B12988BDF80220914201D2052613E0A6
:106530003A466946FFF796F858B1BDF80200288040
:10654000F837641CE4B29DF80400B4EB101FE0D9E6
:1065500002E00D2600E00426012088F80000BBF1CF
:10656000000F02D01220FBF79AFF042E05D14A46F5
:106570002946504600F01BF906463046A4E70000C5
:106580000C2C002010B504460B480822D0F8F4105B
:10659000407801EB0030214600F048F92078A5282A
:1065A00008D105212046FCF79FFF6179884201D17F
:1065B000002010BD022010BD0C2C00202DE9F04F52
:1065C000C1B004468A46164699460025DFF8D880B1
:1065D00098F80000002813D076B1308860B1B9F186
:1065E000000F09D044B14FF6FF70844204D0BAF1D5
:1065F000000F01D0824505D1072041B0BDE8F08FE2
:106600000320FAE700F00AF983461220FBF76EFF39
:10661000074698F80000800606D4012240A95005DC
:1066200000F002F9012804D0584600F001F90E20CC
:10663000E3E71220FBF722FF202088F800005846ED
:1066400000F0F6F86A464FF48071204600F05CFCDA
:1066500048B10425012088F8000017B11220FBF78B
:106660001EFF2846C9E751466846FDF736FDC8B10A
:106670000DEB000404F1080061888246FCF734FF4A
:10668000E179884201D00D25E4E7608831888842AD
:1066900006D83080628851464846FBF7D1FDD9E7DD
:1066A0000525D7E70425D5E70C2C00202DE9F0417E
:1066B0008AB004460D46002D14D0002009900890A1
:1066C00008A909A800F0A8F84FF482712E48FBF73A
:1066D0002EFE2D4F681C9CB1210505D008200AB064
:1066E000BDE8F0810920FAE704EB0031089800F5D5
:1066F0000010814202D8C7F8F44009E00820EEE714
:106700000899404201EB003000F50010C7F8F40092
:106710007D7006A8FFF736FF28B906A800F048FCF0
:1067200008B10A20DBE74FF00008D7F8F460002436
:1067300011E018216846FBF7FAFD18226946304639
:1067400000F074F8082211496846FBF701FD88B192
:1067500006F58056641CAC42EBD3B8F1000F0CD0A8
:1067600001212846FEF702FF0028B8D10120387029
:106770000020B4E74FF00108EFE72846FEF7CAFE15
:106780000028F3D0ABE700000C2C00205CA7200011
:1067900010B503210020FFF70FFE0321BDE81040D4
:1067A0000020FFF783BFFEF715B9FFF7FCBFFEB56A
:1067B00003460E46154604240020019002900090E6
:1067C0006FF44040181802D0152823D111E001A819
:1067D00001F0B8FBF0B9062101A8FCF711FEC8B121
:1067E00001982860BDF80800A880062030800024A9
:1067F00010E0684601F096FB60B9BDF8000048B1B2
:10680000A0F57F41FF3905D0BDF8000028800220A7
:10681000308000242046FEBDFEF7E7B8EFF310807D
:10682000012181F310887047FEF7E1B8FFF7FCBF44
:1068300080F310887047AFF30080FEF7E1B80000E6
:106840002DE9FE4304460D469046334F3878002824
:106850001BD0B8F1000F15D0A5B140F68860854275
:1068600010D87CB1A4F57F40FF380BD02046FFF74D
:10687000C9FD60B103B043462A462146BDE8F04356
:1068800000F04CB80720BDE8FE830320FBE7FFF7CC
:10689000C5FF81461220FBF729FE064638788006A0
:1068A00006D4012202A95005FFF7BEFF012804D03B
:1068B0004846FFF7BDFF0E20E5E71220FBF7DEFD9F
:1068C000202038704846FFF7B3FF6B460022214670
:1068D000D7F8F400FDF7DEFB78B1424629462046A2
:1068E000FEF78AFE08B100240EE000234246294646
:1068F000204600F029FB044606E0002342462946D4
:106900002046FCF723FD04460120387016B1122002
:10691000FBF7C5FD2046B6E70C2C00202DE9F04F13
:10692000C3B00746884614469B46DFF814A19AF880
:106930000000002813D0BBF1000F0CD05CB1F82C84
:1069400009D847B14FF6FF70874204D0B8F1000F65
:1069500001D0804505D1072043B0BDE8F08F03206A
:10696000FAE7FFF75BFF05461220FBF7BFFD06467F
:106970009AF80000800606D4012242A95005FFF7CC
:1069800053FF012804D02846FFF752FF0E20E3E70B
:106990001220FBF773FD20208AF800002846FFF73D
:1069A00047FF00254FF48079FF22494602A8FBF7F4
:1069B000FBFB02AA4946384600F0A6FA80B9012539
:1069C000414602A8FDF789FB50B102A9014448885D
:1069D000A04205D1083122465846FBF7B9FB68B101
:1069E00001AA414602A8FCF78FFF011908311FFADE
:1069F00081F9B9F1F80F03D9052417E0002415E057
:106A000000905B462246414602A8FFF7B7FB04AA66
:106A100035B101234946384600F096FA044605E0B0
:106A2000012349463846FCF791FC044601208AF8C8
:106A3000000016B11220FBF732FD20468CE7000063
:106A40000C2C002010B503210020FFF72FFE00289A
:106A500001D0FFF79DFE10BD10B501F0B9FF002871
:106A600004D003480068C00600D4FEE710BD000053
:106A700084E300400220FDF759BD00002DE9F041FC
:106A80001D4616460F46044602F002F9284600F05D
:106A90007BFF3146384600F0A1F800F013F8384685
:106AA00000F0FEF8384600F02DF804482146047046
:106AB000BDE8F041024827F61FBF0000042900206E
:106AC000F82900200A4A09481060101F016821F0C7
:106AD000010141F080710160054834300168C1F363
:106AE00040010029FAD1002010607047A2B4982B11
:106AF00004A700400249014848607047A1201000E7
:106B0000B000002010B504469620FAF50BF834B119
:106B1000012C0AD10548016821F4004104E0034832
:106B20004438016821F08001016010BD48A8004090
:106B300010B5FFF79FFFFFF78FFFFDF7F1FABDE8F4
:106B4000104001F053B8000008B51949132001F0B6
:106B500049F91849142001F045F917491F2001F09F
:106B600041F91649202001F03DF9FCF783FD154954
:106B700013480860154914480860FEF7A3FC01207B
:106B800000F612FA02F0C6F800208DF800006A46FE
:106B900001214CF20500FFF753FE0D48016821F07A
:106BA000C0010160BDE808400A490B4828F6ECB86E
:106BB0009D3600001B24200081370000653700004F
:106BC0000B22100014000020D72210001800002013
:106BD0000CA80040713F20006D9820002DE9F8437B
:106BE0000D462D4E4FF4FA71ADF80010D6F8801214
:106BF0004FF0020921F44034DFF8A0804FF47A719D
:106C0000B8B3012810D0D6F8800244F440310843CC
:106C1000C6F88002002D05D06A4649464CF20300B2
:106C2000FFF70EFEBDE8F8831C4FADF80050443F5F
:106C3000386820F0800038600846F9F573FFD8F80E
:106C4000001021F4F81141F40021C8F80010D8F820
:106C50000020042161F31F62C8F80020386840F06A
:106C6000800038604FF49670F9F556FFC6F8804200
:106C7000D0E7FFE7ADF800500846F9F553FFD8F824
:106C8000001041F40041C8F800109620F9F54AFFC1
:106C900044F48030BCE7000000A0004048A8004059
:106CA000012801D0202000E03020FEF7ABBE00001C
:106CB00000EE100A9FED081A0948F8EE400A80EE2F
:106CC000810ADFED060A20EE200AF5EE000A20EE2A
:106CD000200A80ED000A70470000FA468941803F93
:106CE000E029002010B500F041F8BDE81040FCF7A5
:106CF0009DBC000010B504464088FEF71BFEE088EE
:106D0000FEF750FEA089FEF733FE6089FEF726FEEF
:106D1000034821888162A18801632189816310BDB4
:106D20007C3500200F490A8D02800F4A1268C2F399
:106D3000C44242800A8E82800B4A4C321268C2F3EF
:106D40000322C280098F018107490C310968C1F310
:106D5000015141810449D8310968C1F3442181813D
:106D6000704700007C35002008A80040F0B58BB0CB
:106D70001C216846FBF7DBFA9FED390B8DED080B04
:106D8000EFF31185384C94F90300002804DB00F17F
:106D9000E02090F8000405E000F00F0000F1E02092
:106DA00090F8140D314909680127C1F30221491CEB
:106DB00007FA01F10844C0B280F31188384600F0A8
:106DC0007DFD2B4EF06810F4E02F01D0A7703DE060
:106DD0006420FBF77DFDC8B3684601F013F8002777
:106DE00038BBBDF8000020B3A77069460D20FBF743
:106DF000C5FD8DED080B51EC100B03F003F8A060FE
:106E0000A068FBF787FE69460E20FBF7B7FD8DED06
:106E1000080B9FED180B53EC102B9DED080B51EC5C
:106E2000100B03F0E1F802F0EDFFE060E068FBF723
:106E3000A7FEA0697060114960690860A08B00F02E
:106E4000010149420140C80500D43762E8B280F32D
:106E500011880B48007801F03BFA0BB0F0BD000040
:106E60000000000000000000382900200CED00E0C8
:106E700000E00040000000000000594000A8004071
:106E80007C35002010B5FBF773FF0022BDE81040F1
:106E90000121014800F020B844A6200070B501256A
:106EA0000024074E56F8241019B1096809B1884723
:106EB00020B1641C0D2CF5D3284670BD0025FBE7DE
:106EC000182B00200348007808B102F0A0BC02F0A3
:106ED000B3BC00008101002070B506460D46144683
:106EE000FBF746FF0D2C02D2681E022801D90D20A7
:106EF00070BD044840F82460204480F83450204697
:106F000070BD0000182B00207CB506460C461546C7
:106F10000C486B460122D0F8F4003146FDF7BAF870
:106F200068B1BDF802100834A14201D905207CBD2A
:106F30004FF480722946FFF779FC00207CBD0220C7
:106F40007CBD00000C2C00202DE9FC4780460D463E
:106F500091469A460224154ED6F8F4706B460022EC
:106F600041463846FDF796F8E8B1404602F01EF873
:106F700053464A4629464046FCF7E8F9044694B988
:106F8000F735F820B5FBF0F04142D6F8F80000EBF9
:106F90000122801AB0F5805F01D3A2F580723946D4
:106FA0006846FCF7ECFC2046BDE8FC870C2C002072
:106FB00070B5114921220A70D1F8F410827801EBE2
:106FC0000235427801EB0234C17804EB01210679E5
:106FD00028463246FCF7EDFC280B00034FF48051A5
:106FE000FFF7E3FB31462846FCF746FB04F58050EB
:106FF000BDE87040FDF770B90C2C00201048C16A44
:1070000021F00051C162C16A21F40051C162C16A1C
:1070100021F08051C162C16A21F48051C162C16A0C
:1070200041F40051C162C16A21F40051C162C16AD8
:1070300041F48051C162C16A21F48051C16270473C
:1070400000200F401048C16A21F00051C162C16A9E
:1070500021F40051C162C16A21F08051C162C16A4C
:1070600021F48051C162C16A41F48051C162C16A98
:1070700021F48051C162C16A41F08051C16203486C
:107080008088F9F54FBD000000200F40A82A00209D
:107090000C48C16A21F00051C162C16A21F400515B
:1070A000C162C16A41F40051C162C16A21F4005158
:1070B000C162C16A41F00051C1620348C088F9F55C
:1070C00031BD000000200F40A82A002070B540F616
:1070D000621101EB4004002321092404A4EB0154B4
:1070E00044EA01551A491A46CC6965F31C04CC617F
:1070F000184CCD69267F66F35F75CD61072825D0D2
:107100000F2823D0172821D01F281FD027281DD0B3
:107110000122886902EBC30262F303008861227EC8
:10712000886962F309108861086840F00800086007
:10713000086820F004000860086820F0010008607A
:107140000548016821F40051016070BD0123E0E7AA
:1071500000500F40A82A002000CD0040124A1349D9
:1071600080B140F6C310C2F8080151F8900F20F426
:10717000FE4040F450600860486820F4FE4040F44F
:10718000E0600FE04FF41C60C2F8080151F8900F66
:1071900020F4FE4040F470600860486820F4FE402F
:1071A00040F400604860704700300F4000000E401F
:1071B000374910B5002008601E20F9F5B3FCFCF734
:1071C00033F91F20FBF74DF92020FBF74AF9314C2A
:1071D000D4F8980020F02300C4F89800D4F89C005C
:1071E00040F00100C4F89C00D4F89C0040F002007C
:1071F000C4F89C00D4F89C0040F02000C4F89C0027
:10720000234834380168C1F300410029FAD12049EC
:1072100038390A6822F00C0242F008020A601C4960
:1072200040390A6842F00C020A60012101600168DD
:10723000C1F300410029FAD11548001F016821F06F
:1072400004010160016841F0040101601248416CD1
:1072500021F0FF0141F0660141640120F9F562FC73
:10726000D4F8800220F04000C4F88002D4F88002F4
:1072700020F01000C4F88002D4F8800220F0200032
:10728000C4F88002054806490068C1F8900010BDA6
:10729000C4A4004000A0004000200F4004020020D1
:1072A00000300F402DE9F05F0025FEF767F8FEF78C
:1072B00053F8DFF8E4A0394C394F0AF1500BA946D6
:1072C00008262846FCF754F9A0F6621121F00102C5
:1072D0003AF802103BF802C0020700D00126A2686B
:1072E0000304BA694FEA035848EA823848EA862616
:1072F0000E43A660E66897F81C8049EAC86646EA2D
:107300004C4646EA1333E36063686FF309032B438B
:107310006360636843F480636360431ED4F808C00D
:107320001B044FEA035C4CEA823C4CF4005C4CEAE0
:10733000010CC4F808C0D4F80CC046EA1333E3606B
:10734000636805F1280C6FF3090343EA0C036360DB
:10735000636843F480636360801EA36800040305D0
:1073600043EA823242F400520A43A260E16846EAEC
:107370001030E060606805F150016FF309000843C8
:107380006060606840F4806060606D1CEDB2282D24
:1073900096D3BDE8F09F0000A438002000500F40B5
:1073A000A82A002010B504463C480168880704D587
:1073B0003B49086840F040000860FFF7F9FE0120F3
:1073C00084F820003F2084F821003648A061D820AE
:1073D00084F82300BA2084F82400922084F8250041
:1073E000314844F8100F00210846FAF6DFFFA07478
:1073F0002E48606000F0BAFB2E4B43F250402C49FF
:107400001B6828221844FAF71BFF00F05FF800F011
:1074100091F901F025FE2848D0F8AC1121F0FF01C8
:1074200041F08801C0F8AC11D0F8AC1121F48021F2
:10743000C0F8AC11D0F8AC1141F40021C0F8AC1187
:1074400000F0FEF8FFF72EFF1C48D0F8481241F07C
:107450000101C0F84812D0F8481241F00801C0F804
:107460004812D0F8481221F0F00141F04001C0F874
:10747000481214481249C0F880111349C0F8841109
:10748000C0F88811C0F88C1148F28001C0F894113E
:10749000BDE810406620FFF555BF000048A400403D
:1074A00008A80040B978200001241000AD23100086
:1074B00090A820000402002000100F4000000F40A0
:1074C0001900100900000E4019001808554850F81E
:1074D000041F21F47F0141F400110160016921F4CE
:1074E0007F4141F4A0610161416A21F47F0141F4CF
:1074F00008114162016C21F0407141F0007101649A
:10750000416C21F0FF0141F073014164416C21F0B5
:107510007F4141F0E4414164816C21F0FF0141F081
:1075200024018164816C21F47F4141F4F041816444
:10753000816C21F47F018164816C21F07F4141F0F5
:1075400082418164C16C21F0FF0141F06001C1649E
:10755000C16C21F47F4141F40941C164C16F41F024
:107560004001C167C16F21F4C071C167C16F41F0B3
:107570000061C167C16F41F00041C167D0F8801060
:107580002949C0F880102949D1F8F0216FF3090288
:1075900042F09802C1F8F021D1F8502142F00202E5
:1075A000C1F85021D1F8502122F00402C1F8502135
:1075B0001F4A136A43F0200313621E4AD36F23F459
:1075C0004053D367D36F23F44043D367D36F23F47F
:1075D000E003D367D1F8182222F00702C1F818227D
:1075E000D1F8182222F0700242F04002C1F81822AD
:1075F000C16B21F0C001C163016B21F4407141F402
:10760000007101630C4941630C498163016D21F4F0
:1076100078010165416C21F47F4141F4805141645E
:107620007047000000200F408F10884F00100F405F
:1076300000300F4000000E40020406080A0C0E1035
:107640002DE9F041DFF8D880002640462DED028B71
:10765000354650F8641F21F00F0141F00A01016026
:10766000C16921F4C07141F48071C161016A21F4E2
:107670008051016234460020FFF728FDFFF7E2FC4D
:10768000FFF706FDFCF7A2FE074605442720FFF79B
:107690001DFDFFF7D7FCFFF7FBFCFCF797FEC01BB7
:1076A000641C0644072CE6DB284602F008FC9FED2C
:1076B0001D8B53EC182B02F04DFA41EC100BFAF72E
:1076C000CFFF51EC100B02F0CDFB184C206130467F
:1076D00002F0F5FB53EC182B02F03CFA41EC100BD6
:1076E000FAF7BEFF51EC100B02F0BCFB6061FFF734
:1076F00085FC404650F8841F41F4805101600C4CD9
:1077000000231846FDF78CFE24F813005B1CDBB247
:10771000282BF6D3BDEC028BBDE8F041FDF7C2BECD
:1077200000200F400000000000001C40A82A00209C
:10773000A43800205B4850F8801F21F0FF0141F081
:10774000500140F80819816821F4FE4141F4E061DC
:107750008160816821F47F0141F4A001816081682A
:1077600021F07F418160C16821F0FF0141F05001AB
:10777000C160C16821F4FE4141F4E061C160C168AB
:1077800021F47F0141F4A001C160C16821F07F4173
:10779000C160016921F0FF0141F0500101610169FF
:1077A00021F4FE4141F4E0610161016921F47F01AE
:1077B00041F4A0010161016921F07F41016101698A
:1077C00021F0FF0141F050010161016921F4FE4106
:1077D00041F4E0610161416921F0FF0141F0500194
:1077E0004161416921F4FE4141F4007141612E4A39
:1077F000402111702D49D1F80C2222F0FF0242F0F5
:107800004002C1F80C222A494A6D42F001024A6541
:10781000816921F07F01891C8161C16921F07F01AB
:10782000491CC161016A21F07F01891C0162016A62
:1078300021F4FE4141F448510162016A21F4FE0144
:1078400041F4C6010162016A21F07F4141F0145107
:107850000162416A21F07F01891C4162416A21F481
:10786000FE014162416A21F07F4141F014514162C1
:1078700010490A6D22F47F0242F486020A650A6DFD
:1078800022F07F4242F070420A65026840F61451CD
:107890006FF30D020A430260016841F44001016088
:1078A0007047000000000E409502002000000F40CD
:1078B00000300F4000200F4040B27047704700007A
:1078C00010B5FFF565FCE8BB2A4C54F8440F20F0D6
:1078D000FF0040F0660044F81009206B20F00F0014
:1078E00040F00A0020632448216B027862F386117D
:1078F00021634178206861F3000020601F48216AFD
:10790000807A60F35D612162216A60F39F71216278
:107910008108206A61F312402062E06C20F4C0709C
:1079200040F08000E064206D20F480502065FFF777
:1079300065FBFDF723FDFDF70FFD206D40F0040012
:10794000206500E00BE0206D40F008002065FFF7A7
:10795000BDFD00F027F9FFF7EDFE01F081FB0848BF
:107960000068800704D50748016841F040010160C4
:1079700010BD000000200F4044390020A82A00203C
:1079800048A4004008A8004011B583B0002002219F
:10799000BDF80C200090ADF804104CF216041AB19A
:1079A00003AA2046FEF74CFF6A4601A92046FEF7CF
:1079B00065FD48B14FF4807005490A68054B1A40CF
:1079C00042EA802008601FBDBDF80000F4E7000017
:1079D00010A90040FF03F8FF10B5002911D080B1B5
:1079E0007AB1EFF31083012484F3108802604160C0
:1079F00000218160C16033B1012080F31088012033
:107A000010BD002010BD002080F31088F7E700288B
:107A10000AD0EFF31083012181F310888168C268D6
:107A20008A4203D8881A04E0002070470068801A50
:107A300008441BB1012181F310887047002181F3B4
:107A4000108870472DE9F04705468A464FF0000838
:107A5000EFF31089012080F31088AF68EE68002DE5
:107A60002ED0696861B3BAF1000F29D0B74204D3B0
:107A7000BC1BA2420DD814460BE02868831BDC19FE
:107A8000A24200D814463219824202D3A219A2EBB4
:107A90000008A4EB080231445046FAF7D1FB0AEB88
:107AA0000400A0EB080042466968FAF7C9FB3019E8
:107AB0002968814202D8B84200D9401AE86000E043
:107AC0000024B9F1000F05D0012080F31088204672
:107AD000BDE8F087002080F31088F8E72DE9F04733
