:020000040024D6
:10000000E857012059002400FB012400091E1000BC
:10001000F9012400F10124008515240000000000EE
:10002000000000000000000000000000011E1000A1
:10003000F701240000000000FD012400FF0124005E
:10004000DFF810D000F048FC00F066F800480047E8
:10005000E59C2500E85701200148804701480047FA
:1000600055152400099D25000649074A0868504394
:1000700043F23902104408604008704701490860A3
:1000800070470000D83400206D4EC64110B5431AA9
:10009000934209D28318881803E010F8011D03F871
:1000A000011D521EF9D210BD40EA01039B0703D087
:1000B00009E008C9121F08C0042AFAD203E011F8A7
:1000C000013B00F8013B521EF9D210BDD2B201E053
:1000D00000F8012B491EFBD270470022F6E710B54D
:1000E00013460A4604461946FFF7F0FF204610BDA6
:1000F000421C10F8011B0029FBD1801A704730B553
:1001000004460020034600E05B1C934203D2E05CFF
:10011000CD5C401BF8D030BD70B5054C054D03E0FB
:10012000206820448047241DAC42F9D170BD0000F6
:10013000CC2B2600D02B260030B404469623080092
:10014000214604D0B62330BC002200F0DEBA20469F
:100150000021F8E70EB540F2334102910021CDE9CC
:1001600000110A460B4600F00DFB03B000BD0EB5B2
:1001700040F2334202920022CDE90022134600F001
:1001800001FB03B000BD20F00040C20DC0F316001B
:1001900040F400007F2A02DA002001467047002167
:1001A000962A03DCC2F19602D0407047963A00F0DE
:1001B00072BA70B5C1F30A5201F000450024C1F3D0
:1001C000130140F2FF3341F480119A4201DA00201A
:1001D00070BD40F233439A42A2F2334203DC5242F2
:1001E00000F068FA00E090402C43F1D0404270BD2E
:1001F000FEE708F097BAFEE7FEE7FEE7FEE7FEE758
:100200005858524701000000055400000000240027
:10021000000024005EAC9A470001000000000000CE
:1002200000000000000000000000000000000000CE
:1002300000000000000000000000000000000000BE
:100240002DE9FE4F804681EA0300C00F0C46009066
:1002500021F0004123F00045B8EB0200A94105D28E
:100260004046214690461C460B46024623F000407D
:10027000104347D0270DC7F30A00C3F30A51029079
:10028000401A019040286BDAC3F3130040F4801B3E
:100290000098924620B10023D2EB030A63EB0B0BCC
:1002A00001985946C0F14002504600F0F4F9064664
:1002B0000D4650465946019A00F00CFA10EB080022
:1002C0006141002487EA115284EAE7731A4340D05F
:1002D000009A62B3019A012A4FEA075215DC001B0B
:1002E00061EB02014FF0004202EA0752CDE9004201
:1002F000001C41F5801132462B4600F043FA03B052
:10030000BDE8F08F40462146F9E7001B61EB020192
:10031000001C41F5801300185B412018A2F500175E
:1003200047EB030140EAD570B6196D4111E06D0845
:100330004FEA360645EAC0754FEA0752001B61EBEB
:100340000201001C41F5801149084FEA30000019F4
:10035000514132462B4603B0BDE8F04F00F003BADE
:100360000098012240000023D0EB020263EBE0730F
:10037000009821464FEAE074B8EB000061EB0401FD
:10038000E9E783F000435BE781F0004158E72DE99E
:10039000FE4F81EA030404F0004421F00041009480
:1003A0004FF0000B23F0004350EA01045ED052EA04
:1003B00003045BD0C3F30A54C1F30A552C44A4F2DE
:1003C000F3340194A0FB0254C1F3130141F48011F2
:1003D000C3F3130343F4801301FB024400FB034EF9
:1003E000840A970A44EA815447EA8357A4FB0768C2
:1003F00002958D0A05FB07854FEA932C04FB0C54EC
:100400002705029D4FEA065847EA1637B5EB08055F
:100410006EEB070C870E920E47EA811742EA8312B1
:10042000A7FB0201B6EB0B0164EB00042B0D43EAC2
:100430000C335E1844EB1C50DA465146E7FB0201D0
:10044000C5F313044FEA0B3343EA14534FEA043263
:10045000019C43EA0603A4F10C040294009CCDE93C
:1004600000B400F08FF903B0BDE8F08F0020014622
:10047000F9E72DE9F04D81EA030404F0004B21F087
:10048000004514464FF0000A23F0004150EA0502EF
:1004900020D054EA01021DD0C5F30A570246C5F325
:1004A0001303C1F31300C1F30A5640F4801543F45B
:1004B0008013A7EB0608101BD64608F2FD3873EB35
:1004C000050002D308F1010801E092185B41B8F180
:1004D000000F03DA00200146BDE8F08D00204FF444
:1004E0008011064684460EE0171B73EB050705D303
:1004F000121B63EB050306434CEA010C49084FEA63
:10050000300092185B4150EA0107EDD152EA030036
:1005100012D082EA040083EA0501084305D0101BCB
:10052000AB4106D20122002306E000224FF0004337
:1005300002E06FF0010253101AEB06004CEB085179
:1005400010EB0A0041EB0B01BDE8F04D00F00BB9D8
:10055000C1F30A5210B5C1F3130140F2FF3341F465
:1005600080119A4201DA002010BD40F233439A42D2
:10057000A2F2334203DC524200F09CF810BD9040DE
:1005800010BD00F0004230F000400AD0C10D01F56E
:100590006071C0F3160042EA0151C20840071143DE
:1005A000704700200146704730B5041E71F1000409
:1005B00004DB4FF00044404264EB0101141E73F170
:1005C000000405DB1C464FF00043524263EB04037A
:1005D0008B4208BF824230BD30B5041E71F1000469
:1005E00004DB4FF00044404264EB0101141E73F140
:1005F000000405DB1C464FF00043524263EB04034A
:10060000994208BF904230BD30B50B4601460020EC
:100610002022012409E021FA02F59D4205D303FAC4
:1006200002F5491B04FA02F52844151EA2F1010245
:10063000F1DC30BD2DE9F05F0546002092469B4677
:1006400088460646814640241BE0284641464746E8
:10065000224600F02FF853465A46C01A914110D353
:1006600011461846224600F016F82D1A67EB0108CD
:100670004F4622460120002100F00DF817EB00093B
:100680004E41201EA4F10104DFDC484631462A46D3
:100690004346BDE8F09F202A04DB203A00FA02F12D
:1006A000002070479140C2F1200320FA03F3194360
:1006B00090407047202A04DB203A21FA02F0002102
:1006C000704721FA02F3D040C2F120029140084362
:1006D00019467047202A06DBCB17203A41FA02F070
:1006E00043EAE07306E041FA02F3D040C2F120028F
:1006F00091400843194670470029A8BF7047401C25
:10070000490008BF20F00100704710B4B0FA80FC27
:1007100000FA0CF050EA010404BF10BC704749B164
:10072000CCF1200421FA04F411FA0CF118BF0121D4
:1007300021430843A3EB0C01CB1D4FEA00614FEAB4
:10074000102042BF002010BC704700EBC350104483
:100750000029A4BF10BC7047401C490008BF20F00E
:10076000010010BC704710B5141E73F1000408DAC4
:10077000401C41F1000192185B411A4301D120F065
:10078000010010BD2DE9F04D92469B4611B1B1FA22
:1007900081F202E0B0FA80F220329046FFF77BFF50
:1007A00004460F4640EA0A0041EA0B0153465A4606
:1007B000084313D0114653EA010019D0C8F1400292
:1007C0005046FFF777FF05460E46504659464246CB
:1007D000FFF761FF084305D0012004E020463946B9
:1007E000BDE8F08D0020054346EAE0762C43374310
:1007F0000A986305E40AA0EB08000022FD0A44EA17
:1008000047540A3002D500200146E9E701051019D6
:100810006941DDE9084500196941BDE8F04DA2E7ED
:100820002DE9F041054621F000400C46284309D04F
:10083000C4F30A5040F23341884205DD2846214680
:10084000BDE8F0812846FBE740F2FE31884210DC2B
:100850000CDB4FEA043040EA155050EA053105D070
:10086000104804F0004101430020E9E70020014660
:10087000E6E7A0F233404642C6F140022846214650
:10088000FFF709FF07468846284621463246FFF70C
:1008900011FF43463A46FFF766FF3246BDE8F04196
:1008A000FFF7F9BE0000F03FC1F30A52C1F3130194
:1008B00040F2FF3341F480119A4202DA00200146EF
:1008C000704740F233439A42A2F2334202DC524272
:1008D000FFF7F0BEFFF7DFBE064C074D06E0E0680D
:1008E00040F0010394E8070098471034AC42F6D377
:1008F000FFF7AAFB8C2B2600CC2B260070B58C189A
:1009000010F8015B15F0070301D110F8013B2A1123
:1009100006D110F8012B03E010F8016B01F8016B10
:100920005B1EF9D12B0705D40023521E0DD401F80C
:10093000013BFAE710F8013BCB1A921C03E013F8D5
:10094000015B01F8015B521EF9D5A142D8D300200A
:1009500070BDF0B5002508222B4650F8227051F8E2
:100960002260BE1943EB030476195C4104F00104D4
:100970001C4301D0012500E0002540F82260044618
:10098000521EEAD5002150F8212012B9491C09292C
:10099000F9DBC1F109016162F0BDF0B50024082363
:1009A000254650F8236051F82370F61945EB0507EA
:1009B00036196F4107F001042C4301D0012400E0F7
:1009C000002442F823605B1EEBD5002052F8201073
:1009D00011B9401C0928F9DBC0F10901C2E9091568
:1009E000F0BD000010B51446FFF7D7FFA06A20B194
:1009F0002046BDE8104000F01DB80D4B606A596AF2
:100A000088420ED813D3C0F1090108E053F8212021
:100A100054F8210082420AD803D301F101010929C7
:100A2000F4D32046BDE81040014900F005BD10BDDB
:100A3000A015260010B58CB0044601466A4607484A
:100A400000F05AFC694624222046FFF71FFB099854
:100A500060620020A0620CB010BD0000A01526004E
:100A60002DE9F0410446DFF808C1806A8CB04FF0F0
:100A7000000848B16246606A536A2146984250D8DD
:100A800027D3C0F1090022E04FF000014FF0080029
:100A9000424654F820505CF82030ED1842EB020337
:100AA0006D18534103F00101114301D0012100E011
:100AB000002144F82050401EEBD518E052F82030B9
:100AC00051F82050AB4204D82BD300F10100092883
:100AD000F4D36A46264800F00FFC694625462422D6
:100AE0002046FFF7D3FA09986862C4F828800022EC
:100AF0001046454654F82010491945EB02035A08A0
:100B00004FEA310244F8202021F001028A1A00F154
:100B1000010023460928EDD3002054F8201001BB22
:100B20001CE00023082241465CF8225054F82200C1
:100B3000EE1841EB0107861B71EB07062B4406D22A
:100B4000C01A001C44F822004FF0010303E0C31A4E
:100B500044F822300023521EE6D5C8E7401C09287D
:100B6000DBDBC0F1090058620CB0BDE8F081000089
:100B7000A015260010B5122000F055FD09F03AFE30
:100B800004490446496A88472046BDE8104009F0F8
:100B9000F3BD00007031002010B5C6F539FB10B16F
:100BA00007F088F910BDBDE81040EDF51FBE00004C
:100BB00010B5EDF507FF022818D00D4CD4F88802C7
:100BC00020F00100C4F888024FF0E0214FF00050FF
:100BD000C1F8800204F5227407F016FF0548416849
:100BE000491C4160206840F00100206010BD0000F9
:100BF00000E00040F43100202DE9F04FADF5317DEB
:100C0000814600F12C0B58308890859001F12C0022
:100C10008490CDE989012C300E4687908690154648
:100C200024211046FFF759FA002405F12C076C62C5
:100C3000B84624213846AC62FFF74FFA7C62BC62AA
:100C40002C3724213846FFF748FA7C6237A8242144
:100C5000BC62FFF742FA40940BA824214194FFF7AD
:100C60003CFA149442A824211594FFF736FA4B94C9
:100C700016A824214C94FFF730FA1F9421A82421B0
:100C80002094FFF72AFA2A94684624212B94FFF730
:100C900024FA09944DA824210A94FFF71EFA5694C9
:100CA00058A824215794FFF718FA619463A82421C7
:100CB0006294FFF712FA6C942CA824216D94FFF72C
:100CC0000CFA359479A824213694FFF706FA829419
:100CD0006EA824218394FFF700FA77944846A1492F
:100CE000789419F00FFA9F4C010004F12C0A04F1DA
:100CF000580409D15146584619F004FA20B9214642
:100D0000889819F0FFF928B13046964919F0FAF998
:100D100078B339E03046934919F0F4F950B95146A7
:100D2000849819F0EFF928B92146879819F0EAF963
:100D300000287DD0242231462846FFF7A7F9706AA3
:100D40006862B06AA862849D4446242229464046CF
:100D5000FFF79CF9686A6062A86AA062879C2422F7
:100D600021463846FFF792F9606A7862A06AB86255
:100D7000F5E0FFE75146849819F0C4F920B92146FF
:100D8000879819F0BFF928B14946304619F0BAF9E9
:100D9000B8B122E04C46242249462846FFF776F9AE
:100DA000606A6862A06AA8625D4644462422594689
:100DB0004046FFF76BF9686A6062A86AA062889C87
:100DC000CDE75946849819F09DF9002830D1306D4F
:100DD000012802D8F06C0028ABD037AA85998998F1
:100DE00000F0CEF90BAA5846869900F0C9F942AA3C
:100DF00085998A9800F0C4F916AA4846869900F0A9
:100E0000BFF916A942A819F07DF900287ED021AAC1
:100E10000BA937A800F09AFA6A4616A942A800F072
:100E200095FADDE9850158AA00F0AAF9A5A800E025
:100E30007BE02421FFF751F90024AE9484A82421FB
:100E4000AF94FFF74AF98D948FA824218E94FFF771
:100E500044F998949AA824219994FFF73EF9694699
:100E6000A39463AA0846A49400F08AF92CAA6946C0
:100E700063A800F085F921A979AA084600F080F955
:100E80006EAA16A963A800F07BF99AAA02216EA89F
:100E900000F058F984AA58A979A800F071F98FAA2E
:100EA0002CA984A800F052FA4DAA9AA98FA800F0A4
:100EB0004DFA2A464DA9684600F062F984A824211B
:100EC000FFF70BF98D948FA824218E94FFF705F975
:100ED00098949AA824219994FFF7FFF8A39484AAE0
:100EE0004DA96EA8A49400F031FA8FAA84A921A874
:100EF00000F046F99AAA0BA92CA800F041F9424645
:100F00009AA98FA800F022FA3A4600E008E058A912
:100F10002CA800F035F901200DF5317DBDE8F08FEA
:100F20000BA937A819F0EEF8A8B10E4E24223146CD
:100F30002846FFF7ABF8706A6862B06AA862564646
:100F40004546242251464046FFF7A0F8706A686281
:100F5000B06AA86203E72946484600F005F8002079
:100F6000DAE700001C1626002DE9F04F0C465B4E18
:100F7000016D06F12C085836F9B0834600F12C05B6
:100F800000F1580A04F12C0904F15807012902D88C
:100F9000296A00297ED0514919F0B4F850B9414668
:100FA000284619F0AFF828B93146504619F0AAF88A
:100FB000002873D037AA51465846FFF713FD42AABE
:100FC0005146584600F0C2F94DAA42A937A800F090
:100FD000D7F80BAA03214DA800F0B4F86A46514691
:100FE000284600F0CDF837AA6946284600F0C8F830
:100FF00016AA37A9584600F0C3F80BA937AA084625
:1010000000F0BEF842AA082116A800F09BF821AA19
:1010100042A937A800F09AF937AA694621A800F03A
:10102000AFF82246022137A800F08CF8294637AAEB
:10103000084600F0A5F869462CAA084600F0A0F87A
:1010400042AA2CA937A800F09BF84DAA082142A873
:1010500000F078F858AA042116A800F073F863AAE3
:1010600021A958A800F072F96EAA63A90BA800F094
:1010700087F84A464DA96EA800F068F937AA694674
:101080002CA800F07DF83A46082137A800F05AF85D
:10109000002000E002E079B0BDE8F08F0F4D24227F
:1010A00029462046FEF7F2FF686A6062A86AA062DD
:1010B00045464C46242241464846FEF7E7FF686A0B
:1010C0006062A86AA062242231463846FEF7DEFF3D
:1010D000706A7862B06AB862DAE700001C1626000F
:1010E0002DE9F043154F0446154EF87D10258BB0C1
:1010F00091468846FF2806D0716EC20005FA02F0BC
:10110000814301437166694604F1580003F08CFF86
:10111000F87DFF2804D0716EC0008540A943716638
:1011200042466946204600F02BF84A46694604F1DB
:101130002C0000F025F80BB0BDE8F083400700203C
:1011400000000E40F0B4002508232F4650F823601D
:101150002C463D46E6FB014542F823405B1EF5D593
:10116000002152F8213013B9491C0929F9DBC1F1DA
:1011700009035362806A9062F0BC10461CF084BD83
:101180002DE9F74FA0B082460C46684683464821B9
:10119000FEF7A3FF4FF00009CDF848900821CDF8E5
:1011A0004C90002208204D4646180BEB860354F85D
:1011B00020805F685AF821C0BE1845EB0502ECFBA1
:1011C00008625E60401EEFD5491EEAD569460020E0
:1011D00051F8202012B9401C1228F9DBC0F112008E
:1011E0008864DAF82800A16A884201D0012000E072
:1011F000002000246D46139000E0641C55F8240084
:1012000008B9092CF9D313982D491E9012988B6CAC
:101210002A46984215D818D3C0F112000DE051F8B3
:10122000203052F82060B34206D0B34201D20120F0
:1012300000E0002028B908E0401C1228EFDB00E0A5
:10124000641C55F824000028FAD005EB8401242200
:1012500014A8FEF71BFF14A9002051F8202012B992
:10126000401C0928F9DBC0F10900486204F10900BB
:101270001228084615D21CF007FD14A82022011DD3
:10128000FEF704FF05EB840014A9406A1C900020BF
:10129000641C51F82020002AE5D1401C0928F8DB05
:1012A000E1E71CF0F1FC229C14A924222046FEF761
:1012B000EDFE1D9860621E98A06223B0BDE8F08F1D
:1012C000CC15260010B54342421E0A60C1E9013028
:1012D0004FF0000001F1100C4FF0FF34C8608CE8B3
:1012E00015008862C1E9074301D0092000E0082009
:1012F000486210BD10F00EB8F0B500240823274650
:1013000051F8236050F8235016EB040C47EB070EFE
:10131000B5EB0C0C77EB0E0C344406D22C1B241CC2
:1013200042F823404FF0010403E02D1B42F8235004
:1013300000245B1EE4D5002052F8201011B9401C97
:101340000928F9DBC0F109005062F0BD2DE9F04138
:101350000F460346816A0125B86A1446002641B14A
:1013600090B3786A596A884244D849D3C0F10900D9
:101370003EE020B139461846FFF70FFB16E0586AE9
:10138000796A88420ED81BD3C0F1090008E057F8EB
:10139000202053F820108A4212D803D300F1010014
:1013A0000928F4D322463946184626E02149A66288
:1013B000606A4A6A904234D839D3C0F109002EE0FD
:1013C0002246194638461EE0FFE739461846FFF721
:1013D000E4FA2046A562BDE8F041FFF72BBB53F8C5
:1013E000202057F820108A420AD803D300F10100C8
:1013F0000928F4D3224619463846FFF77DFFD5E782
:10140000224639461846FFF777FFE2E751F82030C9
:1014100054F8202093420AD803D300F10100092890
:10142000F4D32046BDE8F041024900F005B8BDE81C
:10143000F0810000A0152600F0B5002308221E460A
:1014400051F8225050F82240EF1846EB060CE71BEB
:1014500076EB0C072B4406D2E31A1B1C40F8223013
:101460004FF0010303E0E41A40F822400023521E2B
:10147000E6D5002150F8212012B9491C0929F9DBD1
:10148000C1F109014162F0BD70B50B460446816AA5
:101490000025986A8CB0012641B140B1586A616A52
:1014A000884239D846D3C0F1090033E030B10CB0DE
:1014B0002046BDE870401946FFF74BBA606A596A8A
:1014C000884237D80ED3C0F1090008E053F8202035
:1014D00054F820108A4205D82CD300F101000928C5
:1014E000F4D327E06A4621461846FFF705FF694610
:1014F00024222046FEF7CAFD0998C4E909060CB06B
:1015000070BD54F8202053F820108A4212D803D31B
:1015100000F101000928F4D36A4621461846FFF776
:10152000EBFE694624222046FEF7B0FD0998C4E987
:101530000905E4E70CB02046BDE870401946FFF706
:101540007BBF00000249096801F007010170704784
:1015500000A000400248016841F47001016070473A
:1015600088ED00E002480068001D10F055B9000049
:10157000D02F002002484068001D10F04DB9000037
:10158000D02F0020FEE700000FB41CB5024600205B
:1015900007AC00290BD0491ECDE90021054B6A4656
:1015A0002146069800F01CFD009A002111701CBC19
:1015B0005DF814FB0F2724000FB4084B10B504A9E5
:1015C00002AA039800F00CFD044602A9002001F0D5
:1015D000A9F8204610BC5DF814FB00002527240064
:1015E0007CB5044600201D46164600290BD0491E36
:1015F000CDE90041044B6A462946304600F0F0FC34
:10160000009A002111707CBD0F272400002809DBFF
:1016100000F01F02012191404009800000F1E0200C
:10162000C0F880127047002809DB00F01F0201217A
:1016300091404009800000F1E020C0F8801270471E
:10164000002809DB00F01F020121914040098000C1
:1016500000F1E020C0F88012704700280DDB00F098
:101660001F02012191404009800000F1E020C0F8F4
:101670008011BFF34F8FBFF36F8F7047002809DBD6
:1016800000F01F02012191404009800000F1E0209C
:10169000C0F800117047002809DB00F01F0201218B
:1016A00091404009800000F1E020C0F8001170472F
:1016B000002809DB00F01F02012191404009800051
:1016C00000F1E020C0F80011704700280FDB41094D
:1016D000890001F1E021D1F8001100F01F02012082
:1016E0009040014201D00120704700207047002047
:1016F000704700280FDB4109890001F1E021D1F892
:10170000001100F01F0201209040014201D0012091
:1017100070470020704700207047002804DB00F16C
:10172000E02090F80004704700F00F0000F1E02086
:1017300090F8140D7047002804DB00F1E02090F8C9
:101740000004704700F00F0000F1E02090F8140D45
:101750007047002804DB00F1E02090F80004704797
:1017600000F00F0000F1E02090F8140D7047002801
:1017700004DB00F1E02090F80004704700F00F0057
:1017800000F1E02090F8140D7047002804DB00F110
:10179000E02090F80004704700F00F0000F1E02016
:1017A00090F8140D7047002804DB00F1E02090F859
:1017B0000004704700F00F0000F1E02090F8140DD5
:1017C0007047002804DB00F1E02090F80004704727
:1017D00000F00F0000F1E02090F8140D7047002891
:1017E00004DB00F1E02090F80004704700F00F00E7
:1017F00000F1E02090F8140D7047000002480068E6
:10180000C0F30220704700000CED00E002480068C1
:10181000C0F30220704700000CED00E002480068B1
:10182000C0F30220704700000CED00E002480068A1
:10183000C0F30220704700000CED00E00248006891
:10184000C0F30220704700000CED00E00248006881
:10185000C0F30220704700000CED00E00248006871
:10186000C0F30220704700000CED00E0EFF31080A1
:1018700070470000000000002DE9F0412DED020B43
:101880009FED3D0B2DED028B9FED3D8BDDE902546D
:10189000C4F30A50A0F2FF36142E37DA002E18DAFD
:1018A00053EC102B9DED020B51EC100BFEF7C8FC16
:1018B00053EC182BFEF790FE57D2002CBCBF4FF014
:1018C0000044002551DB54EA050018BF2E4C1BD103
:1018D0004BE02E4820FA06F704EA070028431FD001
:1018E00053EC102B9DED020B51EC100BFEF7A8FCF6
:1018F00053EC182BFEF770FE37D2002C03DD4FF4AB
:101900008010F0400444BC4300252EE0332E07DC59
:10191000A6F114004FF0FF3121FA00F73D4206D145
:101920009DED020BBDEC028B02B0BDE8F08153ECE3
:10193000102B9DED020B51EC100BFEF725FD53EC27
:10194000182BFEF749FE10D2002C0DDD142E08BF17
:10195000641C09D0C6F13400012101FA00F02844CA
:10196000A84238BF641C0546BD43CDE902549DED35
:10197000020BD7E7000000009C7500883CE4377E2E
:1019800000000000000000000000F03FFFFF0F001B
:1019900010B52DED020B2DED088B84B09DED0C0BD9
:1019A00051EC100BFEF73CFF41EC180B9DED0C0BBE
:1019B00053EC182B51EC100BFEF7E3FC41EC190B28
:1019C0000D989FED290B10F0004F53EC102B51ECAC
:1019D000190B9FED21AB9FED22BB0ED0FEF7E4FD6E
:1019E0000ED953EC1B2B51EC190BFEF7F5FD1CD255
:1019F00014E000BF41EC180B17E0FEF7D5FD06D24E
:101A000053EC1A2B51EC180BFEF7BBFCF2E753EC2E
:101A10001B2B51EC190BFEF7DFFD06D853EC1A2BEC
:101A200051EC180BFEF70CFCE4E78DED028B9DEDFD
:101A30000C0B18EE901A10EE900A8DED000B61F36E
:101A40001E0003909DED020B04B0BDEC088B02B0AC
:101A500010BD000000000000000000000000F03F8A
:101A6000000000000000E03F000000000000E0BFB8
:101A700002E008C8121F08C1002AFAD17047704757
:101A8000002001E001C1121F002AFBD1704780F342
:101A9000108870472DE9F74F07460298DFF86CA1D0
:101AA000DFF86C814FEA500B5A48019D5C46564660
:101AB000CAF80000D8F804203F2060F30502C8F8F7
:101AC0000420DAF8000020F4700040EA0750CAF859
:101AD0000000DAF8000020F4702040EA0740CAF85D
:101AE00000000D2F02D00E2F04D007E0306840F424
:101AF000004002E0306840F480403060306840F4DC
:101B000000503060306820F060503060306820F065
:101B10000F0040F003003060002000F0AFF8012813
:101B200072D13168B24641F08041316000204246B6
:101B300009E0D8F8083043F48033C8F80830811C35
:101B400000F1010005D091689046C1F30021002901
:101B5000EFD1072000F092F8012855D142E000268D
:101B60004FF47A7924E04E451ED9DAF8001021F0BE
:101B70008041CAF80010DAF8001041F00041CAF8BC
:101B80000010DAF8001021F00041CAF8001000201F
:101B900000F074F8012837D11F480169491C016120
:101BA0000520BEF5BFFF7FE70120BEF5BBFF761C19
:101BB000D8F80800C0F300200028D4D0D8F80800D6
:101BC000434600F07F02A24200D92246002006E0F0
:101BD000196825F8021B090C25F8021B401C9042CD
:101BE000F6D3A41A002CBAD10298C00707D04046F9
:101BF0008168C1F300210029FAD000682880BDE87F
:101C0000FE4F002000F03AB8BDE8FE8F00A800406B
:101C100000E000400A070807F43100202DE9F041F8
:101C20001249044600200860104980390860104DB0
:101C3000686A104E00F0010149420140F061C80598
:101C40000DD440F20117A869B84208D024B1012090
:101C5000641EBEF567FFF6E70020BDE8F081064888
:101C6000006870616868B0610120F6E794581C4212
:101C700000E00040F431002000A800402DE9F041D0
:101C8000104F0546F868C0F30240A84217D0F86824
:101C900020F007002843F86000244FF6FF76F8682C
:101CA000C0F30240A84205D00120BEF53BFF641CF2
:101CB000B442F4D3B44202D10020BDE8F081012047
:101CC000FBE7000000E000402DE9FF5F82B000214B
:101CD000DDE90430020DDDF840B0034318D044F6CE
:101CE0001050A2F2FF3242431514119801281FD060
:101CF000A5EB0B00401C5FEA000A4FF000064E4FB8
:101D0000DFF83891B046504615D5CAF1000413E00B
:101D1000119801244AA3012801D16FEA0B0102980E
:101D2000119AC0E90031C0E9024206B0BDE8F09F57
:101D3000CBF10000DFE704460021404A491842EB9E
:101D40000450CDE9001012E0E00707D032463B46D0
:101D500040464946FEF71BFB8046894632463B46D5
:101D600010461946FEF713FB06460F466410002C7A
:101D7000EAD1DDE90401DDE90023BAF1000F06DA5A
:101D8000FEF705FB42464B46FEF701FB05E0FEF77A
:101D900070FB42464B46FEF76CFB04460E460022A3
:101DA000284BFEF719FC03D84FF0FF30014607E03F
:101DB0000022254B20463146FEF742FAFEF774FD1D
:101DC000102409E0002C0ADB0A220023FEF732FC73
:101DD000039B30321A55641E50EA0102F2D1641C92
:101DE000039AC4F111031444119A012A03D0012269
:101DF00008430DD10AE0084304D000204FF0110B36
:101E0000119072E7A3EB0B056D1E0DE05B4504DD41
:101E10004FF0000205F1010504E003DA4FF0000283
:101E2000A5F10105002AECD002981199C0E9023110
:101E3000C0E9004579E70000000014400000F03FD1
:101E4000300000000000F0430000E03FF0B50C4619
:101E50002DED088B89B006469FED559B20216846E5
:101E6000FEF73BF9B0EE498AF0EE698A1022694626
:101E70003046FFF70FFE00256F4607EB4500008A4E
:101E8000FEF768F953EC182BFEF7DAF96D1C41ECFC
:101E9000180BEDB2082DF0D39FED470B51EC180B4A
:101EA00053EC102BFEF773FA41EC180B9FED44BB7B
:101EB0000D2E02D00E2E30D072E06088FEF74AF967
:101EC00053EC1B2BFEF7D5FA9FED3F0B41EC190BA2
:101ED00051EC100B81F0004141EC1A0BE088FEF749
:101EE00039F953EC1A2BFEF752FA41EC1A0B208801
:101EF000FEF730F953EC182BFEF746FA53EC1A2B89
:101F0000FEF7B7FA9FED321B53EC112BFEF7B1FA37
:101F100053EC192BFEF794F940E0A07EFF2801D086
:101F2000E8B13DE09FED2C0B51EC100B81F000412E
:101F300041EC1A0BE088FEF70DF941EC190B2089F2
:101F4000FEF708F953EC182BFEF71EFA53EC192B89
:101F5000FEF78FFA53EC1A2BFEF719FA1EE0A08851
:101F6000FEF7F8F841EC190BE088FEF7F3F881F082
:101F7000004141EC1A0B2089FEF7ECF853EC182BCA
:101F8000FEF702FA53EC1A2BFEF773FA53EC192BF7
:101F9000FEF7FDF953EC1B2BFEF76BFA41EC190B26
:101FA00009B0B0EE490AF0EE690ABDEC088BF0BD4D
:101FB0000000000000000000000000000000C03F22
:101FC0000000000000005940000000000000004038
:101FD000DE718A8EE4F25FBFE2E1E1E1E1E10E4011
:101FE0002DE9FF4F95B09B468946064600250FE236
:101FF000252877D100242746F84A0121059400E0DE
:10200000044316F8013F203B01FA03F01042F7D1D8
:1020100030782A2811D06FF02F033078A0F13002E9
:10202000092A16D8059A44F0020402EB820203EB57
:1020300042021044761C0590EFE759F8042B0592F4
:10204000002A03DA504244F40054059044F002049C
:10205000761C30782E2816D116F8010F44F00404AF
:102060002A280DD06FF02F023078A0F13003092B11
:1020700009D807EB870302EB4303C718761CF3E785
:1020800059F8047B761C30786C280FD006DC4C287D
:1020900017D068280DD06A2814D104E0742810D015
:1020A0007A280FD10DE044F400140AE044F48014BF
:1020B00001E044F440147278824202D104F58014A5
:1020C000761C761C307866280BD013DC582877D025
:1020D00009DC002875D04528F6D04628F4D04728DA
:1020E0001AD19DE118E0632835D0642879D065289D
:1020F00012D195E1702873D008DC6728F1D06928E7
:102100006FD06E280DD06F2806D1B5E073282CD083
:10211000752875D0782874D05A46179990476D1C49
:1021200075E1C4F30250022809D003280DD0D9F874
:10213000001004280DD00D6009F1040967E1D9F8F9
:102140000010EA17C1E90052F6E7D9F800100D8037
:10215000F2E70D70F0E719F8041B8DF8001000206D
:102160008DF80100EA46012003E059F804AB4FF076
:10217000FF3061074FF0000102D40DE008F10101CA
:102180008846B9420FDA8045F8DB1AF808100029B2
:10219000F4D108E008F1010188468142FADB1AF81F
:1021A00008100029F6D105985B46A0EB08072146E8
:1021B0003846179A00F094FA284400EB080507E027
:1021C0004DE029E10DE01AF8010B5A4617999047A6
:1021D000B8F10108F7D25B4621463846179A13E159
:1021E00042E00A220092C4F302524FF0000A022A8F
:1021F00008D059F804CB032A4FEAEC710AD00DE05D
:1022000029E02AE009F1070121F00702F2E802C102
:10221000914609E00FFA8CFC4FEAEC71042A03D1D5
:102220004FFA8CFC4FEAEC71002907DA0A460021CC
:10223000DCF1000C61EB02012D2202E0220504D545
:102240002B228DF80420012203E0E20701D0202296
:10225000F7E7904659E00A2102E010220DE0102134
:102260004FF0000A00910BE010224FF0000A44F0FA
:1022700004040827009203E008224FF0000A0092AD
:10228000C4F30252022A05D059F804CB0021032AD4
:1022900008D009E009F1070121F00702F2E802C1C4
:1022A000914605E01FFA8CFC042A01D10CF0FF0CCA
:1022B0004FF00008220728D5702806D0009B83F035
:1022C000100353EA0A0305D00EE040228DF80420E3
:1022D000012208E05CEA010206D030228DF80420D9
:1022E0008DF8050002229046009B83F0080353EA14
:1022F0000A030AD15CEA010201D1620705D5302246
:102300008DF804204FF001087F1E582804D034A017
:1023100003900EA802900DE036A0F9E75346604600
:10232000009AFEF787F984460398825C0298401E63
:10233000029002705CEA0100F0D1029806A9081A26
:1023400000F1200A600702D524F4803400E0012760
:10235000574502DDA7EB0A0000E0002000EB0A0170
:10236000009005984144401A0590E00306D45B466E
:102370002146179A059800F0B3F90544002706E0B6
:1023800001A85A46C05D179990476D1C7F1C4745B0
:10239000F6DBE0030CD55B462146179A059800F062
:1023A0009FF9054404E030205A46179990476D1C68
:1023B0000099481E00900029F5DC08E00298029977
:1023C0005A460078491C0291179990476D1CBAF142
:1023D0000001AAF1010AF1DC65E100000928010011
:1023E000303132333435363738396162636465668B
:1023F000000000003031323334353637383941424D
:10240000434445460000000000F058F90544761C9E
:10241000307800287FF4ECAD19B02846BDE8F08F85
:10242000620700D4062709F1070222F0070CFCE836
:102430000223E14603F000485FEA080C02D00FF2E5
:10244000702C0DE05FEA045C02D50FF2682C07E007
:102450005FEAC47C02D00FF2602C01E0AFF2700C96
:102460004FF0FF3823F00043CDF850C065280CD062
:1024700006DC452809D046281DD047283DD13DE03F
:10248000662818D067287ED138E00021112F01DBA3
:10249000112000E0781CCDE9000106A90EA8FFF785
:1024A00013FCDDE90F010E9A03910021009207F160
:1024B000010A04914DE04FF000400097CDE9011072
:1024C00006A90EA8FFF700FCDDE90F0203920E9BA0
:1024D00011990022DDF80CA00093049211B9791C27
:1024E00000EB010AB7EB0A0004D4C0F1FF3007F19A
:1024F000010A0490AAEB0700019044E0012F00DAE2
:1025000001270021112F01DD112000E03846CDE91F
:10251000000106A90EA8FFF7D7FBDDE90F010E9A0F
:102520000391002104910092BA4621070CD403992B
:10253000514500DA8A46BAF1010F05DD009AAAF189
:102540000101515C302908D0B84202DA10F1040FC1
:1025500006DA0121CDE9011015E0AAF10101E9E750
:10256000002805DC049901440491AAEB000102E073
:10257000411C514500DD8A460499401A401C0190D7
:102580004FF000400290200704D40198504501DB31
:10259000CDF8048000208DF84F0002980DF14F0710
:1025A000B0F1004F25D02B200E9002984FF002087A
:1025B00000280CDA404202902D200E9007E00A21FC
:1025C0000298FEF721F83031029007F8011DB8F1AA
:1025D0000001A8F10108F2DC02980028EFD1791E71
:1025E0000E980870307800F0200040F0450007F8A1
:1025F000020D12A8C01B00F107081498007800B162
:10260000012000EB0A01019801EBE07105984144BB
:10261000401A401E0590E00306D45B462146179AF7
:10262000059800F05DF805441498007818B15A46F2
:10263000179990476D1CE00324D55B462146179AF5
:10264000059800F04DF805441CE00498002807DBCD
:10265000DDE90301884203DD0098405C179901E041
:10266000179930205A469047049805F10105401CFF
:1026700004900198401E019004D12E205A461799CB
:1026800090476D1CBAF10001AAF1010ADDDC05E0FA
:1026900017F8010B5A46179990476D1CB8F10001C5
:1026A000A8F10108F4DC5B462146179A0598ABE6D1
:1026B0002D0000002B000000200000002DE9F0415B
:1026C000044600251E461746880404D405E0394612
:1026D0002020B0476D1C641EF9D52846BDE8F08166
:1026E0002DE9F041044600251E469046C80301D559
:1026F000302700E02027880404D505E0414638460D
:10270000B0476D1C641EF9D52846BDE8F0814A68C3
:10271000002A06D00A68531C0B6010704868401EDF
:10272000486070470A68531C0B60107070470000C7
:1027300010B51A4940F21A444FF4B9720B694FF4BC
:1027400096710C3BA3420FD90424BE2801DC0C2453
:102750001BE0DC2801DC082417E0FA280EDD8842A3
:1027600010DD904211DD0FE0BE2801DC0B240CE0EF
:10277000DC2801DC072408E0FA2801DC062404E058
:10278000884201DC052400E00324204612F01AF8F8
:102790002046BDE8104012F001B8000024B500202A
:1027A00010B50B4C2089012811D194F84B0000285A
:1027B0000DD1608FFDF7CEFC9FED061B53EC112B66
:1027C000FDF7E5FDFDF7C4FE218F0844208710BD0D
:1027D00044B300209A9999999999A93F06480168AC
:1027E00041F001010160064804490160054941606A
:1027F00005498160704700009033002039B0240003
:10280000C0B8002099AE240055A824002DE9F0415D
:102810001D469046DDE906230F4606460D498020F9
:10282000C1F51FF8044680F83C50202239463D305F
:10283000FDF72CFC2022314604F15D00FDF726FC5B
:1028400004F13C0241462046BDE8F0414123C1F578
:102850008DB9000059282400C1F5E8B82DE9F047EA
:102860001D46DDE9097392468946064600221F4946
:10287000A820DDF82080C0F5F4FF002180F8A51025
:10288000C763044680F85010012084F85100D8F83E
:102890000010C4F85210B8F80410A4F8561098F8B4
:1028A000060084F858002868C4F85900A888A4F8DD
:1028B0005D00A87984F85F001022514604F16000A1
:1028C000FDF7E4FB1022494604F17000FDF7DEFB42
:1028D0000748324606490068C4F880002046BDE833
:1028E000F0472023091DC1F541B90000F528240057
:1028F000001526002DE9F0478A4604460027C1F559
:1029000095F850B394F8A5004FF0010904F1500870
:1029100004F1400630B104F1850501280DD00228EC
:1029200028D11BE0102251463046FDF7AFFB0020B6
:1029300084F8840084F8A59009E0102251462846C6
:10294000FDF7A4FB84F88490022084F8A5003523C9
:10295000424631462046C1F509F90BE010225146A6
:1029600004F19500FDF792FBE36B29460020A26974
:10297000984701273846BDE8F08700002DE9F05F51
:102980009B4692460546DDE90D230AA8894690E854
:10299000C0011C498020C0F564FF0446102249464E
:1029A0006D30FDF773FB1022514604F15D00FDF719
:1029B0006DFB1022594604F14D00FDF767FB30888E
:1029C000A4F84A00B07884F84C003968C4F8431081
:1029D000B988A4F84710B87984F84900D8F80000FD
:1029E000E063B8F80400A4F8400098F8060084F802
:1029F000420004F13C0229462046BDE8F05F412335
:102A0000C1F5B4B8092A2400C1F510B82DE9F04188
:102A10001F469046DDE906230E4605460F498C20E9
:102A2000C0F51FFF0446202229466C30FDF72EFB1F
:102A30002022314604F14C00FDF728FB04F13C0054
:102A4000102239460546FDF721FB2A46414620461D
:102A5000BDE8F0415023C1F589B80000612A240087
:102A6000C0F5E4BF0748084901E0401E04D00A68E9
:102A7000C2F34002002AF8D108B1002070470320B9
:102A80007047000020A1070038A7004006460F4607
:102A9000154672B63846FDF72BFB402801D9402079
:102AA00002E03846FDF724FB80463046FDF720FB68
:102AB000402801D9402002E03046FDF719FB0446CA
:102AC0009C211048FDF709FB424639460D48FDF7A9
:102AD000DDFA0C48224631465C30FDF7D7FA09484A
:102AE0004FF0AA31016445644FF0BB3181644FF06F
:102AF000CC3101654FF0DD318165002000F00CF82C
:102B0000FEE70000A83E0020024B1B68002B00D00F
:102B100018477047F42F002030B5ADF20C4D044635
:102B20004FF4806103A8FDF7D8FA194D202085F8ED
:102B30003F0085F89B003CB12846012C436DC26CD8
:102B400009D0022C0CD00FE0114A12A15C3203A86C
:102B5000FEF732FD08E012A103A8FEF72DFD03E009
:102B600017A103A8FEF728FD03A90CA2686CCDE904
:102B70000121009019A3064A19A1002000F0E8FDE8
:102B8000012C01D000F096FD0DF20C4D30BD00007F
:102B9000A83E00205B4552524F525D202573000035
:102BA0005B5741524E494E475D20506172616D3016
:102BB0003A25642C506172616D313A256400000041
:102BC0005B504152414D5D20506172616D303A253C
:102BD000642C506172616D313A2564000000000080
:102BE0006170705F6173736572742E630000000022
:102BF00001481BF0F1B80000F42F002006460F46F4
:102C000090461D4672B64046FDF772FA402801D93B
:102C1000402002E04046FDF76BFA04469C210D4837
:102C2000FDF75BFA224641460A48FDF72FFA0948AC
:102C30004FF05531016445644FF066318164C664DC
:102C40004FF0773101654765C94381650220FFF781
:102C500063FFFEE7A83E00202DE9F04106460F463F
:102C600090461D464046FDF743FA402801D94020D2
:102C700002E04046FDF73CFA04469C210D48FDF772
:102C80002CFA224641460B48FDF700FA09484FF05E
:102C900011310164456449008164C6644FF03331E9
:102CA000016547654FF044318165BDE8F041012081
:102CB000FFF732BFA83E002010B588B0817AC27AF3
:102CC000037B447BCDE90443CDE90621817BC07BB6
:102CD00006A2BC23CDE90032CDE90201114B12A2BC
:102CE00017A1022000F034FD08B010BD436F6E6ED6
:102CF0006563746564207769746820746865207002
:102D000065657220253032583A253032583A2530E0
:102D100032583A253032583A253032583A25303236
:102D2000582E0000180726002E2E5C5372635C7527
:102D30007365725C757365725F6170702E630000FD
:102D40004E4F5F544147000010B586B00FA0B4222B
:102D5000CDE900200291134B13A219A1022000F02B
:102D6000F7FC1949002003F0BFF80446002C0AD0F4
:102D700014220C491C3101A8FDF788F9ADF8084070
:102D800001A800F0C9F806B010BD000044697363E3
:102D90006F6E6E6563746564202830782530325814
:102DA000292E0000E80626002E2E5C5372635C7507
:102DB0007365725C757365725F6170702E6300007D
:102DC0004E4F5F544147000068310020052801D371
:102DD0000020704700EB4001044800EB41100178EF
:102DE00009B1001D7047002070470000383A0020EC
:102DF0002DE9F0470546894600244FF0FF38464646
:102E00004FF0010A002D10D03C4903201AF034FF86
:102E1000287960B101280AD0022808D0032806D0FA
:102E2000042804D04046BDE8F087E520FBE7EFF337
:102E30001082012181F31088314F04EB440107EB2C
:102E400041110B783BB14B68D5F800C0634510D1F8
:102E50008B6883420DD104EB440007EB401090F8DF
:102E60002C00022803D026B20120087004E00524BB
:102E700002E0641C052CE0D35AB3012080F31088D3
:102E8000052C34D2022203211E4818F0FFFB04EB6C
:102E9000440107EB4114286860602879A06004F1C0
:102EA0000C00202205F10801FDF7F0F816486063D8
:102EB0001648E0631648A06300202064C4F85C90C4
:102EC0001449606888420ED10320FEF7FEFB20B152
:102ED00009E0002080F31088D2E703200EF090F97B
:102EE00003200EF09AF9201D0DF05AFE8246BAF129
:102EF000000F00D04646304695E700000D1E10003A
:102F0000383A002018FC25005D922400D591240059
:102F10008D912400004001403EB504464FF40071FD
:102F20001A48FDF7DAF8207810B1012819D01DE011
:102F300000211748A28830F831309A4207D100EBBF
:102F4000C10014A143681148FEF736FB0EE02E299C
:102F500002D0491CC9B2EEE714A10C48FEF72CFBC5
:102F600004E01DA109486268FEF726FB074921A27B
:102F70002069CDE901210090D4E902231EA100209F
:102F800000F0E6FBBDE83E4000F0AEBB443F002051
:102F900040FD25004572726F7220636F64652030BA
:102FA00078253034583A2025730000004572726F3E
:102FB0007220636F6465203078253034583A204E93
:102FC0006F20666F756E6420696E666F726D6174D6
:102FD000696F6E2E00000000282573292069732078
:102FE0006E6F742065737461626C69736865642EBA
:102FF00000000000257300006170705F6572726FE1
:10300000722E63002DE9F041014600291BD00024F7
:103010000F4E0E4A357814E002EB04100F78037857
:10302000BB420CD14B684068034208D0707808B9A5
:1030300000F01EFB2046BDE8F04100F04DBA641CD4
:10304000E4B2AC42E8D3BDE8F08100005441002076
:10305000003000207CB505460E46002D01D000242E
:1030600018E0E5207CBD05EB041041680091017A71
:103070008DF80410417A8DF8051000218DF80610A6
:10308000C26800780023694600F038F80028E9D1CA
:10309000641CE4B2B442E6D300207CBD10B5024605
:1030A0000846052A25D2DFE802F0030303111900C0
:1030B000114951F832200104090C05D022B1014612
:1030C00010460DF0AFFF10E0E42010BD10F0FF0F30
:1030D00002D00DF0D9FB08E0E42010BD10F0FF0F86
:1030E00005D0014600200EF045F8002010BDE42078
:1030F00010BDE62010BD000034FC25002DE9F05F76
:1031000005460C469046994626680027042D11D0A6
:1031100031462846FFF7C2FF2146284600F068F8EE
:10312000002808D1032D08D04FF0100A2807070EF9
:10313000002451E0E620BDE8F09F4FF0080AF7E7D1
:10314000F00746D03DB1012D05D0022D03D0032D4F
:1031500027D0E620EFE7244800EBC50090F904B043
:10316000BBF1000F17D0EFF31081012080F310881E
:103170001E4AE01942F8308002EBC000C0F804900B
:1031800059B1012080F3108858460EF039F858469E
:103190000EF043F81DE0E420CDE7002080F3108816
:1031A000F2E7EFF31081012080F310880F4AE01955
:1031B000703242F8308002EBC000C0F8049079B160
:1031C000012080F3108815200EF01AF815200EF05B
:1031D00024F87608641CE4B25445B1D30020AAE771
:1031E000002080F31088EEE734FC2500183C002016
:1031F00030B597B005460C461C22414910A8FCF793
:1032000045FF1C223E491C3109A8FCF73FFF202244
:103210003B49383101A8FCF739FF94B13949062000
:103220001AF02AFD384915201AF026FD34496C3968
:10323000A1F12C02052D61D2DFE805F0060606217A
:103240003900E52017B030BD207931F81000119019
:10325000607932F810001290A079139020681090D5
:103260002748843850F8350021880904090C04D017
:1032700018B110A90DF039FF39E0E420E2E7207918
:1032800001EB4000808A0A90607902EB4000C08820
:103290000B90A0790C9020680990207810F0FF0F17
:1032A00003D009A80DF022FB21E0E420CAE7207931
:1032B000031F042B01D8E720C4E7022819D00120FE
:1032C0000290207901EB4000008D0390607902EBC1
:1032D000400080890490A0790590206801902078B2
:1032E00010F0FF0F08D001A900200DF075FF00209D
:1032F000A8E702200290E4E7E420A3E7E620A1E7A4
:10330000B8FC2500851E1000811E1000024600201A
:10331000052A11D2DFE802F0030303090C00074875
:1033200050F8320089B20DF002BF88B20DF022BB16
:1033300089B200200DF052BF7047000034FC250018
:10334000002803D002490860012070470020704720
:103350000830002070B505460024091F062917D241
:10336000DFE801F003070C111315284600F0A4F85C
:103370000EE00124284600F09FF809E002242846C8
:1033800000F09AF804E0032402E0042400E005249D
:10339000034A214628461268BDE8704010470000E5
:1033A000083000202DE9F0410446204600F0AEF838
:1033B00001462E4800230826025D00F10A0700F1AD
:1033C0001405AAB1052A33D0082A2AD1092945D0E3
:1033D000082926D1295D491CC9B22955142920D3B1
:1033E0002B5506552046BDE8F0410821FFF7B2BF36
:1033F000052913D0042916D0072914D0082910D183
:10340000295D491CC9B2295514290AD32B550655E3
:103410002046BDE8F0410821FFF79CBF3B55052140
:103420000155BDE8F0812046BDE8F041FFF792BFAD
:1034300005290CD0395D491CC9B239553229F0D360
:1034400003552046BDE8F0410521FFF783BF035532
:103450002046BDE8F0410621FFF77CBF035520461A
:10346000BDE8F0410921FFF775BF0000344200209C
:1034700070B504460D4600F00FF808B100F00EF9E3
:103480000348044A2946005D5268BDE87040104771
:1034900048410020003000200020064911F810208B
:1034A0000AB100207047401CC0B20A28F6D30120A0
:1034B00070470000524200200349002201F810200A
:1034C00001EB40004270704752420020014A02F86E
:1034D0001010704752420020024A012102EB4000C6
:1034E000417070475242002070B50024064D05EB34
:1034F0004400407810B12046FFF754FF641CE4B24A
:103500000A2CF4D370BD00005242002070B5002197
:103510001D4B03F132051A5C002A09D0002403F187
:103520000A06012A0AD0022A12D0032A24D11FE057
:1035300015F8102002B301221A541DE015F81020CE
:103540001AB1345402221A5416E01C54042113E018
:1035500015F810204AB1325C521CD2B23254642A9F
:103560000AD3072103221A5406E005211C5403E064
:1035700015F8101011B10821084670BD1C54FFF752
:103580009BFF0921F8E7000020420020704700005F
:103590002DE9F0410E4617460A2E02D80FB100233E
:1035A0001AE00020BDE8F08103EB430400EB840542
:1035B000114AA97AD154104910F824200C3101EB9A
:1035C0000314227069686160297A2172697A6172D4
:1035D0000A49E1605B1CDBB2B342E5D306483146E1
:1035E0000C30FFF737FD0648067047600548FFF7C7
:1035F000A7FE0120D6E70000484100200530240046
:1036000000300020713424002DE9F0410024124FD5
:10361000DFF8488019E0002607EB04152878696870
:10362000FFF774FE10B9697A012902D0012802D08F
:1036300005E0012603E0687A022800D10126314620
:103640002046FFF743FF641CE4B298F80000844270
:10365000E1D3BDE8F081000054410020003000209B
:1036600010B5FFF7D1FFBDE81040FFF73DBF0000E8
:1036700010B5074A0121074800F086F900220A2107
:10368000044800F0D7FA04490120487010BD00003A
:1036900061362400F84100200030002010B50348B6
:1036A00000F0A0F902490020487010BDF841002048
:1036B000003000200248406A002800D000477047D0
:1036C000803E00200149486270470000803E002093
:1036D000002806D0002904D0024AD269002A00D06E
:1036E00010477047803E00200248006A002800D042
:1036F00000477047803E002070B50D4616460D4CC1
:1037000000280AD00178032911D80121A1760146A9
:103710001A222046FCF7BAFC05E00020A0761A2108
:103720000448FCF7DAFCE5612662002070BD012048
:1037300070BD0000803E0020044A1044807D084295
:1037400001D001207047002070470000803E00201B
:103750002DE9FE4F0746924699460024A046CDF833
:103760000480CDF8088059480178B94202D2807EA1
:1037700000287DD10EAD0095EFF311860220FDF7F4
:10378000DAFF8346FEF742F8401C012181400BEB33
:103790000100C0B280F3118801213846FFF7CCFF49
:1037A00038B14B484B4950F82720204600F0A4F888
:1037B00004461C213846FFF7BFFF00285ED046A212
:1037C0004449204600F098F8204484B20421384649
:1037D000FFF7B2FFF8B152463E49204600F08CF8A0
:1037E000204484B208213846FFF7A6FF38B13BA237
:1037F0003849204600F080F8204484B20BE01021C4
:103800003846FFF799FF30B135A23249204600F023
:1038100073F8204484B208213846FFF78DFF90B139
:103820004A462C49204600F067F8204484B2102113
:103830003846FFF781FF30B12AA22649204600F022
:103840005BF8204484B210213846FFF775FF60B161
:1038500026A2052101A80C9BFDF796FE01AA1D4991
:10386000204600F049F8204484B221A2194900E022
:1038700029E0204600F040F8204484B21548C4F501
:10388000807120442B460D9AFDF7AAFECDF80080EA
:103890004FF48071002804DB2044884201DC85B2AB
:1038A00000E00D46A81C884200D9FE2511A2094956
:1038B000284600F021F8284481B20648FFF708FFA7
:1038C000F0B280F31188BDE8FE8F0000803E00203A
:1038D000E42F0020803D0020280000002000000090
:1038E0003A000000204C696E653A0000256C6400C7
:1038F000292000000D0A000030B5054600200029EF
:103900000CD0002A0AD006E02B18FF2B06D8CC5486
:10391000521C401C80B21478002CF5D130BD000040
:1039200010B50A4A06214CF2010016F0E9FE05F036
:10393000B7FB04F09FFD0020EBF54AF8BDE810400E
:10394000034A4FF41011034805F054BADE0526006F
:10395000103100208DF6250010B5084801780029A7
:103960000AD1012101700648EAF59CFFBDE810402C
:1039700000210448EBF598B810BD0000CC2F0020C2
:10398000911E1000E1B525002DE9F04104460D46D9
:103990001746002D04D0012D02D00120BDE8F08192
:1039A000E4B1DFB1607801281AD0EFF3118602206C
:1039B000FDF7B3FE8046FDF721FF401C0121814049
:1039C00008EB0100C0B280F3118800206070A57080
:1039D000E761F0B280F311880020DFE70120DDE726
:1039E0000620DBE710B50446002C0CD0204600F082
:1039F000B3F9FF2060700021A160E1602161616185
:103A00000020E06110BD012010BDF0B5DDE90745E3
:103A1000059981614FF47A76A2FB061C03FB06C36D
:103A2000002702FB0732C0E9021209196A41C0E906
:103A3000041200210162F0BD2DE9F0410446002C82
:103A400013D0EFF311850220FDF767FE0746FDF75F
:103A5000D5FE401C012606FA00F03844C0B280F3BF
:103A600011881248002121620EE00020BDE8F0819B
:103A7000D4E90432D1E9047CDB1B72EB0C0202D2E4
:103A8000016A216203E00846016A0029F0D104625C
:103A90006670064810380168491C0160016B41607E
:103AA000E8B280F311880120E0E70000203D00200B
:103AB0002DE9F04105460024EFF311860220FDF7C1
:103AC0002CFE0746FDF79AFE401C01218140781824
:103AD000C0B280F31188134A106BE8B115B102F13E
:103AE000100010E00446206A10631068401E106049
:103AF0000CE0A94206D11168491E1160296A0162D1
:103B00002C4603E00846016A0029F2D124B10020C6
:103B100020626070106B5060F0B280F31188204614
:103B2000BDE8F081103D00202DE9F041EFF3118751
:103B30000220FDF7F2FD0446FDF760FE401C012166
:103B400081406018C0B280F31188114D002608E052
:103B50002078012804D1E16909B1A069884726705D
:103B60002D6A2C6A002CF3D1094D103D07E0E16964
:103B700009B1A06988472670206AA8632662AC6BE9
:103B8000002CF4D1F8B280F311880120BDE8F08157
:103B9000203D00202DE9F041EFF311870220FDF7D1
:103BA000BCFD0446FDF72AFE401C012606FA00F083
:103BB0002044C0B280F311881D4DA5F110082DE0FE
:103BC000D4E90430D8E902125B1A60EB0200D8E9AC
:103BD0001021D21A814124D326702046FFF768FFB6
:103BE000A078012806D012482830002121620168FF
:103BF00061B10FE0D8E90220D4E90213511858410D
:103C0000C4E904102046FFF717FF07E0046005E051
:103C100001F1200001680029FAD104602C6A002C0F
:103C2000CED1F8B280F311880120BDE8F081000008
:103C3000203D00202DE9FF5F82460E4693464FF05F
:103C40000008BAF1000F20D0414886421DD8E6B1E5
:103C5000EFF311870220FDF760FD0446FDF7CEFD6E
:103C6000401C012181406018C0B280F31188504689
:103C70000FF09CF810B19AF8010040B1F8B280F34F
:103C800011880F2004B0BDE8F09F0120FAE715F07D
:103C90005DFF04460D464FF47A7106FB01F02246A3
:103CA0002B4600210FF00CF8DFF8A890B0B1D9F83E
:103CB000040048B1D0E90410091B60EB0500C9E914
:103CC000021015F0BDFF04E00021C9F80810C9F882
:103CD0000C104FF00108D9E9020106E0D9F8040000
:103CE000D0E90421101B61EB0501CDE90201324648
:103CF0000023CDF800B05046FFF787FE5046FFF78F
:103D00009BFE19F0DDFE4FF0E024D4F800014FF4E3
:103D1000801510F4801F01D0012000E0002020B9A0
:103D20001420FDF773FCC4F80051B8F1000F0AD05D
:103D3000D9F80400D0E90431D9E90202181A61EB7C
:103D4000020115F039FFF8B280F31188002099E7DD
:103D5000008AB907103D00202DE9F04104460025F6
:103D6000002C39D0EFF311870220FDF7D6FC064670
:103D7000FDF744FD401C012181407018C0B280F362
:103D800011886078012824D1144E7068A0420BD1AC
:103D900015F0DCFED4E90432181A62EB0102C6E920
:103DA000020215F04DFF01252046FFF781FE5DB1AF
:103DB000706848B1D0E90421D6E90203101A61EB1A
:103DC000030115F0F9FE04E01DB9706808B915F09B
:103DD00037FFF8B280F31188BDE8F081103D002074
:103DE0002DE9F8430446334F57F82400061D022CF2
:103DF0005ED290F8681000295AD00021D0E9032340
:103E00001344027D02F00102D21D9D184268D36F57
:103E1000C3F38003002BFAD090F80021A2B1264A08
:103E20001368491C90F83A20102A06D08268B3FB28
:103E3000F2F26A43B1EBC21FF3D957F824006C3099
:103E400018F08CFC85B226E0B0F82480C58C001DEB
:103E50000DF0AEFB57F8240041F2883300EB080167
:103E6000491B7C31001D2A460DF010FEE5E757F88E
:103E7000240001226C30694618F08BFC57F82400AE
:103E80004068C16FC1F340010029FAD09DF80010CD
:103E900001606D1EADB2002DE9D157F824006C30E1
:103EA00018F05CFC0028C8D1306841694906FCD58F
:103EB000BDE8F883D02F00205C00002010B5044638
:103EC000114822784FF0FF3150F82220A2F86410F8
:103ED000227850F82200A0F86610606B002801D10B
:103EE000A16B71B120B1204600F05EF8002807D127
:103EF000A06B20B1204600F009F8002800D1002076
:103F000010BDE42010BD0000D02F002030B58BB0D4
:103F10000446282101A8FCF7E0F8A06B019094F872
:103F20003D008DF808001D480199814205D1217896
:103F30001B4A02EBC101496803910399F1B1019950
:103F4000814201D10B2004904FF400100590C01263
:103F50000690002007900890099040200A900021C8
:103F600001A8FEF745FF21780E4D55F82110A1F864
:103F70006600002804DAE4200BB030BDE720FBE740
:103F8000FEF724FF217855F821104863217855F871
:103F90002110091DC1620020EEE700000040014031
:103FA00030FD2500D02F002030B58BB004462821ED
:103FB00001A8FCF792F8606B019094F83C008DF832
:103FC00008001C480199814202D14FF00B00039078
:103FD00004D12078184951F8300004900498D0B1E9
:103FE0004FF4801005904FF0000006904FF4807160
:103FF0000791089009900A90014601A8FEF7F8FE83
:1040000021780E4D55F82110A1F86400002804DA3B
:10401000E4200BB030BDE720FBE7FEF7D7FE2178A8
:1040200055F821100863217855F82110091DC16247
:104030000020EEE70040014030FD2500D02F002099
:1040400070B500280CD00478124E56F8241049B1EF
:1040500091F8682032B191F8691029B1EA2070BD59
:10406000E52070BDE92070BDEFF31085012181F3DB
:104070001088FFF723FF20B956F82420012182F889
:1040800069101DB1012181F3108870BD002181F3F9
:10409000108870BDD02F002070B5022801D3E82011
:1040A00070BD134C54F820304BB193F8695035B1C2
:1040B00039B132B193F8FF50012D04D010E0E9205E
:1040C00070BDE42070BD002583F8FF5054F8203007
:1040D0005B680225C3F8885054F820305B681B6881
:1040E00054F82000001D0DF0F9FB0028EAD170BD46
:1040F000D02F002070B504461A4D55F824006C30BE
:1041000018F02CFB82B21646A2B155F8240090F8A4
:10411000FD1001290ED0012180F80011802A0FD353
:1041200055F82400802200F17C016C3018F031FB3E
:1041300080260CE055F82410002081F8FC0070BDAA
:1041400055F8240000F17C016C3018F022FB55F882
:104150002400324600F17C01001D0DF0CFFC002848
:10416000EDD170BDD02F002070B50446022C01D3D4
:10417000E82070BD184D55F8240090B190F86930D2
:104180007BB181B17AB1002680F8FE6055F8240039
:104190006C3018F068FB55F8240090F8FC1021B141
:1041A0000AE0E92070BDE42070BD90F8FD1019B957
:1041B00090F86810012901D0E22070BD012180F83B
:1041C000FC102046FFF796FF20B155F8241081F827
:1041D000FC6070BD002070BDD02F00207047000033
:1041E0002DE9F8430446534F57F82400061D022CCE
:1041F0007ED290F8681000297AD0012978D190F801
:10420000FC10012974D190F8FD10002970D1012112
:1042100080F8FD10002157F82400D0E9032313444F
:10422000027D02F00102D21D9D184268D36FC3F3D4
:104230008003002BFAD090F80021A2B13E4A136807
:10424000491C90F83A20102A06D08268B3FBF2F29B
:104250006A43B1EBC21FF3D957F824006C3018F051
:104260007DFA85B226E0B0F82480C58C001D0DF0E3
:104270009FF957F8240041F2883300EB0801491BED
:104280007C31001D2A460DF001FCE5E757F82400BB
:1042900001226C30694618F07CFA57F82400406817
:1042A000C16FC1F340010029FAD09DF800100160F0
:1042B0006D1EADB2002DE9D157F824006C3018F016
:1042C0004DFA0028C8D1306841694906FCD5EFF3A2
:1042D0001085012080F3108857F824006C3018F006
:1042E0003DFA78B1EFF31081012080F3108800E0EF
:1042F00015E03068426842F08202426089B10120D4
:1043000080F3108857F82410002081F8FC0057F83B
:10431000241081F8FD0045B1012080F31088BDE82C
:10432000F883002080F31088ECE7002080F31088E9
:10433000F5E70000D02F00205C0000202DE9F041BF
:1043400005460F46002D06D02AB12C78022C04D346
:10435000E820BDE8F081E520FBE7304E05F158008C
:1043600046F82400D2E900310A466C30194618F0AC
:10437000DAF9291D286D1BF0C1F80028E9D156F89B
:104380002410281D086656F82400076056F82400FB
:104390001822083005F14001FBF778FE204856F856
:1043A000241000EBC4056868486056F82400001D1E
:1043B0000DF058F956F82400001D0DF0E1F91848E9
:1043C00003221146103817F061F956F82410012025
:1043D00081F8680056F82410002081F8FC0056F897
:1043E000241081F8FD0056F8241081F8FE0056F8DC
:1043F000241081F8FF000B490C2019F03DFC0A49FC
:104400000D2019F039FC95F901000CF0F9FE95F931
:1044100001000CF002FF00209BE70000D02F0020DD
:1044200020FD250065152400751524002DE9F041B7
:1044300004461A4D55F824006C3018F08FF982B2FA
:10444000164600277AB155F8240090F8FD1001298E
:1044500009D0802A0ED300F17C016C30802218F044
:1044600098F980260BE055F8240080F8FC700020B5
:10447000BDE8F08100F17C016C3018F08AF955F844
:10448000240080F8007155F82400324600F17C01C8
:10449000001D0DF07DFB0028EAD1E9E7D02F0020B8
:1044A00070B5022801D3E82070BD104D55F82040AA
:1044B00064B194F868604EB151B14AB15E1C09D044
:1044C00049F64046B34205D9E42070BDE52070BDF1
:1044D000E42070BD002684F8FE6055F82000001D21
:1044E0000DF0D4FA0028F4D170BD0000D02F0020C8
:1044F0002DE9FC4781460D4616469A46DFF8A08016
:10450000D8F8FC00A84248DBD8F80001A84201DA3C
:104510000BF044FFD8F80001A8423CDB05F1F7009E
:10452000F821B0FBF1F0C7B201242FE00020009089
:104530000190ADF80090ADF802509DF8040067F3CB
:10454000071064F303008DF804000521684604F0A9
:1045500054F88DF805009DF8060020F00300801C3B
:104560006AF382008DF80600684604F077F8014689
:10457000304604F042F88DF8070032466946D8F814
:10458000F8001BF0D7FAF836641CE4B2BC42CDD96F
:104590000020BDE8FC870520FBE70520F9E70000C7
:1045A000605C0020FEB50C4606460A790021012019
:1045B0008DE80700164D03230D2240212D680020B1
:1045C000A84760780125162811D101213046CCF585
:1045D000C5FB60B1407850B10E49207951F82610E2
:1045E00081F848000021304600F036FC0025607854
:1045F0000C2805D12079072802D1304600F052FC62
:1046000025B1227901213046CCF560FE0020FEBDA7
:10461000E0010020CC19002070B50D460446CAF513
:1046200093FD6988884200D201462046CCF53CFFC4
:1046300001212046CCF556FB012801D0412200E0A3
:10464000002201212046CCF541FE002070BD000073
:1046500038B50446134D0020009002230D222D682A
:104660004021A84701212046CCF53CFB0C2803D073
:104670000E2814D041220CE001212046CCF56EFB1F
:104680004189008981420AD0074850F8240090F8F7
:10469000482001212046CCF519FE002038BD00221B
:1046A000F7E70000E0010020CC1900202DE9F047D9
:1046B0000F4681460121CCF515FB032801D040228D
:1046C00042E001214846CCF549FB4FF6FF7A05460A
:1046D0000026D04624E001214846CCF577FB6B78D4
:1046E0000146052202EB092240F604409B1DD3F54A
:1046F000C1FB0446B819B61C80882080B0B23918B6
:10470000801C8988618086B26878207188466A78C2
:1047100005F10801601DFBF7B9FC2046D3F5F6FB57
:104720007888B042D7D8E98808F1010080B25145B5
:1047300000D35146814206D328B1A88001214846C2
:10474000CCF57AFD04E00A2201214846CCF5BEFDF5
:104750000020BDE8F0872DE9F0470F468246012191
:10476000CCF5C0FA072801D0402246E0012150468E
:10477000CCF5F4FA81467878012803D0102600257C
:10478000A84622E00226FAE701215046CCF51EFB9E
:104790000146052202EB0A22331D40F60740D3F5FD
:1047A00069FB04467819AD1CB0F80480ADB2A4F8DA
:1047B00000807919A6703246E01C091DFBF766FCE3
:1047C000A81985B22046D3F5A1FB7888A842DBD88A
:1047D000B9F8061008F101004FF6FF7280B291425D
:1047E00000D31146814207D330B1A9F8040001215A
:1047F0005046CCF521FD04E00A2201215046CCF5BB
:1048000065FD0020BDE8F087084A52F82020126AB2
:1048100008E093888B4204D8D3888B4201D3108957
:1048200070471268002AF4D1C6F50EBACC190020E0
:104830000348024901600E21416070475C1E26005A
:104840007805002070B5164A0C460546126849885E
:1048500090470146A088801D83B2052000EB052209
:1048600020781B2817D040F60D40D3F503FB0546F2
:1048700020781B2812D012202870A08868806088B9
:10488000A880A288A11DA81DFBF700FC2846D3F52F
:104890003DFB002070BD40F60C40E6E71120EBE741
:1048A000A834002070B50D4606460121CCF51AFA51
:1048B0000C2806D0412201213046CCF507FD00200E
:1048C00070BD01213046CCF549FA0446A888E1883C
:1048D000401A80B2608104F10C010144EA8805F1BC
:1048E0000800FBF70CFC28B96089E9880844218995
:1048F000884201D94FF6FF70608101213046CCF526
:104900009BFCDCE72DE9F35F0D4648884978B0FB56
:10491000F1F401210098CCF5E5F9022869D1002CC9
:1049200067D001210098CCF519FA804600266878F6
:10493000B146142801D0022700E010274FF0000AEA
:104940004FF6FF7B30E001210098CCF53FFA01469D
:104950000098052202EB0022BB1D40F60440D3F56F
:1049600089FA0446A819B61C81882180B1B268185A
:10497000891C828862808EB29146A91927713A46B5
:10498000601D091DFBF782FBF01986B298F8013013
:1049900008F108023946601DC0F535F808B14FF03E
:1049A000010A2046D3F5B2FA6888B04204D9BAF1B8
:1049B000000F01D1D945C6D109F1010080B2BAF189
:1049C000000F0ED1B8F80610594500D35946814260
:1049D00007D330B1A8F8040001210098CCF52CFCD5
:1049E00004E0002201210098CCF570FC0020BDE815
:1049F000FC9F4122F6E700002DE9F34F81B000252E
:104A00000C46A846012100950198CCF56BF90522CA
:104A10000199042802EB012966D0052805D0062853
:104A200003D00A2871D04022FEE001210198CCF584
:104A300095F907466078072801D9102000E0022088
:104A400082464FF0050B3DE06019B0F804803878DD
:104A500005280AD005EB0B0020447B7807F10802FB
:104A60005146001DBFF5CFFF48B301210198CCF599
:104A7000ADF901464A460AF1060340F60640D3F571
:104A8000F9F90646A0F80080AD1CA8B22118401C18
:104A90000979317180B22118801C8988718085B2B2
:104AA000611986F805A05246B01D091DFBF7EEFA04
:104AB00005EB0A0085B23046D3F528FA02E06078AB
:104AC000284485B26088A842BED8F98808F1010060
:104AD0004FF6FF7280B2914200D31146814279D3E2
:104AE000002877D0B8806FE001210198CCF536F925
:104AF0008346A0784FF0000A5646400701D01027A1
:104B000031E04FF0010A02272DE065E00121019814
:104B1000CCF55CF901464A4607F1080340F605402A
:104B2000D3F5A8F906466019AD1C81883180A9B279
:104B30006018891C828889B260187280891C8288FA
:104B4000B2808DB2BAF1000F14D06119B7713A4634
:104B5000F01D091DFBF79AFAE81985B2B6F8008036
:104B60003046D3F5D3F96088A842CFD8BAF1000F08
:104B700009D01AE03D4A0198A6F10C0152F8200034
:104B80000C30C3F50DFC86B1002000904B460A2284
:104B900004210198D4F59AF901467088488001985B
:104BA00000F042F90020BDE8FE8FBBF8061008F1C6
:104BB00001004FF6FF7280B2914200D3114681424C
:104BC00008D330B1ABF8040001210198CCF534FBD7
:104BD0002EE0FFE70A2227E06078FF282AD001981C
:104BE000CCF53CF86178801E884223DD01210198D4
:104BF000CCF5ECF8637801464A4640F609401B1DA7
:104C0000D3F538F9A1880546018014F8010F611D1C
:104C1000801E82B2AA8000206880A81DFBF736FAA9
:104C20002846D3F573F9002201210198CCF54EFBFB
:104C30000098B8E7A4F1080501210198CCF58EF899
:104C4000A18881806178891EC180002101816078FE
:104C5000A5F10C01801E68800448019A50F82200DA
:104C60000C30C3F59DFB01200090ADE7CC1900206E
:104C70002DE9F05F894683460121CCF533F80B28F6
:104C800001D0412245E001215846CCF567F80025C6
:104C90008046AA462E4631E001215846CCF596F8CA
:104CA00008EB86070146F8880522801D83B202EBD7
:104CB0000B2240F60940D3F5DDF8B988044601809F
:104CC000B9F80200F988401B814200D2084682B23E
:104CD000A2800020608009EB0501A01D091DFBF7E3
:104CE000D5F9A08841198DB2F988884201D04FF0DA
:104CF000500A2046D3F50AF9761CF6B298F801005E
:104D0000B042C9D8B9F80200A84201D04FF0500A09
:104D1000524601215846CCF5D9FA0020BDE8F09F53
:104D20002DE9F0470C4606464FF000080121CBF56F
:104D3000D9FFDFF8F090042807D008282BD00928E5
:104D400029D00A2827D0412259E001213046CCF54C
:104D500005F8074659F826000C30C3F509FB00F1A9
:104D60000C051022211DE81DFBF790F91020A871F9
:104D70002846D3F5CBF82888F988401C4FF6FF72F7
:104D800080B2914200D31146814202D308B1B8806B
:104D900041E00A2233E001213046CBF5DFFF054632
:104DA000A11F002021F80E0959F826004F460C30AB
:104DB000C3F5F6FA288920B16188814200D20846FD
:104DC000608057F8260062884FF00108C068C189EA
:104DD000114489B2C181B1F5006F01D911220EE0F1
:104DE0003046CBF53BFF6188401E884203DC2889B2
:104DF000814209D340B1304600F054F8002201212D
:104E00003046CCF563FA0AE0EA881144E98010B133
:104E10006188401A288101213046CCF50DFA4046C0
:104E2000BDE8F087CC19002010B50C460978024681
:104E3000D2290CD052290AD01E2908D0052000EB17
:104E4000022147F2305240F61D40D3F52FFB204699
:104E5000BDE81040D4F55EBB38B504460020009094
:104E600005200D4600EB0423182204212046D4F52A
:104E70002DF8014645702046BDE83840FFF7D4BF05
:104E800038B5044600200090052000EB04231E22C4
:104E900004212046D4F51AF801462046BDE83840E2
:104EA000FFF7C2BF2DE9F05F374C814654F8290067
:104EB000C068002866D001214846CBF54FFF8246E6
:104EC00054F82900A3464FF00008C468012104F1FA
:104ED0000C06E7894846CBF579FF0146B81D83B239
:104EE000052202EB092240F60940D2F5C3FF878074
:104EF000BAF804100180BAF8061005464180307AED
:104F0000092833D1727A06F10807A81DB91D921E2F
:104F1000FBF7BCF87878811E1FFA81F8216819B177
:104F20006988081A801C68802468A6F10C00D2F5F4
:104F3000E3FF04F10C0619E006F1080705EB080091
:104F40007289391D801DFBF7A1F8788800EB0801F4
:104F50001FFA81F8216811B16988081A68802468ED
:104F6000A7F1140004F10C06D2F5C6FF002CE3D122
:104F70005BF829000C30C3F503F92846BDE8F05F63
:104F8000D2F5C4BFBDE8F09FCC19002010B504468F
:104F90000121CBF5A7FE0C2801D0412200E0002220
:104FA00001212046CCF592F9002010BD02490148AC
:104FB00008607047BD4F24003405002070B50646D8
:104FC0000D461020288029463046C0F573F8044667
:104FD00024B929463046BFF579FF0446074A298897
:104FE00002A012689047204670BD000064625F73A3
:104FF000697A65203D2025640A000000E401002054
:1050000010B50378002B03D0FF2B01D0012010BD79
:10501000012205E0845C9C4201D0012010BD521C9D
:105020008A42F7D3002010BDF0B5AFB000240D4682
:105030000646846219A82421FBF74FF8229403A89E
:1050400024212394FBF749F80C940EA8242231461E
:105050000D94FBF71BF8706A1790B06A784E1890A1
:1050600024A824223146FBF711F8706A2D90B06A0B
:105070002E90012021902290CDE90B40B4E0002336
:105080000EAA1846264652F82010891946EB030747
:105090007B084FEA310342F8203021F00103CB1A9C
:1050A00000F101000928EED3002052F8201011B9B8
:1050B000401C0928F9DBC0F1090050622198C007A3
:1050C00006D019A8FBF7CCFC1698C007D7D044E04F
:1050D000002319AA1846374652F82010C91947EB81
:1050E000030673084FEA310342F8203021F0010330
:1050F000CB1A00F101000928EED3002052F820104D
:1051000011B9401C0928F9DBC0F109005062DBE746
:10511000002324AA1846264652F82010891946EB87
:1051200003077B084FEA310342F8203021F00103E6
:10513000CB1A00F101000928EED3002052F820100C
:1051400011B9401C0928F9DBC0F1090050620B9825
:10515000C0070FD003A8FBF783FC2C98C007D7D05B
:105160002D9B17980EA924AA98422FD835D3C0F1A9
:10517000090029E04FF0000303AA1846374652F809
:105180002010C91947EB030673084FEA310342F8B0
:10519000203021F00103CB1A00F101000928EED3E1
:1051A000002052F8201011B9401C0928F9DBC0F189
:1051B00009005062D1E752F8203051F82060B34224
:1051C0000BD803D300F101000928F4D311460EA82F
:1051D000FCF732F903A919A804E01046FCF72CF9F2
:1051E00019A903A8FCF750F9179800288FD10D983A
:1051F00008B103A815E012490C9B03AA486A98421B
:1052000013D80DD3C0F1090008E052F8203051F84E
:105210002040A34204D808D300F101000928F4D3A8
:10522000104618F031FD03A900E01146242228465B
:10523000FAF72CFF0C9868620D98A8622FB0F0BDA9
:10524000A015260010F052BC10B58CB008A819F0BB
:10525000C9FBBDF8221009989DF82120CDE9041062
:105260009DF820302DA0FA21CDE90232CDE90010C1
:10527000344B35A23AA10220FEF76AFA0AA800F0E0
:1052800085FC044654B114222E490E3103A8FAF7C6
:10529000FDFEADF8104003A8FDF73EFE9DF8280086
:1052A0009DF82910CDE906109DF82A209DF82B3095
:1052B000CDE904329DF82C109DF82D002AA2FF2381
:1052C000CDE90032CDE902011E4B1FA224A102202C
:1052D000FEF73EFA2FA04FF48371CDE90010194B71
:1052E00019A21FA10220FEF733FA18F0C7FB07F03E
:1052F00055FB3049002000F0F7FD0446002C0AD091
:1053000014221049223103A8FAF7C0FEADF810406C
:1053100003A8FDF701FE0CB010BD0000476F6F64DD
:10532000697820424C452053444B205625642E2555
:10533000642E25642028636F6D6D6974202578299B
:10534000000000003E0726002E2E5C5372635C7541
:105350007365725C757365725F6170702E630000B7
:105360004E4F5F54414700004C6F63616C20426FA9
:1053700061726420253032583A253032583A25304F
:1053800032583A253032583A253032583A253032A0
:10539000582E000054656D706C617465204446554C
:1053A000206578616D706C652073746172746564DA
:1053B0002E00000068310020BEF5D2BF2DE9FF416C
:1053C0000DF1280898E8F0008DE8F000BFF5A4F989
:1053D00004B0BDE8F0812DE9FF410DF1280898E8FF
:1053E000F0008DE8F000BFF5A9F904B0BDE8F08148
:1053F000BFF520BCBFF5BCBCBFF5F4BF2DE9F04143
:10540000DFF864800646017898F8010008440A280D
:1054100002D90420BDE8F08100242546134F05E0A1
:10542000385D40B1641C0A2CFADB6D1C3078A84250
:10543000F9DC0020EEE7C5EBC500821904F110008D
:10544000C0F30B0040F400400721521C15F058F93E
:1054500000284FF00100DDD1385598F80110491CA3
:1054600088F80110641CE0E78C34002078C000202C
:1054700038B50C4605F002F90949097888420DD281
:10548000BE2100EB4000ADF80010423040F4004077
:105490002246694614F04CFF002038BD032038BD79
:1054A0008C3400202DE9F8430025DFF840800646C3
:1054B0002C460827ADF8007018F8040001280ED11A
:1054C00004F1200006EBC502C0F30B0040F40040DD
:1054D0006946521C14F02CFF08B96D1CEDB2641C17
:1054E000042CE7DB35700020BDE8F88398340020F9
:1054F0002DE9F0470024A8B088460746A14644702D
:105500002646DFF8A4A035E08C20ADF8980006EB25
:105510004600413040F4004003AA26A914F008FFD9
:1055200030BB9DF80D00800722D544452DD2786808
:1055300004EB840100EBC105DDF80E002860BDF826
:105540001200A8809DF81400A8719DF81500E8715C
:1055500010220DF1160105F10800FAF797FD10224F
:105560000DF1260105F11800FAF790FD641CE4B274
:10557000761CF6B29AF800008642C5D387F80090F0
:105580007C7028B00020BDE8F0870122CDE9002919
:10559000064DCDF808801F231E222D684FF40041D0
:1055A0000120A847EAE700008C340020E001002039
:1055B00038B50C4605F062F80949097888420CD2E2
:1055C0008C2100EB4000ADF80010413040F4004069
:1055D0002246694614F0ACFE38BD032038BD0000F9
:1055E0008C3400202DE9F043A5B0002489460746FD
:1055F0008C26194D0DF10A0817E004EB44004130E8
:10560000ADF88C6040F400406A4623A914F090FE87
:1056100048B99DF80100800705D51022394640465B
:10562000FAF76DFD28B1641CE4B228788442E4D313
:10563000C4B2287884420DD204EB44004130ADF866
:10564000006040F400404A46694614F071FE25B0FF
:10565000BDE8F0830320FAE78C3400202DE9F843FD
:105660000025DFF8448006462C460727ADF8007079
:1056700018F8040001280FD1C5EBC500821904F108
:105680001000C0F30B0040F400406946521C14F0B7
:105690004FFE08B96D1CEDB2641C0A2CE6DB3570B8
:1056A0000020BDE8F883000078C000202DE9FE430B
:1056B00007463020B1FBF0F0C4B2134D00260120A4
:1056C0002C70CDE90006DFF844C0029420231E228E
:1056D000DCF800C0C4EBC408C103E04707EB0800D6
:1056E000C5E9017005F1100120440E704E7048604C
:1056F00001F05CFD30B10DF09BF90DF0E7F90020F1
:10570000BDE8FE830220FBE78C340020E00100208E
:10571000F0B50025B1B02C46144E20E07168C4EB02
:10572000C40008440DF0BAFAC0B9BE20ADF8C000FC
:1057300004EB44004230C0F30B0040F400476A46DB
:1057400030A9384614F0F4FD01208DF807006A46B0
:10575000BE21384614F0D4FF00B10125641C307816
:105760008442DBDB31B02846F0BD00008C340020E1
:1057700010B50C4604F082FF0949097888420CD222
:1057800000EB4000423040F400402246BE2114F0BD
:10579000B7FF002800D0012010BD032010BD00007D
:1057A0008C3400202DE9F34F83B0039804F066FF9A
:1057B000454FDFF818A14FF0000839784FF0010984
:1057C00088420ED200EB4000413040F400408C2172
:1057D000049A14F095FF04005BD01A23CDF80090D2
:1057E00020E0002409E07968C4EBC40008440DF00F
:1057F00055FA08B1E6B205E0641C38788442F2DB61
:10580000B8680678072106EB460505F1400040F42C
:1058100000408346039A14F073FF04000CD01B234E
:10582000CDF80090CDE901841E224FF40041012003
:10583000DAF80050A84742E005F1410040F400408A
:105840008C21049A14F05CFF04000FD0CDF8009076
:10585000CDE901841C231E22DAF800504FF40041E8
:105860000120A847584614F083FC28E030461AF07F
:105870001FF8423545F4004014F07AFC7968C6EB15
:10588000C6000144039802680A6082888A80807991
:10589000887104984078800711D50B48397810300A
:1058A000FFF726FE08481D2310301E224078CDF851
:1058B0000090CDE901804FF400410120B8E705B028
:1058C0002046BDE8F08F00008C340020E00100206D
:1058D000C2F556BCC2F54CBDC2F562BD10B500F0B4
:1058E00029F80DF0FFFA0649044808600649054802
:1058F000086007490548086010BD00009DCA2500E2
:10590000480100206B281000A0010020ED281000A5
:105910008801002010B517F071F817F0ABF8BDE85A
:10592000104012F031BF10B509F0E8F9BDE81040A1
:1059300006F0F2BC10B50C490C480AF0C3FE0C4945
:1059400047F671400AF0BEFE0A494EF6CB200AF037
:10595000B9FE0648084948380AF0B4FEBDE81040D0
:10596000064907480AF0AEBEFD8725008194020073
:105970001184240045E62400998725005D51250007
:1059800011C0010010B512F00DFC0FF0D5FB0FF0A7
:1059900009FF0FF0ABFBBDE8104017F03DB8000069
:1059A000144810B5016821F004010160016841F05C
:1059B00002010160016841F001010160016821F00C
:1059C00002010160016841F00401016009490220FF
:1059D00010390860074940F601701C390860012041
:1059E000091D08600002BBF59DF8C1F509FA002801
:1059F000FBD010BDE0A4004010B50DF091F918B136
:105A0000E8F5E0FF012803D0BDE81040C1F510BA69
:105A1000022010BDCBF57ABF10B5040009D001F00B
:105A2000E7FB30B90448016819B1204688470120D6
:105A300010BD002010BD0000883100200EB5018887
:105A400040F20133A1F2013299423AD016DCB1F5AD
:105A5000807F23D0A1F50071073923D001290CD113
:105A6000007A002809D120A0DB21CDE90010244BC9
:105A700024A22AA10320FDF76BFE0EBD012A25D02A
:105A8000052A2AD0A2F50072FF3AF6D181780029C2
:105A9000F3D1C088BDE80E4003F05FB9BDE80E4009
:105AA000FFF7D2BB80780028E7D01EA1D422CDE931
:105AB00000210290124B13A218A10320FDF748FE0B
:105AC0000EBDBDE80E400830FDF7F6B8017A00794A
:105AD00003B05DF804EBFDF737B9007903B001219D
