:020000040020DA
:10400000E857012059402000CF482000091E100029
:10401000CD482000F941200029492000000000007F
:10402000000000000000000000000000011E100061
:10403000FF41200000000000D1482000D9482000A6
:10404000DFF810D000F0D6FB00F054F8004800472D
:10405000A9AE2000E85701200148804701480047E9
:10406000F9482000C7AE200010B5431A934209D288
:104070008318881803E010F8011D03F8011D521E73
:10408000F9D210BD40EA01039B0703D009E008C93B
:10409000121F08C0042AFAD203E011F8013B00F80D
:1040A000013B521EF9D210BDD2B201E000F8012B43
:1040B000491EFBD270470022F6E710B513460A46A8
:1040C00004461946FFF7F0FF204610BD421C10F8C9
:1040D000011B0029FBD1801A704730B5044600202F
:1040E000034600E05B1C934203D2E05CCD5C401BC6
:1040F000F8D030BD70B5054C054D03E02068204474
:104100008047241DAC42F9D170BD00009CE5200021
:10411000A0E520002DE9FE4F81EA030404F00044ED
:1041200021F0004100944FF0000B23F0004350EACF
:1041300001045ED052EA03045BD0C3F30A54C1F316
:104140000A552C44A4F2F3340194A0FB0254C1F3A9
:10415000130141F48011C3F3130343F4801301FBF3
:10416000024400FB034E840A970A44EA815447EA5A
:104170008357A4FB076802958D0A05FB07854FEA64
:10418000932C04FB0C542705029D4FEA065847EA7E
:104190001637B5EB08056EEB070C870E920E47EA53
:1041A000811742EA8312A7FB0201B6EB0B0164EB15
:1041B00000042B0D43EA0C335E1844EB1C50DA4626
:1041C0005146E7FB0201C5F313044FEA0B3343EA00
:1041D00014534FEA0432019C43EA0603A4F10C0491
:1041E0000294009CCDE900B400F086FA03B0BDE86B
:1041F000F08F00200146F9E7FEE703F067BCFEE719
:1042000058585247010000000554000000402000AB
:10421000004020005E2C93470000000000000000DA
:10422000000000000000000000000000000000008E
:10423000000000000000000000000000000000007E
:104240002DE9FE4F804681EA0300C00F0C46009026
:1042500021F0004123F00045B8EB0200A94105D24E
:104260004046214690461C460B46024623F000403D
:10427000104347D0270DC7F30A00C3F30A51029039
:10428000401A019040286BDAC3F3130040F4801BFE
:104290000098924620B10023D2EB030A63EB0B0B8C
:1042A00001985946C0F14002504600F0AEF906466A
:1042B0000D4650465946019A00F0C6F910EB080029
:1042C0006141002487EA115284EAE7731A4340D01F
:1042D000009A62B3019A012A4FEA075215DC001BCB
:1042E00061EB02014FF0004202EA0752CDE90042C1
:1042F000001C41F5801132462B4600F0FDF903B059
:10430000BDE8F08F40462146F9E7001B61EB020152
:10431000001C41F5801300185B412018A2F500171E
:1043200047EB030140EAD570B6196D4111E06D0805
:104330004FEA360645EAC0754FEA0752001B61EBAB
:104340000201001C41F5801149084FEA30000019B4
:10435000514132462B4603B0BDE8F04F00F0BDB9E5
:104360000098012240000023D0EB020263EBE073CF
:10437000009821464FEAE074B8EB000061EB0401BD
:10438000E9E783F000435BE781F0004158E72DE95E
:10439000F04D81EA030404F0004B21F0004514467F
:1043A0004FF0000A23F0004150EA050220D054EA01
:1043B00001021DD0C5F30A570246C5F31303C1F32A
:1043C0001300C1F30A5640F4801543F48013A7EBA1
:1043D0000608101BD64608F2FD3873EB050002D321
:1043E00008F1010801E092185B41B8F1000F03DA0F
:1043F00000200146BDE8F08D00204FF480110646F4
:1044000084460EE0171B73EB050705D3121B63EB05
:10441000050306434CEA010C49084FEA30009218A4
:104420005B4150EA0107EDD152EA030012D082EA63
:10443000040083EA0501084305D0101BAB4106D2F6
:104440000122002306E000224FF0004302E06FF05B
:10445000010253101AEB06004CEB085110EB0A0056
:1044600041EB0B01BDE8F04D00F037B930B4044624
:1044700096230800214604D0B62330BC002200F069
:10448000FEB820460021F8E70EB540F23341029114
:104490000021CDE900110A460B4600F02DF903B0CA
:1044A00000BD0EB540F2334202920022CDE9002257
:1044B000134600F021F903B000BD20F00040C20D0A
:1044C000C0F3160040F400007F2A02DA0020014603
:1044D00070470021962A03DCC2F19602D040704753
:1044E000963A00F092B870B5C1F30A5201F0004557
:1044F0000024C1F3130140F2FF3341F480119A42CA
:1045000001DA002070BD40F233439A42A2F23342F6
:1045100003DC524200F088F800E090402C43F1D0D8
:10452000404270BDC1F30A5210B5C1F3130140F20D
:10453000FF3341F480119A4201DA002010BD40F2AD
:1045400033439A42A2F2334203DC524200F06CF849
:1045500010BD904010BD00F0004230F000400AD085
:10456000C10D01F56071C0F3160042EA0151C208A5
:1045700040071143704700200146704730B50B4695
:10458000014600202022012409E021FA02F59D4283
:1045900005D303FA02F5491B04FA02F52844151E57
:1045A000A2F10102F1DC30BD2DE9F05F05460020EB
:1045B00092469B4688460646814640241BE0284694
:1045C00041464746224600F02FF853465A46C01A45
:1045D000914110D311461846224600F016F82D1AC4
:1045E00067EB01084F4622460120002100F00DF83C
:1045F00017EB00094E41201EA4F10104DFDC484600
:1046000031462A464346BDE8F09F202A04DB203A83
:1046100000FA02F1002070479140C2F1200320FA15
:1046200003F3194390407047202A04DB203A21FA13
:1046300002F00021704721FA02F3D040C2F12002BB
:104640009140084319467047202A06DBCB17203AD1
:1046500041FA02F043EAE07306E041FA02F3D04087
:10466000C2F1200291400843194670470029A8BFB3
:104670007047401C490008BF20F00100704710B48B
:10468000B0FA80FC00FA0CF050EA010404BF10BC40
:10469000704749B1CCF1200421FA04F411FA0CF16D
:1046A00018BF012121430843A3EB0C01CB1D4FEAA6
:1046B00000614FEA102042BF002010BC704700EBA1
:1046C000C35010440029A4BF10BC7047401C4900CF
:1046D00008BF20F0010010BC704710B5141E73F124
:1046E000000408DA401C41F1000192185B411A43B2
:1046F00001D120F0010010BD2DE9F04D92469B46FE
:1047000011B1B1FA81F202E0B0FA80F220329046A3
:10471000FFF77BFF04460F4640EA0A0041EA0B011F
:1047200053465A46084313D0114653EA010019D0A4
:10473000C8F140025046FFF777FF05460E46504647
:1047400059464246FFF761FF084305D0012004E0C7
:1047500020463946BDE8F08D0020054346EAE07664
:104760002C4337430A986305E40AA0EB08000022B3
:10477000FD0A44EA47540A3002D500200146E9E721
:10478000010510196941DDE9084500196941BDE8D5
:10479000F04DA2E7C1F30A52C1F3130140F2FF3317
:1047A00041F480119A4202DA00200146704740F23B
:1047B00033439A42A2F2334202DC5242FFF734BF43
:1047C000FFF723BF30B5041E71F1000404DB4FF086
:1047D0000044404264EB0101141E73F1000405DB48
:1047E0001C464FF00043524263EB0403994208BF5A
:1047F000904230BD064C074D06E0E06840F00103F2
:1048000094E8070098471034AC42F6D3FFF71CFC3D
:104810005CE520009CE5200070B58C1810F8015B69
:1048200015F0070301D110F8013B2A1106D110F849
:10483000012B03E010F8016B01F8016B5B1EF9D14D
:104840002B0705D40023521E0DD401F8013BFAE7D3
:1048500010F8013BCB1A921C03E013F8015B01F83E
:10486000015B521EF9D5A142D8D3002070BD10B50E
:1048700002F6CEFC10B102F0A5FB10BDBDE8104061
:1048800029F6B4BF10B52AF69DF8022818D00D4CB1
:10489000D4F8880220F00100C4F888024FF0E0212B
:1048A0004FF00050C1F8800204F5227403F000FAC2
:1048B00005484168491C4160206840F001002060C3
:1048C00010BD000000E0004020280020FEE7FEE7C9
:1048D000FEE705F065B8000002484168491C4160E8
:1048E00070470000702700200249096801F00701A5
:1048F0000170704700A000400248016841F4700157
:104900000160704788ED00E002480068001D05F076
:10491000BDB90000D026002002484068001D05F007
:10492000B5B90000D0260020FEE700000FB41CB58A
:104930000246002007AC00290BD0491ECDE900211A
:10494000054B6A462146069800F06AFC009A002151
:1049500011701CBC5DF814FB4F5920000FB4084BBC
:1049600010B504A902AA039800F05AFC044602A953
:10497000002000F0F7FF204610BC5DF814FB00009B
:10498000655920007CB5044600201D4616460029C6
:104990000BD0491ECDE90041044B6A4629463046FA
:1049A00000F03EFC009A002111707CBD4F592000A0
:1049B000002809DB00F01F0201219140400980001E
:1049C00000F1E020C0F880127047002809DB00F0F9
:1049D0001F02012191404009800000F1E020C0F851
:1049E00080127047002809DB00F01F02012191406E
:1049F0004009800000F1E020C0F8801270470028D4
:104A00000DDB00F01F02012191404009800000F100
:104A1000E020C0F88011BFF34F8FBFF36F8F704756
:104A2000002809DB00F01F020121914040098000AD
:104A300000F1E020C0F800117047002809DB00F009
:104A40001F02012191404009800000F1E020C0F8E0
:104A500000117047002809DB00F01F02012191407E
:104A60004009800000F1E020C0F8001170470028E4
:104A70000FDB4109890001F1E021D1F8001100F0BC
:104A80001F0201209040014201D001207047002008
:104A9000704700207047002804DB00F1E02090F808
:104AA0000004704700F00F0000F1E02090F8140DB2
:104AB0007047002804DB00F1E02090F80004704704
:104AC00000F00F0000F1E02090F8140D704700286E
:104AD00004DB00F1E02090F80004704700F00F00C4
:104AE00000F1E02090F8140D7047002804DB00F17D
:104AF000E02090F80004704700F00F0000F1E02083
:104B000090F8140D7047002804DB00F1E02090F8C5
:104B10000004704700F00F0000F1E02090F8140D41
:104B20007047002804DB00F1E02090F80004704793
:104B300000F00F0000F1E02090F8140D7047000025
:104B400002480068C0F30220704700000CED00E04E
:104B500002480068C0F30220704700000CED00E03E
:104B600002480068C0F30220704700000CED00E02E
:104B700002480068C0F30220704700000CED00E01E
:104B800002480068C0F30220704700000CED00E00E
:104B9000EFF31080704700002DE9F0412DED020B7E
:104BA0009FED3D0B2DED028B9FED3D8BDDE902541A
:104BB000C4F30A50A0F2FF36142E37DA002E18DAAA
:104BC00053EC102B9DED020B51EC100BFFF738FB53
:104BD00053EC182BFFF7F6FD57D2002CBCBF4FF05B
:104BE0000044002551DB54EA050018BF2E4C1BD1B0
:104BF0004BE02E4820FA06F704EA070028431FD0AE
:104C000053EC102B9DED020B51EC100BFFF718FB32
:104C100053EC182BFFF7D6FD37D2002C03DD4FF4F1
:104C20008010F0400444BC4300252EE0332E07DC06
:104C3000A6F114004FF0FF3121FA00F73D4206D1F2
:104C40009DED020BBDEC028B02B0BDE8F08153EC90
:104C5000102B9DED020B51EC100BFFF795FB53EC65
:104C6000182BFFF7AFFD10D2002C0DDD142E08BF5E
:104C7000641C09D0C6F13400012101FA00F0284477
:104C8000A84238BF641C0546BD43CDE902549DEDE2
:104C9000020BD7E7000000009C7500883CE4377EDB
:104CA00000000000000000000000F03FFFFF0F00C8
:104CB00002E008C8121F08C1002AFAD170477047E5
:104CC000002001E001C1121F002AFBD1704780F3D0
:104CD000108870472DE9F74F07460298DFF86CA15E
:104CE000DFF86C814FEA500B5A48019D5C465646EE
:104CF000CAF80000D8F804203F2060F30502C8F885
:104D00000420DAF8000020F4700040EA0750CAF8E6
:104D10000000DAF8000020F4702040EA0740CAF8EA
:104D200000000D2F02D00E2F04D007E0306840F4B1
:104D3000004002E0306840F480403060306840F469
:104D400000503060306820F060503060306820F0F3
:104D50000F0040F003003060002000F0AFF80128A1
:104D600072D13168B24641F0804131600020424644
:104D700009E0D8F8083043F48033C8F80830811CC3
:104D800000F1010005D091689046C1F3002100298F
:104D9000EFD1072000F092F8012855D142E000261B
:104DA0004FF47A7924E04E451ED9DAF8001021F04C
:104DB0008041CAF80010DAF8001041F00041CAF84A
:104DC0000010DAF8001021F00041CAF800100020AD
:104DD00000F074F8012837D11F480169491C0161AE
:104DE0000520FBF59FFE7FE70120FBF59BFE761C6F
:104DF000D8F80800C0F300200028D4D0D8F8080064
:104E0000434600F07F02A24200D92246002006E07D
:104E1000196825F8021B090C25F8021B401C90425A
:104E2000F6D3A41A002CBAD10298C00707D0404686
:104E30008168C1F300210029FAD000682880BDE80C
:104E4000FE4F002000F03AB8BDE8FE8F00A80040F9
:104E500000E000400A070807202800202DE9F04163
:104E60001249044600200860104980390860104D3E
:104E7000686A104E00F0010149420140F061C80526
:104E80000DD440F20117A869B84208D024B101201E
:104E9000641EFBF547FEF6E70020BDE8F0810648FA
:104EA000006870616868B0610120F6E794581C42A0
:104EB00000E000402028002000A800402DE9F0413B
:104EC000104F0546F868C0F30240A84217D0F868B2
:104ED00020F007002843F86000244FF6FF76F868BA
:104EE000C0F30240A84205D00120FBF51BFE641C64
:104EF000B442F4D3B44202D10020BDE8F0810120D5
:104F0000FBE7000000E000402DE9FF5F82B00021D8
:104F1000DDE90430020DDDF840B0034318D044F65B
:104F20001050A2F2FF3242431514119801281FD0ED
:104F3000A5EB0B00401C5FEA000A4FF000064E4F45
:104F4000DFF83891B046504615D5CAF1000413E099
:104F5000119801244AA3012801D16FEA0B0102989C
:104F6000119AC0E90031C0E9024206B0BDE8F09FE5
:104F7000CBF10000DFE704460021404A491842EB2C
:104F80000450CDE9001012E0E00707D032463B465E
:104F900040464946FFF7BEF88046894632463B46C2
:104FA00010461946FFF7B6F806460F466410002C67
:104FB000EAD1DDE90401DDE90023BAF1000F06DAE8
:104FC000FFF7A8F842464B46FFF7A4F805E0FFF7C5
:104FD000DEF942464B46FFF7DAF904460E46002258
:104FE000284BFFF7EFFB03D84FF0FF30014607E0F7
:104FF0000022254B20463146FFF722F9FFF7CAFB76
:10500000102409E0002C0ADB0A220023FFF7CCFA67
:10501000039B30321A55641E50EA0102F2D1641C1F
:10502000039AC4F111031444119A012A03D00122F6
:1050300008430DD10AE0084304D000204FF0110BC3
:10504000119072E7A3EB0B056D1E0DE05B4504DDCF
:105050004FF0000205F1010504E003DA4FF0000211
:10506000A5F10105002AECD002981199C0E902319E
:10507000C0E9004579E70000000014400000F03F5F
:10508000300000000000F0430000E03FF0B50C46A7
:105090002DED088B89B006469FED559B2021684673
:1050A000FFF709F8B0EE498AF0EE698A10226946E6
:1050B0003046FFF70FFE00256F4607EB4500008ADC
:1050C000FFF7E2F953EC182BFFF7BAF86D1C41EC2F
:1050D000180BEDB2082DF0D39FED470B51EC180BD8
:1050E00053EC102BFFF716F841EC180B9FED44BB67
:1050F0000D2E02D00E2E30D072E06088FFF7C4F97A
:1051000053EC1B2BFFF743F99FED3F0B41EC190BC1
:1051100051EC100B81F0004141EC1A0BE088FFF7D5
:10512000B3F953EC1A2BFEF7F5FF41EC1A0B20886C
:10513000FFF7AAF953EC182BFFF726F953EC1A2BBB
:10514000FFF725F99FED321B53EC112BFFF71FF9E9
:1051500053EC192BFFF774F840E0A07EFF2801D034
:10516000E8B13DE09FED2C0B51EC100B81F00041BC
:1051700041EC1A0BE088FFF787F941EC190B208905
:10518000FFF782F953EC182BFFF7FEF853EC192BBD
:10519000FFF7FDF853EC1A2BFEF7BCFF1EE0A088CA
:1051A000FFF772F941EC190BE088FFF76DF981F018
:1051B000004141EC1A0B2089FFF766F953EC182BDC
:1051C000FFF7E2F853EC1A2BFFF7E1F853EC192B39
:1051D000FEF7A0FF53EC1B2BFFF7D9F841EC190B9E
:1051E00009B0B0EE490AF0EE690ABDEC088BF0BDDB
:1051F0000000000000000000000000000000C03FB0
:1052000000000000000059400000000000000040C5
:10521000DE718A8EE4F25FBFE2E1E1E1E1E10E409E
:105220002DE9FF4F95B09B468946064600250FE2C3
:10523000252877D100242746F84A0121059400E06B
:10524000044316F8013F203B01FA03F01042F7D166
:1052500030782A2811D06FF02F033078A0F1300277
:10526000092A16D8059A44F0020402EB820203EBE5
:1052700042021044761C0590EFE759F8042B059282
:10528000002A03DA504244F40054059044F002042A
:10529000761C30782E2816D116F8010F44F004043D
:1052A0002A280DD06FF02F023078A0F13003092B9F
:1052B00009D807EB870302EB4303C718761CF3E713
:1052C00059F8047B761C30786C280FD006DC4C280B
:1052D00017D068280DD06A2814D104E0742810D0A3
:1052E0007A280FD10DE044F400140AE044F480144D
:1052F00001E044F440147278824202D104F5801433
:10530000761C761C307866280BD013DC582877D0B2
:1053100009DC002875D04528F6D04628F4D0472867
:105320001AD19DE118E0632835D0642879D065282A
:1053300012D195E1702873D008DC6728F1D0692874
:105340006FD06E280DD06F2806D1B5E073282CD011
:10535000752875D0782874D05A46179990476D1CD7
:1053600075E1C4F30250022809D003280DD0D9F802
:10537000001004280DD00D6009F1040967E1D9F887
:105380000010EA17C1E90052F6E7D9F800100D80C5
:10539000F2E70D70F0E719F8041B8DF800100020FB
:1053A0008DF80100EA46012003E059F804AB4FF004
:1053B000FF3061074FF0000102D40DE008F1010158
:1053C0008846B9420FDA8045F8DB1AF80810002940
:1053D000F4D108E008F1010188468142FADB1AF8AD
:1053E00008100029F6D105985B46A0EB0807214676
:1053F0003846179A00F094FA284400EB080507E0B5
:105400004DE029E10DE01AF8010B5A461799904733
:10541000B8F10108F7D25B4621463846179A13E1E6
:1054200042E00A220092C4F302524FF0000A022A1C
:1054300008D059F804CB032A4FEAEC710AD00DE0EA
:1054400029E02AE009F1070121F00702F2E802C190
:10545000914609E00FFA8CFC4FEAEC71042A03D163
:105460004FFA8CFC4FEAEC71002907DA0A4600215A
:10547000DCF1000C61EB02012D2202E0220504D5D3
:105480002B228DF80420012203E0E20701D0202224
:10549000F7E7904659E00A2102E010220DE01021C2
:1054A0004FF0000A00910BE010224FF0000A44F088
:1054B00004040827009203E008224FF0000A00923B
:1054C000C4F30252022A05D059F804CB0021032A62
:1054D00008D009E009F1070121F00702F2E802C152
:1054E000914605E01FFA8CFC042A01D10CF0FF0C58
:1054F0004FF00008220728D5702806D0009B83F0C3
:10550000100353EA0A0305D00EE040228DF8042070
:10551000012208E05CEA010206D030228DF8042066
:105520008DF8050002229046009B83F0080353EAA1
:105530000A030AD15CEA010201D1620705D53022D3
:105540008DF804204FF001087F1E582804D034A0A5
:1055500003900EA802900DE036A0F9E7534660468E
:10556000009AFFF721F884460398825C0298401E57
:10557000029002705CEA0100F0D1029806A9081AB4
:1055800000F1200A600702D524F4803400E00127EE
:10559000574502DDA7EB0A0000E0002000EB0A01FE
:1055A000009005984144401A0590E00306D45B46FC
:1055B0002146179A059800F0B3F90544002706E044
:1055C00001A85A46C05D179990476D1C7F1C47453E
:1055D000F6DBE0030CD55B462146179A059800F0F0
:1055E0009FF9054404E030205A46179990476D1CF6
:1055F0000099481E00900029F5DC08E00298029905
:105600005A460078491C0291179990476D1CBAF1CF
:105610000001AAF1010AF1DC65E10000092801009E
:105620003031323334353637383961626364656618
:1056300000000000303132333435363738394142DA
:10564000434445460000000000F058F90544761C2C
:10565000307800287FF4ECAD19B02846BDE8F08F13
:10566000620700D4062709F1070222F0070CFCE8C4
:105670000223E14603F000485FEA080C02D00FF273
:10568000702C0DE05FEA045C02D50FF2682C07E095
:105690005FEAC47C02D00FF2602C01E0AFF2700C24
:1056A0004FF0FF3823F00043CDF850C065280CD0F0
:1056B00006DC452809D046281DD047283DD13DE0CD
:1056C000662818D067287ED138E00021112F01DB31
:1056D000112000E0781CCDE9000106A90EA8FFF713
:1056E00013FCDDE90F010E9A03910021009207F1EE
:1056F000010A04914DE04FF000400097CDE9011000
:1057000006A90EA8FFF700FCDDE90F0203920E9B2D
:1057100011990022DDF80CA00093049211B9791CB4
:1057200000EB010AB7EB0A0004D4C0F1FF3007F127
:10573000010A0490AAEB0700019044E0012F00DA6F
:1057400001270021112F01DD112000E03846CDE9AD
:10575000000106A90EA8FFF7D7FBDDE90F010E9A9D
:105760000391002104910092BA4621070CD40399B9
:10577000514500DA8A46BAF1010F05DD009AAAF117
:105780000101515C302908D0B84202DA10F1040F4F
:1057900006DA0121CDE9011015E0AAF10101E9E7DE
:1057A000002805DC049901440491AAEB000102E001
:1057B000411C514500DD8A460499401A401C019065
:1057C0004FF000400290200704D40198504501DBBF
:1057D000CDF8048000208DF84F0002980DF14F079E
:1057E000B0F1004F25D02B200E9002984FF0020808
:1057F00000280CDA404202902D200E9007E00A218A
:105800000298FEF7BBFE3031029007F8011DB8F197
:105810000001A8F10108F2DC02980028EFD1791EFE
:105820000E980870307800F0200040F0450007F82E
:10583000020D12A8C01B00F107081498007800B1EF
:10584000012000EB0A01019801EBE0710598414449
:10585000401A401E0590E00306D45B462146179A85
:10586000059800F05DF805441498007818B15A4680
:10587000179990476D1CE00324D55B462146179A83
:10588000059800F04DF805441CE00498002807DB5B
:10589000DDE90301884203DD0098405C179901E0CF
:1058A000179930205A469047049805F10105401C8D
:1058B00004900198401E019004D12E205A46179959
:1058C00090476D1CBAF10001AAF1010ADDDC05E088
:1058D00017F8010B5A46179990476D1CB8F1000153
:1058E000A8F10108F4DC5B462146179A0598ABE65F
:1058F0002D0000002B000000200000002DE9F041E9
:10590000044600251E461746880404D405E039469F
:105910002020B0476D1C641EF9D52846BDE8F081F3
:105920002DE9F041044600251E469046C80301D5E6
:10593000302700E02027880404D505E0414638469A
:10594000B0476D1C641EF9D52846BDE8F0814A6851
:10595000002A06D00A68531C0B6010704868401E6D
:10596000486070470A68531C0B6010707047000055
:1059700010B51A4940F21A444FF4B9720B694FF44A
:1059800096710C3BA3420FD90424BE2801DC0C24E1
:105990001BE0DC2801DC082417E0FA280EDD884231
:1059A00010DD904211DD0FE0BE2801DC0B240CE07D
:1059B000DC2801DC072408E0FA2801DC062404E0E6
:1059C000884201DC052400E00324204604F0CEFEDA
:1059D0002046BDE8104004F0B5BE0000187200205B
:1059E00010B50B4C2089012811D194F84B000028E8
:1059F0000DD1608FFEF748FD9FED061B53EC112B78
:105A0000FEF788FBFEF78EFD218F0844208710BD2E
:105A1000B07000209A9999999999A93F0748084927
:105A200001E0401E04D00A68C2F34002002AF8D107
:105A300008B10020704703207047000020A1070034
:105A400038A7004006460F46154672B63846FEF7A0
:105A50003DFB402801D9402002E03846FEF736FBE6
:105A600080463046FEF732FB402801D9402002E054
:105A70003046FEF72BFB04469C211048FEF71BFB2B
:105A8000424639460D48FEF7EFFA0C4822463146A9
:105A90005C30FEF7E9FA09484FF0AA310164456429
:105AA0004FF0BB3181644FF0CC3101654FF0DD31F7
:105AB0008165002000F004F8FEE700003C30002083
:105AC00030B5ADF20C4D04464FF4806103A8FEF7EB
:105AD000F2FA194D202085F83F0085F89B003CB173
:105AE0002846012C436DC26C09D0022C0CD00FE06B
:105AF000114A12A15C3203A8FEF730FF08E012A1A0
:105B000003A8FEF72BFF03E017A103A8FEF726FF6B
:105B100003A90CA2686CCDE90121009019A3064AE3
:105B200019A1002000F0BCF9012C01D000F06AF9A5
:105B30000DF20C4D30BD00003C3000205B45525250
:105B40004F525D20257300005B5741524E494E472E
:105B50005D20506172616D303A25642C5061726134
:105B60006D313A25640000005B504152414D5D208B
:105B7000506172616D303A25642C506172616D31F3
:105B80003A256400000000006170705F6173736506
:105B900072742E6300000000014806F02DBD000065
:105BA000D826002006460F4690461D4672B640464F
:105BB000FEF78CFA402801D9402002E04046FEF76B
:105BC00085FA04469C210D48FEF775FA22464146A7
:105BD0000A48FEF749FA09484FF055310164456417
:105BE0004FF066318164C6644FF0773101654765D7
:105BF000C94381650220FFF763FFFEE73C300020C8
:105C00002DE9F04106460F4690461D464046FEF7F8
:105C10005DFA402801D9402002E04046FEF756FADE
:105C200004469C210D48FEF746FA224641460B48A1
:105C3000FEF71AFA09484FF0113101644564490032
:105C40008164C6644FF03331016547654FF04431DC
:105C50008165BDE8F0410120FFF732BF3C300020F4
:105C600010B50446D4E90210884202D02268FEF73B
:105C7000FBF900F0E1F800F0FAF92168E068BDE80E
:105C8000104006F081BD000010B502460846052A06
:105C900025D2DFE802F0030303111900114951F87E
:105CA00032200104090C05D022B10146104603F050
:105CB00023FD10E0E42010BD10F0FF0F02D003F030
:105CC000EDF908E0E42010BD10F0FF0F05D001460B
:105CD000002003F096FD002010BDE42010BDE6205A
:105CE00010BD000080E1200030B597B005460C469D
:105CF0001C22414910A8FEF7B7F91C223E491C316D
:105D000009A8FEF7B1F920223B49383101A8FEF776
:105D1000ABF994B13949062006F010FC384915203A
:105D200006F00CFC34496C39A1F12C02052D61D22E
:105D3000DFE805F0060606213900E52017B030BD82
:105D4000207931F810001190607932F8100012902B
:105D5000A0791390206810902748843850F83500B7
:105D600021880904090C04D018B110A903F027FDFB
:105D700039E0E420E2E7207901EB4000808A0A90D4
:105D8000607902EB4000C0880B90A0790C902068ED
:105D90000990207810F0FF0F03D009A803F0B0F9A4
:105DA00021E0E420CAE72079031F042B01D8E72073
:105DB000C4E7022819D001200290207901EB4000AD
:105DC000008D0390607902EB400080890490A079F7
:105DD000059020680190207810F0FF0F08D001A9ED
:105DE000002003F040FD0020A8E702200290E4E735
:105DF000E420A3E7E620A1E704E22000111E100042
:105E00000D1E10000248406A002800D0004770476D
:105E1000D83100200149486270470000D831002085
:105E2000002806D0002904D0024AD269002A00D0F6
:105E300010477047D83100200248006A002800D07F
:105E400000477047D831002070B50D4616460D4CFE
:105E500000280AD00178032911D80121A176014632
:105E60001A222046FEF700F905E00020A0761A214C
:105E70000448FEF720F9E5612662002070BD01208C
:105E800070BD0000D8310020044A1044807D0842D3
:105E900001D001207047002070470000D831002059
:105EA0002DE9FE4F0746924699460024A046CDF8BC
:105EB0000480CDF8088059480178B94202D2807E2A
:105EC00000287DD10EAD0095EFF311860220FEF77C
:105ED000E2FD8346FEF734FE401C012181400BEBBE
:105EE0000100C0B280F3118801213846FFF7CCFFD2
:105EF00038B14B484B4950F82720204600F0A4F811
:105F000004461C213846FFF7BFFF00285ED046A29A
:105F10004449204600F098F8204484B204213846D1
:105F2000FFF7B2FFF8B152463E49204600F08CF828
:105F3000204484B208213846FFF7A6FF38B13BA2BF
:105F40003849204600F080F8204484B20BE010214C
:105F50003846FFF799FF30B135A23249204600F0AC
:105F600073F8204484B208213846FFF78DFF90B1C2
:105F70004A462C49204600F067F8204484B210219C
:105F80003846FFF781FF30B12AA22649204600F0AB
:105F90005BF8204484B210213846FFF775FF60B1EA
:105FA00026A2052101A80C9BFEF7C0FC01AA1D49F1
:105FB000204600F049F8204484B221A2194900E0AB
:105FC00029E0204600F040F8204484B21548C4F58A
:105FD000807120442B460D9AFEF7D4FCCDF800804A
:105FE0004FF48071002804DB2044884201DC85B234
:105FF00000E00D46A81C884200D9FE2511A20949DF
:10600000284600F021F8284481B20648FFF708FF2F
:10601000F0B280F31188BDE8FE8F0000D831002077
:10602000E4260020D83000202800000020000000D6
:106030003A000000204C696E653A0000256C64004F
:10604000292000000D0A000030B505460020002977
:106050000CD0002A0AD006E02B18FF2B06D8CC540F
:10606000521C401C80B21478002CF5D130BD10B504
:1060700007F00EFCBDE8104002F06FB810B5032029
:10608000FBF65EFF02F0C0F801F04CFC07F006FCE6
:1060900001F05CFC002028F69BFCBDE81040034AA0
:1060A0004FF41011024801F083BF00008427002044
:1060B0002FDC200010B50848017800290AD1012101
:1060C0000170064828F6EEFBBDE8104000210448A8
:1060D00028F6EABC10BD0000CC2600201D1E1000D2
:1060E000BDBF20002DE9F04104460D461746002DA6
:1060F00004D0012D02D00120BDE8F081E4B1DFB170
:10610000607801281AD0EFF311860220FEF7D1FC47
:106110008046FEF71DFD401C0121814008EB010077
:10612000C0B280F3118800206070A570E761F0B202
:1061300080F311880020DFE70120DDE70620DBE7A0
:1061400010B50446002C0CD0204600F0B3F9FF2017
:1061500060700021A160E160216161610020E06167
:1061600010BD012010BDF0B5DDE90745059981613D
:106170004FF47A76A2FB061C03FB06C3002702FB42
:106180000732C0E9021209196A41C0E9041200216C
:106190000162F0BD2DE9F0410446002C13D0EFF36D
:1061A00011850220FEF785FC0746FEF7D1FC401C56
:1061B000012606FA00F03844C0B280F31188124874
:1061C000002121620EE00020BDE8F081D4E9043214
:1061D000D1E9047CDB1B72EB0C0202D2016A216262
:1061E00003E00846016A0029F0D10462667006489F
:1061F00010380168491C0160016B4160E8B280F30E
:1062000011880120E0E70000103200202DE9F04164
:1062100005460024EFF311860220FEF74AFC0746EC
:10622000FEF796FC401C012181407818C0B280F333
:106230001188134A106BE8B115B102F1100010E09B
:106240000446206A10631068401E10600CE0A942EA
:1062500006D11168491E1160296A01622C4603E0CB
:106260000846016A0029F2D124B100202062607042
:10627000106B5060F0B280F311882046BDE8F081C9
:10628000003200202DE9F041EFF311870220FEF7E4
:1062900010FC0446FEF75CFC401C012181406018A4
:1062A000C0B280F31188114D002608E02078012843
:1062B00004D1E16909B1A069884726702D6A2C6A6A
:1062C000002CF3D1094D103D07E0E16909B1A06947
:1062D00088472670206AA8632662AC6B002CF4D134
:1062E000F8B280F311880120BDE8F081103200205F
:1062F0002DE9F041EFF311870220FEF7DAFB0446A7
:10630000FEF726FC401C012606FA00F02044C0B22D
:1063100080F311881D4DA5F110082DE0D4E904305B
:10632000D8E902125B1A60EB0200D8E91021D21AF8
:10633000814124D326702046FFF768FFA07801280A
:1063400006D01248283000212162016861B10FE0B7
:10635000D8E90220D4E9021351185841C4E90410C5
:106360002046FFF717FF07E0046005E001F1200079
:1063700001680029FAD104602C6A002CCED1F8B251
:1063800080F311880120BDE8F08100001032002068
:106390002DE9FF5F82460E4693464FF00008BAF1A2
:1063A000000F20D0414886421DD8E6B1EFF3118797
:1063B0000220FEF77EFB0446FEF7CAFB401C0121CB
:1063C00081406018C0B280F31188504604F002F892
:1063D00010B19AF8010040B1F8B280F311880F2093
:1063E00004B0BDE8F09F0120FAE704F091FC0446F8
:1063F0000D464FF47A7106FB01F022462B46002130
:1064000003F082FFDFF8A890B0B1D9F8040048B1DA
:10641000D0E90410091B60EB0500C9E9021004F083
:10642000F1FC04E00021C9F80810C9F80C104FF085
:106430000108D9E9020106E0D9F80400D0E90421F5
:10644000101B61EB0501CDE9020132460023CDF8B6
:1064500000B05046FFF787FE5046FFF79BFE05F061
:1064600099FF4FF0E024D4F800014FF4801510F4A8
:10647000801F01D0012000E0002020B91420FEF789
:1064800097FAC4F80051B8F1000F0AD0D9F8040007
:10649000D0E90431D9E90202181A61EB020104F0D3
:1064A0006DFCF8B280F31188002099E7008AB907E3
:1064B000003200202DE9F04104460025002C39D09F
:1064C000EFF311870220FEF7F4FA0646FEF740FBD1
:1064D000401C012181407018C0B280F3118860789F
:1064E000012824D1144E7068A0420BD104F010FC96
:1064F000D4E90432181A62EB0102C6E9020204F080
:1065000081FC01252046FFF781FE5DB1706848B12E
:10651000D0E90421D6E90203101A61EB030104F06B
:106520002DFC04E01DB9706808B904F06BFCF8B2EA
:1065300080F31188BDE8F081003200202DE9F84396
:106540000446334F57F82400061D022C5ED290F803
:10655000681000295AD00021D0E903231344027D9A
:1065600002F00102D21D9D184268D36FC3F380036D
:10657000002BFAD090F80021A2B1264A1368491CDA
:1065800090F83A20102A06D08268B3FBF2F26A43F0
:10659000B1EBC21FF3D957F824006C3005F034FE7C
:1065A00085B226E0B0F82480C58C001D03F03AFACD
:1065B00057F8240041F2883300EB0801491B7C3175
:1065C000001D2A4603F080FCE5E757F8240001226D
:1065D0006C30694605F033FE57F824004068C16FFF
:1065E000C1F340010029FAD09DF8001001606D1E32
:1065F000ADB2002DE9D157F824006C3005F004FE4F
:106600000028C8D1306841694906FCD5BDE8F88347
:10661000D02600205C0000202DE9F0410446022C29
:1066200002D3E820BDE8F0813A4D55F82400C0B10E
:1066300090F86810A9B1006E41680078FFF724FB5C
:106640000028EFD155F82400006E0169007BFFF7A8
:106650001BFB0028E6D155F824008169222902D0CD
:1066600012E0E520DEE7006E816A90F82400FFF773
:106670000BFB0028D6D155F82400006EC169007EBE
:10668000FFF702FB0028CDD1234800EBC40090F9AE
:10669000010003F0F7F855F82400002780F868702F
:1066A00055F8240080F8FC7055F8240080F8FD703F
:1066B00055F8240080F8FE7055F8240080F8FF702B
:1066C000EFF31086012080F31088002055F8201089
:1066D00011B191F8681029B9401C0228F6D30320A3
:1066E00005F0B6FC6EB1012080F3108855F8240047
:1066F000001D03F0F1F955F8240090F8690020B16D
:1067000005E0002080F31088F0E745F824700020B1
:1067100088E70000D02600206CE2200000207047AF
:10672000704700002DE9F8430446534F57F8240002
:10673000061D022C7ED290F8681000297AD001291B
:1067400078D190F8FC10012974D190F8FD1000293F
:1067500070D1012180F8FD10002157F82400D0E904
:1067600003231344027D02F00102D21D9D184268EA
:10677000D36FC3F38003002BFAD090F80021A2B1AD
:106780003E4A1368491C90F83A20102A06D08268C5
:10679000B3FBF2F26A43B1EBC21FF3D957F82400FE
:1067A0006C3005F031FD85B226E0B0F82480C58C50
:1067B000001D03F037F957F8240041F2883300EB4D
:1067C0000801491B7C31001D2A4603F07DFBE5E7EB
:1067D00057F8240001226C30694605F030FD57F867
:1067E00024004068C16FC1F340010029FAD09DF830
:1067F000001001606D1EADB2002DE9D157F82400E4
:106800006C3005F001FD0028C8D1306841694906A7
:10681000FCD5EFF31085012080F3108857F8240091
:106820006C3005F0F1FC78B1EFF31081012080F3BA
:10683000108800E015E03068426842F08202426051
:1068400089B1012080F3108857F82410002081F8C6
:10685000FC0057F8241081F8FD0045B1012080F3B9
:106860001088BDE8F883002080F31088ECE7002052
:1068700080F31088F5E70000D02600205C0000209F
:106880002DE9F04105460F46002D06D02AB12C789F
:10689000022C04D3E820BDE8F081E520FBE7304E70
:1068A00005F1580046F82400D2E900310A466C3060
:1068B000194605F08EFC291D286D07F0FBF800280D
:1068C000E9D156F82410281D086656F82400076000
:1068D00056F824001822083005F14001FDF7C4FBEA
:1068E000204856F8241000EBC4056868486056F844
:1068F0002400001D03F0F0F856F82400001D03F0FA
:1069000079F9184803221146103805F089FB56F82A
:106910002410012081F8680056F82410002081F826
:10692000FC0056F8241081F8FD0056F8241081F878
:10693000FE0056F8241081F8FF000B490C2005F0EA
:10694000FDFD0A490D2005F0F9FD95F9010002F061
:106950008CFF95F9010002F0A6FF00209BE70000E4
:10696000D02600206CE220000949200019492000AF
:1069700070B5022801D3E82070BD134C54F82030C4
:106980004BB193F8685035B139B132B193F8FF503B
:10699000012D04D010E0E52070BDE42070BD00257D
:1069A00083F8FF5054F820305B680225C3F8885004
:1069B00054F820305B681B6854F82000001D03F079
:1069C000F8F90028EAD170BDD026002070B5022861
:1069D00001D3E82070BD174D55F8204064B194F8FC
:1069E00068604EB151B14AB15E1C09D049F64046CB
:1069F000B34205D9E42070BDE52070BDE42070BD30
:106A000094F8FF60012E0CD1002684F8FF6055F841
:106A1000204064680226C4F8886055F82040646805
:106A2000246855F82000001D03F092F90028E6D1F3
:106A300070BD0000D02600202DE9F04104461A4D1B
:106A400055F824006C3005F0DFFB82B216460027B3
:106A50007AB155F8240090F8FD10012909D0802A58
:106A60000ED300F17C016C30802205F0E8FB80261B
:106A70000BE055F8240080F8FC700020BDE8F081A0
:106A800000F17C016C3005F0DAFB55F8240080F849
:106A9000007155F82400324600F17C01001D03F01E
:106AA0004AFA0028EAD1E9E7D026002070B502288A
:106AB00001D3E82070BD104D55F8204064B194F822
:106AC00068604EB151B14AB15E1C09D049F64046EA
:106AD000B34205D9E42070BDE52070BDE42070BD4F
:106AE000002684F8FE6055F82000001D03F0ECF944
:106AF0000028F4D170BD0000D02600202DE9FC470D
:106B000081460D4616469A46DFF8A080D8F8FC006C
:106B1000A84248DBD8F80001A84201DA02F0E8F9FF
:106B2000D8F80001A8423CDB05F1F700F821B0FBE2
:106B3000F1F0C7B201242FE0002000900190ADF8E1
:106B40000090ADF802509DF8040067F3071064F35D
:106B500003008DF804000521684600F05AFF8DF807
:106B600005009DF8060020F00300801C6AF38200F7
:106B70008DF80600684600F07DFF0146304600F0C3
:106B800048FF8DF8070032466946D8F8F80007F04C
:106B90007BFAF836641CE4B2BC42CDD90020BDE8D3
:106BA000FC870520FBE70520F9E70000684C002082
:106BB00010B50378002B03D0FF2B01D0012010BDAE
:106BC000012205E0845C9C4201D0012010BD521CD2
:106BD0008A42F7D3002010BDFEF5CAB8F0B50025F3
:106BE000B1B02C46144E20E07168C4EBC4000844D8
:106BF00003F079FBC0B9BE20ADF8C00004EB44003F
:106C00004230C0F30B0040F400476A4630A93846D2
:106C100004F0EEFA01208DF807006A46BE213846DE
:106C200004F0C8FC00B10125641C30788442DBDB31
:106C300031B02846F0BD0000CC2900202DE9F047F6
:106C4000894607460024EFF311850220FDF74DFF2A
:106C50000646FDF78DFF4FF00108401C08FA00F1D1
:106C60007018C0B280F3118802F016F806460A2F99
:106C70001FD2124830F83700A0F57F41FF3918D0F5
:106C8000072000EB07210223492240F6046000F0B0
:106C900055F980B180F8008080F8019000F090F9FB
:106CA000304601F0BBFFE8B280F311882046BDE812
:106CB000F0870324F4E71024F2E70000BC72002000
:106CC0002DE9F0410F4605460024EFF3118602201E
:106CD000FDF719FF0146154800680122C0F30220A4
:106CE000401C82408818C0B280F3118801F0D4FFA4
:106CF0000A2D16D20E4931F83510A1F57F42FF3A20
:106D00000FD087B10B4A05EB450102EB0111098851
:106D1000398001F083FFF0B280F311882046BDE88E
:106D2000F0810324F5E70224F3E700000CED00E016
:106D3000BC720020307300202DE9F04F0646534806
:106D400087B00C460078000603D41E2007B0BDE8CB
:106D5000F08F4FF0000A17205546ADF814A0ADF89B
:106D60001800EFF311880220FDF7DBFE0746FDF760
:106D700007FF4FF00109401C09FA00F17818C0B272
:106D800080F3118801F088FF83462078CDE9015611
:106D9000CDE903503E4F0225009553230C2240219C
:106DA000D7F800C00120E0470A2E10D2394830F849
:106DB0003600A0F57F41FF3909D054B1A08808B151
:106DC000A16831B12178012905D019BB03E0032561
:106DD00049E0022547E062885423CDE901A20095ED
:106DE000CDE903A00C2240213D680120A84760881E
:106DF00005AA314601F0F6FF050001D0042532E076
:106E000006A93046FFF75CFFBDF81810A088C91E20
:106E1000884201DD012526E0083083B2052000EB21
:106E20000621BDF814204FF4416000F087F80600F9
:106E300004D0207820B1012806D103E0102512E00B
:106E4000112000E0122030706088B080608870806F
:106E5000A088F080A28806F10800A168FDF704F977
:106E6000304600F0ADF8CDF80090CDE901955523FE
:106E70000C2240213C680120A047584601F0CEFE7C
:106E800008F0FF0080F3118828465FE7A029002062
:106E9000E0010020BC7200202DE9F843234800786F
:106EA000000641D5DFF888800026009659230C2281
:106EB0004021D8F800400120A047EFF311840220C0
:106EC000FDF72FFE0746FDF75BFE0125401C05FA86
:106ED00000F03844C0B280F3118801F0DDFE0746AF
:106EE000FFF77CFE13490020134B0A680BE000EB10
:106EF000400102EB811191F800C0BCF1010F00D1FB
:106F00004D72401CC0B219788842F0D3384601F067
:106F100085FEE0B280F3118800965A230C224021AE
:106F2000D8F800400120A047BDE8F883A029002040
:106F3000E001002088290020922900202DE9FF4748
:106F4000984691468A4606460025EFF311840220B2
:106F5000FDF7BDFD0746FDF703FE0121401C814002
:106F60007818C0B280F3118808221448002130F844
:106F70001170B7420FD16946022005F06BFC0098F2
:106F8000642148430399B0FBF1F00C494439497836
:106F9000884204D90AE0491C89B29142E7D34346AA
:106FA0004A465146304610F665FF0546E0B280F38A
:106FB000118804B02846BDE8F0870000E0270020D3
:106FC00010F6A4BF2BF698BD0A4601460148007989
:106FD00004F0FCBB002700201CB50F488168006846
:106FE00001440D481830026991420BD90BA0F721DA
:106FF000CDE90010194B1A4A1AA10320FEF750FFE1
:1070000000201CBDD0E90212006802B00023BDE8D8
:10701000104000F0D5BA0000305F00202020202072
:1070200041707020646675206669726D7761726563
:10703000206C6F61642061646472657373206F7685
:1070400065726C6F616420626F6F746C6F616465F0
:1070500072206669726D77617265000022E320001C
:1070600010E520004E4F5F54414700002DE9FC41E0
:1070700028213548FDF71FF828223349334802F00C
:10708000EFFA31480C221C3031A10746FDF725F8F4
:107090002D4DA0B9D5E901120123E86800F090FA5E
:1070A00068B12FA040F27111CDE90010394B3A4A76
:1070B0003AA10320FEF7F4FE0120BDE8FC81002484
:1070C000384E04EB840006EBC00028221E4902F073
:1070D000AEFA0C221EA13846FCF7FFFF002822D191
:1070E000D5E901120123E86800F06AFA00281AD0F5
:1070F000154800F091F82CA040F28F11CDE9001056
:10710000244B254A25A10320FEF7CAFE34A04FF4E4
:10711000C871CDE900101F4B1F4A20A10320FEF7C4
:10712000BFFE0120C9E7641C0A2CCAD339484FF4BA
:10713000DD71CDE90010174B174A18A10320FEF7A7
:10714000AFFE0020B9E70000785F0020002020009B
:10715000626C655F6170705F74656D700000000047
:1071600020202020466F756E642061707020666953
:10717000726D7761726520696D61676520696E6601
:107180006F20696E2041505020494E464F20415299
:107190004541000071E3200010E520004E4F5F5490
:1071A000414700004000200020202020466F756EDF
:1071B0006420617070206669726D77617265206904
:1071C0006D61676520696E666F20696E2053595343
:1071D00054454D20434F4E464947204152454100BA
:1071E00020202020557064617465206170702066D5
:1071F00069726D7761726520696D61676520696E7E
:10720000666F20746F2041505020494E464F2041F8
:1072100052454100C0E4200070B5054605F0ADF8C8
:10722000074C4FF48051204602F0F4F928222946F9
:10723000204602F01DFABDE8704005F0A0B800003D
:10724000002020004FF48051014802F0E3B9000013
:10725000003020001CB530221A491B4802F000FA09
:1072600030280CD019A04FF48171CDE90010204BCB
:10727000204A21A10320FEF713FE00201CBD114867
:107280001F49C06A88420BD11EA04FF48471CDE91A
:107290000010174B174A18A10320FEF701FE0DE05E
:1072A000224988420CD122A04FF48671CDE900100A
:1072B0000F4B104A10A10320FEF7F2FD01201CBD68
:1072C00000201CBD485F002000302000202020202E
:1072D000426F6F746C6F61646572206466752069BB
:1072E0006E666F20676574206661696C210000001E
:1072F0003FE3200010E520004E4F5F54414700005F
:107300004259424420202020446F75626C652062FF
:10731000616E6B2C204261636B67726F756E6420C7
:10732000444655204D6F646500000000424E4253B4
:107330002020202053696E676C652062616E6B2C83
:10734000204E6F6E2D6261636B67726F756E642085
:10735000444655204D6F6465000000001CB54CA0EC
:107360004FF4F771CDE90010534B544A54A1032058
:10737000FEF796FD00F08CF900F05AFA524C68B115
:107380005248E06252A04FF4FB71CDE900104A4B25
:107390004A4A4BA10320FEF783FD1CBD50A040F2DA
:1073A000FB11CDE90010444B444A45A10320FEF7F0
:1073B00077FDFFF74FFF00284ED04E49E06A884224
:1073C000EBD14DA04FF40171CDE900103A4B3B4A8F
:1073D0003BA10320FEF764FDFFF7FEFD002847D028
:1073E0004CA040F20D21CDE90010334B334A34A1BB
:1073F0000320FEF755FDA26821682069FAF6FAFD20
:1074000050A04FF40471CDE900102B4B2B4A2CA156
:107410000320FEF745FD201DFFF7FEFE50A040F2C1
:107420001321CDE90010244B244A25A10320FEF7A7
:1074300037FDFFF707FF4FA040F21621CDE90010FE
:107440001D4B1E4A1EA10320FEF72AFDFEF7F4FC89
:10745000BDE81C4002F034BA4BA04FF4FF71CDE9F7
:107460000010154B154A16A10320FEF719FD1CBD8F
:107470004EA04FF40271CDE900100F4B0F4A10A13E
:107480000320FEF70DFDBDE81C40FFF7DBBE00004A
:107490003E3E3E2047657420626F6F746C6F61647E
:1074A0006572206669726D7761726520626F6F74B4
:1074B00020696E666F0000008AE3200010E520005E
:1074C0004E4F5F5441470000485F0020424E4253F8
:1074D0003E3E3E2052582049535020434D44000028
:1074E0003E3E3E20566572696679204446552069C5
:1074F0006E666F00425942443E3E3E2056657269B8
:1075000066792061707020646675206669726D7797
:10751000617265003E3E3E20436F7079206170705D
:1075200020646675206669726D7761726520667287
:107530006F6D2062616E6B3120746F2062616E6BC3
:10754000300000003E3E3E2055706461746520614D
:10755000707020696D61676520696E666F0000005C
:107560003E3E3E20436C6561722044465520696E64
:10757000666F00003E3E3E20526573657420446590
:1075800076696365000000003E3E3E2054686572E7
:1075900065206973206E6F20444655207461736BBB
:1075A000206E65656420746F20646F003E3E3E204F
:1075B000436C6561722064667520696E666F0000B9
:1075C0001CB5B0F5001F03D34318B3F5201F0BD92A
:1075D00013A0BF21CDE90010174B184A18A10320B2
:1075E000FEF75EFC00201CBD00F057FA58B116A053
:1075F000E321CDE90010104B104A11A10320FEF742
:107600004FFC01201CBD1AA0E021CDE900100A4B5F
:107610000A4A0BA10320FEF743FC00201CBD00001A
:10762000202020204669726D7761726520696E7630
:10763000616C696400000000EBE2200010E52000AE
:107640004E4F5F5441470000202020204669726D54
:107650007761726520636865636B73756D2063681D
:1076600065636B20737563636573732E00000000A0
:10767000202020204669726D7761726520636865FD
:10768000636B73756D20696E76616C6964000000D0
:107690001CB518220A494FF4001001F0C8FF182841
:1076A00009D008A0ED21CDE90010114B114A12A11B
:1076B0000320FEF7F5FBBDE81C40014801F01CBBB0
:1076C000305F002020202020426F6F746C6F616457
:1076D0006572206669726D7761726520626F6F7482
:1076E00020696E666F20676574206661696C210091
:1076F00006E3200010E520004E4F5F544147000094
:107700000248642140684843704700007027002009
:107710001CB50D480D49C06A884214D00C48007849
:10772000002810D00BA040F23E21CDE90010104BF4
:10773000104A11A10320FEF7B3FBBDE81C4002482C
:107740003430FEF78DBA1CBD485F0020424E4253D4
:10775000942700203E3E3E204A756D7020746F20B5
:10776000617070206669726D776172652E0000002D
:10777000B5E3200010E520004E4F5F544147000064
:1077800001488068704700007027002000B5FFF7AF
:10779000B7FF0149886000BD702700201CB5FFF7C6
:1077A000AFFF0446FFF7ECFF201A4EF66021884237
:1077B00020D9FFF74FFD60B10FA040F25721CDE96E
:1077C0000010114B114A12A10320FEF769FBFFF7CD
:1077D00039FD11A040F25A21CDE900100A4B0B4AA5
:1077E0000BA10320FEF75CFBFEF726FBBDE81C4067
:1077F00002F066B81CBD0000436C6561722044460F
:107800005520696E666F0000CAE3200010E5200075
:107810004E4F5F544147000054696D656F75742C7D
:1078200020526573657420446576696365000000C5
:1078300070B590B000261AA00CAC90E80E00C0689D
:107840000EC40F901AA008AC90E80E00C0680EC4D9
:107850000B901C2101A8FCF72EFC14231C2201A96B
:107860000120FFF7B3F8002401AD28190E220CA95E
:10787000FCF733FC90B1641C0E2CF6D94FF4006277
:107880000F490120FFF774F82EB114230F2208A925
:107890000120FFF70BF910B0304670BD0126EDE76F
:1078A000444700000600475235353178B2010000E8
:1078B00044470000070001475235353178B40100D4
:1078C000244F00201CB50A480A49C06A88420ED0DD
:1078D00009A040F22F21CDE900100D4B0D4A0EA159
:1078E0000320FEF7DDFAFFF7C1FB0D4908701CBD50
:1078F000485F0020424E42533E3E3E20566572692C
:10790000667920617070206669726D7761726500BA
:107910009EE3200010E520004E4F5F5441470000D9
:1079200094270020044844F6206101600021416052
:107930000249816001F028BC245F002098270020C4
:10794000014801F0D9BC0000245F002000B587B0D9
:1079500000F026F803208DF800001D208DF8160099
:1079600001208DF817008DF818008DF81900064ACF
:1079700006496846FEF768FA0548FEF74BFAFEF737
:107980000BF907B000BD00009B792000057A2000AC
:10799000957920000020FEF7D1BD0020FEF7C2BE81
:1079A0007CB5144800904FF480600190124800218B
:1079B00001704FF4E1320264032242648164C164C5
:1079C000016501244465027402234361082545745E
:1079D0000176027184600724447101730749416391
:1079E000816380F83C3080F83D206A460449FEF708
:1079F00047FF7CBDEC290020EC2D00200040014019
:107A0000216720000A4601464FF47A730020FFF7F1
:107A10004DB810B503460020002203E09C5C2044D2
:107A2000C0B2521C8A42F9D310BD7CB540F68862C0
:107A300001FB02F500226B46114601F031F80446C5
:107A40003CB12146684605F055FFF83D04F58070CD
:107A5000F0E728467CBD01F6FF72130B00F6FF72BB
:107A6000A3EB123252B2081AC2EB1020C0EB401046
:107A7000C00070470279110902F00F028A4207D153
:107A80008078491EA1EB411100EBC100C0B200E0BB
:107A9000F820F82800D90020704730B500240023D2
:107AA00002E0C55C2C445B1C8B42FAD3A24201D19C
:107AB000012030BD002030BDA0F50010B0F5005F02
:107AC00001D201207047002070470000174810B510
:107AD0000068C0F3000038B1144808380068C0F3EB
:107AE000000008B104F0D4FC11480068C0F30000A5
:107AF00038B10F4808380068C0F3000008B100F042
:107B000013FE04F03DFC00280FD002F073FA0028A9
:107B10000BD00120FAF63BFA0648816821F4807107
:107B20008160054800218170C17010BD08E40040EB
:107B300008E5004000A00040F427002010B504F044
:107B40001FFC20B102F056FA08B1012010BD002040
:107B500010BD000010B50E491E2004F0EFFC04F02B
:107B60000FFC88B10120FAF6EBF90A4901200870F0
:107B70000949D1F8801211F4403F00D1002004F0EF
:107B800059FC1E20FCF759FF00F074FD10BD0000E9
:107B9000FB412000F427002000A0004070470000B7
:107BA0002DE9F041C0B00F4610494FF48078D1F86C
:107BB000F420497808EB0131561800F5807500244F
:107BC0000EE042466946304603F0EAFC424669460A
:107BD000284603F0EAFC06F5807605F58075641CFE
:107BE000BC42EED340B0BDE8F0810000684C0020FC
:107BF0002DE9F043C3B0894615494FF48078D1F898
:107C0000F420497808EB01315618070B3F03002494
:107C1000002201AB1146384600F042FF054685B10F
:107C2000424603A9284603F0BBFC424603A930465E
:107C300003F0BBFC05F5807706F58076641C0F2CFD
:107C4000E6D3C9F8007043B0E0B2BDE8F0830000AD
:107C5000684C0020124810B5016821F00041016015
:107C600010490A78497842EA8103011D0A6863F3E2
:107C70001F720A60016841F0004101600A48D0F8B3
:107C8000881241F00101C0F8881208491D2004F053
:107C900055FC4FF0E0214FF00050C1F8000110BD3D
:107CA00004A900402028002000E000408548200072
:107CB000F8B5EFF31086012080F3108806208DF8C8
:107CC00000006846FCF710FE0220F8F531FC322077
:107CD000F8F528FF184C206820F400302060251F9C
:107CE000286840F002002860144F7889F8F51AFFE0
:107CF000286820F002002860B889F8F513FF9DF885
:107D00000000F8F515FC0C483830016889020CD4E5
:107D100000682168C0F3044041F40031216021680B
:107D200021F4F83141EA003020601EB1012080F3D7
:107D30001088F8BD0020FAE708A90040D0280020EC
:107D40002DE9F043C5B0DFF8B890D9F8F850A5F5A3
:107D5000807500240027002619E041AB0122002194
:107D6000284600F09DFE044620000ED0BDF8041108
:107D700043AB0122D9F8F40000F092FE0746380028
:107D800009D0A74207D0012605E0A5F58075D9F8EE
:107D9000F400A842E1D3002E27D042994198CDE9C2
:107DA0000101204601264FF0000803AA01A902F0B4
:107DB0001DFB90B1761CF6B29DF80801B6EB101FC2
:107DC00002D94FF0010808E0BDF8041101AB3246BA
:107DD000284600F065FE0028E7D1B8F1000F07D073
:107DE0002246394643A800F05EF845B0BDE8F0836E
:107DF000214641A8D9F8F82000F055F8F5E7000031
:107E0000684C002010B50C46A17921F00301A17146
:107E1000801D0122A11D03F0C8FB04480168F83150
:107E200001602088BDE8104005F090BD644D002041
:107E30002DE9F04FBFB080468A469146FF22F821D7
:107E400001A8FCF731F900270824002089F8000078
:107E50004FF6FF7B08EB04052888584519D02846C3
:107E600002F0DFFAA8B1A8780830C6B228885045D9
:107E700004D13444012089F8000008E001A8294613
:107E800038443246FCF7F0F83444B819C7B2F82C3D
:107E9000E0D3F82201A908F10800FCF7E5F83FB0AB
:107EA0003846BDE8F08F2DE9FC4105460F461646E1
:107EB000287904090DE029886B462246384600F0EF
:107EC000EFFD20B1B04202D26946FFF79BFF641E6E
:107ED000E4B2002CEFD1BDE8FC812DE9FC410E4657
:107EE00017466FF30B00002512E000226B46114687
:107EF00000F0D6FD0446002C0CD0B4420AD26946EC
:107F00002046FFF77FFF04F58070B04202D26D1C5F
:107F1000BD42EAD3BDE8FC8130B4064B9C681B68C7
:107F2000234430338B4202D330BC0120704730BC35
:107F3000F9F5F2BF305F002030B4064B9C681B6837
:107F400023443033834202D330BC0120704730BC1D
:107F5000FAF59AB8305F002010B504460120616838
:107F600008700B4801686068401C02F011F96168F4
:107F70000020487161682822891D064801F060FBD5
:107F800022886068BDE81040362100F0E4B80000A7
:107F9000004C00200020200040680078012802D119
:107FA00002490148C862704742594244004C0020CF
:107FB00070B504460D46164630211648FCF77BF88E
:107FC0000CB115484460144932461C3112482FF652
:107FD00083FB08B10C2070BD0E4805600F4A0121DB
:107FE00000202EF611FD0E4A232108202EF60CFD4E
:107FF0000C4A25210A202EF607FD0B4A41211C20A0
:108000002EF602FD094A42211D202EF6FDFC00201D
:1080100070BD0000004C00202C2700203D8F200068
:10802000C9BD2000D1BC2000997F2000597F2000CD
:108030002FF636BC1CB505A07021CDE90010084B09
:1080400008A211A10320FDF72BFF1CBD44465520BB
:108050004F544120636F6D706C6574652E00000095
:10806000BFE220002E2E5C5372635C706C617466FC
:108070006F726D5C757365725F7065726970685F51
:1080800073657475702E63004E4F5F544147000056
:108090002FF612BC1CB505A06621CDE90010074BD8
:1080A00007A210A10320FDF7FBFE1CBD53746172F3
:1080B0007420444655204F54412E00008CE220008D
:1080C0002E2E5C5372635C706C6174666F726D5CB3
:1080D000757365725F7065726970685F73657475DA
:1080E000702E63004E4F5F54414700000EB506A14D
:1080F0006B22CDE900210290074B08A210A10320BA
:10810000FDF7CEFE0EBD0000444655204F544120E1
:108110002564252500000000A7E220002E2E5C53D8
:1081200072635C706C6174666F726D5C757365729E
:108130005F7065726970685F73657475702E630037
:108140004E4F5F544147000010B52FF615FCBDE8B7
:10815000104000F0FBBB2FF685BA0120FEF75CBA99
:108160002DE9F0410246FFF711FB11780127244C5D
:10817000002599B3012941D002293FD19088E168B7
:108180000844E06021781F4E71B105280CD93046B3
:1081900002F07AF838B13079717900EB01200830BB
:1081A0002061257000E0E560D4E9030188420BD12D
:1081B00051B181B213482FF6B3FC1248E168FBF7C6
:1081C0007AFF2770E5602561E068C0F500618AB23A
:1081D0003118BDE8F0410120FEF7CABBA08981B289
:1081E00008482FF69DFC2770E5602561BDE8F04149
:1081F0004FF4006203490120FEF7BABBBDE8F081ED
:1082000070270020244F00201CB5114800904FF427
:10821000006001900F48012202704FF4E1310164C7
:108220000323436400218164C164016542650374D2
:10823000042444610C244474027603710822826091
:108240000B22427101736A460349FEF719FB1CBDFC
:1082500024570020C84D00206181200080F828109C
:108260007047000000B500F007F80249012088615E
:1082700000BD00003C71002030B5084C012504F819
:10828000045B84E80F000648241F8068884201D2FE
:10829000081A00E0401A606130BD0000D47100206F
:1082A0000828002010B501F009FF044618210548F0
:1082B000FBF701FF034A002120461170BDE8104082
:1082C00000F018B9D4710020F0B40E460146224FD8
:1082D0002048BB680578C0E90821994201D9CC1A29
:1082E00000E05C1AFF68A7420AD28769A74201D959
:1082F000C0E90642012D09D0022D1FD0032D27D140
:1083000013463246F0BC0020FFF7ACBF41619942F2
:10831000016902D9491C816002E0491EC16081687F
:10832000C268914206D211444908016101210170DD
:10833000016909E002210170816805E0C369934287
:10834000DED00321017019463046F0BC00F006B8BB
:10835000F0BC70477C71002008280020054A936A11
:108360005B1C93628AB2C1B20348044B406801F0BF
:108370004FBE00007C71002008280020C982200028
:1083800070B50E4C05462C212046FBF794FE0020CC
:10839000A06040F2FF10FF22C4E903024FF0FF305B
:1083A000A061A06AE9B2401CA062012020700448CC
:1083B000044B4068BDE8704001F02ABE7C7100208B
:1083C00008280020C98220002DE9F843254C0746E3
:1083D000904620780D4601280BD0022813D00820A3
:1083E0001346E0610A4601B03946BDE8F043FFF7A5
:1083F00039BF40F2FF11C4E903712846BDE8F843D4
:10840000022200F061B8002600966846676100F01D
:108410002BF870B1012810D0022817D003281FD0E4
:10842000072043462A463946E061FFF71BFFBDE8B7
:10843000F8832846FFF7A4FFF9E70F2D04D20122A5
:108440003146681CA66006E00520EAE735B1012246
:108450000021681EA66000F037F8E8E70620E0E794
:108460000098DEE75C71002010B51649144A144CE0
:108470000B698968D26864698A4201D98C4219D82B
:108480008A4201D28C4211D38A4201D9521A00E0A9
:108490008A1A8C4201D9611A00E0091B9A4203D35F
:1084A000994201D3002010BD9A4201D2012010BD93
:1084B000994201D2022010BD03210160084610BD7F
:1084C0005C71002008280020074B30B49C69641CB4
:1084D0009C6158601A708AB2C1B20448044B40686B
:1084E00030BC01F095BD00005C7100200828002020
:1084F000C983200070B5074C054620212046FBF7B4
:10850000DAFD00212846A160BDE870400122FFF796
:10851000DBBF00005C710020F8B51D4C00250E4645
:108520000095E169491CE161C4E90162E168C4E9BF
:10853000030118498968814201D2401A00E0081AF3
:108540006169814201D9C4E90502684600F024F856
:1085500040B101280BD002280FD0032811D0009879
:10856000A06200E0A562204600F098F8F8BD012066
:1085700084F820003046A16906E0A1683046491C15
:1085800002E0A1683046491E00F04AF8F8BD00003C
:10859000A871002008280020F0B51F4A1F4DD3689D
:1085A000A9688B4201D95C1A00E0CC1AED68A5429B
:1085B00010D2576A012F0DD092F82040012C09D01B
:1085C000154CD6694FF0010CA569A468BE4203D3CF
:1085D000A54213D10020F0BD012E08D916698E42A4
:1085E00001D98B42F4D38E4201D28B42F0D88B4218
:1085F00008D9B4F5FF7F08D9092109E082F820C025
:108600000120F0BD1CB10320F0BD0220F0BD0A2105
:1086100001600420F0BD0000A8710020082800209F
:108620008AB2C1B20248034B406801F0F1BC0000BD
:10863000082800201985200070B50D46044616460E
:108640002C210948FBF737FD074B0020B2B283F815
:108650002000401E5C6258610448E9B2044B406847
:10866000BDE8704001F0D4BCA871002008280020AB
:108670001985200010B501F0B3FC00280AD0064887
:10868000007818B1BDE8104000F02EB8BDE81040E9
:10869000FFF708BE10BD0000D471002000B500F047
:1086A00007F802490120886100BD00003C710020EC
:1086B0000B4901220A71826A8A60C269CA60C26873
:1086C0000A6142684A6182688A61C26805488068B6
:1086D000824201D9101A00E0801AC8617047000078
:1086E000EC710020082800202DE9F04101F0E6FCA3
:1086F000804601F0F5FC07460A48094C20214669EE
:1087000025682046FBF7D7FC6D1C002025602071F2
:108710003A4641463046BDE8F041FFF78DBF0000C4
:10872000EC7100200828002010B50E4C2069401C78
:10873000206101F0FBFCE06001F0C0FC606001F032
:10874000CFFC094A0021A06011606161E3692BB18F
:1087500002462179E068BDE8104018470120A06179
:1087600010BD00003C71002000E5004070B50446DB
:108770000E4603F001FE32460B4920462EF6B0FEAF
:1087800003F0FCFD0020094C094B09E0251805F514
:1087900080559A6A95F8001411449962401C80B281
:1087A000B042F3D370BD0000004800200034002028
:1087B000002700202DE9F0470022DFF8AC80B8F850
:1087C0000800B8F80610884201D2012500E0002513
:1087D000264F4FF0010985B3002600244FF4805A3C
:1087E000B8F80810D8F8240000EB013051462EF6F6
:1087F000C1FD08B101260EE0B8F80800401C80B2A7
:10880000A8F80800B8F80610884201D3002502E055
:10881000641C142CE4DB022336B1012200F0A4F81E
:108820003B700520787003E0012287F800907B7090
:10883000B8F80800B870000AF8703DB901220020AD
:1088400088F8010087F8009003207870002A09D08A
:108850001E20F8F561F9BDE8F04723220421034802
:10886000FFF779BCBDE8F087002700200034002026
:108870002DE9F041314803F0C7FC82B24FF4806724
:1088800000262F4CDFF8BC80BA421FD33A4641463F
:108890002A4803F0D4FC85B203F06EFD2A46414617
:1088A000E0682EF6C3FE08B100F05EF803F066FD46
:1088B0002946E068FFF75AFF606928446061E06874
:1088C0002844E06028462EF6CDFF27E06069216944
:1088D0001044884222D14146184803F0B0FC85B2CA
:1088E0007DB103F049FD2A464146E0682EF69EFE22
:1088F00003F044FD2946E068FFF738FF606928442B
:10890000606128462EF6AEFF0120A0700E49087067
:10891000FF2201210C48FFF71EFC66702078A17829
:10892000884308D0054803F0D6FCB84203D95A2042
:1089300003F098FF2670BDE8F0810000304C002065
:10894000002700200048002000340020054840781F
:10895000012803D0022803D1FFF78ABFFFF72ABFFF
:10896000704700000027002002480021C17081707C
:10897000417070470027002070B5164890F8001429
:10898000154D28680122C0F30220401C824088183F
:10899000C0B280F31188114C0F4821680C30626816
:1089A000A36880E80E00232204F10C010C48FBF7B9
:1089B0005BFB216B4FF0E020C0F80011616BC0F849
:1089C0000411A06B286007484068C0B280F311888A
:1089D00070BD000002E000E00CED00E080720020BD
:1089E00000E400E0C8280020EFF311800D49486042
:1089F0004FF0E021D1F800210B480263D1F80411B7
:108A000041630A4909680A4A89B2114381630749E7
:108A10000C310EC9016042608360232205490C308D
:108A2000FBF722BBC8280020807200200CED00E07C
:108A30000000FA0500E400E070B5054605EB0134DE
:108A40002646A4F58074204601F028FC40B1264655
:108A5000A4F58074200501D1A4F58074AC42F2D84D
:108A6000304670BD7CB500260C48046804F580745F
:108A7000456808226946204602F092FD684601F0EA
:108A8000D0FC48B104F58074200501D104F5807450
:108A9000AC42EED330467CBD2646FBE75C4D002061
:108AA0002DE9F04704460E4617461D464FF00009D3
:108AB0000020286068601448D0F8F88020051DD197
:108AC00004F580741AE008222946204602F068FD69
:108AD00016B12888B0420BD127B1287900F00F00D9
:108AE000B84205D1284601F09CFC08B1A14607E038
:108AF00004F58074200501D104F580744445E2D367
:108B00004846BDE8F0870000684C0020F8B50546EF
:108B10000E4617461C4600953A466946304604F014
:108B20003BFF78B100202060606008222146009859
:108B300002F036FD204601F074FC08B10098F8BD43
:108B40000020F8BD23463A4631462846FFF7A8FFE5
:108B5000F8BD2DE9F04106460F46B079400719D51A
:108B6000304601F05EFCA8B108244FF6FF783519B5
:108B7000288840450ED0284601F053FC50B1288883
:108B8000B84202D1E0B2BDE8F081688808340444FC
:108B9000F82CECD30020F6E738B502F06DFE1D4C42
:108BA00000224FF48041204601F002FF0122D10350
:108BB000204601F0FDFE00224FF48031204601F0F6
:108BC000F7FE01225104204601F0F2FE0122910439
:108BD000204601F0EDFE0122D104204601F0E8FE1E
:108BE00000208DF80000A3208DF8010002208DF8F0
:108BF00002000098F9F58AF902F0DEFD012002F08A
:108C000016FA0548016821F000610160BDE83840AE
:108C100002F05CBE000001400CAA00400249496815
:108C2000002900D008477047E429002070B50446A9
:108C300000BFFBF7ADFF05460120FCF748F80948E7
:108C4000047024B912220849084802F065FA1DB9D7
:108C50000020FCF73CF802E00120FCF738F800BFE8
:108C600070BD000095270020E86F0020002000E084
:108C700010B5074840680749486006480830102288
:108C80000349083102F048FA03200249086010BD88
:108C9000A06F0020002000E000200349096800299F
:108CA00000D0084770470000E429002070B500BFDD
:108CB000FBF76EFF05460120FCF709F80B48047826
:108CC00034B912220A490B4802F026FAFFF7D0FF06
:108CD0000120064908701DB90020FBF7F8FF02E0EB
:108CE0000120FBF7F4FF00BF204670BD9527002050
:108CF000002000E0E86F00203EB50446002C2FD095
:108D0000A06818A16122CDE9002102901C4B1D4AE8
:108D10001DA10320FDF7C4F8E0681DA16222CDE982
:108D200000210290164B174A17A10320FDF7B8F84F
:108D300020681EA16322CDE900210290104B114A48
:108D400011A10320FDF7ACF860681FA16422CDE9F2
:108D5000002102900A4B0B4A0BA10320FDF7A0F85B
:108D60003EBD0000202020204C6F616420416464DF
:108D700072657373203D203078253038780000000C
:108D8000D8E2200010E520004E4F5F54414700001C
:108D90002020202052756E20416464726573732018
:108DA000203D203078253038780000002020202019
:108DB00042696E2053697A6520202020203D2030B2
:108DC0007825303878000000202020204368656333
:108DD0006B53756D20202020203D203078253038C1
:108DE0007800000070B514460D460026B0B10A2D7B
:108DF00014D20D4931F83510A1F57F42FF3A0DD05C
:108E000064B1FDF7E9FE58B101892180807AC0077D
:108E100002D041EA05202080304670BD012070BD9F
:108E2000FF202080092070BDBC7200202DE9F04792
:108E300088B004462D4ED6F8F80000F6FF70070BF8
:108E40003F034FF480594FF0010A07947178D6F828
:108E5000F40000EB0130494602F061FB07A920460F
:108E6000FEF7C6FE054628000AD02A462046079986
:108E700005F0C4F8200B00032A460799FFF72DF8E8
:108E80004FEA14384FEA08384946404602F047FB9B
:108E900001A801F095F9D6F8F400201A0AEB103079
:108EA0008DF814009DF8151008448DF8160001A8DF
:108EB00005F0DCF875B129464046FEF771FE00204A
:108EC00000907178D6F8F400012200EB0130694679
:108ED00002F06BFB04F58054BC42B6D370780021DD
:108EE00001F0B2F908B0BDE8F0870000684C00203E
:108EF00070B502F07CF9094D2120287004F0EEFCD9
:108F0000FFF7B0FD18B1FFF791FF044600E00A2417
:108F10002020287002F06AF9204670BD684C0020BD
:108F20004FF6FF720A2804D2034931F8300090420C
:108F300000D1104670470000BC7200201CB50446EA
:108F40000120616808706068401C00F031F86846D4
:108F500004F08AF96068009940F8091F019941609E
:108F6000616802204874228814216068FFF7F3F8D2
:108F70001CBD0000024600210BE0084850F83130CB
:108F8000501E834204D1054800EBC1004068704781
:108F9000491C1029F1DB0020F9E7000030700020A7
:108FA000002101E0491C4008C207FBD00846704779
:108FB00000214FF4007204E012F8013B4354491CB5
:108FC000C9B20829F8D3704770B5044600BFFBF753
:108FD000DFFD05460120FBF77AFE002014490870EA
:108FE00014481549086015481549086012221549AA
:108FF000154802F091F815481249486003200860AE
:109000001222134802F088F812220F490D4802F08C
:1090100083F8882C01D004F00BFB1DB90020FBF76E
:1090200056FE02E00120FBF752FE00BF70BD0000BB
:10903000952700202D8C2000E8290020AD8C2000F1
:10904000E4290020002000E0E86F00208076002066
:10905000A06F00202DE9FE430546002403208DF873
:10906000000000260C4F4FF00108E8070BD008FA6B
:1090700004F0019007EBC4004068029057F83410E8
:1090800009B168468847641CA4B26D08761C082E96
:10909000EBDBBDE8FE830000B82F002070B504466E
:1090A000204601F06FFA0121204601F083FA1348AF
:1090B0000168A14301608168A143816002212046CB
:1090C00001F0BEFA0121204601F0D4FA0121204628
:1090D00001F0E2FA0021204601F060FA01250AE0E1
:1090E00094FAA4F0B0FA80F105FA01F0611E0C4088
:1090F000002101F07FFA002CF2D170BD00A20040E7
:1091000000B58DB001680591416801F00302069237
:1091100082680792C26808920269099242690A92BB
:1091200080690B9008090C9009A80FC88DE80F0002
:1091300005A80FC801F092F90DB000BD2DE9F0416E
:10914000104DD5F80802C4B2D5F88400C0F340062B
:109150006FF00207002C0CD0D5F80802A043C5F828
:109160000802E043C5F80802C5F884702046FFF7FE
:1091700071FF002E03D0002C01D1C5F88470BDE82A
:10918000F081000000A000402DE9F04705462DEDDC
:10919000048B4FF47A773C46A86800280DD0DFF89E
:1091A00040814E48C8F8000001F0EAFAFCF736FCAE
:1091B0004FF0000900287AD104E00120BDEC048BB7
:1091C000BDE8F087A8680668B6FBF7F007FB1060FB
:1091D000FBF75AF99FED439B53EC192BFBF7D7F89C
:1091E00041EC180B3046FBF74FF953EC192BFBF70A
:1091F000CEF853EC182BFBF723F841EC180B28683A
:10920000FBF742F953EC182BFAF784FFFBF78AF9C6
:1092100033493C31086001F0C7FAFCF7FFFB002836
:1092200058D132496FF0200008606E68F6B3A86824
:109230000568B5FBF7F007FB1050FBF725F953EC79
:10924000192BFBF7A4F841EC180B2846FBF71CF987
:1092500053EC192BFBF79BF853EC182BFAF7F0FFA4
:1092600041EC180B3046FBF70FF953EC182BFAF7CB
:1092700051FFFBF757F9B0F5803F01D34FF6FF7070
:10928000174980B240310860154D2D1F286800F045
:10929000050000F1807008302860FCF7BFFB30B992
:1092A0002868134900F00500084301E00BE011E0D5
:1092B0002860FCF7B3FB68B91620FBF786FB0D4965
:1092C0004FF480000860641E601CFCD101F062FA5B
:1092D000FCF7A4FBC8F8009070E70000A2B4982B3C
:1092E00004A700400000000000408F4084A0004020
:1092F0000400000100E100E070B504462DED048B90
:1093000025480068C0F3000000283FD02068E0B383
:10931000A068D0B3204D2148343D2860A06806687D
:109320004FF47A70B6FBF0F100FB1160FBF7ACF87C
:109330009FED1B9B53EC192BFBF729F841EC180B05
:109340003046FBF7A1F853EC192BFBF720F853EC50
:10935000182BFAF775FF41EC180B2068FBF794F80F
:1093600053EC182BFAF7D6FEFBF7DCF80A49083164
:10937000086001F019FAFCF751FB0021032807D01F
:1093800029600020BDEC048B70BDFFE70120F9E7E8
:1093900029600320F6E7000038A70040A2B4982B0C
:1093A0000000000000408F40012181400248026817
:1093B0008A43026070470000682700200121814035
:1093C00002480268114301607047000068270020CE
:1093D0002DE9F047044600272F48D0F80090DFF829
:1093E000BC80D8F800A04846514600F0EFF8D8F805
:1093F0000460F7F5BFF82A484FF47A710068B0FBB3
:10940000F1F54D43D4E9000101F024FA61682268C6
:1094100001EB410000EBC10002EBC0030EE0D8F805
:109420000400801BA84209D9206C40F02000206471
:1094300003212046FEF712FF032725E0186CC0F336
:1094400040200028EBD0104601F0DEF90EE0D8F8FD
:109450000400801BA84209D9206C40F02000206441
:1094600003212046FEF7FAFE03270DE0D4E90001B0
:1094700001F0DBF90028EAD1D4E9000101F0DFF9BD
:1094800001212046FEF7EAFE5146484600F07EF8EC
:109490003846BDE8F0870000FCED00E0001000E079
:1094A0005C00002070B50446002594F828000128CF
:1094B0000DD094F8280002280FD094F82800042832
:1094C00062D0206C40F00400206401255CE0E16B78
:1094D000002959D02046884756E0D4E9000101F020
:1094E00093F9D4E9000101F0A0F90028F9D121791C
:1094F00022680831012000FA01F1C2F81013217925
:109500002268083100FA01F1C2F8181321792268A3
:10951000083100FA01F1C2F82013217922680831DC
:1095200000FA01F1C2F8281321792268083100FA03
:1095300001F1C2F830132279216800FA02F2C1F871
:1095400038232279216800FA02F2C1F840232279F7
:10955000216800FA02F2C1F848232179226800FA52
:1095600001F1C2F85013227921689040C1F85803E4
:10957000D4E9000101F04EF901212046FEF76EFE0C
:10958000E16B09B120468847284670BD10B5EFF35E
:109590001083012282F31088094C2268521E226037
:1095A000002A03D1074A1160074908601BB1012056
:1095B00080F3108810BD002080F3108810BD0000DB
:1095C00028240020001000E0FCED00E010B5EFF3CF
:1095D0001083012282F310880B4A1468641C146003
:1095E00040F08072094802600268D201FCD541F067
:1095F0000100074908601BB1012080F3108810BDED
:10960000002080F3108810BD28240020FCED00E02D
:10961000001000E00A4610B501460020F8F57CFC79
:1096200008B1002010BD012010BDF8F57BBC10B5BD
:109630001446F8F5E3FC08B1002010BD204610BD2B
:1096400070B504460D46164602F096FE324629468F
:109650002046FFF7ECFF044602F090FE204670BD66
:1096600010B502F08AFEFFF7E2FF02F088FE10BD9F
:1096700010B51446F8F508FD08B1002010BD2046CD
:1096800010BD2DE9F74F00244FF4807AC0B0174683
:109690008B461546524501D9564600E03E460BEB37
:1096A0000401884632466846FAF7DEFC40983246A6
:1096B000204481466946F8F5E7FCB8B94846324689
:1096C0006946F8F59BFC88B9404632466946FAF788
:1096D00004FD58B9AD1B0DD034445646B54200D8F0
:1096E0002E46BC4202D2A019B842D8D9002043B0BD
:1096F000BDE8F08F3846FAE770B505460C46686855
:10970000A043686001222146284601F015F96C62E9
:10971000AC6302222146284601F062F9012221466B
:10972000284601F075F901222146284601F07EF90C
:1097300000222146284601F0F3F801260BE094FAB6
:10974000A4F0B0FA80F006FA00F1601E0440002296
:10975000284601F00DF9002CF1D170BD2DE9FE4332
:1097600080460F463846FFF71BFC85B20024DFF821
:1097700034900D4E59F8340040450ED105EB0410DD
:1097800085B28DF80040019706EBC5004068029055
:1097900056F835200AB168469047641C032CE9DB73
:1097A000BDE8FE8380E12000482F002010B5816BCA
:1097B00089B28163002901D0FFF7D0FF10BD10B539
:1097C0008EB0044608680690087900F00300079000
:1097D00088680890C868099008690A9048690B90E1
:1097E00088690C90486800090D90142209A9684600
:1097F000FAF73AFC06A920460EC901F036F80EB079
:1098000010BD70B505460C4601222146284601F0E0
:1098100077F901222146284601F0A6F902222146C5
:10982000284601F0D7F901222146284601F0EEF939
:1098300001222146284601F0FBF900222146284654
:1098400001F084F901260BE094FAA4F0B0FA80F05C
:1098500006FA00F1601E04400022284601F096F945
:10986000002CF1D170BD01F013B9002809DB00F024
:109870001F02012191404009800000F1E020C0F862
:109880008012704700280DDB00F01F02012191407B
:109890004009800000F1E020C0F88011BFF34F8F35
:1098A000BFF36F8F7047002809DB00F01F02012112
:1098B00091404009800000F1E020C0F8001170479D
:1098C000012080F31088034901480860FEE700008A
:1098D0000001A1C58CE200402DE9F041EFF31187B2
:1098E0000220FBF7E6F80446FBF732F9401C0121A1
:1098F00081406018C0B280F311880020FCF786FC1C
:109900000546254ED5E90412C6E902122348081A75
:1099100072F11E0019D306F110000EE0DCE904120A
:10992000D6E90234B1EB030872EB040804D3C91A78
:1099300062EB0402CCE90412006AD0F820C0BCF14A
:10994000000FEBD10021B160F160A87801280AD1A5
:10995000D6E90230D5E9021259185041C5E9041080
:109960002846FCF717FCF8B280F31188FCF7C0FC1E
:10997000706840B1D0E90421D6E90203101A61EB06
:10998000030101F0FBF9E96909B1A8698847BDE85D
:10999000F041FCF777BC0000003200200010C32C1F
:1099A00010B503496FF001000860FFF795FF10BD87
:1099B00084A0004070B504460D46142002F0FAFC65
:1099C00002490D64024A14430C6070BD00A50040BA
:1099D000030000014FF40040704700000548816B10
:1099E000C1F38001002901D0806C70474FF0FF3037
:1099F0007047000000A500400248806BC0F30000E3
:109A00007047000000A5004010B5142002F0D2FC01
:109A10000348016821F0010141F08071016010BD2F
:109A200000A5004070B50446EFF31081012080F3DB
:109A300010882068426822F082024260002916D015
:109A4000012080F3108894F834000025012812D0FA
:109A5000658421680420C1F8880010220021204676
:109A600004F0ECF8204600F021F8002070BD002042
:109A700080F31088E7E7E06A48B10B49C163E06A08
:109A8000FFF710FD60B1E06AC16B884708E06584AC
:109A900010220021204604F0D1F8204600F006F8FC
:109AA00084F83450E1E7000011DA20001CB503F01F
:109AB000EFFF03218DF800100649002251F82030F5
:109AC00083F8FC2051F820000168002901D0684685
:109AD00088471CBDD026002070B5044694F8360097
